S015000063616D6572615F6172647563616D2E7333373A
S3150800000000100020ED140008997000089970000887
S31508000010997000089970000899700008997000088E
S31508000020997000089970000899700008997000087E
S31508000030997000089970000899700008997000086E
S31508000040997000089970000899700008997000085E
S31508000050997000089970000899700008997000084E
S31508000060997000089970000899700008997000083E
S31508000070997000089970000899700008997000082E
S31508000080997000089970000899700008997000081E
S31508000090890E0008A36F0008997000089970000877
S315080000A099700008997000089970000899700008FE
S315080000B099700008997000089970000899700008EE
S315080000C0997000089970000899700008F11D0008D9
S315080000D0997000089970000899700008411900087D
S315080000E0211900089970000899700008997000088D
S315080000F099700008997000089970000899700008AE
S31508000100997000089970000899700008997000089D
S31508000110997000089970000899700008997000088D
S31508000120997000089970000899700008997000087D
S31508000130997000089970000899700008997000086D
S31508000140997000089970000899700008997000085D
S31508000150997000089970000899700008997000084D
S315080001609970000899700008DF6F000899700008F8
S31508000170997000089970000899700008997000082D
S31508000180997000089970000899700008D1830008D2
S31508000190997000089970000899700008997000080D
S315080001A099700008997000089970000899700008FD
S309080001B0997000082C
S315080001C0013800D0FCE770470348044B834202D04D
S315080001D0034B03B118477047D8170020D8170020DB
S315080001E000000000064B0749C91A891048BF0131AB
S315080001F0491003D0044B0BB101481847704700BF9C
S31508000200D8170020D81700200000000010B5064CAB
S31508000210237843B9FFF7D8FF044B13B10448AFF36B
S3150800022000800123237010BDC016002000000000C6
S31508000230F093000808B5054B1BB105490548AFF30F
S315080002400080BDE80840FFF7CDBF00BF00000000F2
S3150800025000100020F0930008A3F5803A704700BF0D
S31508000260174B002B08BF134B9D46FFF7F5FF0021E0
S315080002708B460F461348144A121A07F091FA0E4B8A
S31508000280002B00D098470D4B002B00D09847002034
S31508000290002104000D000D48002802D00C48AFF3D9
S315080002A0008006F0BDFA2000290006F0E7FD06F0FA
S315080002B0E3F800BF0000080000000000000000008E
S315080002C00010002000100020F81600200000000092
S315080002D000000000F0B587B02A4806F039FA2A4827
S315080002E006F036FA00F01EFE40B3002427482346DF
S315080002F022462146009400F02FFEF8B1244806F065
S3150800030027FA244806F024FA234B03AE93E807009D
S3150800031086E807006022022011468DF80C0006F0D8
S31508000320B7FD4500284606F0B9F81C4F0146386067
S3150800033050B929461A4806F00BFA12E0194807B0D0
S31508000340BDE8F04006F004BA2A46304600F090F9B7
S31508000350014640B1144806F0FBF9386806F0A6F8DD
S315080003603C601248EBE700F0CFF8014608B11048A8
S31508000370E1E7104806F0ECF90F4806F0E9F90F48EE
S31508000380DDE700BF38840008588400087684000832
S315080003907C840008A384000838860008181000200A
S315080003A0E5840008BB84000813850008E485000876
S315080003B038850008608500089C850008BD8500080A
S315080003C030B585B00023CDE9023303A902A800F0B1
S315080003D0C1F80528014602D105F040FEF5E720B12F
S315080003E00E4806F0B5F905B030BD8DF807000DF1D9
S315080003F007010B48DDE9024506F0D5FD9DF80730F3
S315080004004BB104220749064800F000FE2A46214659
S31508000410034800F0FBFD00F0F5F8E4E7088600085D
S31508000420768400083386000873B5364C94F82C3069
S31508000430002B65D007F019FF94F82E200346BAB1B1
S3150800044094F82F20012A13D100238DF8073007F0DE
S3150800045007FF0DF10701412000F062FA07F005FFDA
S315080004609DF807200346120744BF022284F82F206E
S3150800047094F82E202AB9184607F0F2FE022002B098
S3150800048070BD94F82F20022A30D1A169626A914280
S315080004902CD203221026256984F82F20226A1544B7
S315080004A094F82F20042A0DD12269A16A0A44E1682A
S315080004B08A4228BFA2682261A2690132A26100228B
S315080004C084F82F2094F82F209AB90122184684F828
S315080004D02F2007F0C5FE2321042000F0EBF91DB1FB
S315080004E02846E16900F032FB0020C8E700252E46C1
S315080004F0D6E7184607F0B4FE002EF0D01021EBE739
S315080005001120BCE71C10002010B5114C94F82C30B3
S31508000510DBB107F0AAFE94F82E2002F0FF031AB109
S3150800052007F09EFE002010BDA268A361C4E904225C
S31508000530012284F82D3084F82E2084F82F3007F015
S315080005408FFEBDE81040FFF76FBF1120EBE700BF35
S315080005501C1000202DE9F84307460E46FFF764FFF6
S31508000560044610BB264D95F82D30002B46D107F0D2
S315080005707CFEAB69E3B1012385F82D306B693B60DE
S315080005800EB12B68336007F06BFE3B686BB12A79B6
S31508000590022A0AD1E86996261D464D274FF01D0CFA
S315080005A020F001001844834208D12046BDE8F883AC
S315080005B03B600EB90524E6E73360FBE71A4632F8D6
S315080005C0023B4FEAD32E4FEACE0EC3F3451803F08B
S315080005D01F09C3F382014EEA533EC3F3412343EA9C
S315080005E0880313FB06F317FB0E3341EAC9011CFB0C
S315080005F001310912134605F8011BD4E70224D4E792
S315080006001C10002010B5134C94F82C30F3B194F854
S315080006102D30EBB107F029FEA3699BB1002384F8BE
S315080006202D30A369A16A013BA36163690B44E168A4
S315080006308B4228BFA368636107F012FEFFF7F4FE3A
S31508000640002010BD07F00CFE1B20FAE71120F8E782
S315080006500220F6E71C100020032888BF002002FBB2
S3150800066001F19CBF014B185C48437047448600085B
S315080006702DE9F8431A4C064694F82C300F46914655
S3150800068053BB90F8008084F80480D0E901524046B4
S315080006902946FFF7E1FF29462060404606F0F8FBA9
S315080006A0B9FBF0F34845A062636217D85543A760C3
S315080006B000FB0377B8F1010F4FEA450504BF401B5D
S315080006C020623046E760E56100F060F910B9012361
S315080006D084F82C30BDE8F8831220FBE72120F9E7DF
S315080006E01C10002010B501464FF0B64004F094F8EF
S315080006F0084C012808D1013C01D14B2010BD4FF010
S31508000700B64003F067FFF4E7002814BF4B2000202B
S31508000710F4E700BFE193040010B543F6FF73C34046
S31508000720DB07044604D440F28541044806F0C2FCBF
S315080007300123034AA340C2F8A03010BD488600082A
S3150800074000D0035070B592B0324D5AB9D5E90F3280
S31508000750B3F5006F02F5006294BFDB1AA3F50063D8
S315080007602A64EB63EE6B66B90A20FFF7D5FF04230C
S3150800077085F82F3085F83060FFF756FE002012B056
S3150800078070BD00244FF480232146102206A8029348
S31508000790CDE90344059407F003F8B6F5006F28BFC2
S315080007A04FF40066013EB6B232011B4B42F044726A
S315080007B013400693194B214607932B6C1022089376
S315080007C001238DF82430164B0EA80A93CDE90B4465
S315080007D00D9406F0E5FF4FF0000366F30E13ADF82F
S315080007E03830104B00940F930F4B06AA1093012331
S315080007F08DF84430332302A98DF83B30686B0B4BD8
S3150800080001F090FA00942346A86B0EAA0AA901F0F3
S3150800081089FAB3E71C100020F07F100324000A5061
S3150800082002000400C11600203C000A5045070008D3
S3150800083010B543F6FF73C340DB07044604D440F201
S315080008405641044806F036FC0123034AA340C2F881
S31508000850A03010BD4886000800E003507FB5084B5D
S315080008608DF800000193022301A88DF80110CDF838
S3150800087008D0ADF80C30FFF735FF07B05DF804FB7C
S315080008806000010000B589B0094B8DF80700039395
S315080008900DF107030493012303A8ADF8143006915C
S315080008A0ADF81C30FFF71EFF09B05DF804FB00BF6A
S315080008B0600004002DE9F0410125154E154A736BB9
S315080008C0804605FA03F3536596F830200F4602F082
S315080008D0FF0422B10220104A5365BDE8F0810A20C0
S315080008E086F83050FFF7A4FF48F080010B4806F061
S315080008F0EBFC3946094806F0E7FC0A20FFF70CFF2F
S31508000900736B86F830409D40034B20465D65E4E7EF
S315080009101C100020002004500010045000000A504B
S315080009202DE9F0410125154E154A736B804605FAE7
S3150800093003F3536596F830200F4602F0FF0422B100
S315080009400220104A5365BDE8F0810A2086F8305027
S31508000950FFF76EFF41460C4806F0B6FCFF210A4831
S3150800096006F0B2FC38700A20FFF7D6FE736B86F8DD
S3150800097030409D40034B20465D65E4E71C1000208F
S31508000980002004500010045000000A5070B58CB0C6
S31508000990012106463A2002F00DF80121292002F02D
S315080009A009F8002304220B21022003F0DFFC0123AF
S315080009B004220A21022003F0D9FC012304220D2176
S315080009C0022003F0D3FC0123574D1A460C210220BE
S315080009D005AC03F0CBFC0FCD0FC495E80700002546
S315080009E084E807000124514805A98DF829408DF8A7
S315080009F022408DF8145004F08FF91C224C4B052127
S31508000A00C3F820284B4A4948C3F83828A2F580324B
S31508000A10C3F83028A2F58032C3F8342804F016F952
S31508000A2001F04CF92946444801F0D0F8014618B1BE
S31508000A301A2420460CB070BD404801F0C7F80028BB
S31508000A40F6D121462E2001F0B5FF23460A220421BD
S31508000A50022003F08BFC23460A220521022003F01C
S31508000A6085FC09250420FFF7E3FE642005F048FB12
S31508000A700520FFF751FE642005F042FB013DF1D148
S31508000A8003222B4B01ACC3F828252D4AC3F82C2585
S31508000A9002F58032C3F830252A4B0FCB84E80F00C5
S31508000AA021464FF0B64003F05BFD304600F000F9F2
S31508000AB004460028BDD10DF1030140208DF80350EE
S31508000AC0FFF72EFF9DF803300025732B1CBF01226C
S31508000AD01D4B4FF0BA01284618BF83F831208DF810
S31508000AE00350FFF7E7FE28460DF10301FFF718FF4D
S31508000AF09DF80330BA2B01D04B249AE73121042004
S31508000B00FFF7D8FE1021032006F0FFF90121084659
S31508000B10FFF7D0FE01200DF10301FFF701FF9DF855
S31508000B200330012B85D0E7E79C86000800000A50B1
S31508000B3000C0035002000D00501000205410002081
S31508000B4002000400B88600081C100020F8B501222F
S31508000B50134C0E46636B134902FA03F34B6594F87C
S31508000B603030054603F0FF07C3B90A2084F8302061
S31508000B70FFF75EFE3C210C4806F0A6FB94F83130E0
S31508000B801BB13946084806F09FFB0021012208469A
S31508000B90C4E90F65FFF7D6FD0020F8BD0220FCE783
S31508000BA01C1000200020045000000A5010B502282E
S31508000BB00FDD03280FD1094C00222046114606F006
S31508000BC078F948B100222046BDE81040114606F0E3
S31508000BD070B9034CF0E7212010BD00BFCA87000892
S31508000BE0BC87000870B514460D46002958D0002A5F
S31508000BF056D041EA02039B0752D1092850D8DFE8AC
S31508000C0000F0051F1F1F1F1D1D1B1B1BB2F5907F24
S31508000C1016D9244E244BB2F5167F98BF1E460022DD
S31508000C203046114606F045F960B100223046BDE867
S31508000C307040114606F03DB91A4EF0E71A4EEEE737
S31508000C401A4EECE7C5F3870631465A20FFF706FE2B
S31508000C5028B131465A20BDE87040FFF7FFBDC4F3FE
S31508000C60870631465B20FFF7F9FD10B131465B2058
S31508000C70F1E7240AC5F3812504F004042C43214630
S31508000C805C20FFF7EBFD054610B121465C20E2E744
S31508000C900146E020FFF7E2FD18B12946E020DAE731
S31508000CA0212070BDC88600081A8700086C870008CE
S31508000CB037B501210446FF20FFF7D0FD30B10121E9
S31508000CC0FF20FFF7CBFDD0B103B030BD01A91C2032
S31508000CD0FFF7D8FD0DF105011D20FFF7D3FD0DF136
S31508000CE006010A20FFF7CEFD0B200DF10701FFF7DD
S31508000CF0C9FD9DF80630262B01D00F20E4E7012117
S31508000D00FF20FFF7ABFD10B10121FF2007E080218E
S31508000D101220FFF7A3FD054630B18021122003B04B
S31508000D20BDE83040FFF79ABD642005F097F92A46DA
S31508000D3029461A4806F0BDF838B12A462946174802
S31508000D4003B0BDE8304006F0B4B82078FFF72EFFB0
S31508000D5028B1207803B0BDE83040FFF727BF607898
S31508000D60D4E90112FFF73EFF38B1D4E901126078E1
S31508000D7003B0BDE83040FFF735BF0121FF20FFF77C
S31508000D806DFD04460028BFD101461520FFF766FD14
S31508000D90002899D021461520C1E700BFDE87000844
S31508000DA008B5044807F075FABDE80840024800F09F
S31508000DB0D7BD00BF90900008F8160020064B1B68A8
S31508000DC01A7A022A04D812B11B68044A13607047BB
S31508000DD0032AF9D0704700BF0C17002060100020C6
S31508000DE070B5A2B01E4D0BAC0FCD0FC495E80F0021
S31508000DF084E80F0000244FF47023CDE902440494DC
S31508000E00019313AD01AE0FCE0FC5164B06AE2B6080
S31508000E10154B18ADCDE90744099406930FCE0FC5B7
S31508000E202022124B12482B60124B13A91D93124B0A
S31508000E302094CDE91E23114B0BAA2193104B04F0E5
S31508000E40F7FA044618B1AE210E4806F033F9002128
S31508000E504FF4E13006F012F9204622B070BD00BF0B
S31508000E60908900083C00015B01000F004400015B0B
S31508000E7018110020C21600200001010020170020CA
S31508000E80641000205C890008014804F0F7BB00BF25
S31508000E9018110020024B0349186800F0E3BF00BF91
S31508000EA05417002034170020F8B50F4E0546736A0C
S31508000EB00F4643B10146586806F07DFC18B9746AB6
S31508000EC001203C60F8BD346A0CB92046FAE761682F
S31508000ED0A94201D17462F3E7284606F06CFC0028A3
S31508000EE0F8D02468F0E700BFB811002008B50C4B0D
S31508000EF001469A698AB19A695F2A0ED800209A69CA
S31508000F0098611A4482F8300003F13000FFF7CCFFED
S31508000F1000280CBF0320002008BD0620FCE700BF00
S31508000F20B811002038B50A4C0A4D2368AB420CD0DC
S31508000F30224604F10C0104F1080000F0E7F9002349
S31508000F40E36204F13003E3612560012038BD00BF88
S31508000F50B8110020A27BF3F32DE9F74F0746884620
S31508000F6092469946FFF7DEFF384601A9FFF79CFF30
S31508000F70054618B1002003B0BDE8F08F384606F0E4
S31508000F8039FC00F50050393005F088FA0446002887
S31508000F90F0D0DFF874B000F13803DBF82C6000F10C
S31508000FA01C0200F5005038306362656303F5005390
S31508000FB016F001056060A36222D00121202D09D018
S31508000FC001FA05F3334205F1010C1BD1EDB21E43BC
S31508000FD0CBF82C6000210C9BE1616361A176C4E922
S31508000FE003A93946256284F81980A260257606F099
S31508000FF0ECFBDBF8203001202360CBF82040BAE771
S315080010000123E4E76546D9E7B81100202DE9F04F3A
S3150800101085B00E4602A91546FFF746FF074620B9D2
S315080010200027384605B0BDE8F08FDDF8088098F847
S315080010301930002BF4D1DFF8A0A0002DF1D098F8D4
S315080010401A30002BECD0002005F0BAFFD8F808407B
S31508001050A3690393039BC3F50053AB4228BF2B46F2
S315080010609B46ED1A002B32D06169E2686069521A14
S315080010709A4228BF1A463146A3EB0209019206F0A6
S31508001080ACFB6069019AB118024462616069E26862
S31508001090904224BFA2686261B9F1000F08D04A469F
S315080010A0606906F09AFB626906EB0B014A446261C5
S315080010B001200E46A2690BEB0203A36198F81830CB
S315080010C0DAF8282000FA03F31343CAF82830012077
S315080010D005F076FFB1E700BFB8110020F0B585B07E
S315080010E0844D854B6A689A4203D102236B6005B02A
S315080010F0F0BD6C68032CFAD104232F696B607B1E44
S31508001100052B00F2F280DFE813F0060006004F0018
S315080011106C007700B40001A8FFF7E8FE0023044638
S31508001120AB61002839D1019E737E012B03D1012FB3
S3150800113004D1042431E00BB9012F31D1B37E002B41
S3150800114030D10127B368B7769A6802A91A615A613D
S315080011506A4A6B481A60327ECDE90223042206F0F9
S315080011603CFB0422674803A906F037FB0823AB615A
S31508001170337EAA6A07FA03F31343AB6233691BB1DA
S315080011803946726970689847737E33B9F36823B134
S315080011904FF4005172697068984705236C61A5E79A
S315080011A00524FAE70824F8E703A8FFF79FFE044694
S315080011B00028F2D1039EB37E002B00F09480336999
S315080011C01BB101467269706898470122317EAB6A85
S315080011D08A4023EA0203AB620023B268B37613603F
S315080011E0DBE74949042201F1080006F0F6FA002473
S315080011F00423AB61AC62D0E70422414903A806F098
S31508001200ECFA04223F4902A806F0E7FA9DF80C20FA
S315080012102B6A002BC1D0197E914203D15A7E1AB18E
S315080012203C46BAE71B68F4E79A7E002A5BD09A68C0
S31508001230029811699769D4688742A4EB010616D308
S31508001240864297BF966811698919091894BF091BC0
S31508001250091811619169DC68091A91612CB19169C3
S315080012605A69C1F500515868A047002495E7062435
S3150800127093E700230422224903A8AB6106F0ADFADE
S315080012800422204902A806F0A8FA9DF80C202B6A29
S31508001290002B82D0197E914223D15A7E012A7FF4EF
S315080012A048AF9A7EFAB19A68029851699469D668E5
S315080012B00444B4F5005FA6EB010CB1D8844597BF8A
S315080012C094685169091909188CBF0918891B516155
S315080012D09169DC6808449061002CC6D091695A6906
S315080012E0C1E71B68D4E7092457E700230224AB614A
S315080012F053E700BFB81100205D840C0C327BD3E3A2
S31508001300E8110020EC110020E011002070B5064617
S315080013104A200D46144604F021F84A2003F0ECFF53
S31508001320034B33604A232B60024BC3F8FC4F70BD56
S3150800133000EF00E000F0032008B5044806F0A9FF16
S3150800134005F002FEBDE8084000F008B890900008D5
S31508001350014806F09EBF00BF909000082DE9F047AF
S3150800136096B0544E09AC35460FCD0FC42B6806F11E
S31508001370140523600EAC0FCD0FC495E80F00DFF8F7
S315080013804C8184E80F004C4806F083FF404606F07F
S3150800139080FF4FF48073494FADF83C30484B3846D0
S315080013A00B9309A90EAB0D9302F062FE04214FF4CC
S315080013B0E065B6F834A00DEB01000122ADF804A0F3
S315080013C000F008FAB6F836900022012102A8ADF816
S315080013D0089000F0FFF9368F0122042103A8ADF822
S315080013E00C6000F0F7F90122042104A8354CADF889
S315080013F0105000F0EFF9344B4FF44870C4F8C83475
S315080014004FF00213C4F8C43403F58033C4F8CC345F
S315080014101C23C4F8B43404F073FE08A8ADF82050B1
S3150800142000F04CFA142004F06BFE08A8ADF8205022
S3150800143000F014FA232004F063FE08A8ADF8205043
S3150800144000F03CFAB921384605F025FF08A8ADF8A2
S31508001450205000F003FA002205A81146ADF814A0A2
S3150800146000F0B8F9002206A81146ADF8189000F069
S31508001470B1F90122002107A8ADF81C6000F0AAF90D
S315080014800122002108A8ADF8205000F0A3F938463B
S3150800149002F0AEFA00234046C4F8B434C4F8C8349F
S315080014A0C4F8C434C4F8CC3406F0F6FE16B0BDE869
S315080014B0F08700BFB08900089090000800C0085067
S315080014C0E070720000C00350020001009C90000802
S315080014D00348044A0449121A921005F0DEBD00BFFB
S315080014E0B4010008B4010008F816002008B5154B29
S315080014F083F30A8800F030F8FFF7EAFF124B134926
S315080015008B4212D30020124B12498B4218D3FEF796
S31508001510A7FE186850F82240586840F82240013261
S3150800152098688242F5D30C33EAE70022F8E71C688C
S3150800153044F8220001325C68A242F8D30833E4E793
S315080015400022F8E700000020F89300080494000839
S31508001550049400080494000870B54FF48041144BB5
S31508001560144A154D9A60D3F8882005F5005442F4BC
S315080015707002C3F88820114A91664FF0FF3222663E
S315080015806FF4003262660D22A2660222C3F8D020EA
S31508001590BFF34F8FBFF36F8F4FF44036002003F031
S315080015A0DDFE0020E66003F0A7FE2E6170BD00BFD9
S315080015B000ED00E0000000080080004400900050A4
S315080015C0014B1860704700BF5C170020054B186078
S315080015D0054B1B6F03F00703032B01D106F080BAF6
S315080015E0704700BF641700200080005038B50446D5
S315080015F00D4601B118B94521044805F05BFD23687D
S3150800160013B92B60256038BD1C46F8E7EA8900083F
S3150800161010B5044618B95621044805F04BFD206854
S3150800162018B1036823600023036010BDEA89000827
S3150800163007B500232948019306F02BFE4FF44073A3
S31508001640012204216846ADF8003000F0C3F80122F3
S31508001650234B0520C3F8442401A906F015FE0028EB
S3150800166039D1204BD3F8F02042F00102C3F8F0201C
S31508001670D3F8FC2042F08072C3F8FC201A4AA3F57E
S315080016805D431A60019B194A03F5D52303F2FC430F
S31508001690B3FBF2F3164A013B13610223C2F8F0309A
S315080016A04FF48073C2F804334FF06043114AC3F80D
S315080016B0B02F114AC3F8802ED3F8002E42F4807258
S315080016C0C3F8002EFF2283F82020D3F8002E22F438
S315080016D08072C3F8002E03B05DF804FB90900008F2
S315080016E000D0035000ED00E0FF030040F8590D005C
S315080016F0000004E055CEACC50900010030B54FF036
S315080017006043D3F8802ED20715D501240B4D8440AB
S31508001710D5F8FC2042F08072C5F8FC20D3F8002EDC
S315080017202243C3F8002E53F82020002AF0D003F8ED
S315080017302010002030BD1120FCE700BF00ED00E0BE
S315080017402DE9F0410C2504464FF00108124E0CB362
S3150800175014F001000BD0002024F0010405FB006200
S315080017605768002FF3D09168C0B2B847EFE7224612
S31508001770013020284FEA520201D0D307F8D508FADB
S3150800178000F20F2824EA0204E8D9103805FB0062A3
S31508001790B432E5E7BDE8F0814812002008B50C48E8
S315080017A006F077FD272003F0C1FD28B1272003F0B6
S315080017B0D5FD272003F0A0FD282003F0B7FD28B1AA
S315080017C0282003F0CBFD282003F096FD002008BD55
S315080017D0909000082DE9F0410E469046044638B927
S315080017E093211C4805F066FC22252846BDE8F081B1
S315080017F00F290DD803782BB1012B0FD0022B10D04F
S31508001800032B05D140F2FF736278D340DB070BD474
S315080018109721104805F04EFC2125E6E740F2FF1314
S31508001820F2E743F6FF73EFE70B4BD3F810532DB1EE
S315080018309B21084805F03EFC0225D6E706F01EFD6A
S31508001840074642462046314603F0F6FA384606F081
S3150800185010FDCAE73D8A000800C0035038B50446A3
S3150800186028B91548E42105F025FC222038BD03785F
S315080018702BB1012B0FD0022B10D0032B05D140F230
S31508001880FF736278D340DB070BD40B48E82105F0D9
S3150800189011FC2120EAE740F2FF13F2E743F6FF7353
S315080018A0EFE706F0EBFC0546204606F0EFF928467A
S315080018B006F0DFFC0020D9E73D8A000838B5044663
S315080018C028B91648FC2105F0F5FB222038BD037817
S315080018D02BB1012B10D0022B11D0032B05D140F2CE
S315080018E0FF736278D340DB070CD40C484FF4807141
S315080018F005F0E0FB2120E9E740F2FF13F1E743F6A4
S31508001900FF73EEE706F0BAFC0546204603F05CFADC
S31508001910284606F0AEFC0020D8E700BF3D8A00083E
S3150800192008B503F07FFA054B00F0553020F0A040CB
S31508001930C3F82004BDE80840FFF702BF00E00350E3
S3150800194008B503F06FFA054B00F0AA3020F02040E6
S31508001950C3F82004BDE80840FFF7F2BE00E00350D4
S3150800196070B586B0044618B9AC21334805F0A2FB19
S315080019702368B3F1B64F46D1304806F08AFC0025F5
S31508001980A3880122ADF80030E3880A216846ADF83D
S315080019900430FFF71FFF01220A2101A8FFF71AFFEB
S315080019A00A266846FFF78AFF642004F0A9FB684602
S315080019B0FFF754FF642004F0A3FB013EF1D1032393
S315080019C01F4A02EB0511C1F828356079237953358A
S315080019D043EA0043C1F82C35E179A3792D0143EA9E
S315080019E00143535140F20113ADF80830E36820680B
S315080019F00493A36802A90393237C8DF8143002F09C
S31508001A00AFFD06B070BD0F4A93420FD002F5804273
S31508001A10934206D0D121084806B0BDE8704005F0CB
S31508001A2049BB094806F035FC0225A9E7074806F030
S31508001A3030FC0125A4E700BF948A00088C900008B2
S31508001A4000C0035000000B508490000888900008DE
S31508001A502DE9F04F85B09A46554B06461B780F463A
S31508001A601546DDF83C909DF844B0DDF85080002B13
S31508001A7000F09780072A00F296800E9B002B00F054
S31508001A809280B9F1000F00F08E80129BB3F5006FBB
S31508001A9000F38980012803D1109B002B00F0838076
S31508001AA0444B03EB05131B7B002B7ED0424C1022C4
S31508001AB00021684605F074FE04EB45141022A7BB06
S31508001AC03946204605F06CFE43F210036380BBF1ED
S31508001AD0000F03D1E37843F00303E370364A0E9B05
S31508001AE002EB451CCCE90193129B6901581E9DF82F
S31508001AF04C30C0F30A0003F003039B0643EA001EBA
S31508001B0053582E48012E00EA03004EEA0003CDF88A
S31508001B1000A0535017D0B8F1000F2ED19CF8023010
S31508001B2068F304138CF8023027E00021204605F0FC
S31508001B3037FE4FF444736380BBF1000FCED1E378D0
S31508001B4043F03003C9E713230CF1100ECCF80C3020
S31508001B509CE80F008EE80F006FF00301DCF81C20EC
S31508001B60109B61F39F02012FCCF81C20CCF814308F
S31508001B7003D1CCF81890CCF8043000270D4A290177
S31508001B8002EB051342F80180159A28465A60694601
S31508001B9022469F605E7302F037FF384605B0BDE8FF
S31508001BA0F08F0748FAE70748F8E70748F6E700BF5F
S31508001BB0E2160020B0140020B01300200F80FFF3B7
S31508001BC0028000F0018000F0078000F038B5124B63
S31508001BD005461B78DBB1E0B106F050FB0F4A00233F
S31508001BE01146147B54B92B6001251A0101EB031326
S31508001BF01D738C5006F03DFB204638BD0133082B7B
S31508001C0002F11002EDD106F034FB0548F5E7054868
S31508001C10F3E70548F1E700BFE2160020B0140020FC
S31508001C20048000F0028000F0018000F038B506F06C
S31508001C3025FB002305460B4A147B6CB90133082B98
S31508001C4002F11002F8D102F061FE074B28461C701B
S31508001C5006F00FFB204603E0284606F00AFB034879
S31508001C6038BD00BFB0140020E2160020058000F041
S31508001C7010B50D4B04461B7893B1072812D806F009
S31508001C80FDFA0A4B03EB04131A7B2AB100241C73D2
S31508001C9006F0EFFA204610BD06F0EBFA0448FAE71C
S31508001CA00448F8E70448F6E7E2160020B0140020D6
S31508001CB0068000F0028000F0018000F013B5154B95
S31508001CC01868002301908DF8043006F0D7FA124BF5
S31508001CD01C7824B106F0CDFA104802B010BD0122D6
S31508001CE01A7006F0C6FA0E4B01A81C731C7783F807
S31508001CF02C4083F83C4083F84C4083F85C4083F8DA
S31508001D006C4083F87C4008238DF8073002F034FED7
S31508001D102046E2E7EF8A0008E2160020038000F07A
S31508001D20B0140020F8B50D4D2D7885B1072810DCC4
S31508001D300B4D060105EB0014277B67B1AB51002557
S31508001D40069BA560636002F05FFE2846F8BD05485D
S31508001D50FCE70548FAE70548F8E700BFE216002061
S31508001D60B0140020028000F0018000F0078000F027
S31508001D7008B50A4A12785AB107280BD8084A02EB5E
S31508001D8000131B7B43B1002102F0D6FD002008BDDD
S31508001D900448FCE70448FAE70448F8E7E216002096
S31508001DA0B0140020028000F0018000F0078000F0E7
S31508001DB008B50A4A12785AB107280BD8084A02EB1E
S31508001DC000131B7B43B1012102F0B6FD002008BDBC
S31508001DD00448FCE70448FAE70448F8E7E216002056
S31508001DE0B0140020028000F0018000F0078000F0A7
S31508001DF02DE9F041174B1F6D5B6D1F4000D5FEE7BF
S31508001E0001260025144CDFF85880374218D023687D
S31508001E10C8F85060A3B1A168284601316268A1607C
S31508001E209847637B012B0BD150B90C4B03EB451339
S31508001E301A7B60F341021A731A7F60F341021A771C
S31508001E400135082D4FEA460604F11004DDD1BDE838
S31508001E50F08100BF00000450B0140020B013002029
S31508001E6000200450F0B58FB08A4A0B6805469342A5
S31508001E700C4606AF0BD0884A934208D002F580423A
S31508001E80934204D002F58042934240F0DB80BC4680
S31508001E90824E05970FCEACE80F0096E80F00103675
S31508001EA08CE80F000FCE0DF1040CACE80F00002DE6
S31508001EB000F0BD81002684220021284605F070FC2A
S31508001EC02368744AAE65934210D0734A934200F071
S31508001ED09F8002F58042934200F0A08002F580427E
S31508001EE0934200F0A1806E480FB0F0BD4FF4702207
S31508001EF06C486D492B600123A44685F85C302F1D7C
S31508001F00C5E90B122865BCE80F000FC79CE80F004F
S31508001F1087E80F00637E012B08BF8DF81D30A37E6E
S31508001F203BB1012B00F08680022B02D0032BDAD1BD
S31508001F300623227E8DF81230012AE3687CD15B4A9B
S31508001F4093428CBF04230523059A537700238DF803
S31508001F501130574B5748039306F09BF92B6D986839
S31508001F6006F097F92369DA1F092ABCD8063B8DF8CB
S31508001F701030237E2BB9E37EB3FA83F35B098DF821
S31508001F801C300121284605F0CAF80028ACD1237A6E
S31508001F902279760142EA034206F1A04303F570333B
S31508001FA0C3F8AC24617A627942EA0142C3F8A424F0
S31508001FB0A17AA27942EA0142C3F8A824E27E002A5D
S31508001FC03ED1E17AE27942EA0142C3F898241D2219
S31508001FD02068C3F8942401A902F04AF806F04EF9DD
S31508001FE0354B1A78002A40F0178101221A7006F03C
S31508001FF040F903F0F9FFFFF761FE002105F124001F
S31508002000FFF7E4FD0146002800F009812B486BE73D
S315080020104FF4801201262A482A496BE74FF4981292
S3150800202002262948294965E74FF4A01203262848BD
S3150800203028495FE704237CE700228DF8342089E7E6
S315080020401C22C5E73E46DFF89CC0BCE80F000FC659
S315080020509CE8070086E80700002D00F0E8800026C7
S3150800206084220021284605F09BFB23681A4AAE65A0
S31508002070934239D002F58042934200F0B58002F5CA
S31508002080804293427FF42FAF4FF4B01202261348D2
S3150800209013492DE00000015B00C00850F48A0008CF
S315080020A0022000F0F890000801000F003F4B4C009A
S315080020B040420F0090900008E3160020092000F027
S315080020C0EC90000801001000E090000801001300E1
S315080020D0D49000080100140000000A50A4900008DB
S315080020E004001600288B00084FF4802251485249F4
S315080020F02B600023A64685F85C3005F1040CC5E97B
S315080021000B122865BEE80F00ACE80F009EE80F002A
S315080021108CE80F00637E012B08BF8DF82630A37E5E
S3150800212043B1012B66D0022B67D0032B7FF4DBAEBD
S315080021304FF44073ADF82830237E4048012B03BF87
S3150800214000238DF825304FF4E133E368089306F051
S31508002150A0F82B6D986806F09CF823691A1F0C2ABC
S315080021603FF6C1AE033B394620688DF8243002F0AD
S31508002170D3FDA36923F47F0323F47F432BB94FF4DC
S3150800218080322B6803F580539A60237A2779607921
S3150800219047EA0347637AA17940EA034094F81BC0EB
S315080021A0A37A274A41EA03417301BCF1000F27D1FC
S315080021B01A44C2F83878C2F83008C2F83418E17AF6
S315080021C0E27903F1A04342EA014203F57033C3F80A
S315080021D024281D22C3F820280121284604F09FFF41
S315080021E000287FF481AEF9E64FF4A81201261548B7
S315080021F015497DE74FF400739CE74FF4807399E720
S315080022001344C3F83878C3F83008C3F834181C23C5
S31508002210413676019351DFE706F02BF8EBE605F138
S315080022202800FFF7D3FC00283FF45EAEEEE6074829
S315080022305AE600BFBC90000802000400909000080F
S3150800224000C00350B090000802001500012000F0FD
S31508002250044BD3F88420D206FBD4D3F88400C0F309
S31508002260811070470040005038B5104B0546D3F82A
S3150800227000310C4603F00303022B0BD0032B0DD0C1
S31508002280012B0FD105F046FC032305B1286004B1E4
S31508002290236038BD05F090FC0923F6E705F040FCFD
S315080022A00823F2E701230020EFE700BF0080005073
S315080022B038B5104B0546D3F840310C4603F00303F6
S315080022C0022B0BD0032B0DD0012B0FD105F0C2FF2B
S315080022D00A2305B1286004B1236038BD05F06CFCFB
S315080022E00923F6E705F0B9FF0C23F2E701230020DE
S315080022F0EFE700BF0080005038B5104B0546D3F80D
S3150800230060310C4603F00303022B0BD0032B0DD0D0
S31508002310012B0FD105F09EFF0A2305B1286004B1F1
S31508002320236038BD05F048FC0923F6E705F095FF5C
S315080023300C23F2E701230020EFE700BF00800050DE
S3150800234038B5104B0546D3F840320C4603F0030364
S31508002350022B0BD0032B0DD0012B0FD105F07AFFE2
S315080023600A2305B1286004B1236038BD05F024FCB2
S315080023700923F6E705F071FF0C23F2E70123002095
S31508002380EFE700BF0080005038B5124B0546D3F87A
S3150800239080300C4603F00303022B0BD0032B0DD021
S315080023A0012B0FD105F07CFB0E2305B1286004B183
S315080023B0236038BD05F0B8FB0723F6E705F06AFB8E
S315080023C00623F2E7044841F2142104F073FE0023C1
S315080023D01846EAE700800050448B000838B51A4BC7
S315080023E00546D3F820010C4600F00700062821D838
S315080023F0DFE800F028040C1410181C0005F04AFB4E
S31508002400052305B1286004B1236038BD05F082FBB9
S315080024100323F6E705F088FB0723F2E705F076FBCA
S315080024200223EEE705F036FB0623EAE705F072FB22
S315080024300423E6E7054841F2912104F03BFE002318
S315080024401846DEE70123DCE700800050448B0008CD
S3150800245038B5194B0546D3F828310C4603F007035F
S31508002460013B052B20D8DFE803F003131B0F0B17DE
S3150800247005F010FB052305B1286004B1236038BDBB
S3150800248005F008FB0623F6E705F04EFB0723F2E7FF
S3150800249005F040FB0323EEE705F03CFB0423EAE7DF
S315080024A005F034FB0223E6E7044841F2990104F0FB
S315080024B001FE00231846DEE700800050448B000822
S315080024C037B500230193194B0546D3F820320C463D
S315080024D003F00703042B1FD8DFE803F025030F14C6
S315080024E01900002101A8FFF7B3FF12230DB1019AC5
S315080024F02A6004B1236003B030BD05F015FB07233D
S315080025000190F3E705F0A6FE0A230190EEE705F031
S3150800251053FB09230190E9E741F25601044804F008
S31508002520C9FD0023E2E70123E0E700BF0080005071
S31508002530448B0008F7B50027144B0197D3F8804160
S31508002540064604F00304022C0D4614D0032C0DD0C5
S31508002550012C14D1394601A8FFF740FF10240EB10B
S31508002560019B336005B12C6003B0F0BD05F0DCFAC1
S3150800257007240190F3E705F0C9FA0190EFE741F265
S31508002580E631034804F096FD3C46E8E70080005033
S31508002590448B000838B5164B0546D3F800020C469E
S315080025A000F00700042819D8DFE800F020030B0F15
S315080025B0130005F04FFE0A2305B1286004B1236015
S315080025C038BD05F0F9FA0923F6E705F046FE0C23AF
S315080025D0F2E705F085FA0F23800AEDE7054841F290
S315080025E0A44104F067FD00231846E5E70123E3E765
S315080025F000800050448B000838B5164B0546D3F8C2
S3150800260008020C4600F00700042819D8DFE800F095
S3150800261020030B0F130005F01DFE0A2305B12860E1
S3150800262004B1236038BD05F0C7FA0923F6E705F0BB
S3150800263014FE0C23F2E705F053FA0F23800AEDE7A0
S31508002640054841F2DC4104F035FD00231846E5E76C
S315080026500123E3E700800050448B000838B5124B8D
S315080026600546D3F850320C4603F00303022B0FD06D
S31508002670032B05D0012B0FD105F0ECFD0A2302E050
S3150800268005F0EBFD0C2305B1286004B1236038BDC5
S3150800269005F092FA0923F6E7044841F2C90104F065
S315080026A009FD00231846EEE700800050448B000819
S315080026B037B500230193184B0546D3F860320C460C
S315080026C003F00703013B032B1FD8DFE803F0020ED4
S315080026D01914002101A8FFF781FE10230DB1019AF4
S315080026E02A6004B1236003B030BD002101A8FFF7BA
S315080026F0DFFD1123F2E705F017FA07230190EDE74E
S3150800270005F004FA02230190E8E741F2FD010348C7
S3150800271004F0D0FC0023E1E700800050448B000859
S3150800272037B500230193184B0546D3F894320C4667
S3150800273003F00703013B032B1FD8DFE803F0020E63
S315080027401914002101A8FFF749FE10230DB1019ABB
S315080027502A6004B1236003B030BD002101A8FFF749
S31508002760A7FD1123F2E705F0DFF907230190EDE74E
S3150800277005F0CCF902230190E8E741F2301103484D
S3150800278004F098FC0023E1E700800050448B000821
S3150800279073B500240F4B0194D3F87032064603F044
S315080027A00303012B0D4607D0022B11D041F25B1112
S315080027B0094804F07FFC04E0214601A8FFF778FDEC
S315080027C011240EB1019B336005B12C6002B070BDB7
S315080027D01524F6E700800050448B000808B5334BF3
S315080027E098424FD027D8324B984245D017D8314B0C
S315080027F098423ED00AD838B12F4B984239D041F288
S31508002800BB312E4804F056FC002034E02C4B98428D
S315080028102FD02C4B9842F2D12B4B586E2BE02B4BDA
S3150800282098422CD003F5371303F5D8639842E6D1BE
S31508002830254B986F1FE0264B98422FD00CD8254B76
S31508002840984223D0244B984224D0244B9842D6D180
S315080028501D4BD3F884000EE0214B984222D003F595
S31508002860740303F510539842C9D1174BD3F898004F
S3150800287001E0154B986D08BD134B186FFBE7124B1B
S31508002880586FF8E7104BD3F88000F4E70E4BD3F8EF
S315080028908800F0E70C4BD3F88C00ECE70A4BD3F82A
S315080028A09000E8E7084BD3F89400E4E780BA8C0177
S315080028B0405DC60080841E0040420F00448B00081D
S315080028C000093D00C0CF6A000080E00F0024F40034
S315080028D0007E560380D54302006CDC020048E801FE
S315080028E00090D00310B5B0F5207F2ED009D8B0F5EA
S315080028F0007F24D003D868B1B0F5C07F0AD0002481
S315080029001BE0B0F5607FFAD1124BD3F88040C4F3D0
S31508002910011412E00F4B1C6F230B13F00E0FC4F3B8
S3150800292003340AD0072C08D00F2C06D0032C04D069
S315080029304FF42271084804F0BDFB601C10BD054B1E
S31508002940D3F89040C4F30464F7E7024B1C6FC4F352
S315080029508024F2E700800050448B000838B54FF415
S315080029608032104B04469A6600200D46FFF7BAFFE0
S3150800297041F671320C4B6043DC69DA635A6804F439
S31508002980803422F440125DB90849884294BF002079
S315080029900120000502435A600CB10022DA6338BDF3
S315080029A00349F2E70090005000000350005A620203
S315080029B0002D310138B5420904460D4606D140F2CC
S315080029C035310D4804F076FB002305E0531E022B33
S315080029D00BD80A4B03EB820304F01F0445B103F539
S315080029E080530122A2401A6038BD40F24331E8E71D
S315080029F003F50053F5E700BF448B000860800050DC
S31508002A0030B585B00021B0F5807F0446CDE90011C8
S31508002A1000F009816BD8002800F0D980A0F12004C5
S31508002A20602C74D8602C72D8DFE814F0D100DE0070
S31508002A30D100DE00EE00EE00EE00EE00EE00DE0055
S31508002A40F8007D000E019D007D00DE00DE00DE0040
S31508002A5071007100710071007100710071007100E0
S31508002A60DE00DE00DE00AF001801DE007100710036
S31508002A7071007100710071007100710071007100C0
S31508002A80710071001D01EE00D100D100D1001301C3
S31508002A907D007D00BB0022019200F30071007100E9
S31508002AA0710071007100C600D1007100EE00EE00E1
S31508002AB0EE00EE00EE00F300F300DE007100DE002B
S31508002AC0DE00710071007100710071007100710003
S31508002AD07100710071007100710071007100710060
S31508002AE0710071007100710071007100CB00B0F5C2
S31508002AF0E06F00F0B3803BD8B0F5607F7FD01DD87B
S31508002B00B0F5007F66D008D8B0F5C07F5FD040F238
S31508002B10A4415C4804F0CEFA56E0B0F5207F63D0B5
S31508002B20B0F5407FF3D104F0DBFF04464FF4207084
S31508002B30FFF7D8FEB4FBF0F464085EE0B0F5B06FBA
S31508002B406CD00AD8B0F5806F5ED0B0F5A06FDED134
S31508002B5000216846FFF7B4FC36E0B0F5C06F73D0C5
S31508002B60B0F5D06FD3D100216846FFF713FD2BE0EF
S31508002B70B0F5186F77D00DD8B0F5086F7DD0B0F5E1
S31508002B80106F66D0B0F5F06FC1D100216846FFF727
S31508002B90B3FB19E0B0F5286F6AD007D8B0F5206FF7
S31508002BA0B5D100216846FFF783FD0DE0B0F5406F0B
S31508002BB02FD0B0F5486FAAD100216846FFF7B0FDBF
S31508002BC002E004F06DFF0090009805B030BD04F0F7
S31508002BD087FFF8E704F064FF05462046FFF782FE04
S31508002BE0B5FBF0F50095EFE704F07AFF04464FF4DD
S31508002BF02070FFF777FEB4FBF0F40094E4E701A831
S31508002C00FFF7C2FB019DE8E700216846FFF7E6FBF0
S31508002C10DAE700216846FFF71BFCD5E7002168467E
S31508002C20FFF788FCD0E74FF0E02302911B695B07AA
S31508002C3005D504F055FF0290029B0093C4E703A94B
S31508002C4002A8FFF735FBF7E700216846FFF730FBD8
S31508002C50BAE700216846FFF7CFFCB5E700216846CA
S31508002C60FFF76EFBB0E700216846FFF7F7FCABE716
S31508002C7000216846FFF78CFDA6E76846FFF7F4FAD9
S31508002C80A2E700BF448B000808B58020FFF7B8FE0E
S31508002C90034B98429EBF4FF48032024B1A6708BD19
S31508002CA0005A620200A000501FB503460020B3F583
S31508002CB0807F019000F0FB8000F28B80662B7BD82A
S31508002CC03C2B05D8243B092B5CD940F28951DDE021
S31508002CD03D3B292BF9D801A252F823F0D12E000842
S31508002CE0FF2E0008CB2C0008CB2C0008CB2C0008A4
S31508002CF0CB2C0008CB2C0008CB2C0008CB2C0008CA
S31508002D00CB2C0008CB2C0008CB2C0008CB2C0008B9
S31508002D10CB2C0008CB2C0008092F0008A52E00088C
S31508002D20CB2C0008CB2C0008CB2C00083B2E000827
S31508002D30CB2C0008CB2C0008552E0008132F0008B2
S31508002D40FD2D0008F52E0008CB2C0008CB2C00081A
S31508002D50CB2C0008CB2C0008CB2C00086D2E0008C5
S31508002D60CB2C0008CB2C0008A52E0008A52E0008A1
S31508002D70A52E0008A52E0008A52E0008F52E000889
S31508002D80F52E0008092BA0D801A252F823F000BF9F
S31508002D90A52E0008A52E0008A52E0008A52E0008B9
S31508002DA0A52E0008CB2C0008952E0008CB2C000871
S31508002DB01B2E0008DB2E0008802B86D1574B1B6F75
S31508002DC003F00703013B032B5ED8DFE803F05B54EF
S31508002DD05759B3F5F06F7BD024D8B3F5B06F59D0F7
S31508002DE011D8B3F5607F00F08180FFF46EAFB3F5BC
S31508002DF0806F57D0B3F5A06F7FF467AF002001A9A5
S31508002E00FFF75EFB4AE0B3F5D06F66D0B3F5E06F27
S31508002E1075D0B3F5C06F7FF458AF002001A9FFF74E
S31508002E2047FA3BE0B3F5186F6ED00BD8B3F5086FC9
S31508002E3058D0B3F5106F7FF448AF002001A9FFF70B
S31508002E40DBFB2BE0B3F5286F63D008D8B3F5206F0A
S31508002E507FF43BAF002001A9FFF72AFC1EE0B3F57B
S31508002E60406F47D0B3F5486F7FF42FAF002001A914
S31508002E70FFF756FC12E0052301930FE00323FBE757
S31508002E800823F9E70223F7E740F2D641244804F07D
S31508002E9011F903E0002001A9FFF74CFB019805B0E2
S31508002EA05DF804FB002001A9FFF798FAF6E74FF052
S31508002EB0E02302901B695B0705D504F011FE0D237C
S31508002EC00393039BD8E703A902A8FFF7F1F9F8E7EC
S31508002ED0002001A9FFF710FAE0E7002001A9FFF793
S31508002EE059FBDBE701A9FFF7BFF9D7E701A9FFF708
S31508002EF04BFAD3E7002001A9FFF7AAFACEE700208C
S31508002F0001A9FFF71DFAC9E7002001A9FFF7A6FBEB
S31508002F10C4E7002001A9FFF73BFCBFE7008000508B
S31508002F20448B00084FF48032074B0849586E03F566
S31508002F3080535A664B6A23F001034B62C3035CBF96
S31508002F40034B5A66704700BF0080005000000850C7
S31508002F5000A0005038B5036804460F2B04D940F684
S31508002F608A317C4804F0A6F863680F2B04D940F62A
S31508002F708D31784804F09EF8A3680F2B04D94FF4D6
S31508002F803961744804F096F8237B0F2B04D940F670
S31508002F909331704804F08EF8637B0F2B04D940F602
S31508002FA096316C4804F086F8A37B3F2B04D940F68B
S31508002FB09931684804F07EF8E37B3F2B04D940F644
S31508002FC09C31644804F076F82369032B04D940F64B
S31508002FD09F31604804F06EF86369032B04D940F604
S31508002FE0A2315C4804F066F8E369032B04D940F67D
S31508002FF0A531584804F05EF88020FFF755FE0328EF
S3150800300000F083804FF48012534B4FF0A0615A664C
S3150800301045F60E02514BC3F88020514A91624FF48F
S31508003020803102F5805291629A6DD203FCD4996D73
S3150800303011F08041FBD1D4E90002120542EA006290
S31508003040E07B0243207B42EA0042607B42EA003290
S31508003050A07B42EA80121A619869D4E904521206E2
S3150800306042EA856200F000400243A07EE57E024304
S31508003070207E42EA0042607E42EA00229A611A6A8B
S31508003080E06922F00F0242EA8502364D00283DD15A
S315080030901A6294F82420996A94F82000D2002940EC
S315080030A042EA40120A4394F8211042EA011242F415
S315080030B080329A622C49294A936D31EA0303FBD17F
S315080030C04FF08071264881621369A56823F470035E
S315080030D043EA055313614FF00043836194F82230A5
S315080030E00BB9224B996294F823303BB94FF48032DE
S315080030F01E4B9A62194A936D5B00FCD494F82530EE
S315080031001BB1164B1A4AC3F8802038BD024342F059
S31508003110080202281A6208D119614FF40852996107
S3150800312014484FF47F4104F06FF80C4994F82230A4
S315080031308A6A94F820001B062A4043EA4013134380
S3150800314094F8242043EAC20394F8232043EA02436E
S315080031508B62D3E7448B0008009000500040005A69
S315080031600050005AC7FFFEFE030001000060005A27
S31508003170F1A7FFFF3440005A014B93F9000070474E
S31508003180CC17002010B543680446072B04D940F62F
S31508003190E6512A4803F08EFFA368032B04D940F6AC
S315080031A0E851264803F086FF2378032B04D940F616
S315080031B0EA51224803F07EFF94F90130002B04DA25
S315080031C040F6EC511D4803F075FF4FF400011C4A08
S315080031D0637851664FF4D151022002F5B832516234
S315080031E018494F2B48604FF0010028BF4F2301F5BF
S315080031F0805148601169C903FCD4217843EA012348
S315080032005361D4E901131B0143EA0123617B0B4394
S31508003210217B43EA41039360E37BA17B1B0143EADD
S315080032204113617C0B43217C43EA41035360A37C31
S3150800323013B16FF4D153536210BD00BF448B00081D
S315080032400090005000100250014B1880704700BFD4
S31508003250CA170020014B1880704700BFC817002006
S3150800326008B54FF48002184B5A660223174A536072
S31508003270936813F48033FBD1012822D104F04AFC69
S31508003280134B984215D003F5122303F5F8639842B9
S3150800329013D0104B00EB8002400AB3FBF0F3520A3E
S315080032A00A49CA620B6301234B620022074B5A6024
S315080032B008BD45F67A13084AF2E745F61A03074A9F
S315080032C0EEE75362F1E700BF00900050004002505D
S315080032D000F0490264666666D8B80500BBCF0500EB
S315080032E038B5B0F5207F77D00ED8B0F5007F61D01D
S315080032F003D890B3B0F5C07F2FD04FF44671BDE820
S3150800330038403D4803F0D6BEB0F5607FF5D13B4A5C
S315080033104C1ED2F8FC5015F080751EBFD2F8FC3052
S3150800332023F08073C2F8FC30032C04D940F2F7214D
S31508003330314803F0BFFE324AD2F8803023F030031A
S3150800334043EA0413C2F8803035B12C4AD2F8FC306F
S3150800335043F08073C2F8FC3038BD4C1E012C0AD9E4
S31508003360102903D8274BCB40DB0704D440F2CB21E6
S31508003370214803F09FFE03F056FF03F062FF4FF467
S315080033808031214B1E4A1967136F23F4704343EAB1
S315080033900433136704F0A4FB0446FEF759FFC0F193
S315080033A00201204603F047FF00F048F8BDE8384020
S315080033B0FFF76ABC4C1E1F2C04D94FF443710E4804
S315080033C003F078FE0E4AD2F8903023F0F85343EA19
S315080033D00463C2F89030BFE74C1E012C04D940F2B2
S315080033E01231054803F066FE054A136F23F480631D
S315080033F043EA84231367AFE7448B000800ED00E037
S3150800340000800050100101000090005008B501210D
S31508003410022000F099F94FF42070FFF763FA054B84
S31508003420187003F000FF03F00CFF4FF48032024BD4
S315080034301A6708BDE41600200090005008B54FF43E
S31508003440C070FFF7DDFABDE808400449884294BF1A
S31508003450012102214FF42070FFF742BF80F0FA02E3
S3150800346038B5044604F03CFB0546FEF7F1FEC0F10C
S315080034700201284603F0DFFE0121002000F0B8F91A
S315080034802CB1FFF7DBFFBDE83840FFF7FDBB034B68
S315080034904FF420701978FFF723FFF4E7E4160020AD
S315080034A02DE9F0410546FFF799F9431E0333044613
S315080034B004D940F6E2113B4803F0FCFD4FF4C02264
S315080034C0394B5A6603F598335A68012A04D13749A5
S315080034D04A605A689207FCD48020FFF7E5FB052866
S315080034E007D103F0A0FE03F0ACFE4FF480322E4B5A
S315080034F01A672F4B24F040749D4239D02D4B9D42BC
S3150800350039D004F0C7FA8542064603D90121284670
S3150800351000F06EF9284FFB6813F0060FFBD1D7F8B9
S315080035200880BC60BB68634013F4F81F26D12846A0
S31508003530FEF746F88020FFF7B7FB052814D104F0FC
S31508003540CFFAA842044604D940F63B21154803F0B1
S31508003550B1FDFEF77DFEC0F10201204603F06BFEC9
S31508003560FFF76CFFFFF790FBAE4213D2BDE8F08180
S3150800357044F00074C5E744F08074C2E740F62A2197
S31508003580084803F097FD8020C7F80880FFF78CFBF2
S31508003590052805D0BDE8F0410121002000F028B932
S315080035A03546CCE7448B00080090005000E00150F7
S315080035B040420F0080841E000000015070B54E4B3B
S315080035C00546984273D041D8A3F5B703A3F55863C7
S315080035D0984265D033D8494B494E984251D017D8AE
S315080035E0002877D041F2DE11464803F063FD40F625
S315080035F08671444803F05EFD4FF40022404B5A663C
S315080036003E4B9D4276D000243F4A954236D05DE037
S315080036103D4B984227D03D4B9842E3D13C4BD3F8DB
S31508003620A040621E033224F040744CD940F68671DD
S31508003630344803F03FFD4FF400237366E4E7354B47
S315080036409842CFD1324BD3F8BC402CE0324B98424B
S3150800365031D0324B984232D0314B9842C2D12C4BA2
S31508003660D3F8C8401FE02A4BD3F8A040621E0332A5
S3150800367024F04074DAD84FF40023736644F080745B
S3150800368024E0234BD3F8A040621E033224F0407492
S315080036902AD84FF400237366234643F0007415E0D6
S315080036A01B4BD3F8B840621E154E0332BBE7184BC6
S315080036B0D3F8C040F7E7164BD3F8CC40F3E7144BE2
S315080036C0D3F8D040EFE74FF4002373664FF0B442C7
S315080036D0946070BD40F686710A4803F0EBFC4FF41F
S315080036E000232C467366F1E740F68671054803F019
S315080036F0E1FCCEE70023D0E7C0EA210140420F00F3
S3150800370000900050448B000880841E0000093D008C
S315080037100080E00F0024F4000048E801005A620225
S3150800372080BA8C01024A536B0342FCD1704700BF32
S3150800373000800950034A0179D36E23F030030B4306
S31508003740D366704700400050F8B50446244BD3F8BA
S315080037508420D006FBD4D3F88430C3F381139C426B
S315080037603CD004F09DF9012C05460BD11D4B98421F
S3150800377004D940F28F711C4803F09CFC01212846AD
S3150800378003F059FD04F071FD4FF00072174B074620
S315080037905A66204603F05AFD4FF48063104E621EA7
S315080037A093403367736E9A0103D4D6F884309B0628
S315080037B00AD5384604F054FD022C0FD12846BDE838
S315080037C0F840002103F037BDD6F884309906E9D5CC
S315080037D040F2A771044803F06DFCE3E7F8BD00BFAB
S315080037E000400050005A6202948B000800600050A6
S315080037F010B50C4608B904F053F9074B21461B7857
S315080038003BB1064B984204D80120BDE81040FFF7AB
S315080038109BBF0220F9E700BFE5160020005A6202A6
S3150800382038B54FF00042244B244C5A664AF6CD333D
S31508003830656C014605F00105236428BB0120FFF7E6
S3150800384071FF6368DB0715D51D4B586008461D4B8D
S31508003850226BD2070CD4984208D1072415B1174B0E
S31508003860194A1A6403F0F3FC204638BD0130EFE725
S315080038709842F2D00024F1E70132236B13F00803D3
S3150800388005D08A42F8D1E8E700220E49F5E78A42D0
S31508003890E3D020210A4A91620121A2F580525160A3
S315080038A00649084A886A800603D49342D5D001336C
S315080038B0F8E79342DDE700BF00900050008009500A
S315080038C000A0095040420F003254FFFF38B54FF0B0
S315080038D00042164B01465A664AF6CD33144C154A31
S315080038E0656C236443780B205B0043F00103D363C4
S315080038F0FFF718FF63688A7823F4F87343EA02131C
S315080039006360CA784B7943EA0223A3600A798B7904
S3150800391043EA022323610878FFF782FFEB0744BFD7
S31508003920054B236403F093FC012038BD009000503A
S3150800393000800950004000503254FFFF70B50F2830
S31508003940044605D940F66861124803F0B3FB0F2414
S315080039504FF00042104B11495D6E03F580535A66CD
S315080039604AF6CD334E6C80200B64FFF7DBFE0B6AFC
S3150800397023F00F0323430B62F30744BF084B0B6482
S31508003980002DA2BF4FF00042064B5A6603F05FFCBB
S3150800399070BD00BF948B000800800050008009505D
S315080039A03254FFFF00A0005008B50E4B984211D0C4
S315080039B00D4B984210D003F5804398420ED003F57C
S315080039C0804398420CD0094840F2793103F072FBE3
S315080039D0002008BD5620FCE75720FAE76520F8E7DF
S315080039E06620F6E70000015B00C00850E48B00087B
S315080039F010B503F031FC042300F5805100F50052A0
S31508003A000B6113610B6113610B6113610B61136128
S31508003A10202341F2020103610023C36083604161F0
S31508003A204FF4A0218361836541620549C36103623E
S31508003A308362C36243630365D164036310BD00BF39
S31508003A40FF3F0D0338B51B4B044698420D460FD071
S31508003A50194B98420CD003F58043984208D003F5D9
S31508003A608043984204D040F26911144803F022FBBF
S31508003A7025B92046BDE8384003F0EEBB012204F51F
S31508003A8080535A6040F6FF71204605F00F0203F096
S31508003A90DFFBA263782103F0DBFB05F001036A076D
S31508003AA048BF43F00203A26C02F003029A42FAD11D
S31508003AB038BD00BF0000015B00C00850E48B000859
S31508003AC0F8B505460C46164622B940F227216A483B
S31508003AD003F0F0FA694B9D420FD0694B9D420CD01A
S31508003AE003F580439D4208D003F580439D4204D0E8
S31508003AF040F22A21604803F0DDFA2CB92846FFF780
S31508003B0053FFFEF77DFF0446AB68D80741D5B4429C
S31508003B1004D24FF40D71584803F0CCFAB4FBF6F40E
S31508003B206F68013CFF2C07F0010704D94FF40F71A9
S31508003B30514803F0BFFA24062FB92B6923F07F43B7
S31508003B4023432B61F8BD2821284603F081FBAB6C83
S31508003B50990718D1AB6CDA0717D4AE6C16F00206C3
S31508003B6015D140F24921444803F0A4FA284603F047
S31508003B7073FB2B69314623F07F4323432B61BDE852
S31508003B80F840FFF75FBF0526F0E70926EEE70626A9
S31508003B90ECE76B68012B04D04FF41771364803F035
S31508003BA089FAAB6DDB07AB6848BF760003F0E00324
S31508003BB0402B42D009D893B1202B1AD040F29E212F
S31508003BC0BDE8F8402C4803F075BA602B42D0802B2C
S31508003BD0F4D106EB4603A34247D801230DE0B6EB22
S31508003BE0141F04D94FF42171234803F063FA1023F4
S31508003BF003E0B6EBD40F1AD8082373436401B4FB69
S31508003C00F3F4204F203CB7EBC40F4FEAC40604D2A6
S31508003C1040F2A921184803F04DFA28463E400121F2
S31508003C2003F016FB2E63BDE8F84003F011BB40F223
S31508003C308921114803F03EFADEE70623B4FBF3F3C5
S31508003C40B34201D30623D8E740F28E210A4803F08F
S31508003C5031FAF7E7B6EB940F01D80423CDE740F223
S31508003C609321054803F026FAF7E74FF42671024830
S31508003C7003F020FAB1E700BFE48B00080000015BFF
S31508003C8000C00850F8FF7F002DE9F04198464368C8
S31508003C9004460E4617461BB140F6FF7103F0D8FAE4
S31508003CA02046FFF7A5FEF189737B62690B43318ACB
S31508003CB022F44C520B4322F00F0213436361A168AE
S31508003CC0337E327B21F0804121F0E2011A430A4318
S31508003CD071690A43A260B2681AB9A26842F0004242
S31508003CE0A260F069002800F08B80857A027A6D045C
S31508003CF0A16845EA82558C4A0A401543828802F42F
S31508003D00C0421543427845EA8205427B45EAC20528
S31508003D10827B45EA0215827845EA8225A560D0E9C4
S31508003D200421E5680A43814929400A43817942EA20
S31508003D308122C17942EA4122E26002787C49012A5D
S31508003D401ED1E26842F00402E2608C4200F0B480C0
S31508003D50784A944200F0B28002F58042944200F01C
S31508003D60AF8002F5804294420CBF03224FF0FF3227
S31508003D70520102F1A04242F2944102F5703220E06B
S31508003D80032A40F08E80E26842F00402E2608C4228
S31508003D9000F08C80674A944200F08A8002F58042DF
S31508003DA0944200F0878002F5804294420CBF0322B9
S31508003DB04FF0FF3241F29441520102F1A04202F55E
S31508003DC0703202255550427A04F580518A621AB13A
S31508003DD0E26842F40062E260C27A5AB1E26842F4EA
S31508003DE00042E260524A94426CD1027B524902F088
S31508003DF00F024A67626AC17B22F003020A436262C3
S31508003E003FB197F8202004F58050002A78D0012287
S31508003E100262B8F1000F2FD004F5805113B14FF4A8
S31508003E2000438B65424BB8F822009C4298F8213033
S31508003E3073D0404A944272D002F58042944270D0C0
S31508003E4002F5804294420DD10322112B34BF01277B
S31508003E5002273A4DB0F5006FAF5494BF01270227E9
S31508003E60374DAF54A26D034322F4F95222F01E02D5
S31508003E701343A36501238B6505212046FFF7E2FD61
S31508003E80B2681AB120467168FFF71AFE20463178E3
S31508003E90FFF7D8FDA36CDB4313F4405FFAD1BDE806
S31508003EA0F081023A012A7FF672AF4EE7002281E7D7
S31508003EB001227FE702227DE7002259E7012257E720
S31508003EC0022255E71B4A944206D1027B1A4902F0A0
S31508003ED00F02C1F880208DE71A4A944206D1027B68
S31508003EE0154902F00F02C1F88C2083E7164A94425E
S31508003EF001BF027B104902F00F02C1F8982079E74A
S31508003F00E16997F8222097F8215021F009012A4300
S31508003F100A4342F00102C2617BE7002295E70122CB
S31508003F2093E7022291E700BFE39BBDFFFFF9F08705
S31508003F300000015B00C0085000900350EA160020FC
S31508003F40E6160020000009500040095070B5174BCE
S31508003F50044698420D460ED0154B98420BD003F5F1
S31508003F608043984207D003F58043984203D07021D6
S31508003F70104803F09FF81DB972210E4803F09AF80D
S31508003F802B7B802B03D176210A4803F093F86B7BB1
S31508003F90032B03D97921074803F08CF80023294617
S31508003FA02046BDE870401A46FFF76EBE0000015B6A
S31508003FB000C00850E48B000870B52B4B05469842A4
S31508003FC00C4643D119B98C21284803F073F85620BA
S31508003FD0FEF76AFE0C2807D0A0F10903012B03D9C6
S31508003FE0A0F11103012B3AD8637B032B03D9AD212A
S31508003FF01E4803F05FF8237B802B03D0AF211B48B4
S3150800400003F058F86369B3F1804F03D0B12117481C
S3150800401003F050F8238A23F400539BB2B3F5805F6C
S3150800402003D0B321114803F045F8A368013BB3F563
S31508004030165F03D3B5210D4803F03CF8002321464B
S315080040402846BDE870401A46FFF71EBE8A21074873
S3150800405003F030F81CB98C21044803F02BF89E2194
S31508004060024803F027F8BFE70000015BE48B00086D
S31508004070F8B5974B044698420E460ED0954B984293
S315080040800BD003F58043984207D003F58043984246
S3150800409003D0E221904803F00DF81EB9E4218E48BA
S315080040A003F008F8727BB3687AB18C4A934203D955
S315080040B0E621894802F0FEFF3369D3B1DB7BC3B141
S315080040C0E921854802F0F6FF13E0854A934203D9B1
S315080040D0EC21814802F0EEFF336953B11A7F42B1F1
S315080040E0B168804A5B7F914240F28380042B00F2DC
S315080040F083806368356923B140F6FF71204603F073
S31508004100A7F82046FFF774FC2269737BB17B22F07F
S3150800411087020B43134343F080032361002D6DD0C0
S315080041202369297F23F0F80343EAC1132978EA7B38
S315080041300B43297943EA4113697A43EA011343EAAF
S3150800414082132361E068D5E9053720F0F0403B4348
S3150800415020F470200343287B697B43EA802343EAE3
S31508004160C133E360A368F07B23F00303034343F002
S315080041700103A3606B88A06803F4C0430343A360EC
S31508004180A368687943EA8023A360AB79EF79606A0C
S315080041901B013F0203F0700307F4E06720F4772061
S315080041A020F4EE603B430343287A000300F4E04022
S315080041B00343687F000400F4702003436362636965
S315080041C0307B23F00F03034363616B89A3610029E6
S315080041D039D10AB33E4B9C423FD03E4B9C424DD010
S315080041E003F580439C425AD003F580439C4268D02D
S315080041F012E0042B3FF67DAFF32162E7A368F27B5A
S3150800420023F00303134343F00103A3606369327B7E
S3150800421023F00F0313436361D6E901122046FFF723
S315080042204FFC05212046FFF70DFC2821204603F008
S315080042300FF83378A36303F00BF8A36CDB4313F48E
S31508004240405FFAD1F8BD224B9C420CD1AB7B264984
S3150800425003F00F034B67002ADED02B7C224A03F0BB
S315080042600F031367D8E71B4B9C420DD1AB7B1E4946
S3150800427003F00F03C1F88030002ACDD02B7C1A4AF0
S3150800428003F00F03D367C7E7184B9C420ED1AB7BED
S31508004290154903F00F03C1F88C30002ABCD02B7CDB
S315080042A0114A03F00F03C2F88830B5E7104B9C4259
S315080042B0B2D1AB7B0C4903F00F03C1F89830002A42
S315080042C0AAD02B7C084A03F00F03C2F89430A3E760
S315080042D00000015B00C00850E48B0008002D310186
S315080042E0809698003F4B4C00009003500000095000
S315080042F00040095038B5032804460D4605D8094B31
S3150800430033F81030CB40DB0704D440F28541064829
S3150800431002F0D0FE302301225C43044BAA401A5116
S3150800432038BD00BF888C00084886000840D0035076
S3150800433038B5032804460D4605D8094B33F810301E
S31508004340CB40DB0704D440F25641064802F0B2FEE1
S31508004350302301225C43044BAA401A5138BD00BFE2
S31508004360888C00084886000840E003502DE9F04193
S31508004370032804460D461746984605D81D4B33F8BC
S315080043801030CB40DB0704D44FF4B0711A4802F062
S3150800439091FE37B129462046B8F1000F20D0FFF725
S315080043A0A9FF0F21072D04EB440688BFA5F10803D2
S315080043B04FEA0616114895BFAB009B0004360C362B
S315080043C007FA03F29940304402F06FFF7FB9294695
S315080043D02046B8F1000F06D0BDE8F041FFF78ABFC6
S315080043E0FFF7A6FFDDE7BDE8F041FFF7A1BFBDE88F
S315080043F0F08100BF888C0008378C000830C0035055
S31508004400F8B506460F461546002A6FD003F0030492
S31508004410836823F44073836003F027FFB26882EA57
S31508004420042303F440735340B36003F019FF37B90C
S31508004430B6F1B64F0DD12E20FEF7E2FA0746B3685D
S315080044409A071CD5012C20D0022C2CD08CB9294BCC
S315080044501CE0294B9E4201D12F20EDE7274B9E42B7
S3150800446001D16920E8E740F22F11254802F022FE23
S31508004470B3684FF4B271224802F01CFE08E0012C22
S3150800448013D0022CE2D11F4B00E01F4B9F42F0D9FC
S315080044901E4B1B5D6B430AD140F27511BDE8F8400F
S315080044A0174802F007BE1A4BF0E71A4BEEE7A3EBE4
S315080044B0C504013C3C44B4FBF3F4013C0CD540F282
S315080044C07B110F4802F0F6FD4FF4BE710C4802F05E
S315080044D0F1FDB368B461F8BDB4F5007FF4D2B368F2
S315080044E09B07F7D5002C08BF0124F3E740F2151106
S315080044F0D4E700BF80841E0000000B5000400B501C
S31508004500908C0008002D3101404B4C00E08C0008CF
S31508004510809FD5004054890038B5B0F1B64F04469F
S315080045200D460FD00C4B98420CD003F580439842A9
S3150800453008D003F58043984204D040F29511074805
S3150800454002F0B8FD043425B104F580540123236034
S3150800455038BD04F50054F9E700000B50908C0008AC
S3150800456038B5B0F1B64F04460D460FD0164B9842F3
S315080045700CD003F58043984208D003F5804398424F
S3150800458004D04FF4D571114802F094FD0023104A67
S31508004590236404F50053DA636A7804F108037AB9E8
S315080045A003F5805302221A602046D5E901122B7BB7
S315080045B0FFF726FF20462978BDE83840FFF7ACBF4D
S315080045C003F50053EEE700BF00000B50908C00087F
S315080045D0FFFF1F0070B5B0F1B64F12D0884B984256
S315080045E025D003F58043984223D003F580439842AB
S315080045F021D0844840F2012102F05CFD6FF00300EF
S3150800460070BD814B9968C26B12F4C06F19D09105C1
S3150800461013D5FD225A7009221A700022026493F9F2
S315080046200110012900D15A7093F90100E8E7774B88
S31508004630E8E7774BE6E7774BE4E75605EBD5FE2246
S31508004640E8E71C78082C00F2D680DFE814F00900A9
S315080046501F004500530070007E009C00A700CB0099
S315080046604C880A88E5060AD5120A02F0060242F0C4
S31508004670F002012119704263C1600120C0E702F00F
S31508004680FE02A10748BF42F00102F2E7160608D566
S31508004690802100F50052D1634FF608721A80022372
S315080046A018E05506E9D5402400F50052D4634A8837
S315080046B0D40604D502221A700B784363DDE7960701
S315080046C06AD507221A701B7901EBC3031B89012BD4
S315080046D0D3D10823C360D0E71506D9D45406CCD560
S315080046E0402400F50052D4634A88920754D5032221
S315080046F01A7088E74C880A88E60643BF120A02F051
S31508004700060242F0F00202F0FE02650709D51C799E
S3150800471042F0010201EBC4010989012904BF0821FD
S31508004720C160042119700123C3604263A5E714061A
S31508004730AED45206A1D5402400F50052D4634A8867
S31508004740560729D507221A7097E71A795D8801EB6B
S31508004750C2042689AE420FD800240132D2B21A7199
S315080047605C804C886507C2D4E40702D4012A7FF628
S315080047704AAF08221A7092E76268691C5980525D2E
S3150800478042630622DFE7160682D455067FF575AF23
S31508004790402400F50052D4630522A9E794067FF564
S315080047A06CAF20261A7900F5005401EBC2010A897C
S315080047B0456AE6635C88A24281BF4968661C5E80DA
S315080047C00D5559888A42D4D90424012AC46004D0D4
S315080047D0013A914201D10822C2601A78092A3FF4A7
S315080047E01CAF4AE7D2057FF548AF4FF4807100F554
S315080047F00052D1630FE74FF609321A800DE700BF62
S3150800480000000B50908C0008301500203C15002045
S31508004810481500205415002038B5B0F1B64F0446A7
S315080048200D4630D121B940F26A31314802F042FCD6
S31508004830304B2269D00744BF2022E2606A8891077C
S3150800484002D52989002934D0520701D52A8A82B38C
S315080048504FF480721A6000229D601A71C023E360CB
S315080048606369DB0541D4202204F50053DA63224A42
S315080048702046DA634FF4FC6204F580531A64BDE8F7
S315080048803840FFF7A7BE1D4B98421ED003F580435C
S31508004890984211D003F5804398421ED040F2693100
S315080048A0134802F007FC25B940F26A31104802F0B5
S315080048B001FC6FF0030038BD09B1114BB9E740F2AE
S315080048C06A310B4802F0F6FBF7E721B940F26A3184
S315080048D0074802F0EFFB0B4BABE721B940F26A3110
S315080048E0034802F0E7FB084BA3E7636AB8E700BF93
S315080048F0908C000830150020FFFF1F0000000B50A9
S31508004900481500203C1500205415002010B523201A
S3150800491000F0D4FC0024FF22064B21465C652020CB
S315080049209A625C60FEF746F82146BDE810402120F1
S31508004930FEF740B80000045038B5072804460D466F
S3150800494003DD7721084802F0B5FB1F2C03D9912116
S31508004950064802F0AFFB064A064B002D08BF134671
S315080049600122A2401A6038BDE48C0008358D000883
S31508004970401004504020045010B5044618B991213F
S315080049801F4802F097FB23781B0613F0604F03D0ED
S3150800499092211B4802F08EFBE3780F2B03D9952151
S315080049A0174802F087FB01212020FEF703F80121B2
S315080049B02120FDF7FFFF0122124B23205A6022789F
S315080049C012069A606178A27842EA01429A61FF2249
S315080049D09A6200229A631A644FF000425A654FF0B1
S315080049E0FF3203F500531A6500F0B8FC2320E1787E
S315080049F000F0C2FCBDE81040232000F07DBC00BFDB
S31508004A00E48C000800000450F8B50126C3B2072854
S31508004A1005460C46174606FA03F603DDDE2134483A
S31508004A2002F048FB1CB9DF21314802F043FB23683A
S31508004A3023F47C1323F00F031BB1E2212C4802F068
S31508004A4039FBA37A1B0413F47C0F03D0E72128480B
S31508004A5002F030FBE37A1B0513F07E6F03D0E921E1
S31508004A60234802F027FB237B5B0513F0FE5F03D088
S31508004A70EB211F4802F01EFB1E4B27F003071E659D
S31508004A80AB00226803F1A04303F588235A6030225D
S31508004A9002FB05F0637B00F1A04000F58020036669
S31508004AA0E37AA27A1B0543EA0243227B43EA42538E
S31508004AB0C365076703F0E2FB0F4B227A5E6502B116
S31508004AC01E64627A02B19E632279A37943EA02439D
S31508004AD0084A93616179E37943EA014306498B61A0
S31508004AE0064B56639E64BDE8F84003F0C2BB00BFA0
S31508004AF0E48C000800200450001004500000045004
S31508004B0010B50124C3B2072804FA03F404DD40F201
S31508004B107B11074802F0CEFA03F0B0FB054B5A6D3D
S31508004B2022EA04025A659C62BDE8104003F0A1BB64
S31508004B30E48C00080000045010B50124C3B207280D
S31508004B4004FA03F404DD40F299110A4802F0B2FAB5
S31508004B5003F094FB084BDA6A224208D15B6B9C434C
S31508004B600CBF0124002403F084FB204610BD00245A
S31508004B70F9E700BFE48C00080000045070B5012571
S31508004B80C3B20728044605FA03F504DD4FF4E071BD
S31508004B90094802F08FFA03F071FB3022074B5E6B6F
S31508004BA002FB04335C6E03F064FB35420ABFC4F3B0
S31508004BB00A100020013070BDE48C00080000045083
S31508004BC00D4B984208D1A3F5D023C3F85812802379
S31508004BD000F58050C3657047084B984204D1A3F589
S31508004BE0D823C3F87412F2E7054B984204BFA3F51D
S31508004BF0E023C3F89012EAE700000A5000400A5082
S31508004C0000800A5070B506460C46154622B940F291
S31508004C10A6210C4802F04EFA24B94FF42070FDF78D
S31508004C20EFFE04466D00013CB4FBF5F4064B250285
S31508004C3013EA042304D040F2CB21024802F03AFAE0
S31508004C40F56170BD858D0008070080FF38B5104BEB
S31508004C50044698420D460CD003F58043984208D086
S31508004C6003F58043984204D04FF43971094802F09D
S31508004C7021FA012204F580535A60EB43934003F06E
S31508004C800A036361656115B904F50054626038BDAD
S31508004C9000000A50858D000810B51B4B0446984243
S31508004CA00CD003F58043984208D003F58043984218
S31508004CB004D040F25E41154802F0FCF9012204F5E1
S31508004CC080535A6040F6AA6341F2050263610023E5
S31508004CD00F49A360E365E26004F500522361E361CE
S31508004CE0E36491640849A3658C4203D123650023D4
S31508004CF0636506E007498C42F8D001F580418C428D
S31508004D00F4D00123536010BD00000A50858D0008B9
S31508004D10FFFF010000400A5038B5294B0446984267
S31508004D200D460CD003F58043984208D003F580431E
S31508004D30984204D040F28131224802F0BBF920465D
S31508004D40FFF7AAFF012204F580535A602B8AA2684E
S31508004D5043F001031343AA7B43EA8223A360A368B3
S31508004D602A7D43EA4273A360AB7C1BB12046E97CEB
S31508004D70FFF726FFD5E901122B7B204643F4805323
S31508004D80E360FFF73FFF6B7B0BB1102363616B7D1D
S31508004D901BB1A36843F48033A360AB7D1BB1A36842
S31508004DA043F40043A360EB7D2A7E1B07120503F03C
S31508004DB0E04302F4E0021343A3652B78636138BD30
S31508004DC000000A50858D000810B5044620B940F247
S31508004DD03A21124802F06EF923782BB1012B17D02D
S31508004DE0022B18D0032B05D140F2FF736278D3400B
S31508004DF0DB0704D440F23D21084802F05BF90122A2
S31508004E00637821789A4030235943054B5A5010BD90
S31508004E1040F2FF13EAE743F6FF73E7E7D78D00088A
S31508004E2040E00350034BD3F82424D3F82004104061
S31508004E30704700BF00C003502DE9F04103780446CF
S31508004E400D4616462BB1012B21D0022B22D0032B5F
S31508004E5005D140F2FF736278D340DB0703D45D21A6
S31508004E60284802F027F9284BD3F810331BB16021E4
S31508004E70244802F01FF90F2D0FD8DFE805F03A3560
S31508004E80353535353535353535353535353540F2FC
S31508004E90FF13E0E743F6FF73DDE7B421194802F094
S31508004EA009F94FF00008204606B302F0EFFE0F217D
S31508004EB067782378072F03EB430388BF083F4FEA39
S31508004EC00313124895BFBF00BF0004330C3308FA1A
S31508004ED007F2B940184402F001FA85B9204656B1DE
S31508004EE0BDE8F04102F0D2BEA846DCE7FFF76CFF4A
S31508004EF0DDE7A846DBE7BDE8F041FFF765BFBDE89B
S31508004F00F08100BF318E000800C0035030C0035046
S31508004F10054B9A689107FCD45A689207F9D4DA695E
S31508004F20002AF6D1704700BF00C00A5010B5074CDA
S31508004F306368DB0704D44FF49371054802F0BAF8A6
S31508004F4002F0D2FE0223236110BD00BF00C00A5042
S31508004F508B8E000808B5FFF7DBFF0122024B03F52D
S31508004F6080514A601A6108BD00C00A5010B5044B4A
S31508004F705C68012C03D1FFF7D9FF024B5C6010BDBA
S31508004F8000C00A5000E00A5038B5074DFFF7C0FFC9
S31508004F906B680446012B03D1FFF7E8FFFFF7B8FF5C
S31508004FA02378EB6038BD00BF00C00A5038B5054607
S31508004FB00C4602F0A3FEBDB96268237812B11278D6
S31508004FC043EAC203627843EA4203A26812B112783E
S31508004FD043EA8213E27843EA8203226912B112781D
S31508004FE043EA4223014A936438BD00BF00C00A5011
S31508004FF030B58BB0914803F04CF920B140F2363108
S315080050008F4802F057F86C468E4D0FCD0FC42B68AB
S315080050108D4A2360FF238DF80130D2F84C3113F402
S31508005020802340F0FE80D2F850218DF801309DF89B
S3150800503001306C46FF2B08BF3F236846834D8DF829
S315080050400130FEF79FF83220FEF7FEF80FCD0FC4A9
S315080050500FCD0FC495E8030084E803007A4BD3F814
S315080050604C21120340F1C180A3F5FE431C88B4F518
S31508005070807F28BF8C248DF81940FEF77DF80444FC
S3150800508084F3080472488DF81840FCF79FFA6846BE
S31508005090FDF760FF3220FEF7DDF86E48FEF700FAEE
S315080050A06D48FEF78BFA6D4803F0F3F820B140F22D
S315080050B0CB11634801F0FEFF694C0020FEF7D0F8DB
S315080050C0FEF7A4F9236F002023F0070343F0030338
S315080050D02367FEF7C5F9236F624923F474432367F0
S315080050E0614BD3F8FC2012F0807240F08280D4F82D
S315080050F0803023F0030343F00103C4F88030C1F87D
S315080051008020574CD4F8203123F0070343F00203DC
S31508005110C4F82031D4F8283123F0070343F00203FA
S31508005120C4F82831D4F8803123F0030343F001038F
S31508005130C4F88031D4F8403123F0030343F0020366
S31508005140C4F84031D4F8603123F0030343F0020376
S31508005150C4F86031D4F8403223F0030343F0020365
S31508005160C4F84032D4F8003223F0070343F00203B0
S31508005170C4F80032D4F8083223F0070343F00203D8
S31508005180C4F80832D4F8503223F0030343F002037C
S31508005190C4F85032D4F8703223F0030343F0010305
S315080051A0C4F87032D4F8203223F0070343F0010321
S315080051B0C4F82032FDF7B6FE4FF0E022002013694E
S315080051C043F004031361D4F8603223F0070343F075
S315080051D00103C4F86032D4F8943223F0070343F08D
S315080051E00103C4F894320BB030BDD3F85041E4B291
S315080051F041E7D3F8FC2022F08072C3F8FC20D4F8EB
S31508005200802022F0030242F00102C4F88020002226
S31508005210C1F88020D3F8FC2042F08072C3F8FC2045
S315080052206FE74FF07E6393F89C2093F99C30002B30
S31508005230FFF6FDAE8DF80120F9E600BF7C90000868
S31508005240B48F00082C9000080080E00F40900008FA
S31508005250C017530200B4C404C0EA210180900008B4
S31508005260008000500090005000ED00E007B5094BA3
S3150800527018689A889B7900906846ADF804208DF8DE
S315080052800630FEF723FB0C20FEF758FB002003B080
S315080052905DF804FB6890000813B50024064A6846C2
S315080052A0536F43F00103536700948DF80440FEF7EB
S315080052B041FA204602B010BD0040005010B55D28E6
S315080052C004460DD801220A49630904F01F04A240C6
S315080052D0203341F82320BFF34F8FBFF36F8F10BDE4
S315080052E040F22511034801F0E5FE002CF7DBE9E75B
S315080052F000E100E00491000810B55D28044608D8CE
S3150800530001236109074A04F01F04A34042F821302B
S3150800531010BD4FF49871044801F0CCFE002CF7DB61
S31508005320EEE700BF00E100E00491000810B55C2834
S31508005330044604D940F23B11064801F0BBFE064B71
S31508005340621153F8220004F01F04E040C04300F045
S31508005350010010BD0491000800E100E0002808DB08
S3150800536001224309034900F01F008240603341F8D7
S315080053702320704700E100E038B500F110036D2BDB
S3150800538004460D4604D94FF4EF710E4801F092FE1B
S315080053900F2D04D940F2DF110A4801F08BFE60B2E6
S315080053A00028ACBF00F16040074B4FEA0515EDB287
S315080053B0ABBF00F5614000F00F0080F800531D54A4
S315080053C038BD00BF0491000814ED00E010B502F0E6
S315080053D055FF0A4B1A786AB901226FF004041A704D
S315080053E002F047FF204605210134FFF7C5FF5D2C73
S315080053F0F8D110BDBDE8104002F03BBFEE16002004
S3150800540010B5044602F031FF024B1C6002F028FF7B
S31508005410002010BD6015002010B502F026FF034BD2
S315080054201C6802F01DFF204610BD00BF6015002055
S315080054302DE9F0438FB01D46136881461F6891F821
S3150800544031308846144606AE1BB3DFF828C2BCE8DE
S315080054500F000FC69CE80F0086E80F0018220021EF
S31508005460684602F09DF9A3680893237B012B13D0A5
S31508005470022B14D01BB1D921774801F01BFE00235B
S31508005480ADF82630637B032B1FD8DFE803F00B2526
S31508005490221BDFF8E4C1DAE74FF40073F0E74FF4B4
S315080054A04073EDE70023ADF8283001238DF8063068
S315080054B0A37BCDF834D0042B11D8DFE803F01415FC
S315080054C0151514004FF44053EDE7EB21624801F03F
S315080054D0F1FD4FF48053E6E74FF40053E3E7FE216E
S315080054E05D4801F0E7FD00238DF800305B4AD8F8E7
S315080054F0383029461A605A4A48465A6000229A6045
S31508005500584ADA60424600F069FC0646002840F030
