:020000040800F2
:10000000001000201D910008BB6D0108BB6D0108A8
:10001000BB6D0108BB6D0108BB6D0108BB6D01081C
:10002000BB6D0108BB6D0108BB6D0108BB6D01080C
:10003000BB6D0108BB6D0108BB6D0108BB6D0108FC
:10004000BB6D0108BB6D0108BB6D0108BB6D0108EC
:10005000BB6D0108BB6D0108BB6D0108BB6D0108DC
:10006000BB6D0108BB6D0108BB6D0108BB6D0108CC
:10007000BB6D0108BB6D0108BB6D0108BB6D0108BC
:10008000BB6D0108BB6D0108BB6D0108BB6D0108AC
:1000900049970008F16E0108BB6D0108BB6D0108AE
:1000A000BB6D0108BB6D0108BB6D0108BB6D01088C
:1000B00041900008BB6D0108BB6D0108BB6D0108D4
:1000C000BB6D0108BB6D0108BB6D010881630008B1
:1000D000BB6D0108BB6D0108BB6D0108E56600083A
:1000E000C5660008BB6D0108BB6D0108BB6D01084A
:1000F000BB6D0108BB6D0108BB6D0108BB6D01083C
:10010000BB6D0108BB6D0108BB6D0108BB6D01082B
:10011000BB6D0108BB6D0108BB6D0108BB6D01081B
:10012000BB6D0108BB6D0108BB6D0108BB6D01080B
:10013000BB6D0108BB6D0108BB6D0108BB6D0108FB
:10014000BB6D0108BB6D0108BB6D0108BB6D0108EB
:10015000BB6D0108BB6D0108BB6D0108BB6D0108DB
:10016000BB6D0108BB6D0108816E0108BB6D010804
:10017000BB6D0108BB6D0108BB6D0108BB6D0108BB
:10018000BB6D0108BB6D0108BB6D010869A50108C5
:10019000BB6D0108BB6D0108BB6D0108BB6D01089B
:1001A000BB6D0108BB6D0108BB6D0108BB6D01088B
:0401B000BB6D01081A
:1001C000013800D0FCE7704738B50022164B51ECDF
:1001D000100B13F05BFC10A3D3E9002304460D467B
:1001E00013F0E4FE70B90EA3D3E90023204629469C
:1001F00013F0BEFE58B92046294614F08FFA00EEDF
:10020000100A38BD47F6FF3300EE103AF9E74FF613
:10021000FF33F9E7AFF300800000000000FCEF407F
:100220000000000000FCEFC00000E0400000000003
:100230002DE9F74F0446DDE90C7B886816469A469F
:100240000D4613F0CBFB8046B068894613F0C6FB21
:1002500002460B464046494613F018FC8046894644
:10026000BAF1000F1BD0DAF8080013F0B7FB024612
:100270000B464046494613F051FA8046B86821F0D3
:10028000004913F0ABFB02460B464046494613F0CB
:1002900027FD12A3D3E9002313F074FE50B13B46AF
:1002A000324629462046CDF830B003B0BDE8F04FC5
:1002B0000CF040B8064B20460093656940F24513A8
:1002C000044A0549A847012003B0BDE8F08F00BFEC
:1002D000645B0608B45A0608EB5106087B14AE4767
:1002E000E17A943F000000002DE9F84F4FF0004301
:1002F0002DED028B23FA00F057EC106B59EC118BAB
:1003000093468A4613F058FB424604460D464B4638
:100310003046394613F0BAFB02460B4620462946C2
:1003200013F0B4FB02460B4643EC182B0AA3D3E9A7
:10033000002313F03BFE08B19FED078B5946504652
:10034000B0EE480AF0EE680ABDEC028BBDE8F84F4B
:100350000CF03CBAAFF300800000C0FFFFFFDF41AC
:100360002DE9F0432DED028B99460B7F89B0072BC9
:1003700004460F461546129E1AD140F20241836B85
:10038000984740B9AC4B0093272365692046AB4A98
:10039000AB49A84799E0B06240F202412046A36B06
:1003A000984720B9A74B009365692B23EEE7F062CD
:1003B0002A7F3B7F072A08D1092B3DD0072B13D07A
:1003C000A14B009365693123E0E79A4234D0CDE92F
:1003D00002329E4B01939E4B009334236569204665
:1003E000964A9C49A84770E0D5F80C80B8F1000FF8
:1003F00009D00023CDE90283974B0193974B0093DB
:1004000065693923EBE74146DFED950A47F6FF7052
:100410009FED940AB36A944A0DF000FDF36A4146D9
:10042000DFED8F0A9FED910A914A92480DF0F6FC9C
:10043000EB68F361AB68336297F81C80B8F1090F81
:1004400045D0B8F1070F40F03781FB684BB100226F
:10045000CDE90232804B0193874B009365695B23A2
:10046000BDE7EA6842B1CDE902237B4B01937B4BA8
:10047000009365695C23B2E7DFED807A95ED027A3F
:10048000B4EEE77AF1EE10FADFED7D6ACCBF77EEDD
:10049000677A77EEC77AF4EEE67AF1EE10FA7EDD4F
:1004A0004FF07C53002217EE100ACDE9042313F01D
:1004B00095FA744BCDE902010193734B00935D23D0
:1004C000656920465D4A7149A847012086E0287F7A
:1004D000072832D1EB6813F5004F09D0654ACDE902
:1004E00002326B4B01935D4B00936569622376E7A3
:1004F000DFED687A95ED027AB4EEE77AF1EE10FA64
:10050000DFED656ACCBF77EE677A77EEC77AF4EEF7
:10051000E67AF1EE10FA66DD0022604B17EE100A63
:10052000CDE9042313F05AFA5D4BCDE902010193A2
:10053000554B009365696323C3E7092812D06669A8
:100540000BF0BCFE054640460BF0B8FE554BCDE91E
:10055000025001933D4B009366232046374A52498F
:10056000B047B2E7EB6813F1800F0AD06FF07F025B
:10057000CDE902324D4B0193384B009365696723F7
:100580002DE795ED027ADFED4A7AB4EE677AF1EE67
:1005900010FA28D0474B009365696823F6E6B868DF
:1005A00013F01CFA0446D9F800000D4613F016FAB1
:1005B00002460B462046294613F068FA1CA3D3E9ED
:1005C000002313F08DFB06F1080841EC100B4046A8
:1005D00007A90CF0B3F8079BF360002009B0BDEC4D
:1005E000028BBDE8F083B86813F0F8F941EC180B02
:1005F000D9F8000013F0F2F906F1080441EC100BF1
:10060000B0EE481AF0EE681A2146052007AAFFF757
:100610006BFE07991F22F160052017F014F913F003
:10062000CBF901F1004113F0CBFCB061D5E700BF7D
:10063000140014001400243F5A6F0608E06E0608E8
:10064000EB510608716F0608085C0608B4690608D5
:10065000C1690608B0510608625B0608556B0608BA
:1006600080000038A000203979830108800080379D
:100670006B8301080080FFFF946F060800000038BC
:100680006F120333CD6F0608D96F0608AD6F0608E9
:10069000EE6F0608000080376F1283320000F03ED4
:1006A000F56F060801700608AB6C06080D700608A9
:1006B0000000803B12700608B8F1010F0FD04046D1
:1006C00066690BF0FBFD054601200BF0F7FD104BB2
:1006D000CDE9025001930F4B009385233DE7287F1E
:1006E00001280ED066690BF0E9FD054640460BF087
:1006F000E5FD074BCDE902500193074B009386239C
:100700002BE7D9F8000013F069F9C6E9000164E7A6
:1007100034700608C1690608B469060800000000C4
:100720002DE9F04FC76997B08346209E08910C923F
:10073000129355EC104B8DED000B7FB9102014F087
:10074000DBF80246CBF81C0020B9A74BEF21A748E5
:1007500014F0A2F8C0E901770760C760DBF81C302D
:10076000196859B15A680123584693404A608B6012
:1007700014F0D4FFDBF81C3000221A602B1EB7BF28
:1007800023F00043002301220193A8BF3360019F9F
:10079000974BB8BF3260BB4319D142F20F73129A24
:1007A0001360C7F31303234300F0DB85219B53B988
:1007B000904B21E0904B03930833219A13600398E8
:1007C00017B0BDE8F08F8B4B03930333F5E79DED36
:1007D000007B0022002351EC170B8DED0A7B13F0F8
:1007E000BDFB804650B10123129A1360219B13B1C7
:1007F000824B219A1360824B0393E0E7C7F30A56BA
:1008000014AA15A958469DED0A0B15F00FFA02908F
:10081000002E76D00B9BA6F2FF36CDF84C80C3F3AA
:10082000130343F07F53DDE90A0143F440131946F3
:100830000022744B12F072FF65A3D3E9002313F07A
:1008400025F965A3D3E9002312F06AFF04460D469B
:10085000304613F0B1F862A3D3E9002313F016F980
:1008600002460B462046294612F05AFF04460D4622
:1008700013F0A6FB0022074600232046294613F06A
:1008800077FB40B1384613F097F822462B4613F019
:1008900065FB00B9013F162F52D85B4B03EBC70332
:1008A000DDE90A01D3E9002313F062FB002849D0F7
:1008B000013F00231193149B9B1B5A1E4CBFC3F195
:1008C00001030023079245BF069300230693079375
:1008D000002F39DB079B10973B44079300230993B4
:1008E000089B092B66D8052BC5BF043B00240124B7
:1008F0000893089B023B032B67D8DFE803F02D3AEF
:100900003859DDE914631E4406F23243202BC9BF77
:10091000C3F14003C3F120039F4006F21243D8BF46
:1009200004FA03F006F1FF36C4BF24FA03F347EAE2
:10093000030013F031F80122A1F1F873139276E766
:100940000123B7E71190B6E7069BDB1B06937B42BA
:10095000099300231093C3E700230D930C9B002BF6
:1009600056DC012399461A4604930C920CE00123AD
:10097000F3E700230D930C9BFB1803F1010904938B
:100980004B46012BB8BF0123DBF81C0000210422D9
:1009900002F114059D423FD94160584614F07EFE95
:1009A000039000283BD1194B024640F2AF11CEE62E
:1009B0000123DFE7012400230D9408934FF0FF3358
:1009C0000022994604931223CFE701230D93F5E704
:1009D00061436F63A787D23FB3C8608B288AC63F45
:1009E000FB799F501344D33F247A06083B7A0608CC
:1009F0000000F07FD86806081B7A0608635B0608CB
:100A0000625B06080000F83F387B0608947A060807
:100A10000C9B99460493B7E701315200B8E7DBF825
:100A20001C30B9F10E0F039A1A606FD8002C6DD0EC
:100A3000002F36DD07F00F02A04BF8054FEA271410
:100A400003EBC20393ED007B8DED0E7B17D59C4B22
:100A500004F00F044FF00308D3E90823DDE90A018D
:100A600013F03EF9CDE90001954D5CB9DDE90E23A7
:100A7000DDE9000113F034F9CDE900012BE04FF07E
:100A80000208F1E7E10709D508F10108DDE90E01E7
:100A9000D5E9002312F0FAFFCDE90E016410083504
:100AA000E3E700F007817C42844B854D4FF002085C
:100AB00004F00F02241103EBC203DDE90A01D3E9BC
:100AC000002312F0E3FF0023CDE90001002C40F0E9
:100AD000E580002BD0D1119BDDE90045002B00F013
:100AE0004C810022774B2046294613F041FA00281A
:100AF00000F04381B9F1000F00F03F81049B002B0F
:100B000000F3E480DDE90A34CDE90034159B002BC5
:100B100002DB0E2F40F342820D9A002A40F06782DA
:100B2000099C0025DDF81880B8F1000F0DD0079B57
:100B3000002B0ADD4345069AA8BF4346D21AA8EB0C
:100B400003080692079AD31A0793099B0BB30D9BD0
:100B5000002B00F0A682002C00F0A182294622463C
:100B6000584614F005FF029A01460546584614F00F
:100B700055FE02990646584614F0D0FD099B1B1BF2
:100B8000099300F09182099A3146584614F0F0FE1C
:100B900002900121584614F02BFE109B0446002BB6
:100BA00000F084821A460146584614F0E1FE089B84
:100BB0000446012B03DC009B002B00F07C82002606
:100BC000236904EB8303186918F055FFC0F1200076
:100BD0001096079B184410F01F0000F09182C0F19E
:100BE0002003042B40F38182C0F11C00069B0344C8
:100BF00080440693079B03440793069B002B05DD67
:100C00001A460299584614F00DFF0290079B002BDC
:100C100005DD21461A46584614F004FF0446119B90
:100C2000002B00F076822146029818F073FF00280E
:100C300080F26F8200230A220299584614F090FD38
:100C40000D9B7E1E0290002B00F05C820023294643
:100C50000A22584614F084FD049B0546002B03DC51
:100C6000089B022B00F35E82B8F1000F05DD2946D8
:100C70004246584614F0D6FE0546109B002B00F065
:100C8000D0826968584614F009FD0746002840F0F4
:100C90007F820D4B024640F2EF2158E5E20706D570
:100CA00008F10108D5E9002312F0F0FE01236410D9
:100CB00008350BE74FF002080DE700BF387B060848
:100CC000107B06080000F03F947A060820460022B8
:100CD000AC4B294612F0DAFE7E1E08F10108049C96
:100CE000CDE90001404612F067FEDDE9002312F075
:100CF000CDFEA54B002212F013FDA1F15073CDE9FA
:100D00000E010F93002C3BD10022A04BDDE9000126
:100D100012F004FD02460B46CDE90023DDE90E2367
:100D200013F044F9002840F05781DDE90E2101F16C
:100D30000043DDE9000113F01BF900283FF4E2AEA7
:100D4000002425460C9BDDF80CA0DE434FF0000884
:100D50002146584614F0E2FC002D00F0A980B8F1BD
:100D6000000F05D0A84503D04146584614F0D6FCE4
:100D70002946584614F0D2FC9AE03E464C46B1E76C
:100D8000834B03EBC40353E90201039B1C440D9BFB
:100D9000002B4AD002460B4600207E4912F0A0FFED
:100DA000DDE90E2312F0BAFCDDF80CA0CDE90E014E
:100DB000DDE9000113F004F9054612F0FDFD0246DD
:100DC00030350B46DDE9000112F0A8FC0AF8015BA2
:100DD00002460B46CDE90001DDE90E0113F0E6F80D
:100DE000002865D100206C49DDE9002312F096FC53
:100DF00002460B46DDE90E0113F0D8F8002840F05A
:100E00000D81A24500F0EA8000225E4BDDE90E0173
:100E100012F03CFE00225B4BCDE90E01DDE9000142
:100E200012F034FECDE90001C2E7DDE90E2312F035
:100E30002DFEA046DDF80CA0CDE90E01DDE9000194
:100E400013F0BEF8054612F0B7FD024630350B46EA
:100E5000DDE9000112F062FC0AF8015B02460B4674
:100E6000A245CDE900234FF0000223D1494BDDE933
:100E70000E0112F055FC02460B46DDE9000113F0AD
:100E800095F8002840F0CA8000204249DDE90E2391
:100E900012F044FC02460B46DDE9000113F068F84D
:100EA00070B1C24608F1FF381AF8013C302BF8D077
:100EB000374655E0334B12F0E9FDCDE90001BDE7BF
:100EC000DDE90A34CDE90034159B002BFFF628AE8E
:100ED0000E2F3FF725AE2E4B03EBC70393ED007BA0
:100EE0000C9B002B8DED047B02DAB9F1000F64D06E
:100EF000DDF80CA0DDE90045DDE9042320462946A4
:100F000012F0EEFE13F05CF8064612F055FDDDE936
:100F1000042312F0BBFD0246204606F130040B46C6
:100F2000294612F0FBFB0AF8014B039C02460B46D4
:100F3000AAEB0404A14540F0828012F0F1FB0446C4
:100F40000D46DDE9042313F031F8002865D1204671
:100F50002946DDE9042313F001F808B1F3075CD456
:100F60000299584614F0DAFB002301378AF8003062
:100F7000129B1F60219B002B3FF421ACC3F800A003
:100F80001DE400BF0000244000001C40000014408D
:100F9000387B06080000E03F0000F03FA24B03EB67
:100FA000C70393ED007B0C9B002B8DED047B9FDA38
:100FB000B9F1000F9CDC7FF4C3AE00229B4BDDE94E
:100FC000040112F063FDDDE9002312F0E5FF0446A1
:100FD00000287FF4B5AE3E462546B4E0DDE90A348C
:100FE000CDE90034159B002B01DB0E2FD6DD089ACE
:100FF000012A36DC139A82B303F23343099CDDF8ED
:101000001880069A012158461A440692079A1A44F3
:10101000079214F0EDFB054686E53E4653469A4698
:1010200013F8012D392A06D1039A9A42F7D13022BA
:10103000039901360A701A7801321A7038E70022D3
:101040007B4B12F023FD0022002304460D4612F0D4
:1010500085FF00283FF450AF82E7149BC3F13603AD
:10106000CCE709F1FF34099BA34208DBB9F1000F7B
:10107000A3EB04040EDBDDF818804B46C1E7099BA7
:10108000109AE31A0994DDF8188000241A444B469C
:101090001092B6E7069BA3EB09080023B1E7029E76
:1010A00071E5099A029970E5029672E5089B012B99
:1010B00017DC009BABB9019BC3F313039BB9019BE6
:1010C00023F00046360D360536B1069B0126013366
:1010D0000693079B01330793109B002B7FF470ADA1
:1010E0001096012075E50026F6E73FF486AD1C3327
:1010F000069A1A4498440692079A1A4407927CE585
:101100000346F4E7049B002B2BDC089B022B09DC35
:1011100027E0B9F1000F1DDC089B022B1ADD3E46CB
:10112000CDF81090049B002B7FF40CAE21460522D5
:10113000584614F015FB01460446029818F0EAFCE4
:1011400000287FF7FFADDDF80CA0312301360AF847
:10115000013BFBE50D9B3E46CDF81090002B7FF444
:1011600083AD039F2146029818F0F8FB039B00F122
:101170003009049A07F8019BFB1A9A4240F3CB808E
:1011800000230A220299584614F0EAFA0290E9E78D
:101190002A6905F10C010C300232920018F0C9FBEB
:1011A00001223946584614F03DFC039BA8460546EB
:1011B00003F1010ADDE9032313440793009B03F0C5
:1011C000010309930AF1FF3321460298049318F0B2
:1011D000C5FB4146069000F13009029818F09AFCD0
:1011E0002A4621460746584614F088FCC268014644
:1011F00002B3584614F092FA002F3ADA012202990B
:10120000584614F00FFC2146029018F083FC002889
:1012100003DC29D119F0010F26D0B9F1390F1DD106
:1012200032E02846C1E700BF387B060800001440C2
:10123000000024400A90029818F06CFC0A990C9067
:10124000584614F06BFA0C9A5ABB089B53B9099B89
:1012500043B9B9F1390F17D0002F05DD069B03F113
:10126000310901E0002F2ADADDF810A00AF8019B0D
:101270006EE5089B3B4304D1009B03F00103002B68
:10128000BCD0B9F1390F36D1049F392307F8013B9F
:10129000BA46013F1AF8013C392B5AD001333B7052
:1012A00056E5002F06DB089B3B4306D1009B03F06D
:1012B000010313B9002AA1DCD6E7002AE1DC079B71
:1012C00057460AF8019C53452ED000230A22029962
:1012D000584614F045FAA84502904FF000034FF02D
:1012E0000A02414658460BD114F03AFA80460546A8
:1012F0000AF1010A66E7DDF810A009F10109B5E776
:1013000014F02EFA2946804600230A22584614F08B
:1013100027FA0546ECE7049B4FF00008002BCCBFF2
:101320001F460127039B1F4401220299584614F0CF
:1013300079FB2146029018F0EDFB0028A8DC02D1D1
:1013400019F0010FA4D1BA4617F8013D302BFAD09D
:10135000FEE4039BBB429BD13123039A01361370F9
:10136000F6E4219B002B7FF425AA014BFFF744BA3A
:101370001B7A06080000000051EC100BC1F30A5361
:101380002DE9F041A3F2FF350C460646132D32DC61
:10139000002D20DB384B0F4643FA05F801EA08031D
:1013A00003432DD032A3D3E9002312F0B9F9002270
:1013B000002312F0FBFD40B1002C03DA4FF4801340
:1013C0002B411F4427EA080400262346324643ECFB
:1013D000102BBDE8F08126A3D3E9002312F0A0F979
:1013E0000022002312F0E2FD0028EED0002C2ADBC0
:1013F00000263446E9E7332D06DDB5F5806F1BD0B6
:1014000041EC100BBDE8F081A3F213434FF0FF371E
:10141000DF400742F4D016A3D3E9002312F080F98D
:101420000022002312F0C2FD0028CED0002C33464B
:1014300010DB23EA0706C8E702460B4612F070F9F4
:1014400041EC100BDEE724F0004426430DD14FF0B1
:101450000044BAE7142D06D0C5F134050122AA4094
:101460001344B342E5D20134E3E70026034CACE772
:101470009C7500883CE4377EFFFF0F000000F0BF42
:101480000348044B834202D0034B03B11847704713
:101490000C6A05200C6A052000000000064B074975
:1014A000C91A891048BF0131491003D0044B0BB150
:1014B00001481847704700BF0C6A05200C6A0520D8
:1014C0000000000010B5064C237843B9FFF7D8FFA1
:1014D000044B13B10448AFF300800123237010BD07
:1014E000242A032000000000307C060808B5054BC4
:1014F0001BB105490548AFF30080BDE80840FFF780
:10150000CDBF00BF00000000401D0320307C060856
:10151000A3F5803A704700BF174B002B08BF134B51
:101520009D46FFF7F5FF00218B460F461348144AEE
:10153000121A18F09FF90E4B002B00D098470D4B54
:10154000002B00D098470020002104000D000D481A
:10155000002802D00C48AFF3008013F0FBFF2000FE
:10156000290016F053F813F0B5F900BF0000080089
:10157000000000000000000000100020001000200B
:10158000B0670520000000000000000010B5044610
:1015900018F044FF4FF47A729042B0FBF2F105D29A
:1015A0003621BDE810400C4815F003BC0B4BB3FBD3
:1015B000F1F30B49884201D93C21F2E702FB04F028
:1015C000B0FBF3F0022806D9BDE810400323B0FBBE
:1015D000F3F0FEF7F5BD10BDD8A6010840420F009C
:1015E000E7CD9A3B70B519F057F8144E054634789C
:1015F000FCB9134B1C60134B1C60134B1C6000F0B8
:1016000047F8012018F0A7FF18F044FD0F4B0246E1
:10161000186020B9284619F03AF8232070BD2346F7
:1016200040F2E7310A4812F093FD0A4B186001239B
:101630003370284619F02BF80020EFE7272A032003
:10164000601D03205C1D0320681D0320641D032012
:1016500018FCFFFF581D032000B58DB001238DF845
:101660000F3018F059FC00230146CDE90033074A3A
:101670000DF10F0304A818F046FF18B99DF80F30BC
:10168000002BFBD10DB05DF804FB00BF01A50108E4
:1016900010B586B000241422214601A88DF8004020
:1016A00018F0E8F8012313488DF8043018F07BFF98
:1016B000BFF34F8F684601F085FC204601A98DF8E5
:1016C000044001F091FC20460F2118F0C9FD0F21C4
:1016D000204618F0D3FD01F05BFC18F097FD064B97
:1016E00053209C6100F04EFE532000F019FE06B01E
:1016F00010BD00BFFCA9010800C00A500346054AFE
:101700000549106803448B428CBF4FF0FF301360D3
:10171000704700BFB46705200000082010B50446DC
:1017200018F0B1FF024B1C6018F0A8FF002010BD9C
:101730006C1D032010B518F0A6FF034B1C6818F0B1
:101740009DFF204610BD00BF6C1D03202DE9F04316
:101750008FB01D46136881461F6891F83130884666
:10176000144606AE1BB3DFF828C2BCE80F000FC654
:101770009CE80F0086E80F0018220021684618F048
:1017800079F8A3680893237B012B13D0022B14D084
:101790001BB1D921774815F00CFB0023ADF826309A
:1017A000637B032B1FD8DFE803F00B25221BDFF838
:1017B000E4C1DAE74FF40073F0E74FF44073EDE76C
:1017C0000023ADF8283001238DF80630A37BCDF837
:1017D00034D0042B11D8DFE803F0141515151400CC
:1017E0004FF44053EDE7EB21624815F0E2FA4FF475
:1017F0008053E6E74FF40053E3E7FE215D4815F020
:10180000D8FA00238DF800305B4AD8F838302946E2
:101810001A605A4A48465A6000229A60584ADA606A
:10182000424600F069FC0646002840F09B80236990
:101830005448C5F8A430237E85F8AB30E37D85F8A5
:10184000AA30A37D85F8A930637D85F8A830A37EF2
:1018500085F8AD30637E85F8AC30237F85F8AF30F6
:10186000E37E85F8AE302368C5F8A03018F09BFE03
:1018700001230422A17D607D03F066FC0123217E0B
:101880000222E07D03F060FC85F8B060206918F06A
:101890008AFE98F83130384606A9002B66D003F04E
:1018A00043FA95F8B03043F0040385F8B0301421C2
:1018B000227D354B03EB4210C0F8941494F816C007
:1018C000617D253241EA0C41C0F8AC14207EE17DF7
:1018D00003EB421341EA00415960A37B03F0FD038F
:1018E000012B0BD195F8B030022243F0010385F8AB
:1018F000B030A17E0023607E03F026FCA37B023B78
:10190000012B0BD895F8B030042243F0020385F880
:10191000B030217F0023E07E03F016FC95F8B03054
:10192000DB0717D5A17E627E237D42EA014241F2A8
:101930009C415B0103F1A04303F570335A5041F21F
:10194000944202219950217FE27E03F5A55342EA99
:1019500001421A600D4A07F5005305213846DA6442
:1019600002F05EFF30460FB0BDE8F08303F012FADC
:101970009DE700BF98A7010857640108E9640108C2
:101980006D64010810AA010800C00350FF3F0D0359
:1019900000A8010820A8010840F24221014815F0E2
:1019A00008BA00BF98A7010810B50020144614F02B
:1019B00029FD022804D018B1C321024815F0F9F915
:1019C000204610BD40A801083021037D02464B434C
:1019D00003F1A04303F58023D86E07491B6F8842AB
:1019E00008D113F0020006D0106A136D1B1A58427A
:1019F0005841704700207047282A032037B530230C
:101A0000007D0DF10701434303F1A04303F580235B
:101A1000DD6E1C6F18F098FC20B140F2F9310848D7
:101A200015F0C7F99DF8070040B9064B9D4203D158
:101A300084F00204C4F3400003B030BD0120FBE792
:101A4000AFA80108282A032037B504460DF1070185
:101A5000007D18F079FC20B140F24441114815F0A6
:101A6000A8F99DF80730A3B1256DD4E912231344DA
:101A70009D4201D8AA4204D940F24F41094815F0CD
:101A800098F9D4E9120303449D4218BF284603B0D5
:101A900030BD3022237D534303F1A04303F580235F
:101AA000DD6EE2E7AFA801082DE9F743D0E9043481
:101AB00004F17C07D0F80C90013B0646102200216F
:101AC00038469DB2D4F8748017F0D4FE104BC5F39D
:101AD0000A0543EA0513C4E91F39012394F8780085
:101AE00084F88C30C4F884803A460A4B009604F19E
:101AF000640104F0DFFB38B140F28D31064803B0D9
:101B0000BDE8F04315F055B903B0BDE8F08300BF60
:101B100000001030911C0008AFA801082DE9F04327
:101B200085B000F13806044610220021304617F037
:101B3000A1FE4FF44473534D207DC4E90F556387D4
:101B400004F0DEFB20B140F2CA514F4815F031F9E4
:101B500010220021304617F08DFE4FF44473638746
:101B60003023207DC4E90F55434303F1A04303F51F
:101B70008023DB6EAB420BD104F0E2FB002876D071
:101B800040F2D351404805B0BDE8F04315F011B91B
:101B90000DF10B0118F0D8FB20B140F2D9513A48B1
:101BA00015F007F99DF80B30002B63D12046FFF7A5
:101BB0004BFF03A90746207D18F0E8FB20B140F257
:101BC000E151314815F0F5F8039B002B04DC40F29D
:101BD000E3512D4815F0EDF8039B04F11808013B83
:101BE0001022002140469DB2D4F8109017F042FE1A
:101BF0003022237DC5F30A0553432D0145F040757E
:101C0000C4E9065903F1A043276203F580231A6F44
:101C100094F82410520862F3410184F82410196FDB
:101C200094F8242028F0030861F3000284F82420AB
:101C30001B6F626A9B0863F39F0248F002036262B3
:101C40006364009432462146104B207D04F032FB41
:101C500020B140F204610C4815F0ABF8207D04F08F
:101C60006FFB20B14FF4C161074815F0A2F805B031
:101C7000BDE8F08394F844306FF3410384F84430B6
:101C8000DFE700BF282A0320AFA801084365010849
:101C900038B55569144695F88C3023B940F26A314D
:101CA0000A4815F086F8002305F1900085F88C307D
:101CB00007F016FA08B1FFF7F7FE63681BB10021C1
:101CC0002046A2689847002038BD00BFAFA8010891
:101CD00038B50446007D04F013FB20B140F22D41DD
:101CE000084815F066F82046FFF76EFE0546207D91
:101CF00004F026FB20B140F23241024815F059F8B9
:101D0000284638BDAFA801082DE9F04F8DB099469F
:101D10000023044608910692C9F80030D9F8006003
:101D2000069B9D1B00F0C580089B9E1900F0C1809A
:101D30002046FFF7CDFF8046002840F0BA802046BD
:101D4000FFF782FE226D904240F2BC80801A8542ED
:101D500028BF054694F896A0BAF1000F00F0F28073
:101D600018F09AFC236D079020460993FFF746FE72
:101D70002F46099B834658198342D4F8981040F0A7
:101D8000BC80D4E9122313448B4208BFC4F89820C6
:101D9000D4F898108A4201D88B4204D840F24251BC
:101DA0008A4815F006F8079818F071FCDA46207D8D
:101DB00004F0A6FA20B140F28241844814F0F9FF01
:101DC000207D0DF12F0118F0BFFA20B140F28641BD
:101DD0007E4814F0EEFF2046FFF736FE236D834663
:101DE00098429DF82F3040F2BC8023B140F28E41E2
:101DF000764814F0DEFFA26C236DAEB2934240F041
:101E0000A880099304F12808236910220021404684
:101E1000079317F02FFD3021079B013EE362099BDA
:101E2000C6F30A062363237D36014B4328F00308DB
:101E300003F1A04346F0407648F0020203F5802308
:101E4000A6621A67236DD4E912122B440A44934206
:101E500008BF0B469342236504D340F2DE415B4842
:101E600014F0A7FF236D9B4505D10123204684F87C
:101E70005430FFF753FE207D04F062FA20B140F2A7
:101E8000F741524814F095FF94F896303BB1BAF1FF
:101E9000000F04D0236E112120465B689847D9F8C3
:101EA000003037B1069A3B449342C9F80030FFF442
:101EB00035AFD9F80030002B14BF00201B200DB027
:101EC000BDE8F08FD4E912310B449A4204D340F2BA
:101ED0006A413E4814F06DFFD4E912321344226D7A
:101EE0009B1A9D4228BF1D46002D7FF433AF40F260
:101EF0001651364814F05DFF2CE701335A1E91420B
:101F000010D1C4F8983013F8012C112A01D0132AEB
:101F100014D1013FA2F111014A424A41D04684F84E
:101F20009C2029E713F8012C02F0FD01112906D1AC
:101F3000013FB8F1000F3FF41FAFEBE7D04606F8C2
:101F4000012B19E72A463046216D17F0F2FC2F4687
:101F50002DE7238DC3F30A12164466F30E1323856F
:101F600070E7207D93B93023584300F1A04000F57D
:101F70008020426E436EC2F30A1223F4FF432A44C8
:101F800023F0700343EA021343665BE7104B0494AB
:101F900003930023CDE90153012300935A4623699B
:101FA000216814F045FC20B140F2CB41074814F001
:101FB00000FF3022237D534303F1A04303F5802328
:101FC0005A6E22F480125A663CE700BFAFA801089F
:101FD000436501082DE9F84F90F8943004460D460A
:101FE000002B40F0858090F89580DFF808918E18DE
:101FF000B54223D094F896306BB12046FFF768FEC7
:10200000F8B1D4F89820236D9A4204D040F2CD2143
:10201000484614F0CEFE94F89C30002BE8D0236E96
:102020002F462A785B68B8F1000F59D1236E2046FD
:102030005B683978013598470028D9D00020BDE881
:10204000F88F18F029FB0746207D04F059F920B1DC
:1020500040F2D321274814F0ACFE2046FFF7F4FCF1
:10206000A26C00F1FF3A924538BFE36C207D3CBF83
:1020700003F1FF3302EB030A94F854B004F060F963
:1020800020B140F2DF211B4814F093FED4F89810E1
:10209000BBF1000F22D0236D8B4204D04FF4397175
:1020A000144814F086FE384618F0F1FAB3E7A26C33
:1020B0009A4202D9E36C013B134499420BD013F8C6
:1020C0000129112A01D0132AF1D1A2F111035A4298
:1020D0005A4184F89C20C4F898A0E4E75346ECE702
:1020E0000A2AA3D10D212046984700289ED0A5E7B3
:1020F0000E20A4E7AFA80108F0B589B00C4615463C
:102100000646A0220021204617F0B4FB2746AC4625
:10211000BCE80F000FC7DCF8003005F1140C3B6081
:1021200004F16407BCE80F000FC7DCF80030EA6A6E
:102130003B60AB6AC4E9132395F83020A36484F8AC
:10214000952095F83320C4F89830012384F8962020
:1021500084F89C3084F85430AB6B2366324B346087
:102160007360324BB360324BF360324B7361324B6E
:10217000B361324B336104F069F810B1304B9842CF
:102180000FD1002107A803F0C1FF014648B9079B02
:1021900007A8237503F0BAFF0346207D23B104F09E
:1021A0002FF8102009B0F0BD079B84F8783004F0B8
:1021B000A7F80028F5D1234B0494CDE90203E36C82
:1021C0000193012300932369A26C2168207D14F000
:1021D0002FFB0028E5D13022237D4FF4801153439B
:1021E00042F2640203F1A04303F580239950AB6BE4
:1021F00093F9100000F0C6F8AB6B93F9100000F0F3
:102200008FF804F1900014F0D5FD3046FFF786FA00
:102210002046FFF783FC207D04F092F8003818BFB9
:1022200001200001BEE700BFD51F0008B36501080B
:10223000091D0008376501083D65010849220008AD
:10224000038000F04365010870B50568044695F801
:102250009460002E3BD114F0CFF9FFF76BFA844263
:1022600002D13046FFF75AFA2B6E93F9100000F0B6
:1022700089F82B6E93F9100000F034F8287D18F0DF
:1022800043F820B140F29721144814F092FD287DC4
:1022900003F0B6FF20B140F29B21104814F089FDF5
:1022A00003F08CFF38B10E4B984204D040F29F21CE
:1022B0000A4814F07EFD0023C4E90033C4E9053365
:1022C000E3602B6E2846BDE87040DB68184740F29B
:1022D0006621024814F06DFD0F2070BDAFA8010803
:1022E000058000F010B55D2804460DD801220A498A
:1022F000630904F01F04A240203341F82320BFF3F8
:102300004F8FBFF36F8F10BD40F22511034814F0BB
:1023100050FD002CF7DBE9E700E100E014A901081B
:1023200010B55D28044608D801236109074A04F066
:102330001F04A34042F8213010BD4FF498710448A7
:1023400014F037FD002CF7DBEEE700BF00E100E002
:1023500014A9010810B55C28044604D940F23B11C9
:10236000064814F026FD064B621153F8220004F0D3
:102370001F04E040C04300F0010010BD14A9010893
:1023800000E100E0002808DB01224309034900F0D6
:102390001F008240603341F82320704700E100E0D5
:1023A00038B500F110036D2B04460D4604D94FF4E7
:1023B000EF710E4814F0FDFC0F2D04D940F2DF112F
:1023C0000A4814F0F6FC60B20028ACBF00F160408F
:1023D000074B4FEA0515EDB2ABBF00F5614000F0C9
:1023E0000F0080F800531D5438BD00BF14A9010828
:1023F00014ED00E010B518F04FF90A4B1A786AB9DD
:1024000001226FF004041A7018F041F920460521EA
:102410000134FFF7C5FF5D2CF8D110BDBDE81040B9
:1024200018F035B9292A032007B5094B18689A888E
:102430009B7900906846ADF804208DF8063002F0D4
:1024400033F90C2002F068F9002003B05DF804FBBA
:1024500024AA010813B50024064A6846536F43F0C6
:102460000103536700948DF8044002F051F82046B0
:1024700002B010BD0040005030B58BB0914818F04C
:1024800092F820B140F236318F4814F092FC6C463D
:102490008E4D0FCD0FC42B688D4A2360FF238DF81E
:1024A0000130D2F84C3113F4802340F0FE80D2F892
:1024B00050218DF801309DF801306C46FF2B08BF8C
:1024C0003F236846834D8DF8013001F049FD3220ED
:1024D00001F0A8FD0FCD0FC40FCD0FC495E8030088
:1024E00084E803007A4BD3F84C21120340F1C180F9
:1024F000A3F5FE431C88B4F5807F28BF8C248DF89B
:10250000194001F027FD044484F3080472488DF853
:10251000184006F073FE684601F00AFC322001F014
:1025200087FD6E4801F0AAFE6D4801F035FF6D4849
:1025300018F039F820B140F2CB11634814F039FC9F
:10254000694C002001F07AFD01F04EFE236F00205F
:1025500023F0070343F00303236701F06FFE236FAB
:10256000624923F474432367614BD3F8FC2012F0D3
:10257000807240F08280D4F8803023F0030343F06F
:102580000103C4F88030C1F88020574CD4F82031C2
:1025900023F0070343F00203C4F82031D4F82831B4
:1025A00023F0070343F00203C4F82831D4F8803144
:1025B00023F0030343F00103C4F88031D4F8403121
:1025C00023F0030343F00203C4F84031D4F8603130
:1025D00023F0030343F00203C4F86031D4F840321F
:1025E00023F0030343F00203C4F84032D4F800326E
:1025F00023F0070343F00203C4F80032D4F8083292
:1026000023F0070343F00203C4F80832D4F8503231
:1026100023F0030343F00203C4F85032D4F87032BD
:1026200023F0030343F00103C4F87032D4F82032DE
:1026300023F0070343F00103C4F8203201F060FBEC
:102640004FF0E0220020136943F004031361D4F833
:10265000603223F0070343F00103C4F86032D4F87A
:10266000943223F0070343F00103C4F894320BB013
:1026700030BDD3F85041E4B241E7D3F8FC2022F05A
:102680008072C3F8FC20D4F8802022F0030242F0CC
:102690000102C4F880200022C1F88020D3F8FC2079
:1026A00042F08072C3F8FC206FE74FF07E6393F82E
:1026B0009C2093F99C30002BFFF6FDAE8DF8012095
:1026C000F9E600BFFCA90108ECAA010864AB010807
:1026D0000080E00F78AB0108C017530200B4C404B7
:1026E000C0EA210100AA01080080005000900050BB
:1026F00000ED00E038B50E4B044698420D460FD071
:102700000C4B98420CD003F58043984208D003F557
:102710008043984204D040F2D241074814F049FB6C
:102720006368DB0702D5636D2B42F9D138BD00BF6A
:102730000000015B00C00850A0AB010810B50F4BB2
:10274000044698420FD00E4B98420CD003F58043BC
:10275000984208D003F58043984204D040F2E34108
:10276000084814F026FB204640F6FF71FFF7C2FF31
:10277000012304F58054636010BD00BF0000015BBD
:1027800000C00850A0AB010810B50D4B044698429C
:102790000FD00C4B98420CD003F58043984208D0E0
:1027A00003F58043984204D040F2F541064814F006
:1027B00000FB6368012B04BF04F50054636010BD87
:1027C0000000015B00C00850A0AB010810B50C4B25
:1027D000044698420FD00B4B98420CD003F580432F
:1027E000984208D003F58043984204D040F211513A
:1027F000054814F0DEFA63689B07FCD410BD00BFE7
:102800000000015B00C00850A0AB010810B50F4BE1
:10281000044698420FD00E4B98420CD003F58043EB
:10282000984208D003F58043984204D040F23551D5
:10283000084814F0BEFA204640F6FF71FFF75AFF31
:10284000022304F58054A36310BD00BF0000015BA8
:1028500000C00850A0AB010810B50F4B04469842C9
:102860000FD00E4B98420CD003F58043984208D00D
:1028700003F58043984204D040F25751084814F0C1
:1028800098FA204640F6FF71FFF734FF082304F55D
:102890008054A36310BD00BF0000015B00C008505E
:1028A000A0AB010810B5114B044698420FD0104B55
:1028B00098420CD003F58043984208D003F580433A
:1028C000984204D040F2AA510A4814F072FAA36C5C
:1028D000DA0704D540F2AD51064814F06AFAA36C49
:1028E0001B0600D410BDE36BF9E700BF0000015BDD
:1028F00000C00850A0AB010810B5124B0446984226
:102900000FD0114B98420CD003F58043984208D069
:1029100003F58043984204D040F2C6510B4814F0AE
:1029200048FAA36C9A0704D540F2C951074814F03D
:1029300040FA4FF4807204F580539A63A36C9B01B4
:10294000FCD410BD0000015B00C00850A0AB010822
:1029500010B5294B044698420ED0284B98420BD014
:1029600003F58043984207D003F58043984203D093
:10297000F421234814F01DFA2046FFF76DFF20468E
:10298000FFF744FF50212046FFF7B4FE2046FFF733
:10299000FBFE2046FFF71AFF2046FFF783FF204685
:1029A000FFF7AAFF042304F5805204F500511361D8
:1029B0000B6113610B6113610B6113610B612023C8
:1029C00041F2020223610023E360A36062614FF4DD
:1029D000A02262620B4AE3612362A361A365A36242
:1029E000E36263632365CA642363636DC3F30B030C
:1029F000002BFAD010BD00BF0000015B00C00850E2
:102A0000FCAB0108FF3F0D032DE9F04104460E46E3
:102A100017469846FFF79CFF6369B27923F44C533D
:102A200023F00F0343EA02237279F0681343F2792B
:102A300043EA02336361A368327923F0804323F0D1
:102A4000E20343EA4213727A43EA4203327A43EAE8
:102A50008273A3603268804B03EAC20323630028B9
:102A600000F08380457903796D04A26845EA8355B7
:102A70007A4B13401D43037B45EA4335037845EA0F
:102A80008305837945EAC305C37945EA031543788D
:102A900045EA8325A560C37B827B1B04E16843EA8A
:102AA000C2636F4A0A40134382786E4943EA822325
:102AB000C27843EA4223E360C37A04F58052012BD3
:102AC0001CD10423D3608C4200F09780664B9C425B
:102AD00000F0958003F580439C4200F0928003F55E
:102AE00080439C420CBF03234FF0FF335B0103F193
:102AF000A04342F2944103F570331AE0032B72D1E4
:102B00000423D3608C4272D0574B9C4271D003F5A2
:102B100080439C426FD003F580439C420CBF03234B
:102B20004FF0FF3341F294415B0103F1A04303F501
:102B3000703302255D50837A936213B14FF40063C2
:102B4000D360037A53B14FF40043D360454B9C42AA
:102B500059D174220021407A00F0D0F9F368626AFA
:102B60005B7B22F00302134363622FB17B7804F591
:102B70008051012B5CD10B62B8F1000F31D0737A18
:102B800004F5805113B14FF400438B65354B98F831
:102B900001009C4298F8023057D0334A944256D0F4
:102BA00002F58042944254D002F5804294420CD106
:102BB0000322092834BF012602262C4D082BAE54CF
:102BC00094BF012602262A4DAE54A26D1B0222F4A8
:102BD000F95243EA400322F01E021343A365012386
:102BE0008B65BDE8F081023B012B8BD96BE700239D
:102BF00098E7012396E7022394E7002376E7012371
:102C000074E7022372E7184B9C4201D18022A1E7AE
:102C1000184B9C4201D18C229CE7174B9C4201D15E
:102C2000982297E740F26B31144814F0C2F895E708
:102C30003B78E269B878DB0043EA400322F00F02F8
:102C4000134343F00103CB6196E70022B1E7012271
:102C5000AFE70222ADE700BFF8FF7F00E39BBDFFB7
:102C6000FFF9F0870000015B00C008502E2A032006
:102C70002A2A03200000095000400950FCAB01083B
:102C800070B5174B044698420D460ED0154B98422E
:102C90000BD003F58043984207D003F58043984258
:102CA00003D06E21104814F084F81DB970210E482D
:102CB00014F07FF82B79042B03D174210A4814F007
:102CC00078F86B79032B03D97721074814F071F852
:102CD000002329462046BDE870401A46FFF794BEFF
:102CE0000000015B00C00850FCAB010870B5044651
:102CF00016460D4621B94FF424712C4814F059F8AA
:102D0000042E4BD8DFE806F0031F29353F00B5EB52
:102D1000141F04D94FF48C61244814F04AF810238E
:102D20006B436401B4FBF3F4214B203CB3EBC40FC1
:102D30004FEAC40504D240F299211C4814F039F836
:102D4000C5F3D30070BDB5EBD40F04D940F2654193
:102D5000164814F02EF80823E2E70623B4FBF3F339
:102D60009D4204D940F26A41104814F022F806232B
:102D7000D6E7B5EB940F04D940F26F410B4814F03D
:102D800018F80423CCE705EB45039C4204D240F23B
:102D90007441064814F00DF80123C1E740F27A416E
:102DA000024814F006F80023BAE700BFFCAB0108A4
:102DB000F8FF7F0010B5044620B940F23A211248CE
:102DC00013F0F7FF23782BB1012B17D0022B18D06B
:102DD000032B05D140F2FF736278D340DB0704D4A4
:102DE00040F23D21084813F0E4FF01226378217886
:102DF0009A4030235943054B5A5010BD40F2FF13FF
:102E0000EAE743F6FF73E7E758AC010840E00350F8
:102E1000034BD3F82424D3F820041040704700BF9C
:102E200000C003502DE9F041037804460D461646D4
:102E30002BB1012B21D0022B22D0032B05D140F244
:102E4000FF736278D340DB0703D45D21284813F079
:102E5000B0FF284BD3F810331BB16021244813F086
:102E6000A8FF0F2D0FD8DFE805F03A353535353599
:102E70003535353535353535353540F2FF13E0E735
:102E800043F6FF73DDE7B421194813F092FF4FF0CA
:102E90000008204606B317F08BF90F2167782378D6
:102EA000072F03EB430388BF083F4FEA0313124881
:102EB00095BFBF00BF0004330C3308FA07F2B940D6
:102EC000184413F0ADFB85B9204656B1BDE8F0417A
:102ED00017F06EB9A846DCE7FFF76CFFDDE7A84600
:102EE000DBE7BDE8F041FFF765BFBDE8F08100BF5B
:102EF000B2AC010800C0035030C0035070B5B2F549
:102F0000805F05460E46144612D394210E4813F0F6
:102F100050FF24F0030404F1A04404F5603456B9D2
:102F20000F2D03D99C21084813F043FF256001E0D1
:102F3000002AEED170BD032D03D9A021024813F061
:102F400038FF2D02F2E700BF0CAD0108054B9A686F
:102F50009107FCD45A689207F9D4DA69002AF6D1AD
:102F6000704700BF00C00A5010B5074C6368DB070C
:102F700004D44FF49371054813F01BFF17F046F982
:102F80000223236110BD00BF00C00A5065AD0108D7
:102F900008B5FFF7DBFF0122024B03F580514A60C1
:102FA0001A6108BD00C00A5010B5044B5C68012CC2
:102FB00003D1FFF7D9FF024B5C6010BD00C00A507F
:102FC00000E00A5038B5074DFFF7C0FF6B680446B4
:102FD000012B03D1FFF7E8FFFFF7B8FF2378EB6081
:102FE00038BD00BF00C00A5038B505460C4617F082
:102FF00017F9BDB96268237812B1127843EAC203A7
:10300000627843EA4203A26812B1127843EA82135B
:10301000E27843EA8203226912B1127843EA42233A
:10302000014A936438BD00BF00C00A50044BD3F876
:103030008420D206FBD4D3F88400C0F381107047FB
:103040000040005038B5104B0546D3F800310C460F
:1030500003F00303022B0BD0032B0DD0012B0FD158
:1030600017F0F6F9032305B1286004B1236038BDD9
:1030700017F040FA0923F6E717F0F0F90823F2E712
:1030800001230020EFE700BF0080005038B5104B4F
:103090000546D3F840310C4603F00303022B0BD056
:1030A000032B0DD0012B0FD117F0FCFA0A2305B129
:1030B000286004B1236038BD17F01CFA0923F6E735
:1030C00017F0F3FA0C23F2E701230020EFE700BF2B
:1030D0000080005038B5104B0546D3F860310C46DF
:1030E00003F00303022B0BD0032B0DD0012B0FD1C8
:1030F00017F0D8FA0A2305B1286004B1236038BD5F
:1031000017F0F8F90923F6E717F0CFFA0C23F2E7E6
:1031100001230020EFE700BF0080005038B5104BBE
:103120000546D3F840320C4603F00303022B0BD0C4
:10313000032B0DD0012B0FD117F0B4FA0A2305B1E0
:10314000286004B1236038BD17F0D4F90923F6E7ED
:1031500017F0ABFA0C23F2E701230020EFE700BFE2
:103160000080005038B5124B0546D3F880300C462D
:1031700003F00303022B0BD0032B0DD0012B0FD137
:1031800017F02CF90E2305B1286004B1236038BD77
:1031900017F068F90723F6E717F01AF90623F2E7A4
:1031A000044841F2142113F004FE00231846EAE714
:1031B000008000501DAE010838B51A4B0546D3F803
:1031C00020010C4600F00700062821D8DFE800F0B7
:1031D00028040C1410181C0017F0FAF8052305B188
:1031E000286004B1236038BD17F032F90323F6E7F5
:1031F00017F038F90723F2E717F026F90223EEE774
:1032000017F0E6F80623EAE717F022F90423E6E7C9
:10321000054841F2912113F0CCFD00231846DEE76A
:103220000123DCE7008000501DAE010838B5194BC2
:103230000546D3F828310C4603F00703013B052B64
:1032400020D8DFE803F003131B0F0B1717F0C0F8AB
:10325000052305B1286004B1236038BD17F0B8F824
:103260000623F6E717F0FEF80723F2E717F0F0F869
:103270000323EEE717F0ECF80423EAE717F0E4F88D
:103280000223E6E7044841F2990113F092FD00237E
:103290001846DEE7008000501DAE010837B5002358
:1032A0000193194B0546D3F820320C4603F007036F
:1032B000042B1FD8DFE803F025030F1419000021A9
:1032C00001A8FFF7B3FF12230DB1019A2A6004B1E0
:1032D000236003B030BD17F0C5F807230190F3E772
:1032E00017F0E0F90A230190EEE717F003F909233C
:1032F0000190E9E741F25601044813F05AFD00231A
:10330000E2E70123E0E700BF008000501DAE0108A6
:10331000F7B50027144B0197D3F88041064604F017
:103320000304022C0D4614D0032C0DD0012C14D113
:10333000394601A8FFF740FF10240EB1019B33600E
:1033400005B12C6003B0F0BD17F08CF80724019094
:10335000F3E717F079F80190EFE741F2E63103481F
:1033600013F027FD3C46E8E7008000501DAE010841
:1033700038B5164B0546D3F800020C4600F007009E
:10338000042819D8DFE800F020030B0F130017F012
:1033900089F90A2305B1286004B1236038BD17F00C
:1033A000A9F80923F6E717F080F90C23F2E717F0E4
:1033B00035F80F23800AEDE7054841F2A44113F0E8
:1033C000F8FC00231846E5E70123E3E700800050FE
:1033D0001DAE010838B5164B0546D3F808020C4659
:1033E00000F00700042819D8DFE800F020030B0FD5
:1033F000130017F057F90A2305B1286004B12360C0
:1034000038BD17F077F80923F6E717F04EF90C23CB
:10341000F2E717F003F80F23800AEDE7054841F2C1
:10342000DC4113F0C6FC00231846E5E70123E3E77F
:10343000008000501DAE010838B5124B0546D3F888
:1034400050320C4603F00303022B0FD0032B05D0A0
:10345000012B0FD117F026F90A2302E017F025F906
:103460000C2305B1286004B1236038BD17F042F881
:103470000923F6E7044841F2C90113F09AFC00233E
:103480001846EEE7008000501DAE010837B5002356
:103490000193184B0546D3F860320C4603F007033E
:1034A000013B032B1FD8DFE803F0020E19140021A3
:1034B00001A8FFF781FE10230DB1019A2A6004B123
:1034C000236003B030BD002101A8FFF7DFFD112309
:1034D000F2E716F0C7FF07230190EDE716F0B4FFFF
:1034E00002230190E8E741F2FD01034813F061FC7B
:1034F0000023E1E7008000501DAE010837B500232E
:103500000193184B0546D3F894320C4603F0070399
:10351000013B032B1FD8DFE803F0020E1914002132
:1035200001A8FFF749FE10230DB1019A2A6004B1EA
:10353000236003B030BD002101A8FFF7A7FD1123D0
:10354000F2E716F08FFF07230190EDE716F07CFFFE
:1035500002230190E8E741F23011034813F029FCFF
:103560000023E1E7008000501DAE010873B5002480
:103570000F4B0194D3F87032064603F00303012B7E
:103580000D4607D0022B11D041F25B11094813F010
:1035900010FC04E0214601A8FFF778FD11240EB1CC
:1035A000019B336005B12C6002B070BD1524F6E7B5
:1035B000008000501DAE010808B5334B98424FD033
:1035C00027D8324B984245D017D8314B98423ED03D
:1035D0000AD838B12F4B984239D041F2BB312E482E
:1035E00013F0E7FB002034E02C4B98422FD02C4BFB
:1035F0009842F2D12B4B586E2BE02B4B98422CD09B
:1036000003F5371303F5D8639842E6D1254B986F3D
:103610001FE0264B98422FD00CD8254B984223D040
:10362000244B984224D0244B9842D6D11D4BD3F83A
:1036300084000EE0214B984222D003F5740303F579
:1036400010539842C9D1174BD3F8980001E0154B9D
:10365000986D08BD134B186FFBE7124B586FF8E7D6
:10366000104BD3F88000F4E70E4BD3F88800F0E756
:103670000C4BD3F88C00ECE70A4BD3F89000E8E74A
:10368000084BD3F89400E4E780BA8C01405DC60093
:1036900080841E0040420F001DAE010800093D005D
:1036A000C0CF6A000080E00F0024F400007E5603C3
:1036B00080D54302006CDC020048E8010090D00392
:1036C00010B5B0F5207F2ED009D8B0F5007F24D0FA
:1036D00003D868B1B0F5C07F0AD000241BE0B0F574
:1036E000607FFAD1124BD3F88040C4F3011412E08A
:1036F0000F4B1C6F230B13F00E0FC4F303340AD0CF
:10370000072C08D00F2C06D0032C04D04FF42271C4
:10371000084813F04EFB601C10BD054BD3F89040D9
:10372000C4F30464F7E7024B1C6FC4F38024F2E790
:10373000008000501DAE010838B54FF48032104BA8
:1037400004469A6600200D46FFF7BAFF41F6713233
:103750000C4B6043DC69DA635A6804F4803422F469
:1037600040125DB90849884294BF0020012000053D
:1037700002435A600CB10022DA6338BD0349F2E714
:103780000090005000000350005A6202002D3101E9
:1037900038B5420904460D4606D140F235310D4890
:1037A00013F007FB002305E0531E022B0BD80A4B36
:1037B00003EB820304F01F0445B103F5805301229B
:1037C000A2401A6038BD40F24331E8E703F50053E8
:1037D000F5E700BF1DAE01086080005030B585B030
:1037E0000021B0F5807F0446CDE9001100F0098189
:1037F0006BD8002800F0D980A0F12004602C74D888
:10380000602C72D8DFE814F0D100DE00D100DE00B9
:10381000EE00EE00EE00EE00EE00DE00F8007D00AF
:103820000E019D007D00DE00DE00DE0071007100F3
:10383000710071007100710071007100DE00DE0026
:10384000DE00AF001801DE00710071007100710030
:1038500071007100710071007100710071007100E0
:103860001D01EE00D100D100D10013017D007D00CB
:10387000BB0022019200F300710071007100710021
:103880007100C600D1007100EE00EE00EE00EE0007
:10389000EE00F300F300DE007100DE00DE007100D8
:1038A0007100710071007100710071007100710090
:1038B0007100710071007100710071007100710080
:1038C0007100710071007100CB00B0F5E06F00F085
:1038D000B3803BD8B0F5607F7FD01DD8B0F5007FB6
:1038E00066D008D8B0F5C07F5FD040F2A4415C48F4
:1038F00013F05FFA56E0B0F5207F63D0B0F5407F5B
:10390000F3D116F08BFD04464FF42070FFF7D8FE7C
:10391000B4FBF0F464085EE0B0F5B06F6CD00AD888
:10392000B0F5806F5ED0B0F5A06FDED100216846A3
:10393000FFF7B4FC36E0B0F5C06F73D0B0F5D06FD0
:10394000D3D100216846FFF713FD2BE0B0F5186FC7
:1039500077D00DD8B0F5086F7DD0B0F5106F66D078
:10396000B0F5F06FC1D100216846FFF7B3FB19E055
:10397000B0F5286F6AD007D8B0F5206FB5D1002117
:103980006846FFF783FD0DE0B0F5406F2FD0B0F52E
:10399000486FAAD100216846FFF7B0FD02E016F09B
:1039A0001DFD0090009805B030BD16F037FDF8E71A
:1039B00016F014FD05462046FFF782FEB5FBF0F534
:1039C0000095EFE716F02AFD04464FF42070FFF74C
:1039D00077FEB4FBF0F40094E4E701A8FFF7C2FB24
:1039E000019DE8E700216846FFF7E6FBDAE70021E2
:1039F0006846FFF71BFCD5E700216846FFF788FC07
:103A0000D0E74FF0E02302911B695B0705D516F064
:103A100005FD0290029B0093C4E703A902A8FFF7EB
:103A200035FBF7E700216846FFF730FBBAE70021D6
:103A30006846FFF7CFFCB5E700216846FFF76EFB4D
:103A4000B0E700216846FFF7F7FCABE700216846C6
:103A5000FFF78CFDA6E76846FFF7F4FAA2E700BF80
:103A60001DAE010808B58020FFF7B8FE034B984251
:103A70009EBF4FF48032024B1A6708BD005A6202A3
:103A800000A000501FB503460020B3F5807F0190D1
:103A900000F0FB8000F28B80662B7BD83C2B05D896
:103AA000243B092B5CD940F28951DDE03D3B292BB9
:103AB000F9D801A252F823F0AD3C0008DB3C000825
:103AC000A73A0008A73A0008A73A0008A73A000852
:103AD000A73A0008A73A0008A73A0008A73A000842
:103AE000A73A0008A73A0008A73A0008A73A000832
:103AF000A73A0008E53C0008813C0008A73A000806
:103B0000A73A0008A73A0008173C0008A73A00089F
:103B1000A73A0008313C0008EF3C0008D93B0008F8
:103B2000D13C0008A73A0008A73A0008A73A0008C5
:103B3000A73A0008A73A0008493C0008A73A00083D
:103B4000A73A0008813C0008813C0008813C00083D
:103B5000813C0008813C0008D13C0008D13C0008B1
:103B6000092BA0D801A252F823F000BF813C000825
:103B7000813C0008813C0008813C0008813C000831
:103B8000A73A0008713C0008A73A0008F73B000874
:103B9000B73C0008802B86D1574B1B6F03F00703FF
:103BA000013B032B5ED8DFE803F05B545759B3F5B4
:103BB000F06F7BD024D8B3F5B06F59D011D8B3F5DE
:103BC000607F00F08180FFF46EAFB3F5806F57D057
:103BD000B3F5A06F7FF467AF002001A9FFF75EFB8C
:103BE0004AE0B3F5D06F66D0B3F5E06F75D0B3F5AA
:103BF000C06F7FF458AF002001A9FFF747FA3BE000
:103C0000B3F5186F6ED00BD8B3F5086F58D0B3F575
:103C1000106F7FF448AF002001A9FFF7DBFB2BE01A
:103C2000B3F5286F63D008D8B3F5206F7FF43BAFAE
:103C3000002001A9FFF72AFC1EE0B3F5406F47D032
:103C4000B3F5486F7FF42FAF002001A9FFF756FCB2
:103C500012E0052301930FE00323FBE70823F9E7B4
:103C60000223F7E740F2D641244813F0A2F803E01C
:103C7000002001A9FFF74CFB019805B05DF804FB9B
:103C8000002001A9FFF798FAF6E74FF0E023029031
:103C90001B695B0705D516F0C1FB0D230393039B3E
:103CA000D8E703A902A8FFF7F1F9F8E7002001A976
:103CB000FFF710FAE0E7002001A9FFF759FBDBE767
:103CC00001A9FFF7BFF9D7E701A9FFF74BFAD3E73F
:103CD000002001A9FFF7AAFACEE7002001A9FFF70B
:103CE0001DFAC9E7002001A9FFF7A6FBC4E70020E1
:103CF00001A9FFF73BFCBFE7008000501DAE0108A3
:103D00004FF48032074B0849586E03F580535A66CA
:103D10004B6A23F001034B62C3035CBF034B5A663B
:103D2000704700BF008000500000085000A0005005
:103D300038B5036804460F2B04D940F68A317C4815
:103D400013F037F863680F2B04D940F68D317848AB
:103D500013F02FF8A3680F2B04D94FF4396174487E
:103D600013F027F8237B0F2B04D940F693317048CA
:103D700013F01FF8637B0F2B04D940F696316C4883
:103D800013F017F8A37B3F2B04D940F6993168480C
:103D900013F00FF8E37B3F2B04D940F69C316448C5
:103DA00013F007F82369032B04D940F69F316048CC
:103DB00012F0FFFF6369032B04D940F6A2315C487F
:103DC00012F0F7FFE369032B04D940F6A5315848F8
:103DD00012F0EFFF8020FFF755FE032800F08380EC
:103DE0004FF48012534B4FF0A0615A6645F60E0215
:103DF000514BC3F88020514A91624FF4803102F553
:103E0000805291629A6DD203FCD4996D11F0804179
:103E1000FBD1D4E90002120542EA0062E07B0243D2
:103E2000207B42EA0042607B42EA0032A07B42EA09
:103E300080121A619869D4E90452120642EA856236
:103E400000F000400243A07EE57E0243207E42EA6D
:103E50000042607E42EA00229A611A6AE06922F01A
:103E60000F0242EA8502364D00283DD11A6294F8CD
:103E70002420996A94F82000D200294042EA401296
:103E80000A4394F8211042EA011242F480329A6205
:103E90002C49294A936D31EA0303FBD14FF080711D
:103EA000264881621369A56823F4700343EA055329
:103EB00013614FF00043836194F822300BB9224B19
:103EC000996294F823303BB94FF480321E4B9A62CA
:103ED000194A936D5B00FCD494F825301BB1164B46
:103EE0001A4AC3F8802038BD024342F00802022873
:103EF0001A6208D119614FF40852996114484FF4BD
:103F00007F4112F09CFB0C4994F822308A6A94F8A5
:103F100020001B062A4043EA4013134394F8242050
:103F200043EAC20394F8232043EA02438B62D3E7B7
:103F30001DAE0108009000500040005A0050005A89
:103F4000C7FFFEFE030001000060005AF1A7FFFF5B
:103F50003440005A014B93F900007047016A052074
:103F600010B543680446072B04D940F6E6512A48A9
:103F700012F01FFFA368032B04D940F6E85126482E
:103F800012F017FF2378032B04D940F6EA51224898
:103F900012F00FFF94F90130002B04DA40F6EC51D7
:103FA0001D4812F006FF4FF400011C4A6378516669
:103FB0004FF4D151022002F5B832516218494F2B0B
:103FC00048604FF0010028BF4F2301F58051486041
:103FD0001169C903FCD4217843EA01235361D4E970
:103FE00001131B0143EA0123617B0B43217B43EA5D
:103FF00041039360E37BA17B1B0143EA4113617C96
:104000000B43217C43EA41035360A37C13B16FF45B
:10401000D153536210BD00BF1DAE01080090005087
:1040200000100250014B1880704700BFFE69052048
:10403000014B1880704700BFFC69052008B54FF49C
:104040008002184B5A660223174A5360936813F490
:104050008033FBD1012822D116F0FAF9134B984294
:1040600015D003F5122303F5F863984213D0104BD3
:1040700000EB8002400AB3FBF0F3520A0A49CA621D
:104080000B6301234B620022074B5A6008BD45F6C3
:104090007A13084AF2E745F61A03074AEEE7536235
:1040A000F1E700BF009000500040025000F04902CC
:1040B00064666666D8B80500BBCF050038B5B0F5B4
:1040C000207F77D00ED8B0F5007F61D003D890B3B1
:1040D000B0F5C07F2FD04FF44671BDE838403D4861
:1040E00012F067BEB0F5607FF5D13B4A4C1ED2F8A6
:1040F000FC5015F080751EBFD2F8FC3023F08073A1
:10410000C2F8FC30032C04D940F2F721314812F0F8
:1041100050FE324AD2F8803023F0300343EA0413D1
:10412000C2F8803035B12C4AD2F8FC3043F08073AD
:10413000C2F8FC3038BD4C1E012C0AD9102903D816
:10414000274BCB40DB0704D440F2CB21214812F0AF
:1041500030FE12F083FA12F08FFA4FF48031214BC7
:104160001E4A1967136F23F4704343EA043313673D
:1041700016F054F90446FEF759FFC0F1020120463B
:1041800012F074FA00F048F8BDE83840FFF76ABC56
:104190004C1E1F2C04D94FF443710E4812F009FE37
:1041A0000E4AD2F8903023F0F85343EA0463C2F881
:1041B0009030BFE74C1E012C04D940F21231054863
:1041C00012F0F7FD054A136F23F4806343EA84235A
:1041D0001367AFE71DAE010800ED00E0008000505E
:1041E000100101000090005008B50121022000F0EC
:1041F00099F94FF42070FFF763FA054B187012F02D
:104200002DFA12F039FA4FF48032024B1A6708BDCA
:10421000322A03200090005008B54FF4C070FFF719
:10422000DDFABDE808400449884294BF012102211B
:104230004FF42070FFF742BF80F0FA0238B5044611
:1042400016F0ECF80546FEF7F1FEC0F10201284633
:1042500012F00CFA0121002000F0B8F92CB1FFF7A0
:10426000DBFFBDE83840FFF7FDBB034B4FF4207088
:104270001978FFF723FFF4E7322A03202DE9F041F4
:104280000546FFF799F9431E0333044604D940F667
:10429000E2113B4812F08DFD4FF4C022394B5A66B3
:1042A00003F598335A68012A04D137494A605A689D
:1042B0009207FCD48020FFF7E5FB052807D112F018
:1042C000CDF912F0D9F94FF480322E4B1A672F4BEB
:1042D00024F040749D4239D02D4B9D4239D016F0C8
:1042E00077F88542064603D90121284600F06EF989
:1042F000284FFB6813F0060FFBD1D7F80880BC608D
:10430000BB68634013F4F81F26D1284604F070FF01
:104310008020FFF7B7FB052814D116F07FF8A842DC
:10432000044604D940F63B21154812F042FDFEF741
:104330007DFEC0F10201204612F098F9FFF76CFFF4
:10434000FFF790FBAE4213D2BDE8F08144F0007459
:10435000C5E744F08074C2E740F62A21084812F00D
:1043600028FD8020C7F80880FFF78CFB052805D0C2
:10437000BDE8F0410121002000F028B93546CCE726
:104380001DAE01080090005000E0015040420F00B7
:1043900080841E000000015070B54E4B05469842C7
:1043A00073D041D8A3F5B703A3F55863984265D0FD
:1043B00033D8494B494E984251D017D8002877D06E
:1043C00041F2DE11464812F0F4FC40F68671444892
:1043D00012F0EFFC4FF40022404B5A663E4B9D42D8
:1043E00076D000243F4A954236D05DE03D4B98425E
:1043F00027D03D4B9842E3D13C4BD3F8A040621EFE
:10440000033224F040744CD940F68671344812F0DF
:10441000D0FC4FF400237366E4E7354B9842CFD1CC
:10442000324BD3F8BC402CE0324B984231D0324B67
:10443000984232D0314B9842C2D12C4BD3F8C8406D
:104440001FE02A4BD3F8A040621E033224F04074D0
:10445000DAD84FF40023736644F0807424E0234BD1
:10446000D3F8A040621E033224F040742AD84FF4DF
:1044700000237366234643F0007415E01B4BD3F80A
:10448000B840621E154E0332BBE7184BD3F8C0404C
:10449000F7E7164BD3F8CC40F3E7144BD3F8D040F2
:1044A000EFE74FF4002373664FF0B442946070BDA1
:1044B00040F686710A4812F07CFC4FF400232C462B
:1044C0007366F1E740F68671054812F072FCCEE79C
:1044D0000023D0E7C0EA210140420F0000900050C5
:1044E0001DAE010880841E0000093D000080E00F21
:1044F0000024F4000048E801005A620280BA8C01EE
:10450000024A536B0342FCD1704700BF0080095040
:10451000034A0179D36E23F030030B43D36670470F
:1045200000400050F8B50446244BD3F88420D00650
:10453000FBD4D3F88430C3F381139C423CD015F0F4
:104540004DFF012C05460BD11D4B984204D940F27A
:104550008F711C4812F02DFC0121284612F086F8BC
:1045600016F091F84FF00072174B07465A66204636
:1045700012F087F84FF48063104E621E9340336749
:10458000736E9A0103D4D6F884309B060AD5384658
:1045900016F074F8022C0FD12846BDE8F84000212F
:1045A00012F064B8D6F884309906E9D540F2A771C4
:1045B000044812F0FEFBE3E7F8BD00BF00400050E6
:1045C000005A62026DAE01080060005010B50C4642
:1045D00008B915F003FF074B21461B783BB1064B8A
:1045E000984204D80120BDE81040FFF79BBF02208D
:1045F000F9E700BF332A0320005A620238B54FF0B2
:104600000042244B244C5A664AF6CD33656C014671
:1046100005F00105236428BB0120FFF771FF6368E3
:10462000DB0715D51D4B586008461D4B226BD20782
:104630000CD4984208D1072415B1174B194A1A64B3
:1046400012F020F8204638BD0130EFE79842F2D052
:104650000024F1E70132236B13F0080305D08A42EE
:10466000F8D1E8E700220E49F5E78A42E3D020219D
:104670000A4A91620121A2F5805251600649084A16
:10468000886A800603D49342D5D00133F8E7934279
:10469000DDE700BF009000500080095000A00950E5
:1046A00040420F003254FFFF38B54FF00042164B26
:1046B00001465A664AF6CD33144C154A656C23649C
:1046C00043780B205B0043F00103D363FFF718FF2F
:1046D00063688A7823F4F87343EA02136360CA7844
:1046E0004B7943EA0223A3600A798B7943EA0223D8
:1046F00023610878FFF782FFEB0744BF054B236473
:1047000011F0C0FF012038BD00900050008009501A
:10471000004000503254FFFF70B50F28044605D901
:1047200040F66861124812F044FB0F244FF000423B
:10473000104B11495D6E03F580535A664AF6CD332E
:104740004E6C80200B64FFF7DBFE0B6A23F00F0337
:1047500023430B62F30744BF084B0B64002DA2BF39
:104760004FF00042064B5A6611F08CFF70BD00BF3F
:104770006DAE010800800050008009503254FFFFE8
:1047800000A0005008B50E4B984211D00D4B984236
:1047900010D003F5804398420ED003F58043984231
:1047A0000CD0094840F2793112F003FB002008BD1B
:1047B0005620FCE75720FAE76520F8E76620F6E781
:1047C0000000015B00C00850BDAE010810B511F03B
:1047D0005EFF042300F5805100F500520B61136168
:1047E0000B6113610B6113610B611361202341F2B3
:1047F000020103610023C360836041614FF4A02183
:104800008361836541620549C36103628362C36258
:1048100043630365D164036310BD00BFFF3F0D0315
:1048200038B51B4B044698420D460FD0194B9842A1
:104830000CD003F58043984208D003F5804398429A
:1048400004D040F26911144812F0B3FA25B9204699
:10485000BDE8384011F01BBF012204F580535A60B7
:1048600040F6FF71204605F00F0211F00CFFA26325
:10487000782111F008FF05F001036A0748BF43F0F3
:104880000203A26C02F003029A42FAD138BD00BFC3
:104890000000015B00C00850BDAE0108F8B5054638
:1048A0000C46164622B940F227216A4812F081FAD6
:1048B000694B9D420FD0694B9D420CD003F580435C
:1048C0009D4208D003F580439D4204D040F22A2146
:1048D000604812F06EFA2CB92846FFF753FFFEF736
:1048E0007DFF0446AB68D80741D5B44204D24FF4EB
:1048F0000D71584812F05DFAB4FBF6F46F68013C94
:10490000FF2C07F0010704D94FF40F71514812F042
:1049100050FA24062FB92B6923F07F4323432B61E0
:10492000F8BD2821284611F0AEFEAB6C990718D1CE
:10493000AB6CDA0717D4AE6C16F0020615D140F254
:104940004921444812F035FA284611F0A0FE2B699F
:10495000314623F07F4323432B61BDE8F840FFF746
:104960005FBF0526F0E70926EEE70626ECE76B6851
:10497000012B04D04FF41771364812F01AFAAB6DC0
:10498000DB07AB6848BF760003F0E003402B42D062
:1049900009D893B1202B1AD040F29E21BDE8F840EF
:1049A0002C4812F006BA602B42D0802BF4D106EBD3
:1049B0004603A34247D801230DE0B6EB141F04D9E8
:1049C0004FF42171234812F0F4F9102303E0B6EB01
:1049D000D40F1AD8082373436401B4FBF3F4204FB7
:1049E000203CB7EBC40F4FEAC40604D240F2A92121
:1049F000184812F0DEF928463E40012111F043FE2E
:104A00002E63BDE8F84011F03EBE40F28921114806
:104A100012F0CFF9DEE70623B4FBF3F3B34201D380
:104A20000623D8E740F28E210A4812F0C2F9F7E7D0
:104A3000B6EB940F01D80423CDE740F2932105484B
:104A400012F0B7F9F7E74FF42671024812F0B1F906
:104A5000B1E700BFBDAE01080000015B00C0085017
:104A6000F8FF7F002DE9F0419846436804460E4662
:104A700017461BB140F6FF7111F005FE2046FFF707
:104A8000A5FEF189737B62690B43318A22F44C5293
:104A90000B4322F00F0213436361A168337E327B24
:104AA00021F0804121F0E2011A430A4371690A436F
:104AB000A260B2681AB9A26842F00042A260F0692E
:104AC000002800F08B80857A027A6D04A16845EA9F
:104AD00082558C4A0A401543828802F4C04215432D
:104AE000427845EA8205427B45EAC205827B45EA77
:104AF0000215827845EA8225A560D0E90421E5689F
:104B00000A43814929400A43817942EA8122C179D5
:104B100042EA4122E26002787C49012A1ED1E26821
:104B200042F00402E2608C4200F0B480784A944281
:104B300000F0B28002F58042944200F0AF8002F5AE
:104B4000804294420CBF03224FF0FF32520102F127
:104B5000A04242F2944102F5703220E0032A40F074
:104B60008E80E26842F00402E2608C4200F08C80A9
:104B7000674A944200F08A8002F58042944200F035
:104B8000878002F5804294420CBF03224FF0FF322F
:104B900041F29441520102F1A04202F57032022525
:104BA0005550427A04F580518A621AB1E26842F4A3
:104BB0000062E260C27A5AB1E26842F40042E26006
:104BC000524A94426CD1027B524902F00F024A676A
:104BD000626AC17B22F003020A4362623FB197F826
:104BE000202004F58050002A78D001220262B8F11A
:104BF000000F2FD004F5805113B14FF400438B65A3
:104C0000424BB8F822009C4298F8213073D0404AB9
:104C1000944272D002F58042944270D002F58042F4
:104C200094420DD10322112B34BF012702273A4DA4
:104C3000B0F5006FAF5494BF01270227374DAF5432
:104C4000A26D034322F4F95222F01E021343A3651E
:104C500001238B6505212046FFF7E2FDB2681AB1FA
:104C600020467168FFF71AFE20463178FFF7D8FD1D
:104C7000A36CDB4313F4405FFAD1BDE8F081023A44
:104C8000012A7FF672AF4EE7002281E701227FE71B
:104C900002227DE7002259E7012257E7022255E769
:104CA0001B4A944206D1027B1A4902F00F02C1F856
:104CB00080208DE71A4A944206D1027B154902F002
:104CC0000F02C1F88C2083E7164A944201BF027B91
:104CD000104902F00F02C1F8982079E7E16997F8CE
:104CE000222097F8215021F009012A430A4342F07B
:104CF0000102C2617BE7002295E7012293E70222CD
:104D000091E700BFE39BBDFFFFF9F0870000015B67
:104D100000C0085000900350382A0320342A032092
:104D2000000009500040095070B5174B04469842E6
:104D30000D460ED0154B98420BD003F58043984298
:104D400007D003F58043984203D07021104812F039
:104D500030F81DB972210E4812F02BF82B7B802BF6
:104D600003D176210A4812F024F86B7B032B03D978
:104D70007921074812F01DF8002329462046BDE896
:104D800070401A46FFF76EBE0000015B00C008507D
:104D9000BDAE010870B52B4B054698420C4643D179
:104DA00019B98C21284812F004F85620FEF76AFE43
:104DB0000C2807D0A0F10903012B03D9A0F111039E
:104DC000012B3AD8637B032B03D9AD211E4811F088
:104DD000F0FF237B802B03D0AF211B4811F0E9FFAC
:104DE0006369B3F1804F03D0B121174811F0E1FF9F
:104DF000238A23F400539BB2B3F5805F03D0B32121
:104E0000114811F0D6FFA368013BB3F5165F03D339
:104E1000B5210D4811F0CDFF002321462846BDE8FD
:104E200070401A46FFF71EBE8A21074811F0C1FFE5
:104E30001CB98C21044811F0BCFF9E21024811F0DE
:104E4000B8FFBFE70000015BBDAE0108F8B5974BA6
:104E5000044698420E460ED0954B98420BD003F56F
:104E60008043984207D003F58043984203D0E22163
:104E7000904811F09EFF1EB9E4218E4811F099FF71
:104E8000727BB3687AB18C4A934203D9E621894890
:104E900011F08FFF3369D3B1DB7BC3B1E9218548C2
:104EA00011F087FF13E0854A934203D9EC21814832
:104EB00011F07FFF336953B11A7F42B1B168804A64
:104EC0005B7F914240F28380042B00F28380636811
:104ED000356923B140F6FF71204611F0D4FB20461E
:104EE000FFF774FC2269737BB17B22F087020B43CE
:104EF000134343F080032361002D6DD02369297F84
:104F000023F0F80343EAC1132978EA7B0B4329799C
:104F100043EA4113697A43EA011343EA82132361A6
:104F2000E068D5E9053720F0F0403B4320F47020DD
:104F30000343287B697B43EA802343EAC133E36070
:104F4000A368F07B23F00303034343F00103A36052
:104F50006B88A06803F4C0430343A360A368687927
:104F600043EA8023A360AB79EF79606A1B013F02BB
:104F700003F0700307F4E06720F4772020F4EE607C
:104F80003B430343287A000300F4E0400343687F77
:104F9000000400F47020034363626369307B23F0F4
:104FA0000F03034363616B89A361002939D10AB3FD
:104FB0003E4B9C423FD03E4B9C424DD003F580433C
:104FC0009C425AD003F580439C4268D012E0042BE7
:104FD0003FF67DAFF32162E7A368F27B23F0030382
:104FE000134343F00103A3606369327B23F00F0393
:104FF00013436361D6E901122046FFF74FFC0521F8
:105000002046FFF70DFC2821204611F03CFB3378A9
:10501000A36311F038FBA36CDB4313F4405FFAD1B8
:10502000F8BD224B9C420CD1AB7B264903F00F0309
:105030004B67002ADED02B7C224A03F00F03136754
:10504000D8E71B4B9C420DD1AB7B1E4903F00F03ED
:10505000C1F88030002ACDD02B7C1A4A03F00F0310
:10506000D367C7E7184B9C420ED1AB7B154903F0C1
:105070000F03C1F88C30002ABCD02B7C114A03F0FE
:105080000F03C2F88830B5E7104B9C42B2D1AB7B1E
:105090000C4903F00F03C1F89830002AAAD02B7CEA
:1050A000084A03F00F03C2F89430A3E70000015B45
:1050B00000C00850BDAE0108002D31018096980057
:1050C0003F4B4C0000900350000009500040095035
:1050D00038B5032804460D4605D8094B33F810307F
:1050E000CB40DB0704D440F28541064811F061FE55
:1050F000302301225C43044BAA401A5138BD00BF43
:10510000B2AF010810AF010840D0035038B50328F2
:1051100004460D4605D8094B33F81030CB40DB0769
:1051200004D440F25641064811F043FE30230122D8
:105130005C43044BAA401A5138BD00BFB2AF01080E
:1051400010AF010840E003502DE9F0410328044668
:105150000D461746984605D81D4B33F81030CB4006
:10516000DB0704D44FF4B0711A4811F022FE37B1B6
:1051700029462046B8F1000F20D0FFF7A9FF0F21E4
:10518000072D04EB440688BFA5F108034FEA061675
:10519000114895BFAB009B0004360C3607FA03F2AA
:1051A0009940304411F09CFA7FB929462046B8F165
:1051B000000F06D0BDE8F041FFF78ABFFFF7A6FF5A
:1051C000DDE7BDE8F041FFF7A1BFBDE8F08100BF1A
:1051D000B2AF010861AF010830C00350F8B5064610
:1051E0000F461546002A6FD003F00304836823F4AA
:1051F0004073836015F047FAB26882EA042303F42F
:1052000040735340B36015F039FA37B9B6F1B64F71
:105210000DD12E20FEF7E2FA0746B3689A071CD597
:10522000012C20D0022C2CD08CB9294B1CE0294B0E
:105230009E4201D12F20EDE7274B9E4201D16920EC
:10524000E8E740F22F11254811F0B3FDB3684FF4A1
:10525000B271224811F0ADFD08E0012C13D0022CF0
:10526000E2D11F4B00E01F4B9F42F0D91E4B1B5D4C
:105270006B430AD140F27511BDE8F840174811F0B0
:1052800098BD1A4BF0E71A4BEEE7A3EBC504013CBF
:105290003C44B4FBF3F4013C0CD540F27B110F48C5
:1052A00011F087FD4FF4BE710C4811F082FDB36818
:1052B000B461F8BDB4F5007FF4D2B3689B07F7D5AD
:1052C000002C08BF0124F3E740F21511D4E700BF1A
:1052D00080841E0000000B5000400B50BAAF010844
:1052E000002D3101404B4C000AB00108809FD500D1
:1052F0004054890038B5B0F1B64F04460D460FD082
:105300000C4B98420CD003F58043984208D003F52B
:105310008043984204D040F29511074811F049FDAE
:10532000043425B104F580540123236038BD04F50D
:105330000054F9E700000B50BAAF010838B5B0F1DE
:10534000B64F04460D460FD0164B98420CD003F5CD
:105350008043984208D003F58043984204D04FF42C
:10536000D571114811F025FD0023104A236404F57E
:105370000053DA636A7804F108037AB903F58053BD
:1053800002221A602046D5E901122B7BFFF726FF87
:1053900020462978BDE83840FFF7ACBF03F500533D
:1053A000EEE700BF00000B50BAAF0108FFFF1F007F
:1053B00070B5B0F1B64F12D0884B984225D003F5A6
:1053C0008043984223D003F58043984221D08448FB
:1053D00040F2012111F0EDFC6FF0030070BD814B34
:1053E0009968C26B12F4C06F19D0910513D5FD22D4
:1053F0005A7009221A700022026493F901100129DF
:1054000000D15A7093F90100E8E7774BE8E7774B52
:10541000E6E7774BE4E75605EBD5FE22E8E71C7894
:10542000082C00F2D680DFE814F009001F004500C8
:10543000530070007E009C00A700CB004C880A88B7
:10544000E5060AD5120A02F0060242F0F002012136
:1054500019704263C1600120C0E702F0FE02A1079B
:1054600048BF42F00102F2E7160608D5802100F598
:105470000052D1634FF608721A80022318E05506D5
:10548000E9D5402400F50052D4634A88D40604D5F7
:1054900002221A700B784363DDE796076AD507226C
:1054A0001A701B7901EBC3031B89012BD3D108238D
:1054B000C360D0E71506D9D45406CCD5402400F5F6
:1054C0000052D4634A88920754D503221A7088E7A1
:1054D0004C880A88E60643BF120A02F0060242F030
:1054E000F00202F0FE02650709D51C7942F00102C4
:1054F00001EBC4010989012904BF0821C16004210D
:1055000019700123C3604263A5E71406AED45206A6
:10551000A1D5402400F50052D4634A88560729D506
:1055200007221A7097E71A795D8801EBC204268971
:10553000AE420FD800240132D2B21A715C804C887E
:105540006507C2D4E40702D4012A7FF64AAF0822D5
:105550001A7092E76268691C5980525D42630622A4
:10556000DFE7160682D455067FF575AF402400F5B7
:105570000052D4630522A9E794067FF56CAF20267C
:105580001A7900F5005401EBC2010A89456AE66305
:105590005C88A24281BF4968661C5E800D555988AF
:1055A0008A42D4D90424012AC46004D0013A914229
:1055B00001D10822C2601A78092A3FF41CAF4AE7D9
:1055C000D2057FF548AF4FF4807100F50052D163EA
:1055D0000FE74FF609321A800DE700BF00000B50AD
:1055E000BAAF0108701D03207C1D0320881D032015
:1055F000941D032038B5B0F1B64F04460D4630D1A6
:1056000021B940F26A31314811F0D3FB304B2269A5
:10561000D00744BF2022E2606A88910702D5298919
:10562000002934D0520701D52A8A82B34FF4807200
:105630001A6000229D601A71C023E3606369DB0574
:1056400041D4202204F50053DA63224A2046DA636B
:105650004FF4FC6204F580531A64BDE83840FFF74C
:10566000A7BE1D4B98421ED003F58043984211D02F
:1056700003F5804398421ED040F26931134811F07F
:1056800098FB25B940F26A31104811F092FB6FF097
:10569000030038BD09B1114BB9E740F26A310B483C
:1056A00011F087FBF7E721B940F26A31074811F0A2
:1056B00080FB0B4BABE721B940F26A31034811F094
:1056C00078FB084BA3E7636AB8E700BFBAAF0108ED
:1056D000701D0320FFFF1F0000000B50881D0320DA
:1056E0007C1D0320941D032010B52320FCF7FAFD38
:1056F0000024FF22064B21465C6520209A625C60F4
:10570000FEF746F82146BDE810402120FEF740B8DC
:105710000000045038B5072804460D4603DD772104
:10572000084811F046FB1F2C03D99121064811F0BF
:1057300040FB064A064B002D08BF13460122A2403B
:105740001A6038BD0EB001082BAA010840100450A1
:105750004020045010B5044618B991211F4811F09B
:1057600028FB23781B0613F0604F03D092211B48BF
:1057700011F01FFBE3780F2B03D99521174811F087
:1057800018FB01212020FEF703F801212120FDF75D
:10579000FFFF0122124B23205A60227812069A60E2
:1057A0006178A27842EA01429A61FF229A6200225D
:1057B0009A631A644FF000425A654FF0FF3203F5C6
:1057C00000531A65FCF7DEFD2320E178FCF7E8FDC5
:1057D000BDE810402320FCF7A3BD00BF0EB00108B8
:1057E00000000450F8B50126C3B2072805460C4650
:1057F000174606FA03F603DDDE21344811F0D9FA24
:105800001CB9DF21314811F0D4FA236823F47C134A
:1058100023F00F031BB1E2212C4811F0CAFAA37A3E
:105820001B0413F47C0F03D0E721284811F0C1FAC0
:10583000E37A1B0513F07E6F03D0E921234811F0B2
:10584000B8FA237B5B0513F0FE5F03D0EB211F4802
:1058500011F0AFFA1E4B27F003071E65AB0022685C
:1058600003F1A04303F588235A60302202FB05F0C0
:10587000637B00F1A04000F580200366E37AA27A02
:105880001B0543EA0243227B43EA4253C365076791
:1058900014F002FF0F4B227A5E6502B11E64627A39
:1058A00002B19E632279A37943EA0243084A9361D5
:1058B0006179E37943EA014306498B61064B5663FC
:1058C0009E64BDE8F84014F0E2BE00BF0EB00108CF
:1058D00000200450001004500000045010B50124B2
:1058E000C3B2072804FA03F404DD40F27B11074831
:1058F00011F05FFA14F0D0FE054B5A6D22EA040253
:105900005A659C62BDE8104014F0C1BE0EB001089B
:105910000000045010B50124C3B2072804FA03F4B0
:1059200004DD40F299110A4811F043FA14F0B4FE74
:10593000084BDA6A224208D15B6B9C430CBF0124FE
:10594000002414F0A4FE204610BD0024F9E700BF97
:105950000EB001080000045070B50125C3B207283D
:10596000044605FA03F504DD4FF4E071094811F02F
:1059700020FA14F091FE3022074B5E6B02FB0433D9
:105980005C6E14F084FE35420ABFC4F30A10002096
:10599000013070BD0EB00108000004500D4B98425C
:1059A00008D1A3F5D023C3F85812802300F5805006
:1059B000C3657047084B984204D1A3F5D823C3F8B8
:1059C0007412F2E7054B984204BFA3F5E023C3F835
:1059D0009012EAE700000A5000400A5000800A5086
:1059E00070B506460C46154622B940F2A6210C4871
:1059F00011F0DFF924B94FF42070FDF7EFFE0446F3
:105A00006D00013CB4FBF5F4064B250213EA0423B8
:105A100004D040F2CB21024811F0CBF9F56170BD02
:105A20005FB00108070080FF38B5104B044698426C
:105A30000D460CD003F58043984208D003F580430F
:105A4000984204D04FF43971094811F0B2F901229B
:105A500004F580535A60EB43934003F00A036361FB
:105A6000656115B904F50054626038BD00000A5044
:105A70005FB0010810B51B4B044698420CD003F5EB
:105A80008043984208D003F58043984204D040F206
:105A90005E41154811F08DF9012204F580535A60DA
:105AA00040F6AA6341F20502636100230F49A36037
:105AB000E365E26004F500522361E361E36491640D
:105AC0000849A3658C4203D123650023636506E082
:105AD00007498C42F8D001F580418C42F4D0012373
