:020000040800F2
:10000000001000200D150008C9710008C971000812
:10001000C9710008C9710008C9710008C9710008D8
:10002000C9710008C9710008C9710008C9710008C8
:10003000C9710008C9710008C9710008C9710008B8
:10004000C9710008C9710008C9710008C9710008A8
:10005000C9710008C9710008C9710008C971000898
:10006000C9710008C9710008C9710008C971000888
:10007000C9710008C9710008C9710008C971000878
:10008000C9710008C9710008C9710008C971000868
:10009000391300081B710008C9710008C9710008F4
:1000A000C9710008C9710008C9710008C971000848
:1000B000C9710008C9710008C9710008C971000838
:1000C000C9710008C9710008C9710008111E000833
:1000D000C9710008C9710008C971000861190008D8
:1000E00041190008C9710008C9710008C9710008E8
:1000F000C9710008C9710008C9710008C9710008F8
:10010000C9710008C9710008C9710008C9710008E7
:10011000C9710008C9710008C9710008C9710008D7
:10012000C9710008C9710008C9710008C9710008C7
:10013000C9710008C9710008C9710008C9710008B7
:10014000C9710008C9710008C9710008C9710008A7
:10015000C9710008C9710008C9710008C971000897
:10016000C9710008C9710008C9710008C971000887
:10017000C9710008C9710008C9710008C971000877
:10018000C9710008C9710008C971000829850008F3
:10019000C9710008C9710008C9710008C971000857
:1001A000C9710008C9710008C9710008C971000847
:0401B000C971000809
:1001C000013800D0FCE770470348044B834202D05B
:1001D000034B03B118477047583B0020583B0020A1
:1001E00000000000064B0749C91A891048BF0131B9
:1001F000491003D0044B0BB101481847704700BFAA
:10020000583B0020583B00200000000010B5064C71
:10021000237843B9FFF7D8FF044B13B10448AFF379
:1002200000800123237010BD3C1600200000000058
:10023000C09A000808B5054B1BB105490548AFF346
:100240000080BDE80840FFF7CDBF00BF0000000000
:1002500000100020C09A0008A3F5803A704700BF44
:10026000174B002B08BF134B9D46FFF7F5FF0021EE
:100270008B460F461348144A121A07F07EFA0E4BAB
:10028000002B00D098470D4B002B00D09847002042
:10029000002104000D000D48002802D00C48AFF3E7
:1002A000008006F0BBFA2000290006F0A3FE06F04D
:1002B000F3F800BF0000080000000000000000008C
:1002C0000010002000100020743A00200000000000
:1002D0000000000030B585B00023644C194620684A
:1002E0000222806806F0A0F9002320681946022245
:1002F000406806F099F95E4B4024186805F090F8C4
:100300005C4806F07FF95C4806F07CF95B4806F033
:1003100079F9594806F076F9594806F073F9594BBE
:1003200001AD93E80700022385E8070056488DF8E1
:100330000430CDE9024406F065F9544806F062F94C
:1003400022462146524806F05DF94FF410515148BB
:1003500006F058F9224621469DF8040000F0EAFA1A
:1003600001464D4806F04EF94C4806F04BF9284638
:100370004FF410524A4900F0E9FA4A4D0446002869
:100380003CD1494806F03EF9012348482B7006F05D
:1003900039F92146204600F099F90146E8B9444868
:1003A00006F030F9434806F02DF9434806F02AF9E3
:1003B00000F006FA0146C0B9404806F023F940486B
:1003C00006F020F92B78002B3ED12B4806F01AF9C5
:1003D0003C4806F017F93C4840E03C4806F012F96A
:1003E0003B4806F00FF93B48DDE73B4806F00AF9C9
:1003F0003A4806F007F900232B70E6E70146384833
:1004000006F000F9374806F0FDF8212C07D13648F0
:1004100006F0F8F8354806F0F5F81648E9E7012C3B
:100420000DD1334806F0EEF8324806F0EBF83248CA
:1004300006F0E8F8314806F0E5F83148EBE72146E8
:10044000304806F0DFF8E8E70B4806F0DBF82E4806
:1004500006F0D8F82D4806F0D5F82D4806F0D2F869
:100460002C4806F0CFF805B030BD00BFF83A0020A8
:10047000B03A0020A088000878850008A085000810
:10048000C4850008748C0008EC8500080786000805
:1004900020860008408600085D86000885860008E2
:1004A0003E1600203D160020A9860008D8860008C8
:1004B0000C87000838870008D8870008F7870008ED
:1004C00020880008B98A0008D68A00085E870008DC
:1004D00090870008B58700084388000871880008E5
:1004E000A3880008DC880008F28800080F8900084B
:1004F00037890008588900087F890008AF890008FB
:10050000D7890008058A0008268A0008438A00085F
:100510006D8A00088F8A00082DE9F347544B1B7839
:10052000002B00F0828007F0E6FF07F007FE40F6A0
:10053000B732DFF88C910746D9F80030C31A9342DE
:1005400073D9DFF880814B48D8F800100131C8F822
:10055000001006F057F8484806F054F800F0C0F8CC
:100560000146002864D1454806F04CF8444806F09E
:1005700049F80023684601A9CDE9003300F046F9A7
:10058000404D0446002866D1009B002B67D02B68A5
:100590003D4801332B6006F035F829683B4806F0EA
:1005A00031F84FF480520199394806F02BF8394858
:1005B00006F028F82646DFF810A1019BB34207D9C0
:1005C000009B5046995D013606F01CF80C2EF4D1C4
:1005D000314806F017F8019B632B2DD800F080F905
:1005E00004462E4806F00EF8002C3CD1234806F0B5
:1005F00009F82B4806F006F829682A4806F002F8A0
:10060000294B2A48196805F0FDFFD8F8001039B1C8
:1006100064222B6826485343B3FBF1F105F0F2FF47
:100620001D4805F0EFFFC9F8007002B0BDE8F08783
:10063000204805F0E7FF99E7009B5A1E633312F844
:10064000011F9A420C44FAD164211B48B4FBF1F11A
:1006500005F0D8FFC2E7052801D11848C7E7124ABC
:100660001368013313602146124805F0CBFFC0E741
:100670003D160020F78A00080B8B0008218B00082C
:10068000378B00081C1000204C8B0008578B00088B
:10069000728B0008988B0008A0880008E08B000887
:1006A0000A8C00081B8C0008181000203B8C0008E6
:1006B000578C0008268B0008B48B0008F58B0008C7
:1006C0002010002024100020AE8B0008034B93F86C
:1006D0002C300BB100F0D2BC112070472810002044
:1006E00073B5364C94F82C30002B65D007F05DFEC6
:1006F00094F82E200346BAB194F82F20012A13D182
:1007000000238DF8073007F04BFE0DF10701412063
:1007100000F074FA07F049FE9DF80720034612071F
:1007200044BF022284F82F2094F82E202AB91846BC
:1007300007F036FE022002B070BD94F82F20022A86
:1007400030D1A169626A91422CD203221026256918
:1007500084F82F20226A154494F82F20042A0DD102
:100760002269A16A0A44E1688A4228BFA26822611C
:10077000A2690132A261002284F82F2094F82F2070
:100780009AB90122184684F82F2007F009FE232188
:10079000042000F0FDF91DB12846E16900F044FB9A
:1007A0000020C8E700252E46D6E7184607F0F8FDDA
:1007B000002EF0D01021EBE71120BCE7281000201C
:1007C00010B5114C94F82C30DBB107F0EEFD94F825
:1007D0002E2002F0FF031AB107F0E2FD002010BD49
:1007E000A268A361C4E90422012284F82D3084F8B0
:1007F0002E2084F82F3007F0D3FDBDE81040FFF71E
:100800006FBF1120EBE700BF28100020F8B50746A6
:100810000E46FFF765FF054600BB304C94F82D30BF
:10082000002B59D107F0C1FDA369CBB1012384F896
:100830002D3063693B600EB12368336007F0B0FD73
:100840003B685BB12279022A28D118460326E46965
:1008500003EB54049C4200F1020007D12846F8BD86
:100860003B600EB90525E9E73360FBE710F8027C31
:1008700010F8011C7A014FEAE10CD2B20CF01C0C0A
:10088000C90042EA0C0201F0F8010A4407F0F80737
:100890003A44B2FBF6F203F8012BDBE7012ADDD183
:1008A000226AE0691A4420F001001044824203F1F8
:1008B0000303D3D051781478CE00C91001F01C0185
:1008C00041EA441124F0070403F8036C03F8021C06
:1008D00003F8014C0232E9E70225BFE728100020A7
:1008E00010B5134C94F82C30F3B194F82D30EBB1D3
:1008F00007F05BFDA3699BB1002384F82D30A36949
:10090000A16A013BA36163690B44E1688B4228BF84
:10091000A368636107F044FDFFF7E2FE002010BD0D
:1009200007F03EFD1B20FAE71120F8E70220F6E76A
:1009300028100020032888BF002002FB01F19CBF83
:10094000014B185C48437047808C00082DE9F84340
:100950001A4C064694F82C300F46914653BB90F83B
:10096000008084F80480D0E9015240462946FFF710
:10097000E1FF29462060404606F046FBB9FBF0F354
:100980004845A062636217D85543A76000FB037710
:10099000B8F1010F4FEA450504BF401B2062304605
:1009A000E760E56100F060F910B9012384F82C30AC
:1009B000BDE8F8831220FBE72120F9E7281000208A
:1009C00010B501464FF0B64003F036FF084C012841
:1009D00008D1013C01D14B2010BD4FF0B64003F0CF
:1009E00009FEF4E7002814BF4B200020F4E700BF05
:1009F000E193040010B543F6FF73C340DB070446E0
:100A000004D440F28541044806F0ECFB0123034A7C
:100A1000A340C2F8A03010BD848C000800D0035061
:100A200070B592B0324D5AB9D5E90F32B3F5006FB7
:100A300002F5006294BFDB1AA3F500632A64EB633E
:100A4000EE6B66B90A20FFF7D5FF042385F82F3037
:100A500085F83060FFF744FE002012B070BD00241E
:100A60004FF480232146102206A80293CDE90344C7
:100A7000059406F082FEB6F5006F28BF4FF40066BD
:100A8000013EB6B232011B4B42F044721340069352
:100A9000194B214607932B6C1022089301238DF8E4
:100AA0002430164B0EA80A93CDE90B440D9406F0A2
:100AB00064FE4FF0000366F30E13ADF83830104BB0
:100AC00000940F930F4B06AA109301238DF8443026
:100AD000332302A98DF83B30686B0B4B01F032F9E0
:100AE00000942346A86B0EAA0AA901F02BF9B3E7DC
:100AF00028100020F07F100324000A500200040098
:100B00003E3A00203C000A50210A000810B543F686
:100B1000FF73C340DB07044604D440F25641044847
:100B200006F060FB0123034AA340C2F8A03010BDC9
:100B3000848C000800E003507FB5084B8DF800005E
:100B40000193022301A88DF80110CDF808D0ADF86B
:100B50000C30FFF735FF07B05DF804FB60000100C3
:100B600000B589B0094B8DF8070003930DF1070319
:100B70000493012303A8ADF814300691ADF81C309E
:100B8000FFF71EFF09B05DF804FB00BF6000040022
:100B90002DE9F0410125154E154A736B804605FA83
:100BA00003F3536596F830200F4602F0FF0422B19C
:100BB0000220104A5365BDE8F0810A2086F83050C3
:100BC000FFF7A4FF48F080010B4806F015FC3946FA
:100BD000094806F011FC0A20FFF70CFF736B86F83A
:100BE00030409D40034B20465D65E4E7281000201F
:100BF000002004500010045000000A502DE9F0417C
:100C00000125154E154A736B804605FA03F35365AB
:100C100096F830200F4602F0FF0422B10220104A5D
:100C20005365BDE8F0810A2086F83050FFF76EFF6B
:100C300041460C4806F0E0FBFF210A4806F0DCFBC9
:100C400038700A20FFF7D6FE736B86F830409D405F
:100C5000034B20465D65E4E7281000200020045087
:100C60000010045000000A5070B58CB001210646F7
:100C70003A2001F0AFFE0121292001F0ABFE002354
:100C800004220B21022003F081FB012304220A210C
:100C9000022003F07BFB012304220D21022003F03C
:100CA00075FB0123574D1A460C21022005AC03F0B9
:100CB0006DFB0FCD0FC495E80700002584E8070001
:100CC0000124514805A98DF829408DF822408DF85E
:100CD000145004F031F81C224C4B0521C3F8202895
:100CE0004B4A4948C3F83828A2F58032C3F8302867
:100CF000A2F58032C3F8342803F0B8FF00F0EEFF0D
:100D00002946444800F072FF014618B11A242046D3
:100D10000CB070BD404800F069FF0028F6D12146B4
:100D20002E2001F057FE23460A220421022003F060
:100D30002DFB23460A220521022003F027FB09256B
:100D40000420FFF7E3FE642005F0EAF90520FFF731
:100D500051FE642005F0E4F9013DF1D103222B4B53
:100D600001ACC3F828252D4AC3F82C2502F58032A2
:100D7000C3F830252A4B0FCB84E80F0021464FF0F3
:100D8000B64003F0FDFB304600F000F904460028B1
:100D9000BDD10DF1030140208DF80350FFF72EFF68
:100DA0009DF803300025732B1CBF01221D4B4FF013
:100DB000BA01284618BF83F831208DF80350FFF799
:100DC000E7FE28460DF10301FFF718FF9DF80330F9
:100DD000BA2B01D04B249AE731210420FFF7D8FE2B
:100DE0001021032006F04DF901210846FFF7D0FE3F
:100DF00001200DF10301FFF701FF9DF80330012BE6
:100E000085D0E7E7D88C000800000A5000C00350E6
:100E100002000D005C1000206010002002000400A1
:100E2000F48C000828100020F8B50122134C0E465F
:100E3000636B134902FA03F34B6594F830300546AF
:100E400003F0FF07C3B90A2084F83020FFF75EFEE5
:100E50003C210C4806F0D0FA94F831301BB13946E9
:100E6000084806F0C9FA002101220846C4E90F65C6
:100E7000FFF7D6FD0020F8BD0220FCE72810002077
:100E80000020045000000A5010B502280FDD03288E
:100E90000FD1094C00222046114606F0C6F848B191
:100EA00000222046BDE81040114606F0BEB8034CB3
:100EB000F0E7212010BD00BF068E0008F88D000865
:100EC00070B514460D46002958D0002A56D041EA84
:100ED00002039B0752D1092850D8DFE800F0051F14
:100EE0001F1F1F1D1D1B1B1BB2F5907F16D9244E03
:100EF000244BB2F5167F98BF1E460022304611469D
:100F000006F093F860B100223046BDE8704011460B
:100F100006F08BB81A4EF0E71A4EEEE71A4EECE7E1
:100F2000C5F3870631465A20FFF706FE28B1314641
:100F30005A20BDE87040FFF7FFBDC4F38706314675
:100F40005B20FFF7F9FD10B131465B20F1E7240A81
:100F5000C5F3812504F004042C4321465C20FFF7EF
:100F6000EBFD054610B121465C20E2E70146E0209A
:100F7000FFF7E2FD18B12946E020DAE7212070BD35
:100F8000048D0008568D0008A88D000837B5012192
:100F90000446FF20FFF7D0FD30B10121FF20FFF70D
:100FA000CBFDD0B103B030BD01A91C20FFF7D8FDA7
:100FB0000DF105011D20FFF7D3FD0DF106010A20FB
:100FC000FFF7CEFD0B200DF10701FFF7C9FD9DF8DE
:100FD0000630262B01D00F20E4E70121FF20FFF788
:100FE000ABFD10B10121FF2007E080211220FFF7A7
:100FF000A3FD054630B18021122003B0BDE830408A
:10100000FFF79ABD642005F039F82A4629461A48A8
:1010100006F00BF838B12A462946174803B0BDE858
:10102000304006F002B82078FFF72EFF28B1207874
:1010300003B0BDE83040FFF727BF6078D4E9011264
:10104000FFF73EFF38B1D4E90112607803B0BDE884
:101050003040FFF735BF0121FF20FFF76DFD04464B
:101060000028BFD101461520FFF766FD002899D062
:1010700021461520C1E700BFAD8E00082DE9F341E0
:101080000C46062800F2DA80DFE800F00428467FEC
:10109000A6BC64000334E4B2052C00F2CF8000212A
:1010A000FF20FFF749FD08B100215BE005254FF067
:1010B000FF3315FB0434624E16F8017B16F80480EA
:1010C00038464146FFF738FD10B14146384657E0F3
:1010D000013DF1D1002002B0BDE8F0810334E4B25B
:1010E000052C00F2AB800021FF20FFF725FD002832
:1010F000DAD107254FF0FF3315FB0434514E16F8B3
:10110000017B16F8048038464146FFF715FD00289C
:10111000DBD1013DF3D1DDE70334E4B2052C00F26D
:101120008D800021FF20FFF707FD0028BCD1052599
:101130004FF0FF3315FB0434434E16F8017B16F8CD
:10114000048038464146FFF7F7FC0028BDD1013D39
:10115000F3D1BFE7062971D80121FF20FFF7ECFC8E
:1011600010B10121FF200BE0640144F00804E4B257
:1011700021461420FFF7E0FC0028ABD021461420C4
:1011800002B0BDE8F041FFF7D7BC0121FF20FFF717
:10119000D3FC0028E5D104200DF10701FFF7E0FCA6
:1011A00028B10DF107010420FFF7DAFC93E79DF861
:1011B000071074B901F07F0104208DF80710FFF7C4
:1011C000BBFC002887D09DF807100420FFF7B4FC73
:1011D00081E741F08001EFE70121FF20FFF7ACFC40
:1011E0000028BED104200DF10701FFF7B9FC00284B
:1011F000D7D19DF8071014B901F0AF01DCE741F039
:101200005001D9E7072919D80021FF20FFF794FCE6
:1012100000287FF449AF052504EB84040B4E043409
:1012200016F8017B16F8048038464146FFF784FC27
:1012300000287FF44AAF013DF2D14BE721204AE775
:101240008F8E0008658E0008478E00081A8E0008F1
:1012500008B5044807F0BDF8BDE80840024800F0B2
:101260008FBB00BF60970008743A0020064B1B68D4
:101270001A7A022A04D812B11B68044A1360704714
:10128000032AF9D0704700BF883A00206C10002074
:1012900070B5A2B01E4D0BAC0FCD0FC495E80F007A
:1012A00084E80F0000244FF47023CDE90244049435
:1012B000019313AD01AE0FCE0FC5164B06AE2B60DA
:1012C000154B18ADCDE90744099406930FCE0FC511
:1012D0002022124B12482B60124B13A91D93124B64
:1012E0002094CDE91E23114B0BAA2193104B04F03F
:1012F000AFF8044618B1AE210E4805F073FF002187
:101300004FF4E13005F052FF204622B070BD00BF1F
:10131000609000083C00015B01000F004400015B8D
:10132000241100203F3A0020000101009C3A0020D7
:10133000701000202B900008014804F0AFB900BFE6
:1013400024110020024B0349186800F09BBD00BF28
:10135000D43A0020B43A002008B5044807F039F820
:1013600005F0AEFEBDE8084000F008B86097000840
:10137000014807F02EB800BF609700082DE9F0473C
:1013800096B0544E09AC35460FCD0FC42B6806F10C
:10139000140523600EAC0FCD0FC495E80F00DFF8E5
:1013A0004C8184E80F004C4807F013F8404607F0E2
:1013B00010F84FF48073494FADF83C30484B384635
:1013C0000B9309A90EAB0D9302F062FE04214FF4BA
:1013D000E065B6F834A00DEB01000122ADF804A0E1
:1013E00000F008FAB6F836900022012102A8ADF804
:1013F000089000F0FFF9368F0122042103A8ADF810
:101400000C6000F0F7F90122042104A8354CADF876
:10141000105000F0EFF9344B4FF44870C4F8C83462
:101420004FF00213C4F8C43403F58033C4F8CC344D
:101430001C23C4F8B43404F073FE08A8ADF820509F
:1014400000F04CFA142004F06BFE08A8ADF8205010
:1014500000F014FA232004F063FE08A8ADF8205031
:1014600000F03CFAB921384605F0ADFF08A8ADF808
:10147000205000F003FA002205A81146ADF814A090
:1014800000F0B8F9002206A81146ADF8189000F057
:10149000B1F90122002107A8ADF81C6000F0AAF9FB
:1014A0000122002108A8ADF8205000F0A3F9384629
:1014B00002F0AEFA00234046C4F8B434C4F8C8348D
:1014C000C4F8C434C4F8CC3406F086FF16B0BDE8C6
:1014D000F08700BF809000086097000800C00850A7
:1014E000E070720000C00350020001006C97000819
:1014F0000348044A0449121A921005F066BE00BF60
:10150000B4010008B4010008743A002008B5154B76
:1015100083F30A8800F030F8FFF7EAFF124B134913
:101520008B4212D30020124B12498B4218D3FEF784
:1015300097FE186850F82240586840F8224001325F
:1015400098688242F5D30C33EAE70022F8E71C687A
:1015500044F8220001325C68A242F8D30833E4E781
:101560000022F8E700000020C89A0008D49A00087A
:10157000D49A0008D49A000870B54FF48041144BF7
:10158000144A154D9A60D3F8882005F5005442F4AA
:101590007002C3F88820114A91664FF0FF3222662C
:1015A0006FF4003262660D22A2660222C3F8D020D8
:1015B000BFF34F8FBFF36F8F4FF44036002003F01F
:1015C000DDFE0020E66003F0A7FE2E6170BD00BFC7
:1015D00000ED00E000000008008000440090005092
:1015E000014B1860704700BFDC3A0020054B1860C3
:1015F000054B1B6F03F00703032B01D106F0EEBA76
:10160000704700BFE43A00200080005038B504461F
:101610000D4601B118B94521044805F0E3FD2368E2
:1016200013B92B60256038BD1C46F8E7BA90000856
:1016300010B5044618B95621044805F0D3FD2068BA
:1016400018B1036823600023036010BDBA9000083E
:1016500007B500232948019306F0BBFE4FF4407301
:10166000012204216846ADF8003000F0C3F80122E1
:10167000234B0520C3F8442401A906F0A5FE002849
:1016800039D1204BD3F8F02042F00102C3F8F0200A
:10169000D3F8FC2042F08072C3F8FC201A4AA3F56C
:1016A0005D431A60019B194A03F5D52303F2FC43FD
:1016B000B3FBF2F3164A013B13610223C2F8F03088
:1016C0004FF48073C2F804334FF06043114AC3F8FB
:1016D000B02F114AC3F8802ED3F8002E42F4807246
:1016E000C3F8002EFF2283F82020D3F8002E22F426
:1016F0008072C3F8002E03B05DF804FB6097000809
:1017000000D0035000ED00E0FF030040F8590D0049
:10171000000004E055CEACC50900010030B54FF023
:101720006043D3F8802ED20715D501240B4D844099
:10173000D5F8FC2042F08072C5F8FC20D3F8002ECA
:101740002243C3F8002E53F82020002AF0D003F8DB
:101750002010002030BD1120FCE700BF00ED00E0AC
:101760002DE9F0410C2504464FF00108124E0CB350
:1017700014F001000BD0002024F0010405FB0062EE
:101780005768002FF3D09168C0B2B847EFE7224600
:10179000013020284FEA520201D0D307F8D508FAC9
:1017A00000F20F2824EA0204E8D9103805FB006291
:1017B000B432E5E7BDE8F081C411002008B50C485B
:1017C00006F007FE272003F0C1FD28B1272003F013
:1017D000D5FD272003F0A0FD282003F0B7FD28B198
:1017E000282003F0CBFD282003F096FD002008BD43
:1017F000609700082DE9F0410E469046044638B93E
:1018000093211C4805F0EEFC22252846BDE8F08116
:101810000F290DD803782BB1012B0FD0022B10D03C
:10182000032B05D140F2FF736278D340DB070BD462
:101830009721104805F0D6FC2125E6E740F2FF137A
:10184000F2E743F6FF73EFE70B4BD3F810532DB1DC
:101850009B21084805F0C6FC0225D6E706F0AEFD40
:10186000074642462046314603F0F6FA384606F06F
:10187000A0FDCAE70D91000800C0035038B504462A
:1018800028B91548E42105F0ADFC222038BD0378C5
:101890002BB1012B0FD0022B10D0032B05D140F21E
:1018A000FF736278D340DB070BD40B48E82105F0C7
:1018B00099FC2120EAE740F2FF13F2E743F6FF73B9
:1018C000EFE706F07BFD0546204606F05DFA284668
:1018D00006F06FFD0020D9E70D91000838B50446E9
:1018E00028B91648FC2105F07DFC222038BD03787C
:1018F0002BB1012B10D0022B11D0032B05D140F2BC
:10190000FF736278D340DB070CD40C484FF480712E
:1019100005F068FC2120E9E740F2FF13F1E743F608
:10192000FF73EEE706F04AFD0546204603F05CFA39
:10193000284606F03EFD0020D8E700BF0D910008C4
:1019400008B503F07FFA054B00F0553020F0A040B9
:10195000C3F82004BDE80840FFF702BF00E00350D1
:1019600008B503F06FFA054B00F0AA3020F02040D4
:10197000C3F82004BDE80840FFF7F2BE00E00350C2
:1019800070B586B0044618B9AC21334805F02AFC7E
:101990002368B3F1B64F46D1304806F01AFD002552
:1019A000A3880122ADF80030E3880A216846ADF82B
:1019B0000430FFF71FFF01220A2101A8FFF71AFFD9
:1019C0000A266846FFF78AFF642004F0A9FB6846F0
:1019D000FFF754FF642004F0A3FB013EF1D1032381
:1019E0001F4A02EB0511C1F8283560792379533578
:1019F00043EA0043C1F82C35E179A3792D0143EA8C
:101A00000143535140F20113ADF80830E3682068F8
:101A10000493A36802A90393237C8DF8143002F089
:101A2000AFFD06B070BD0F4A93420FD002F5804261
:101A3000934206D0D121084806B0BDE8704005F0B9
:101A4000D1BB094806F0C5FC0225A9E7074806F006
:101A5000C0FC0125A4E700BF649100085C97000862
:101A600000C0035000000B5054970008589700081E
:101A70002DE9F04F85B09A46554B06461B780F4628
:101A80001546DDF83C909DF844B0DDF85080002B01
:101A900000F09780072A00F296800E9B002B00F042
:101AA0009280B9F1000F00F08E80129BB3F5006FA9
:101AB00000F38980012803D1109B002B00F0838064
:101AC000444B03EB05131B7B002B7ED0424C1022B2
:101AD0000021684605F051FE04EB45141022A7BB17
:101AE0003946204605F049FE43F210036380BBF1FE
:101AF000000F03D1E37843F00303E370364A0E9BF3
:101B000002EB451CCCE90193129B6901581E9DF81C
:101B10004C30C0F30A0003F003039B0643EA001EA7
:101B200053582E48012E00EA03004EEA0003CDF878
:101B300000A0535017D0B8F1000F2ED19CF80230FE
:101B400068F304138CF8023027E00021204605F0EA
:101B500014FE4FF444736380BBF1000FCED1E378E1
:101B600043F03003C9E713230CF1100ECCF80C300E
:101B70009CE80F008EE80F006FF00301DCF81C20DA
:101B8000109B61F39F02012FCCF81C20CCF814307D
:101B900003D1CCF81890CCF8043000270D4A290165
:101BA00002EB051342F80180159A28465A606946EF
:101BB00022469F605E7302F037FF384605B0BDE8ED
:101BC000F08F0748FAE70748F8E70748F6E700BF4D
:101BD0005F3A00202C1400202C1300200F80FFF30C
:101BE000028000F0018000F0078000F038B5124B51
:101BF00005461B78DBB1E0B106F0E0FB0F4A00239D
:101C00001146147B54B92B6001251A0101EB031313
:101C10001D738C5006F0CDFB204638BD0133082BD8
:101C200002F11002EDD106F0C4FB0548F5E70548C6
:101C3000F3E70548F1E700BF5F3A00202C140020CD
:101C4000048000F0028000F0018000F038B506F05A
:101C5000B5FB002305460B4A147B6CB90133082BF6
:101C600002F11002F8D102F061FE074B28461C7009
:101C700006F09FFB204603E0284606F09AFB034847
:101C800038BD00BF2C1400205F3A0020058000F012
:101C900010B50D4B04461B7893B1072812D806F0F7
:101CA0008DFB0A4B03EB04131A7B2AB100241C732F
:101CB00006F07FFB204610BD06F07BFB0448FAE7E8
:101CC0000448F8E70448F6E75F3A00202C140020A7
:101CD000068000F0028000F0018000F013B5154B83
:101CE0001868002301908DF8043006F067FB124B52
:101CF0001C7824B106F05DFB104802B010BD012233
:101D00001A7006F056FB0E4B01A81C731C7783F863
:101D10002C4083F83C4083F84C4083F85C4083F8C7
:101D20006C4083F87C4008238DF8073002F034FEC5
:101D30002046E2E7BF9100085F3A0020038000F0F0
:101D40002C140020F8B50D4D2D7885B1072810DC36
:101D50000B4D060105EB0014277B67B1AB51002545
:101D6000069BA560636002F05FFE2846F8BD05484B
:101D7000FCE70548FAE70548F8E700BF5F3A0020AE
:101D80002C140020028000F0018000F0078000F099
:101D900008B50A4A12785AB107280BD8084A02EB4C
:101DA00000131B7B43B1002102F0D6FD002008BDCB
:101DB0000448FCE70448FAE70448F8E75F3A0020E3
:101DC0002C140020028000F0018000F0078000F059
:101DD00008B50A4A12785AB107280BD8084A02EB0C
:101DE00000131B7B43B1012102F0B6FD002008BDAA
:101DF0000448FCE70448FAE70448F8E75F3A0020A3
:101E00002C140020028000F0018000F0078000F018
:101E10002DE9F041174B1F6D5B6D1F4000D5FEE7AC
:101E200001260025144CDFF85880374218D023686B
:101E3000C8F85060A3B1A168284601316268A1606A
:101E40009847637B012B0BD150B90C4B03EB451327
:101E50001A7B60F341021A731A7F60F341021A770A
:101E60000135082D4FEA460604F11004DDD1BDE826
:101E7000F08100BF000004502C1400202C1300201F
:101E800000200450F0B58FB08A4A0B680546934293
:101E90000C4606AF0BD0884A934208D002F5804228
:101EA000934204D002F58042934240F0DB80BC466E
:101EB000824E05970FCEACE80F0096E80F00103663
:101EC0008CE80F000FCE0DF1040CACE80F00002DD4
:101ED00000F0BD81002684220021284605F04DFC3B
:101EE0002368744AAE65934210D0734A934200F05F
:101EF0009F8002F58042934200F0A08002F580426C
:101F0000934200F0A1806E480FB0F0BD4FF47022F4
:101F10006C486D492B600123A44685F85C302F1D69
:101F2000C5E90B122865BCE80F000FC79CE80F003D
:101F300087E80F00637E012B08BF8DF81D30A37E5C
:101F40003BB1012B00F08680022B02D0032BDAD1AB
:101F50000623227E8DF81230012AE3687CD15B4A89
:101F600093428CBF04230523059A537700238DF8F1
:101F70001130574B5748039306F02BFA2B6D986896
:101F800006F027FA2369DA1F092ABCD8063B8DF828
:101F90001030237E2BB9E37EB3FA83F35B098DF80F
:101FA0001C300121284605F052F90028ACD1237AD3
:101FB0002279760142EA034206F1A04303F5703329
:101FC000C3F8AC24617A627942EA0142C3F8A424DE
:101FD000A17AA27942EA0142C3F8A824E27E002A4B
:101FE0003ED1E17AE27942EA0142C3F898241D2207
:101FF0002068C3F8942401A902F04AF806F0DEF93B
:10200000354B1A78002A40F0178101221A7006F029
:10201000D0F903F0F9FFFFF761FE002105F124007C
:10202000FFF7E4FD0146002800F009812B486BE72B
:102030004FF4801201262A482A496BE74FF4981280
:1020400002262948294965E74FF4A01203262848AB
:1020500028495FE704237CE700228DF8342089E7D4
:102060001C22C5E73E46DFF89CC0BCE80F000FC647
:102070009CE8070086E80700002D00F0E8800026B5
:1020800084220021284605F078FB23681A4AAE65B1
:10209000934239D002F58042934200F0B58002F5B8
:1020A000804293427FF42FAF4FF4B01202261348C0
:1020B00013492DE00000015B00C00850C4910008E6
:1020C000022000F0C897000801000F003F4B4C00B1
:1020D00040420F0060970008603A0020092000F09D
:1020E000BC97000801001000B09700080100130021
:1020F000A49700080100140000000A50749700081B
:1021000004001600F89100084FF48022514852490B
:102110002B600023A64685F85C3005F1040CC5E968
:102120000B122865BEE80F00ACE80F009EE80F0018
:102130008CE80F00637E012B08BF8DF82630A37E4C
:1021400043B1012B66D0022B67D0032B7FF4DBAEAB
:102150004FF44073ADF82830237E4048012B03BF75
:1021600000238DF825304FF4E133E368089306F03F
:1021700030F92B6D986806F02CF923691A1F0C2A88
:102180003FF6C1AE033B394620688DF8243002F09B
:10219000D3FDA36923F47F0323F47F432BB94FF4CA
:1021A00080322B6803F580539A60237A277960790F
:1021B00047EA0347637AA17940EA034094F81BC0D9
:1021C000A37A274A41EA03417301BCF1000F27D1EA
:1021D0001A44C2F83878C2F83008C2F83418E17AE4
:1021E000E27903F1A04342EA014203F57033C3F8F8
:1021F00024281D22C3F820280121284605F027F8AD
:1022000000287FF481AEF9E64FF4A81201261548A4
:1022100015497DE74FF400739CE74FF4807399E70D
:102220001344C3F83878C3F83008C3F834181C23B3
:10223000413676019351DFE706F0BBF8EBE605F196
:102240002800FFF7D3FC00283FF45EAEEEE6074817
:102250005AE600BF8C97000802000400609700084F
:1022600000C003508097000802001500012000F014
:10227000044BD3F88420D206FBD4D3F88400C0F3F7
:10228000811070470040005038B5104B0546D3F818
:1022900000310C4603F00303022B0BD0032B0DD0AF
:1022A000012B0FD105F0B4FC032305B1286004B164
:1022B000236038BD05F0FEFC0923F6E705F0AEFC0F
:1022C0000823F2E701230020EFE700BF0080005061
:1022D00038B5104B0546D3F840310C4603F00303E4
:1022E000022B0BD0032B0DD0012B0FD106F052F88F
:1022F0000A2305B1286004B1236038BD05F0DAFC7B
:102300000923F6E706F049F80C23F2E70123002041
:10231000EFE700BF0080005038B5104B0546D3F8FA
:1023200060310C4603F00303022B0BD0032B0DD0BE
:10233000012B0FD106F02EF80A2305B1286004B155
:10234000236038BD05F0B6FC0923F6E706F025F852
:102350000C23F2E701230020EFE700BF00800050CC
:1023600038B5104B0546D3F840320C4603F0030352
:10237000022B0BD0032B0DD0012B0FD106F00AF846
:102380000A2305B1286004B1236038BD05F092FC32
:102390000923F6E706F001F80C23F2E701230020F9
:1023A000EFE700BF0080005038B5124B0546D3F868
:1023B00080300C4603F00303022B0BD0032B0DD00F
:1023C000012B0FD105F0EAFB0E2305B1286004B103
:1023D000236038BD05F026FC0723F6E705F0D8FB9F
:1023E0000623F2E7044841F2142104F0FBFE002327
:1023F0001846EAE7008000501492000838B51A4BDE
:102400000546D3F820010C4600F00700062821D825
:10241000DFE800F028040C1410181C0005F0B8FBCD
:10242000052305B1286004B1236038BD05F0F0FB39
:102430000323F6E705F0F6FB0723F2E705F0E4FBDC
:102440000223EEE705F0A4FB0623EAE705F0E0FB34
:102450000423E6E7054841F2912104F0C3FE00237E
:102460001846DEE70123DCE70080005014920008E4
:1024700038B5194B0546D3F828310C4603F007034D
:10248000013B052B20D8DFE803F003131B0F0B17CC
:1024900005F07EFB052305B1286004B1236038BD3B
:1024A00005F076FB0623F6E705F0BCFB0723F2E711
:1024B00005F0AEFB0323EEE705F0AAFB0423EAE7F1
:1024C00005F0A2FB0223E6E7044841F2990104F07B
:1024D00089FE00231846DEE70080005014920008B1
:1024E00037B500230193194B0546D3F820320C462B
:1024F00003F00703042B1FD8DFE803F025030F14B4
:102500001900002101A8FFF7B3FF12230DB1019AB2
:102510002A6004B1236003B030BD05F083FB0723BC
:102520000190F3E705F036FF0A230190EEE705F08E
:10253000C1FB09230190E9E741F25601044804F088
:1025400051FE0023E2E70123E0E700BF00800050D6
:1025500014920008F7B50027144B0197D3F8804177
:10256000064604F00304022C0D4614D0032C0DD0B3
:10257000012C14D1394601A8FFF740FF10240EB1F9
:10258000019B336005B12C6003B0F0BD05F04AFB40
:1025900007240190F3E705F037FB0190EFE741F2E4
:1025A000E631034804F01EFE3C46E8E70080005098
:1025B0001492000838B5164B0546D3F800020C46B5
:1025C00000F00700042819D8DFE800F020030B0F03
:1025D000130005F0DFFE0A2305B1286004B1236073
:1025E00038BD05F067FB0923F6E705F0D6FE0C239E
:1025F000F2E705F0F3FA0F23800AEDE7054841F210
:10260000A44104F0EFFD00231846E5E70123E3E7CA
:10261000008000501492000838B5164B0546D3F8D8
:1026200008020C4600F00700042819D8DFE800F083
:1026300020030B0F130005F0ADFE0A2305B128603F
:1026400004B1236038BD05F035FB0923F6E705F03A
:10265000A4FE0C23F2E705F0C1FA0F23800AEDE790
:10266000054841F2DC4104F0BDFD00231846E5E7D2
:102670000123E3E7008000501492000838B5124BA4
:102680000546D3F850320C4603F00303022B0FD05B
:10269000032B05D0012B0FD105F07CFE0A2302E0AD
:1026A00005F07BFE0C2305B1286004B1236038BD22
:1026B00005F000FB0923F6E7044841F2C90104F0E4
:1026C00091FD00231846EEE70080005014920008A8
:1026D00037B500230193184B0546D3F860320C46FA
:1026E00003F00703013B032B1FD8DFE803F0020EC2
:1026F0001914002101A8FFF781FE10230DB1019AE2
:102700002A6004B1236003B030BD002101A8FFF7A7
:10271000DFFD1123F2E705F085FA07230190EDE7CD
:1027200005F072FA02230190E8E741F2FD01034847
:1027300004F058FD0023E1E70080005014920008E7
:1027400037B500230193184B0546D3F894320C4655
:1027500003F00703013B032B1FD8DFE803F0020E51
:102760001914002101A8FFF749FE10230DB1019AA9
:102770002A6004B1236003B030BD002101A8FFF737
:10278000A7FD1123F2E705F04DFA07230190EDE7CD
:1027900005F03AFA02230190E8E741F230110348CC
:1027A00004F020FD0023E1E70080005014920008AF
:1027B00073B500240F4B0194D3F87032064603F032
:1027C0000303012B0D4607D0022B11D041F25B1100
:1027D000094804F007FD04E0214601A8FFF778FD51
:1027E00011240EB1019B336005B12C6002B070BDA5
:1027F0001524F6E7008000501492000808B5334B0A
:1028000098424FD027D8324B984245D017D8314BF9
:1028100098423ED00AD838B12F4B984239D041F275
:10282000BB312E4804F0DEFC002034E02C4B9842F3
:102830002FD02C4B9842F2D12B4B586E2BE02B4BC8
:1028400098422CD003F5371303F5D8639842E6D1AC
:10285000254B986F1FE0264B98422FD00CD8254B64
:10286000984223D0244B984224D0244B9842D6D16E
:102870001D4BD3F884000EE0214B984222D003F583
:10288000740303F510539842C9D1174BD3F898003D
:1028900001E0154B986D08BD134B186FFBE7124B09
:1028A000586FF8E7104BD3F88000F4E70E4BD3F8DD
:1028B0008800F0E70C4BD3F88C00ECE70A4BD3F818
:1028C0009000E8E7084BD3F89400E4E780BA8C0165
:1028D000405DC60080841E0040420F001492000834
:1028E00000093D00C0CF6A000080E00F0024F40022
:1028F000007E560380D54302006CDC020048E801EC
:102900000090D00310B5B0F5207F2ED009D8B0F5D7
:10291000007F24D003D868B1B0F5C07F0AD000246E
:102920001BE0B0F5607FFAD1124BD3F88040C4F3BE
:10293000011412E00F4B1C6F230B13F00E0FC4F3A6
:1029400003340AD0072C08D00F2C06D0032C04D057
:102950004FF42271084804F045FC601C10BD054B83
:10296000D3F89040C4F30464F7E7024B1C6FC4F340
:102970008024F2E7008000501492000838B54FF42C
:102980008032104B04469A6600200D46FFF7BAFFCE
:1029900041F671320C4B6043DC69DA635A6804F427
:1029A000803422F440125DB90849884294BF002067
:1029B0000120000502435A600CB10022DA6338BDE1
:1029C0000349F2E70090005000000350005A6202F1
:1029D000002D310138B5420904460D4606D140F2BA
:1029E00035310D4804F0FEFB002305E0531E022B99
:1029F0000BD80A4B03EB820304F01F0445B103F527
:102A000080530122A2401A6038BD40F24331E8E70A
:102A100003F50053F5E700BF1492000860800050F2
:102A200030B585B00021B0F5807F0446CDE90011B6
:102A300000F009816BD8002800F0D980A0F12004B3
:102A4000602C74D8602C72D8DFE814F0D100DE005E
:102A5000D100DE00EE00EE00EE00EE00EE00DE0043
:102A6000F8007D000E019D007D00DE00DE00DE002E
:102A700071007100710071007100710071007100CE
:102A8000DE00DE00DE00AF001801DE007100710024
:102A900071007100710071007100710071007100AE
:102AA000710071001D01EE00D100D100D1001301B1
:102AB0007D007D00BB0022019200F30071007100D7
:102AC000710071007100C600D1007100EE00EE00CF
:102AD000EE00EE00EE00F300F300DE007100DE0019
:102AE000DE007100710071007100710071007100F1
:102AF000710071007100710071007100710071004E
:102B0000710071007100710071007100CB00B0F5AF
:102B1000E06F00F0B3803BD8B0F5607F7FD01DD868
:102B2000B0F5007F66D008D8B0F5C07F5FD040F226
:102B3000A4415C4804F056FB56E0B0F5207F63D01A
:102B4000B0F5407FF3D105F049F804464FF420700A
:102B5000FFF7D8FEB4FBF0F464085EE0B0F5B06FA8
:102B60006CD00AD8B0F5806F5ED0B0F5A06FDED122
:102B700000216846FFF7B4FC36E0B0F5C06F73D0B3
:102B8000B0F5D06FD3D100216846FFF713FD2BE0DD
:102B9000B0F5186F77D00DD8B0F5086F7DD0B0F5CF
:102BA000106F66D0B0F5F06FC1D100216846FFF715
:102BB000B3FB19E0B0F5286F6AD007D8B0F5206FE5
:102BC000B5D100216846FFF783FD0DE0B0F5406FF9
:102BD0002FD0B0F5486FAAD100216846FFF7B0FDAD
:102BE00002E004F0DBFF0090009805B030BD04F077
:102BF000F5FFF8E704F0D2FF05462046FFF782FE16
:102C0000B5FBF0F50095EFE704F0E8FF04464FF45C
:102C10002070FFF777FEB4FBF0F40094E4E701A81E
:102C2000FFF7C2FB019DE8E700216846FFF7E6FBDE
:102C3000DAE700216846FFF71BFCD5E7002168466C
:102C4000FFF788FCD0E74FF0E02302911B695B0798
:102C500005D504F0C3FF0290029B0093C4E703A9CB
:102C600002A8FFF735FBF7E700216846FFF730FBC6
:102C7000BAE700216846FFF7CFFCB5E700216846B8
:102C8000FFF76EFBB0E700216846FFF7F7FCABE704
:102C900000216846FFF78CFDA6E76846FFF7F4FAC7
:102CA000A2E700BF1492000808B58020FFF7B8FE25
:102CB000034B98429EBF4FF48032024B1A6708BD07
:102CC000005A620200A000501FB503460020B3F571
:102CD000807F019000F0FB8000F28B80662B7BD818
:102CE0003C2B05D8243B092B5CD940F28951DDE00F
:102CF0003D3B292BF9D801A252F823F0F12E000810
:102D00001F2F0008EB2C0008EB2C0008EB2C000810
:102D1000EB2C0008EB2C0008EB2C0008EB2C000837
:102D2000EB2C0008EB2C0008EB2C0008EB2C000827
:102D3000EB2C0008EB2C0008292F0008C52E0008FA
:102D4000EB2C0008EB2C0008EB2C00085B2E000895
:102D5000EB2C0008EB2C0008752E0008332F000820
:102D60001D2E0008152F0008EB2C0008EB2C000886
:102D7000EB2C0008EB2C0008EB2C00088D2E000833
:102D8000EB2C0008EB2C0008C52E0008C52E00080F
:102D9000C52E0008C52E0008C52E0008152F0008F6
:102DA000152F0008092BA0D801A252F823F000BF6C
:102DB000C52E0008C52E0008C52E0008C52E000827
:102DC000C52E0008EB2C0008B52E0008EB2C0008DF
:102DD0003B2E0008FB2E0008802B86D1574B1B6F23
:102DE00003F00703013B032B5ED8DFE803F05B54DD
:102DF0005759B3F5F06F7BD024D8B3F5B06F59D0E5
:102E000011D8B3F5607F00F08180FFF46EAFB3F5A9
:102E1000806F57D0B3F5A06F7FF467AF002001A992
:102E2000FFF75EFB4AE0B3F5D06F66D0B3F5E06F15
:102E300075D0B3F5C06F7FF458AF002001A9FFF73C
:102E400047FA3BE0B3F5186F6ED00BD8B3F5086FB7
:102E500058D0B3F5106F7FF448AF002001A9FFF7F9
:102E6000DBFB2BE0B3F5286F63D008D8B3F5206FF8
:102E70007FF43BAF002001A9FFF72AFC1EE0B3F569
:102E8000406F47D0B3F5486F7FF42FAF002001A902
:102E9000FFF756FC12E0052301930FE00323FBE745
:102EA0000823F9E70223F7E740F2D641244804F06B
:102EB00099F903E0002001A9FFF74CFB019805B048
:102EC0005DF804FB002001A9FFF798FAF6E74FF040
:102ED000E02302901B695B0705D504F07FFE0D23FC
:102EE0000393039BD8E703A902A8FFF7F1F9F8E7DA
:102EF000002001A9FFF710FAE0E7002001A9FFF781
:102F000059FBDBE701A9FFF7BFF9D7E701A9FFF7F5
:102F10004BFAD3E7002001A9FFF7AAFACEE7002079
:102F200001A9FFF71DFAC9E7002001A9FFF7A6FBD9
:102F3000C4E7002001A9FFF73BFCBFE70080005079
:102F4000149200084FF48032074B0849586E03F57D
:102F500080535A664B6A23F001034B62C3035CBF84
:102F6000034B5A66704700BF0080005000000850B5
:102F700000A0005038B5036804460F2B04D940F672
:102F80008A317C4804F02EF963680F2B04D940F68F
:102F90008D31784804F026F9A3680F2B04D94FF43B
:102FA0003961744804F01EF9237B0F2B04D940F6D5
:102FB0009331704804F016F9637B0F2B04D940F667
:102FC00096316C4804F00EF9A37B3F2B04D940F6F0
:102FD0009931684804F006F9E37B3F2B04D940F6A9
:102FE0009C31644804F0FEF82369032B04D940F6B1
:102FF0009F31604804F0F6F86369032B04D940F66A
:10300000A2315C4804F0EEF8E369032B04D940F6E2
:10301000A531584804F0E6F88020FFF755FE032854
:1030200000F083804FF48012534B4FF0A0615A663A
:1030300045F60E02514BC3F88020514A91624FF47D
:10304000803102F5805291629A6DD203FCD4996D61
:1030500011F08041FBD1D4E90002120542EA00627E
:10306000E07B0243207B42EA0042607B42EA00327E
:10307000A07B42EA80121A619869D4E904521206D0
:1030800042EA856200F000400243A07EE57E0243F2
:10309000207E42EA0042607E42EA00229A611A6A79
:1030A000E06922F00F0242EA8502364D00283DD148
:1030B0001A6294F82420996A94F82000D2002940DA
:1030C00042EA40120A4394F8211042EA011242F403
:1030D00080329A622C49294A936D31EA0303FBD16D
:1030E0004FF08071264881621369A56823F470034C
:1030F00043EA055313614FF00043836194F8223093
:103100000BB9224B996294F823303BB94FF48032CB
:103110001E4B9A62194A936D5B00FCD494F82530DB
:103120001BB1164B1A4AC3F8802038BD024342F047
:10313000080202281A6208D119614FF408529961F5
:1031400014484FF47F4104F0F7F80C4994F822300A
:103150008A6A94F820001B062A4043EA401313436E
:1031600094F8242043EAC20394F8232043EA02435C
:103170008B62D3E714920008009000500040005A80
:103180000050005AC7FFFEFE030001000060005A15
:10319000F1A7FFFF3440005A014B93F9000070473C
:1031A0004C3B002010B543680446072B04D940F679
:1031B000E6512A4804F016F8A368032B04D940F618
:1031C000E851264804F00EF82378032B04D940F682
:1031D000EA51224804F006F894F90130002B04DA91
:1031E00040F6EC511D4803F0FDFF4FF400011C4A6E
:1031F000637851664FF4D151022002F5B832516222
:1032000018494F2B48604FF0010028BF4F2301F5AC
:10321000805148601169C903FCD4217843EA012335
:103220005361D4E901131B0143EA0123617B0B4382
:10323000217B43EA41039360E37BA17B1B0143EACB
:103240004113617C0B43217C43EA41035360A37C1F
:1032500013B16FF4D153536210BD00BF1492000834
:103260000090005000100250014B1880704700BFC2
:103270004A3B0020014B1880704700BF483B0020AC
:1032800008B54FF48002184B5A660223174A536060
:10329000936813F48033FBD1012822D104F0B8FCE9
:1032A000134B984215D003F5122303F5F8639842A7
:1032B00013D0104B00EB8002400AB3FBF0F3520A2C
:1032C0000A49CA620B6301234B620022074B5A6012
:1032D00008BD45F67A13084AF2E745F61A03074A8D
:1032E000EEE75362F1E700BF00900050004002504B
:1032F00000F0490264666666D8B80500BBCF0500D9
:1033000038B5B0F5207F77D00ED8B0F5007F61D00A
:1033100003D890B3B0F5C07F2FD04FF44671BDE80D
:1033200038403D4803F05EBFB0F5607FF5D13B4AC1
:103330004C1ED2F8FC5015F080751EBFD2F8FC3040
:1033400023F08073C2F8FC30032C04D940F2F7213B
:10335000314803F047FF324AD2F8803023F030037F
:1033600043EA0413C2F8803035B12C4AD2F8FC305D
:1033700043F08073C2F8FC3038BD4C1E012C0AD9D2
:10338000102903D8274BCB40DB0704D440F2CB21D4
:10339000214803F027FF03F0DEFF03F0EAFF4FF4BC
:1033A0008031214B1E4A1967136F23F4704343EA9F
:1033B0000433136704F012FC0446FEF759FFC0F112
:1033C0000201204603F0CFFF00F048F8BDE8384086
:1033D000FFF76ABC4C1E1F2C04D94FF443710E48F2
:1033E00003F000FF0E4AD2F8903023F0F85343EA7E
:1033F0000463C2F89030BFE74C1E012C04D940F2A0
:103400001231054803F0EEFE054A136F23F4806382
:1034100043EA84231367AFE71492000800ED00E04D
:1034200000800050100101000090005008B50121FB
:10343000022000F099F94FF42070FFF763FA054B72
:10344000187003F088FF03F094FF4FF48032024BB2
:103450001A6708BD613A00200090005008B54FF48B
:10346000C070FFF7DDFABDE808400449884294BF08
:10347000012102214FF42070FFF742BF80F0FA02D1
:1034800038B5044604F0AAFB0546FEF7F1FEC0F18C
:103490000201284603F067FF0121002000F0B8F97F
:1034A0002CB1FFF7DBFFBDE83840FFF7FDBB034B56
:1034B0004FF420701978FFF723FFF4E7613A0020FA
:1034C0002DE9F0410546FFF799F9431E0333044601
:1034D00004D940F6E2113B4803F084FE4FF4C022C9
:1034E000394B5A6603F598335A68012A04D1374993
:1034F0004A605A689207FCD48020FFF7E5FB052854
:1035000007D103F028FF03F034FF4FF480322E4B35
:103510001A672F4B24F040749D4239D02D4B9D42A9
:1035200039D004F035FB8542064603D901212846EF
:1035300000F06EF9284FFB6813F0060FFBD1D7F8A7
:103540000880BC60BB68634013F4F81F26D128468E
:10355000FEF746F88020FFF7B7FB052814D104F0EA
:103560003DFBA842044604D940F63B21154803F030
:1035700039FEFEF77DFEC0F10201204603F0F3FEA6
:10358000FFF76CFFFFF790FBAE4213D2BDE8F0816E
:1035900044F00074C5E744F08074C2E740F62A2185
:1035A000084803F01FFE8020C7F80880FFF78CFB57
:1035B000052805D0BDE8F0410121002000F028B920
:1035C0003546CCE7149200080090005000E001500E
:1035D00040420F0080841E000000015070B54E4B29
:1035E0000546984273D041D8A3F5B703A3F55863B5
:1035F000984265D033D8494B494E984251D017D89C
:10360000002877D041F2DE11464803F0EBFD40F68A
:103610008671444803F0E6FD4FF40022404B5A66A1
:103620003E4B9D4276D000243F4A954236D05DE025
:103630003D4B984227D03D4B9842E3D13C4BD3F8C9
:10364000A040621E033224F040744CD940F68671CB
:10365000344803F0C7FD4FF400237366E4E7354BAD
:103660009842CFD1324BD3F8BC402CE0324B984239
:1036700031D0324B984232D0314B9842C2D12C4B90
:10368000D3F8C8401FE02A4BD3F8A040621E033293
:1036900024F04074DAD84FF40023736644F0807449
:1036A00024E0234BD3F8A040621E033224F0407480
:1036B0002AD84FF400237366234643F0007415E0C4
:1036C0001B4BD3F8B840621E154E0332BBE7184BB4
:1036D000D3F8C040F7E7164BD3F8CC40F3E7144BD0
:1036E000D3F8D040EFE74FF4002373664FF0B442B5
:1036F000946070BD40F686710A4803F073FD4FF484
:1037000000232C467366F1E740F68671054803F006
:1037100069FDCEE70023D0E7C0EA210140420F0057
:10372000009000501492000880841E0000093D00A3
:103730000080E00F0024F4000048E801005A620213
:1037400080BA8C01024A536B0342FCD1704700BF20
:1037500000800950034A0179D36E23F030030B43F4
:10376000D366704700400050F8B50446244BD3F8A8
:103770008420D006FBD4D3F88430C3F381139C4259
:103780003CD004F00BFA012C05460BD11D4B98429E
:1037900004D940F28F711C4803F024FD0121284612
:1037A00003F0E1FD04F001FE4FF00072174B0746F5
:1037B0005A66204603F0E2FD4FF48063104E621E0D
:1037C00093403367736E9A0103D4D6F884309B0616
:1037D0000AD5384604F0E4FD022C0FD12846BDE896
:1037E000F840002103F0BFBDD6F884309906E9D532
:1037F00040F2A771044803F0F5FCE3E7F8BD00BF11
:1038000000400050005A62026492000800600050BC
:1038100010B50C4608B904F0C1F9074B21461B78D6
:103820003BB1064B984204D80120BDE81040FFF799
:103830009BBF0220F9E700BF623A0020005A6202F3
:1038400038B54FF00042244B244C5A664AF6CD332B
:10385000656C014605F00105236428BB0120FFF7D4
:1038600071FF6368DB0715D51D4B586008461D4B7B
:10387000226BD2070CD4984208D1072415B1174BFC
:10388000194A1A6403F07BFD204638BD0130EFE78A
:103890009842F2D00024F1E70132236B13F00803C1
:1038A00005D08A42F8D1E8E700220E49F5E78A42BE
:1038B000E3D020210A4A91620121A2F58052516091
:1038C0000649084A886A800603D49342D5D001335A
:1038D000F8E79342DDE700BF0090005000800950F8
:1038E00000A0095040420F003254FFFF38B54FF09E
:1038F0000042164B01465A664AF6CD33144C154A1F
:10390000656C236443780B205B0043F00103D363B1
:10391000FFF718FF63688A7823F4F87343EA021309
:103920006360CA784B7943EA0223A3600A798B79F2
:1039300043EA022323610878FFF782FFEB0744BFC5
:10394000054B236403F01BFD012038BD009000509F
:1039500000800950004000503254FFFF70B50F281E
:10396000044605D940F66861124803F03BFC0F2479
:103970004FF00042104B11495D6E03F580535A66BB
:103980004AF6CD334E6C80200B64FFF7DBFE0B6AEA
:1039900023F00F0323430B62F30744BF084B0B6470
:1039A000002DA2BF4FF00042064B5A6603F0E7FC21
:1039B00070BD00BF64920008008000500080095074
:1039C0003254FFFF00A0005008B50E4B984211D0B2
:1039D0000D4B984210D003F5804398420ED003F56A
:1039E000804398420CD0094840F2793103F0FAFB49
:1039F000002008BD5620FCE75720FAE76520F8E7CD
:103A00006620F6E70000015B00C00850B492000891
:103A100010B503F0B9FC042300F5805100F5005205
:103A20000B6113610B6113610B6113610B61136116
:103A3000202341F2020103610023C36083604161DE
:103A40004FF4A0218361836541620549C36103622C
:103A50008362C36243630365D164036310BD00BF27
:103A6000FF3F0D0338B51B4B044698420D460FD05F
:103A7000194B98420CD003F58043984208D003F5C7
:103A80008043984204D040F26911144803F0AAFB25
:103A900025B92046BDE8384003F076BC012204F584
:103AA00080535A6040F6FF71204605F00F0203F084
:103AB00067FCA263782103F063FC05F001036A0749
:103AC00048BF43F00203A26C02F003029A42FAD10B
:103AD00038BD00BF0000015B00C00850B492000870
:103AE000F8B505460C46164622B940F227216A4829
:103AF00003F078FB694B9D420FD0694B9D420CD07F
:103B000003F580439D4208D003F580439D4204D0D5
:103B100040F22A21604803F065FB2CB92846FFF7E4
:103B200053FFFEF77DFF0446AB68D80741D5B4428A
:103B300004D24FF40D71584803F054FBB4FBF6F473
:103B40006F68013CFF2C07F0010704D94FF40F7197
:103B5000514803F047FB24062FB92B6923F07F431C
:103B600023432B61F8BD2821284603F009FCAB6CE8
:103B7000990718D1AB6CDA0717D4AE6C16F00206B1
:103B800015D140F24921444803F02CFB284603F0AC
:103B9000FBFB2B69314623F07F4323432B61BDE8B8
:103BA000F840FFF75FBF0526F0E70926EEE7062697
:103BB000ECE76B68012B04D04FF41771364803F023
:103BC00011FBAB6DDB07AB6848BF760003F0E00389
:103BD000402B42D009D893B1202B1AD040F29E211D
:103BE000BDE8F8402C4803F0FDBA602B42D0802B92
:103BF000F4D106EB4603A34247D801230DE0B6EB10
:103C0000141F04D94FF42171234803F0EBFA102359
:103C100003E0B6EBD40F1AD8082373436401B4FB56
:103C2000F3F4204F203CB7EBC40F4FEAC40604D294
:103C300040F2A921184803F0D5FA28463E40012158
:103C400003F09EFB2E63BDE8F84003F099BB40F201
:103C50008921114803F0C6FADEE70623B4FBF3F32B
:103C6000B34201D30623D8E740F28E210A4803F07D
:103C7000B9FAF7E7B6EB940F01D80423CDE740F289
:103C80009321054803F0AEFAF7E74FF42671024896
:103C900003F0A8FAB1E700BFB49200080000015B8E
:103CA00000C00850F8FF7F002DE9F04198464368B6
:103CB00004460E4617461BB140F6FF7103F060FB49
:103CC0002046FFF7A5FEF189737B62690B43318AB9
:103CD00022F44C520B4322F00F0213436361A1689C
:103CE000337E327B21F0804121F0E2011A430A4306
:103CF00071690A43A260B2681AB9A26842F0004230
:103D0000A260F069002800F08B80857A027A6D0449
:103D1000A16845EA82558C4A0A401543828802F41C
:103D2000C0421543427845EA8205427B45EAC20516
:103D3000827B45EA0215827845EA8225A560D0E9B2
:103D40000421E5680A43814929400A43817942EA0E
:103D50008122C17942EA4122E26002787C49012A4B
:103D60001ED1E26842F00402E2608C4200F0B480AE
:103D7000784A944200F0B28002F58042944200F00A
:103D8000AF8002F5804294420CBF03224FF0FF3215
:103D9000520102F1A04242F2944102F5703220E059
:103DA000032A40F08E80E26842F00402E2608C4216
:103DB00000F08C80674A944200F08A8002F58042CD
:103DC000944200F0878002F5804294420CBF0322A7
:103DD0004FF0FF3241F29441520102F1A04202F54C
:103DE000703202255550427A04F580518A621AB128
:103DF000E26842F40062E260C27A5AB1E26842F4D8
:103E00000042E260524A94426CD1027B524902F075
:103E10000F024A67626AC17B22F003020A436262B0
:103E20003FB197F8202004F58050002A78D0012275
:103E30000262B8F1000F2FD004F5805113B14FF496
:103E400000438B65424BB8F822009C4298F8213021
:103E500073D0404A944272D002F58042944270D0AE
:103E600002F5804294420DD10322112B34BF012769
:103E700002273A4DB0F5006FAF5494BF01270227D7
:103E8000374DAF54A26D034322F4F95222F01E02C3
:103E90001343A36501238B6505212046FFF7E2FD4F
:103EA000B2681AB120467168FFF71AFE20463178D1
:103EB000FFF7D8FDA36CDB4313F4405FFAD1BDE8F4
:103EC000F081023A012A7FF672AF4EE7002281E7C5
:103ED00001227FE702227DE7002259E7012257E70E
:103EE000022255E71B4A944206D1027B1A4902F08E
:103EF0000F02C1F880208DE71A4A944206D1027B56
:103F0000154902F00F02C1F88C2083E7164A94424B
:103F100001BF027B104902F00F02C1F8982079E737
:103F2000E16997F8222097F8215021F009012A43EE
:103F30000A4342F00102C2617BE7002295E70122B9
:103F400093E7022291E700BFE39BBDFFFFF9F087F3
:103F50000000015B00C0085000900350673A002049
:103F6000633A0020000009500040095070B5174B1B
:103F7000044698420D460ED0154B98420BD003F5DF
:103F80008043984207D003F58043984203D07021C4
:103F9000104803F027F91DB972210E4803F022F9E9
:103FA0002B7B802B03D176210A4803F01BF96B7B16
:103FB000032B03D97921074803F014F9002329467C
:103FC0002046BDE870401A46FFF76EBE0000015B58
:103FD00000C00850B492000870B52B4B05469842BB
:103FE0000C4643D119B98C21284803F0FBF8562020
:103FF000FEF76AFE0C2807D0A0F10903012B03D9B4
:10400000A0F11103012B3AD8637B032B03D9AD2117
:104010001E4803F0E7F8237B802B03D0AF211B4819
:1040200003F0E0F86369B3F1804F03D0B121174882
:1040300003F0D8F8238A23F400539BB2B3F5805FD2
:1040400003D0B321114803F0CDF8A368013BB3F5C9
:10405000165F03D3B5210D4803F0C4F800232146B1
:104060002846BDE870401A46FFF71EBE8A21074861
:1040700003F0B8F81CB98C21044803F0B3F89E2172
:10408000024803F0AFF8BFE70000015BB4920008FC
:10409000F8B5974B044698420E460ED0954B984281
:1040A0000BD003F58043984207D003F58043984234
:1040B00003D0E221904803F095F81EB9E4218E4820
:1040C00003F090F8727BB3687AB18C4A934203D9BB
:1040D000E621894803F086F83369D3B1DB7BC3B1AD
:1040E000E921854803F07EF813E0854A934203D91D
:1040F000EC21814803F076F8336953B11A7F42B15D
:10410000B168804A5B7F914240F28380042B00F2C9
:1041100083806368356923B140F6FF71204603F060
:104120002FF92046FFF774FC2269737BB17B22F0E4
:1041300087020B43134343F080032361002D6DD0AE
:104140002369297F23F0F80343EAC1132978EA7B26
:104150000B43297943EA4113697A43EA011343EA9D
:1041600082132361E068D5E9053720F0F0403B4336
:1041700020F470200343287B697B43EA802343EAD1
:10418000C133E360A368F07B23F00303034343F0F0
:104190000103A3606B88A06803F4C0430343A360DA
:1041A000A368687943EA8023A360AB79EF79606AFA
:1041B0001B013F0203F0700307F4E06720F477204F
:1041C00020F4EE603B430343287A000300F4E04010
:1041D0000343687F000400F4702003436362636953
:1041E000307B23F00F03034363616B89A3610029D4
:1041F00039D10AB33E4B9C423FD03E4B9C424DD0FE
:1042000003F580439C425AD003F580439C4268D01A
:1042100012E0042B3FF67DAFF32162E7A368F27B47
:1042200023F00303134343F00103A3606369327B6C
:1042300023F00F0313436361D6E901122046FFF711
:104240004FFC05212046FFF70DFC2821204603F0F6
:1042500097F83378A36303F093F8A36CDB4313F46C
:10426000405FFAD1F8BD224B9C420CD1AB7B264972
:1042700003F00F034B67002ADED02B7C224A03F0A9
:104280000F031367D8E71B4B9C420DD1AB7B1E4934
:1042900003F00F03C1F88030002ACDD02B7C1A4ADE
:1042A00003F00F03D367C7E7184B9C420ED1AB7BDB
:1042B000154903F00F03C1F88C30002ABCD02B7CC9
:1042C000114A03F00F03C2F88830B5E7104B9C4247
:1042D000B2D1AB7B0C4903F00F03C1F89830002A30
:1042E000AAD02B7C084A03F00F03C2F89430A3E74E
:1042F0000000015B00C00850B4920008002D31019D
:10430000809698003F4B4C000090035000000950ED
:104310000040095038B5032804460D4605D8094B1E
:1043200033F81030CB40DB0704D440F28541064817
:1043300002F058FF302301225C43044BAA401A517B
:1043400038BD00BF58930008848C000840D003504B
:1043500038B5032804460D4605D8094B33F810300C
:10436000CB40DB0704D440F25641064802F03AFF46
:10437000302301225C43044BAA401A5138BD00BFD0
:1043800058930008848C000840E003502DE9F04168
:10439000032804460D461746984605D81D4B33F8AA
:1043A0001030CB40DB0704D44FF4B0711A4802F050
:1043B00019FF37B129462046B8F1000F20D0FFF78A
:1043C000A9FF0F21072D04EB440688BFA5F10803C0
:1043D0004FEA0616114895BFAB009B0004360C3619
:1043E00007FA03F29940304402F0F7FF7FB92946FB
:1043F0002046B8F1000F06D0BDE8F041FFF78ABFB4
:10440000FFF7A6FFDDE7BDE8F041FFF7A1BFBDE87C
:10441000F08100BF589300080793000830C0035094
:10442000F8B506460F461546002A6FD003F0030480
:10443000836823F44073836003F0B7FFB26882EAB5
:10444000042303F440735340B36003F0A9FF37B96A
:10445000B6F1B64F0DD12E20FEF7E2FA0746B3684B
:104460009A071CD5012C20D0022C2CD08CB9294BBA
:104470001CE0294B9E4201D12F20EDE7274B9E42A5
:1044800001D16920E8E740F22F11254802F0AAFE89
:10449000B3684FF4B271224802F0A4FE08E0012C88
:1044A00013D0022CE2D11F4B00E01F4B9F42F0D9EA
:1044B0001E4B1B5D6B430AD140F27511BDE8F840FD
:1044C000174802F08FBE1A4BF0E71A4BEEE7A3EB4A
:1044D000C504013C3C44B4FBF3F4013C0CD540F270
:1044E0007B110F4802F07EFE4FF4BE710C4802F0C3
:1044F00079FEB368B461F8BDB4F5007FF4D2B36857
:104500009B07F7D5002C08BF0124F3E740F21511F3
:10451000D4E700BF80841E0000000B5000400B5009
:1045200060930008002D3101404B4C00B09300080F
:10453000809FD5004054890038B5B0F1B64F04468D
:104540000D460FD00C4B98420CD003F58043984297
:1045500008D003F58043984204D040F295110748F3
:1045600002F040FE043425B104F580540123236099
:1045700038BD04F50054F9E700000B5060930008C3
:1045800038B5B0F1B64F04460D460FD0164B9842E1
:104590000CD003F58043984208D003F5804398423D
:1045A00004D04FF4D571114802F01CFE0023104ACC
:1045B000236404F50053DA636A7804F108037AB9D6
:1045C00003F5805302221A602046D5E901122B7BA5
:1045D000FFF726FF20462978BDE83840FFF7ACBF3B
:1045E00003F50053EEE700BF00000B506093000896
:1045F000FFFF1F0070B5B0F1B64F12D0884B984244
:1046000025D003F58043984223D003F58043984298
:1046100021D0844840F2012102F0E4FD6FF0030054
:1046200070BD814B9968C26B12F4C06F19D09105AF
:1046300013D5FD225A7009221A700022026493F9E0
:104640000110012900D15A7093F90100E8E7774B76
:10465000E8E7774BE6E7774BE4E75605EBD5FE2234
:10466000E8E71C78082C00F2D680DFE814F0090097
:104670001F004500530070007E009C00A700CB0087
:104680004C880A88E5060AD5120A02F0060242F0B2
:10469000F002012119704263C1600120C0E702F0FD
:1046A000FE02A10748BF42F00102F2E7160608D554
:1046B000802100F50052D1634FF608721A80022360
:1046C00018E05506E9D5402400F50052D4634A8825
:1046D000D40604D502221A700B784363DDE79607EF
:1046E0006AD507221A701B7901EBC3031B89012BC2
:1046F000D3D10823C360D0E71506D9D45406CCD54E
:10470000402400F50052D4634A88920754D503220E
:104710001A7088E74C880A88E60643BF120A02F03E
:10472000060242F0F00202F0FE02650709D51C798C
:1047300042F0010201EBC4010989012904BF0821EB
:10474000C160042119700123C3604263A5E7140608
:10475000AED45206A1D5402400F50052D4634A8855
:10476000560729D507221A7097E71A795D8801EB59
:10477000C2042689AE420FD800240132D2B21A7187
:104780005C804C886507C2D4E40702D4012A7FF616
:104790004AAF08221A7092E76268691C5980525D1C
:1047A00042630622DFE7160682D455067FF575AF11
:1047B000402400F50052D4630522A9E794067FF552
:1047C0006CAF20261A7900F5005401EBC2010A896A
:1047D000456AE6635C88A24281BF4968661C5E80C8
:1047E0000D5559888A42D4D90424012AC46004D0C2
:1047F000013A914201D10822C2601A78092A3FF495
:104800001CAF4AE7D2057FF548AF4FF4807100F541
:104810000052D1630FE74FF609321A800DE700BF4F
:1048200000000B5060930008AC140020B814002066
:10483000C4140020D014002038B5B0F1B64F04469F
:104840000D4630D121B940F26A31314802F0CAFC3C
:10485000304B2269D00744BF2022E2606A8891076A
:1048600002D52989002934D0520701D52A8A82B37A
:104870004FF480721A6000229D601A71C023E360B9
:104880006369DB0541D4202204F50053DA63224A30
:104890002046DA634FF4FC6204F580531A64BDE8E5
:1048A0003840FFF7A7BE1D4B98421ED003F580434A
:1048B000984211D003F5804398421ED040F26931EE
:1048C000134802F08FFC25B940F26A31104802F01B
:1048D00089FC6FF0030038BD09B1114BB9E740F214
:1048E0006A310B4802F07EFCF7E721B940F26A31E9
:1048F000074802F077FC0B4BABE721B940F26A3175
:10490000034802F06FFC084BA3E7636AB8E700BFF7
:1049100060930008AC140020FFFF1F0000000B5044
:10492000C4140020B8140020D014002010B5232097
:1049300000F0D4FC0024FF22064B21465C652020B9
:104940009A625C60FEF746F82146BDE810402120DF
:10495000FEF740B80000045038B5072804460D465D
:1049600003DD7721084802F03DFC1F2C03D991217B
:10497000064802F037FC064A064B002D08BF1346D6
:104980000122A2401A6038BDB493000805940008C3
:10499000401004504020045010B5044618B991212D
:1049A0001F4802F01FFC23781B0613F0604F03D052
:1049B00092211B4802F016FCE3780F2B03D99521B6
:1049C000174802F00FFC01212020FEF703F8012117
:1049D0002120FDF7FFFF0122124B23205A6022788D
:1049E00012069A606178A27842EA01429A61FF2237
:1049F0009A6200229A631A644FF000425A654FF09F
:104A0000FF3203F500531A6500F0B8FC2320E1786B
:104A100000F0C2FCBDE81040232000F07DBC00BFC8
:104A2000B493000800000450F8B50126C3B207286B
:104A300005460C46174606FA03F603DDDE21344828
:104A400002F0D0FB1CB9DF21314802F0CBFB236818
:104A500023F47C1323F00F031BB1E2212C4802F056
:104A6000C1FBA37A1B0413F47C0F03D0E721284871
:104A700002F0B8FBE37A1B0513F07E6F03D0E92147
:104A8000234802F0AFFB237B5B0513F0FE5F03D0EE
:104A9000EB211F4802F0A6FB1E4B27F003071E6503
:104AA000AB00226803F1A04303F588235A6030224B
:104AB00002FB05F0637B00F1A04000F58020036657
:104AC000E37AA27A1B0543EA0243227B43EA42537C
:104AD000C365076703F072FC0F4B227A5E6502B173
:104AE0001E64627A02B19E632279A37943EA02438B
:104AF000084A93616179E37943EA014306498B618E
:104B0000064B56639E64BDE8F84003F052BC00BFFC
:104B1000B49300080020045000100450000004501A
:104B200010B50124C3B2072804FA03F404DD40F2EF
:104B30007B11074802F056FB03F040FC054B5A6D11
:104B400022EA04025A659C62BDE8104003F031BCC1
:104B5000B49300080000045010B50124C3B2072824
:104B600004FA03F404DD40F299110A4802F03AFB1A
:104B700003F024FC084BDA6A224208D15B6B9C43A9
:104B80000CBF0124002403F014FC204610BD0024B7
:104B9000F9E700BFB49300080000045070B5012588
:104BA000C3B20728044605FA03F504DD4FF4E071AB
:104BB000094802F017FB03F001FC3022074B5E6B43
:104BC00002FB04335C6E03F0F4FB35420ABFC4F30E
:104BD0000A100020013070BDB4930008000004509A
:104BE0000D4B984208D1A3F5D023C3F85812802367
:104BF00000F58050C3657047084B984204D1A3F577
:104C0000D823C3F87412F2E7054B984204BFA3F50A
:104C1000E023C3F89012EAE700000A5000400A506F
:104C200000800A5070B506460C46154622B940F27F
:104C3000A6210C4802F0D6FA24B94FF42070FDF7F3
:104C4000EFFE04466D00013CB4FBF5F4064B250273
:104C500013EA042304D040F2CB21024802F0C2FA46
:104C6000F56170BD55940008070080FF38B5104B02
:104C7000044698420D460CD003F58043984208D074
:104C800003F58043984204D04FF43971094802F08B
:104C9000A9FA012204F580535A60EB43934003F0D4
:104CA0000A036361656115B904F50054626038BD9B
:104CB00000000A505594000810B51B4B044698425A
:104CC0000CD003F58043984208D003F58043984206
:104CD00004D040F25E41154802F084FA012204F546
:104CE00080535A6040F6AA6341F2050263610023D3
:104CF0000F49A360E365E26004F500522361E361BC
:104D0000E36491640849A3658C4203D123650023C1
:104D1000636506E007498C42F8D001F580418C427A
:104D2000F4D00123536010BD00000A5055940008D0
:104D3000FFFF010000400A5038B5294B0446984255
:104D40000D460CD003F58043984208D003F580430C
:104D5000984204D040F28131224802F043FA2046C2
:104D6000FFF7AAFF012204F580535A602B8AA2683C
:104D700043F001031343AA7B43EA8223A360A368A1
:104D80002A7D43EA4273A360AB7C1BB12046E97CD9
:104D9000FFF726FFD5E901122B7B204643F4805311
:104DA000E360FFF73FFF6B7B0BB1102363616B7D0B
:104DB0001BB1A36843F48033A360AB7D1BB1A36830
:104DC00043F40043A360EB7D2A7E1B07120503F02A
:104DD000E04302F4E0021343A3652B78636138BD1E
:104DE00000000A505594000810B5044620B940F25E
:104DF0003A21124802F0F6F923782BB1012B17D093
:104E0000022B18D0032B05D140F2FF736278D340F8
:104E1000DB0704D440F23D21084802F0E3F9012207
:104E2000637821789A4030235943054B5A5010BD7E
:104E300040F2FF13EAE743F6FF73E7E7A7940008A1
:104E400040E00350034BD3F82424D3F8200410404F
:104E5000704700BF00C003502DE9F04103780446BD
:104E60000D4616462BB1012B21D0022B22D0032B4D
:104E700005D140F2FF736278D340DB0703D45D2194
:104E8000284802F0AFF9284BD3F810331BB160214A
:104E9000244802F0A7F90F2D0FD8DFE805F03A35C6
:104EA000353535353535353535353535353540F2EA
:104EB000FF13E0E743F6FF73DDE7B421194802F082
:104EC00091F94FF00008204606B302F05DFF0F2174
:104ED00067782378072F03EB430388BF083F4FEA27
:104EE0000313124895BFBF00BF0004330C3308FA08
:104EF00007F2B940184402F089FA85B9204656B144
:104F0000BDE8F04102F040BFA846DCE7FFF76CFFC8
:104F1000DDE7A846DBE7BDE8F041FFF765BFBDE888
:104F2000F08100BF0195000800C0035030C003505D
:104F3000054B9A689107FCD45A689207F9D4DA694C
:104F4000002AF6D1704700BF00C00A5010B5074CC8
:104F50006368DB0704D44FF49371054802F042F90B
:104F600002F040FF0223236110BD00BF00C00A50C1
:104F70005B95000808B5FFF7DBFF0122024B03F544
:104F800080514A601A6108BD00C00A5010B5044B38
:104F90005C68012C03D1FFF7D9FF024B5C6010BDA8
:104FA00000C00A5000E00A5038B5074DFFF7C0FFB7
:104FB0006B680446012B03D1FFF7E8FFFFF7B8FF4A
:104FC0002378EB6038BD00BF00C00A5038B50546F5
:104FD0000C4602F011FFBDB96268237812B1127855
:104FE00043EAC203627843EA4203A26812B112782C
:104FF00043EA8213E27843EA8203226912B112780B
:1050000043EA4223014A936438BD00BF00C00A50FE
:1050100030B58BB0914803F0DCF920B140F2363165
:105020008F4802F0DFF86C468E4D0FCD0FC42B6811
:105030008D4A2360FF238DF80130D2F84C3113F4F0
:10504000802340F0FE80D2F850218DF801309DF889
:1050500001306C46FF2B08BF3F236846834D8DF817
:105060000130FEF79FF83220FEF7FEF80FCD0FC497
:105070000FCD0FC495E8030084E803007A4BD3F802
:105080004C21120340F1C180A3F5FE431C88B4F506
:10509000807F28BF8C248DF81940FEF77DF80444EA
:1050A00084F3080472488DF81840FCF79FFA6846AC
:1050B000FDF760FF3220FEF7DDF86E48FEF700FADC
:1050C0006D48FEF78BFA6D4803F083F920B140F28A
:1050D000CB11634802F086F8694C0020FEF7D0F847
:1050E000FEF7A4F9236F002023F0070343F0030326
:1050F0002367FEF7C5F9236F624923F474432367DE
:10510000614BD3F8FC2012F0807240F08280D4F81A
:10511000803023F0030343F00103C4F88030C1F86A
:105120008020574CD4F8203123F0070343F00203CA
:10513000C4F82031D4F8283123F0070343F00203E8
:10514000C4F82831D4F8803123F0030343F001037D
:10515000C4F88031D4F8403123F0030343F0020354
:10516000C4F84031D4F8603123F0030343F0020364
:10517000C4F86031D4F8403223F0030343F0020353
:10518000C4F84032D4F8003223F0070343F002039E
:10519000C4F80032D4F8083223F0070343F00203C6
:1051A000C4F80832D4F8503223F0030343F002036A
:1051B000C4F85032D4F8703223F0030343F00103F3
:1051C000C4F87032D4F8203223F0070343F001030F
:1051D000C4F82032FDF7B6FE4FF0E022002013693C
:1051E00043F004031361D4F8603223F0070343F063
:1051F0000103C4F86032D4F8943223F0070343F07B
:105200000103C4F894320BB030BDD3F85041E4B27E
:1052100041E7D3F8FC2022F08072C3F8FC20D4F8D8
:10522000802022F0030242F00102C4F88020002214
:10523000C1F88020D3F8FC2042F08072C3F8FC2033
:105240006FE74FF07E6393F89C2093F99C30002B1E
:10525000FFF6FDAE8DF80120F9E600BF4C9700087F
:1052600084960008FC9600080080E00F1097000864
:10527000C017530200B4C404C0EA210150970008CB
:10528000008000500090005000ED00E007B5094B91
:1052900018689A889B7900906846ADF804208DF8CC
:1052A0000630FEF723FB0C20FEF758FB002003B06E
:1052B0005DF804FB3897000813B50024064A6846D9
:1052C000536F43F00103536700948DF80440FEF7D9
:1052D00041FA204602B010BD0040005010B55D28D4
:1052E00004460DD801220A49630904F01F04A240B4
:1052F000203341F82320BFF34F8FBFF36F8F10BDD2
:1053000040F22511034801F06DFF002CF7DBE9E7BF
:1053100000E100E0D497000810B55D28044608D8E5
:1053200001236109074A04F01F04A34042F8213019
:1053300010BD4FF49871044801F054FF002CF7DBC6
:10534000EEE700BF00E100E0D497000810B55C284C
:10535000044604D940F23B11064801F043FF064BD6
:10536000621153F8220004F01F04E040C04300F033
:10537000010010BDD497000800E100E0002808DB20
:1053800001224309034900F01F008240603341F8C5
:105390002320704700E100E038B500F110036D2BC9
:1053A00004460D4604D94FF4EF710E4801F01AFF80
:1053B0000F2D04D940F2DF110A4801F013FF60B24B
:1053C0000028ACBF00F16040074B4FEA0515EDB275
:1053D000ABBF00F5614000F00F0080F800531D5492
:1053E00038BD00BFD497000814ED00E010B502F0FE
:1053F000E5FF0A4B1A786AB901226FF004041A70AB
:1054000002F0D7FF204605210134FFF7C5FF5D2CD0
:10541000F8D110BDBDE8104002F0CBBF6B3A0020C0
:1054200010B5044602F0C1FF024B1C6002F0B8FF49
:10543000002010BDDC14002010B502F0B6FF034BB5
:105440001C6802F0ADFF204610BD00BFDC14002038
:105450002DE9F0438FB01D46136881461F6891F80F
:1054600031308846144606AE1BB3DFF828C2BCE8CC
:105470000F000FC69CE80F0086E80F0018220021DD
:10548000684602F07AF9A3680893237B012B13D0B6
:10549000022B14D01BB1D921774801F0A3FE0023C1
:1054A000ADF82630637B032B1FD8DFE803F00B2514
:1054B000221BDFF8E4C1DAE74FF40073F0E74FF4A2
:1054C0004073EDE70023ADF8283001238DF8063056
:1054D000A37BCDF834D0042B11D8DFE803F01415EA
:1054E000151514004FF44053EDE7EB21624801F02D
:1054F00079FE4FF48053E6E74FF40053E3E7FE21D3
:105500005D4801F06FFE00238DF800305B4AD8F84B
:10551000383029461A605A4A48465A6000229A6032
:10552000584ADA60424600F069FC0646002840F01E
:105530009B8023695448C5F8A430237E85F8AB309E
:10554000E37D85F8AA30A37D85F8A930637D85F8D1
:10555000A830A37E85F8AD30637E85F8AC30237F1C
:1055600085F8AF30E37E85F8AE302368C5F8A0300B
:1055700002F02FFF01230422A17D607DFEF706FFCC
:105580000123217E0222E07DFEF700FF85F8B06056
:10559000206902F01EFF98F83130384606A9002B2A
:1055A00066D0FEF7E3FC95F8B03043F0040385F8CD
:1055B000B0301421227D354B03EB4210C0F8941417
:1055C00094F816C0617D253241EA0C41C0F8AC1454
:1055D000207EE17D03EB421341EA00415960A37B49
:1055E00003F0FD03012B0BD195F8B030022243F0FC
:1055F000010385F8B030A17E0023607EFEF7C6FE71
:10560000A37B023B012B0BD895F8B030042243F06A
:10561000020385F8B030217F0023E07EFEF7B6FE5E
:1056200095F8B030DB0717D5A17E627E237D42EA74
:10563000014241F29C415B0103F1A04303F5703349
:105640005A5041F2944202219950217FE27E03F5A3
:10565000A55342EA01421A600D4A07F5005305219D
:105660003846DA64FEF7FEF930460FB0BDE8F08345
:10567000FEF7B2FC9DE700BF4E9800088974000851
:105680001B7500089F7400086097000800C0035055
:10569000FF3F0D03B8980008D898000840F2422157
:1056A000014801F09FBD00BF4E98000810B50020D2
:1056B000144601F0C0FE022804D018B1C3210248EC
:1056C00001F090FD204610BDF89800083021037DC0
:1056D00002464B4303F1A04303F58023D86E0749EC
:1056E0001B6F884208D113F0020006D0106A136DB8
:1056F0001B1A584258417047002070476C3A0020EE
:1057000037B53023007D0DF10701434303F1A0437A
:1057100003F58023DD6E1C6F02F0F2FA20B140F237
:10572000F931084801F05EFD9DF8070040B9064BCD
:105730009D4203D184F00204C4F3400003B030BDA5
:105740000120FBE7679900086C3A002037B5044652
:105750000DF10701007D02F0D3FA20B140F244417F
:10576000114801F03FFD9DF80730A3B1256DD4E944
:10577000122313449D4201D8AA4204D940F24F415A
:10578000094801F02FFDD4E9120303449D4218BFDC
:10579000284603B030BD3022237D534303F1A0439C
:1057A00003F58023DD6EE2E7679900082DE9F743F2
:1057B000D0E9043404F17C07D0F80C90013B064694
:1057C0001022002138469DB2D4F8748001F0D5FF34
:1057D000104BC5F30A0543EA0513C4E91F39012339
:1057E00094F8780084F88C30C4F884803A460A4BE8
:1057F000009604F16401FCF7A5FA38B140F28D314E
:10580000064803B0BDE8F04301F0ECBC03B0BDE8CE
:10581000F08300BF00001030955900086799000818
:105820002DE9F04385B000F138060446102200212E
:10583000304601F0A2FF4FF44473534D207DC4E97C
:105840000F556387FCF7A4FA20B140F2CA514F48C4
:1058500001F0C8FC10220021304601F08EFF4FF409
:10586000447363873023207DC4E90F55434303F11C
:10587000A04303F58023DB6EAB420BD1FCF7A8FA03
:10588000002876D040F2D351404805B0BDE8F0433F
:1058900001F0A8BC0DF10B0102F032FA20B140F288
:1058A000D9513A4801F09EFC9DF80B30002B63D192
:1058B0002046FFF74BFF03A90746207D02F042FA7E
:1058C00020B140F2E151314801F08CFC039B002BE8
:1058D00004DC40F2E3512D4801F084FC039B04F109
:1058E0001808013B1022002140469DB2D4F81090C8
:1058F00001F043FF3022237DC5F30A0553432D01F8
:1059000045F04075C4E9065903F1A043276203F549
:1059100080231A6F94F82410520862F3410184F82E
:105920002410196F94F8242028F0030861F3000272
:1059300084F824201B6F626A9B0863F39F0248F07F
:10594000020362626364009432462146104B207D5C
:10595000FCF7F8F920B140F204610C4801F042FC78
:10596000207DFCF735FA20B14FF4C161074801F002
:1059700039FC05B0BDE8F08394F844306FF341037F
:1059800084F84430DFE700BF6C3A002067990008D4
:105990006B75000838B55569144695F88C3023B9F5
:1059A00040F26A310A4801F01DFC002305F1900025
:1059B00085F88C30FBF73CFE08B1FFF7F7FE636813
:1059C0001BB100212046A2689847002038BD00BFC7
:1059D0006799000838B50446007DFCF7D9F920B175
:1059E00040F22D41084801F0FDFB2046FFF76EFE16
:1059F0000546207DFCF7ECF920B140F23241024827
:105A000001F0F0FB284638BD679900082DE9F04FFA
:105A10008DB099460023044608910692C9F80030DB
:105A2000D9F80060069B9D1B00F0C580089B9E195D
:105A300000F0C1802046FFF7CDFF8046002840F0EF
:105A4000BA802046FFF782FE226D904240F2BC8071
:105A5000801A854228BF054694F896A0BAF1000F37
:105A600000F0F28002F0AAFC236D07902046099313
:105A7000FFF746FE2F46099B834658198342D4F808
:105A8000981040F0BC80D4E9122313448B4208BF25
:105A9000C4F89820D4F898108A4201D88B4204D8D0
:105AA00040F242518A4801F09DFB079802F081FCC8
:105AB000DA46207DFCF76CF920B140F2824184483F
:105AC00001F090FB207D0DF12F0102F019F920B1BA
:105AD00040F286417E4801F085FB2046FFF736FE06
