:020000040800F2
:1000000000100020B9440008C3610108C361010861
:10001000C3610108C3610108C3610108C36101082C
:10002000C3610108C3610108C3610108C36101081C
:10003000C3610108C3610108C3610108C36101080C
:10004000C3610108C3610108C3610108C3610108FC
:10005000C3610108C3610108C3610108C3610108EC
:10006000C3610108C3610108C3610108C3610108DC
:10007000C3610108C3610108C3610108C3610108CC
:10008000C3610108C3610108C3610108C3610108BC
:10009000253F000805610108C3610108C36101082B
:1000A000C3610108C3610108C3610108C36101089C
:1000B000C14A0008C3610108C3610108C3610108A6
:1000C000C3610108C3610108C361010865760008C6
:1000D000C3610108C3610108C3610108B57100086B
:1000E00095710008C3610108C3610108C36101087B
:1000F000C3610108C3610108C3610108C36101084C
:10010000C3610108C3610108C3610108C36101083B
:10011000C3610108C3610108C3610108C36101082B
:10012000C3610108C3610108C3610108C36101081B
:10013000C3610108C3610108C3610108C36101080B
:10014000C3610108C3610108C3610108C3610108FB
:10015000C3610108C3610108C3610108C3610108EB
:10016000C3610108C361010809610108C361010895
:10017000C3610108C3610108C3610108C3610108CB
:10018000C3610108C3610108C3610108499C0108FA
:10019000C3610108C3610108C3610108C3610108AB
:1001A000C3610108C3610108C3610108C36101089B
:0401B000C36101081E
:1001C000013800D0FCE7704738B50022164B51ECDF
:1001D000100B13F09FF810A3D3E9002304460D463B
:1001E00013F028FB70B90EA3D3E90023204629465B
:1001F00013F002FB58B92046294613F0D3FE00EE57
:10020000100A38BD47F6FF3300EE103AF9E74FF613
:10021000FF33F9E7AFF300800000000000FCEF407F
:100220000000000000FCEFC00000E0400000000003
:100230002DE9F74F0446DDE90C7B886816469A469F
:100240000D4613F00FF88046B068894613F00AF89F
:1002500002460B464046494613F05CF88046894604
:10026000BAF1000F1BD0DAF8080012F0FBFF0246CB
:100270000B464046494612F095FE8046B86821F08C
:10028000004912F0EFFF02460B464046494613F084
:100290006BF912A3D3E9002313F0B8FA50B13B462F
:1002A000324629462046CDF830B003B0BDE8F04FC5
:1002B0000BF084BC064B20460093656940F2451361
:1002C000044A0549A847012003B0BDE8F08F00BFEC
:1002D000484F0608984E0608019D01087B14AE475A
:1002E000E17A943F000000002DE9F84F4FF0004301
:1002F0002DED028B23FA00F057EC106B59EC118BAB
:1003000093468A4612F09CFF424604460D464B46F1
:100310003046394612F0FEFF02460B46204629467B
:1003200012F0F8FF02460B4643EC182B0AA3D3E960
:10033000002313F07FFA08B19FED078B5946504612
:10034000B0EE480AF0EE680ABDEC028BBDE8F84F4B
:100350000BF080BEAFF300800000C0FFFFFFDF4165
:100360002DE9F0432DED028B99460B7F89B0072BC9
:1003700004460F461546129E1AD140F20241836B85
:10038000984740B9AC4B0093272365692046AB4A98
:10039000AB49A84799E0B06240F202412046A36B06
:1003A000984720B9A74B009365692B23EEE7F062CD
:1003B0002A7F3B7F072A08D1092B3DD0072B13D07A
:1003C000A14B009365693123E0E79A4234D0CDE92F
:1003D00002329E4B01939E4B009334236569204665
:1003E000964A9C49A84770E0D5F80C80B8F1000FF8
:1003F00009D00023CDE90283974B0193974B0093DB
:1004000065693923EBE74146DFED950A47F6FF7052
:100410009FED940AB36A944A0DF044F9F36A414699
:10042000DFED8F0A9FED910A914A92480DF03AF95B
:10043000EB68F361AB68336297F81C80B8F1090F81
:1004400045D0B8F1070F40F03781FB684BB100226F
:10045000CDE90232804B0193874B009365695B23A2
:10046000BDE7EA6842B1CDE902237B4B01937B4BA8
:10047000009365695C23B2E7DFED807A95ED027A3F
:10048000B4EEE77AF1EE10FADFED7D6ACCBF77EEDD
:10049000677A77EEC77AF4EEE67AF1EE10FA7EDD4F
:1004A0004FF07C53002217EE100ACDE9042312F01E
:1004B000D9FE744BCDE902010193734B00935D2388
:1004C000656920465D4A7149A847012086E0287F7A
:1004D000072832D1EB6813F5004F09D0654ACDE902
:1004E00002326B4B01935D4B00936569622376E7A3
:1004F000DFED687A95ED027AB4EEE77AF1EE10FA64
:10050000DFED656ACCBF77EE677A77EEC77AF4EEF7
:10051000E67AF1EE10FA66DD0022604B17EE100A63
:10052000CDE9042312F09EFE5D4BCDE9020101935B
:10053000554B009365696323C3E7092812D06669A8
:100540000BF000FB054640460BF0FCFA554BCDE99D
:10055000025001933D4B009366232046374A52498F
:10056000B047B2E7EB6813F1800F0AD06FF07F025B
:10057000CDE902324D4B0193384B009365696723F7
:100580002DE795ED027ADFED4A7AB4EE677AF1EE67
:1005900010FA28D0474B009365696823F6E6B868DF
:1005A00012F060FE0446D9F800000D4612F05AFE23
:1005B00002460B462046294612F0ACFE1CA3D3E9A6
:1005C000002312F0D1FF06F1080841EC100B404661
:1005D00007A90BF0F7FC079BF360002009B0BDEC06
:1005E000028BBDE8F083B86812F03CFE41EC180BBA
:1005F000D9F8000012F036FE06F1080441EC100BA9
:10060000B0EE481AF0EE681A2146052007AAFFF757
:100610006BFE07991F22F160052016F0F2FB12F025
:100620000FFE01F1004113F00FF9B061D5E700BFF3
:10063000140014001400243F42630608C862060830
:10064000019D010859630608EC4F06089C5D0608E9
:10065000A95D06086E9D0108464F06083D5F060825
:1006600080000038A00020393579010880008037EB
:10067000277901080080FFFF7C630608000000382E
:100680006F120333B5630608C16306089563060855
:10069000D6630608000080376F1283320000F03EF8
:1006A000DD630608E963060893600608F56306083B
:1006B0000000803BFA630608B8F1010F0FD04046F6
:1006C00066690BF03FFA054601200BF03BFA104B30
:1006D000CDE9025001930F4B009385233DE7287F1E
:1006E00001280ED066690BF02DFA054640460BF046
:1006F00029FA074BCDE902500193074B009386235B
:100700002BE7D9F8000012F0ADFDC6E9000164E75F
:100710001C640608A95D06089C5D06080000000030
:100720002DE9F04FC76997B08346209E08910C923F
:10073000129355EC104B8DED000B7FB9102013F088
:1007400087FC0246CBF81C0020B9A74BEF21A74835
:1007500013F04EFCC0E901770760C760DBF81C307E
:10076000196859B15A680123584693404A608B6012
:1007700014F0CCFADBF81C3000221A602B1EB7BF35
:1007800023F00043002301220193A8BF3360019F9F
:10079000974BB8BF3260BB4319D142F20F73129A24
:1007A0001360C7F31303234300F0DB85219B53B988
:1007B000904B21E0904B03930833219A13600398E8
:1007C00017B0BDE8F08F8B4B03930333F5E79DED36
:1007D000007B0022002351EC170B8DED0A7B13F0F8
:1007E00001F8804650B10123129A1360219B13B186
:1007F000824B219A1360824B0393E0E7C7F30A56BA
:1008000014AA15A958469DED0A0B14F007FD029095
:10081000002E76D00B9BA6F2FF36CDF84C80C3F3AA
:10082000130343F07F53DDE90A0143F440131946F3
:100830000022744B12F0B6FB65A3D3E9002312F03B
:1008400069FD65A3D3E9002312F0AEFB04460D4613
:10085000304612F0F5FC62A3D3E9002312F05AFDF2
:1008600002460B462046294612F09EFB04460D46E2
:1008700012F0EAFF0022074600232046294612F024
:10088000BBFF40B1384612F0DBFC22462B4612F08B
:10089000A9FF00B9013F162F52D85B4B03EBC703EA
:1008A000DDE90A01D3E9002312F0A6FF002849D0B0
:1008B000013F00231193149B9B1B5A1E4CBFC3F195
:1008C00001030023079245BF069300230693079375
:1008D000002F39DB079B10973B44079300230993B4
:1008E000089B092B66D8052BC5BF043B00240124B7
:1008F0000893089B023B032B67D8DFE803F02D3AEF
:100900003859DDE914631E4406F23243202BC9BF77
:10091000C3F14003C3F120039F4006F21243D8BF46
:1009200004FA03F006F1FF36C4BF24FA03F347EAE2
:10093000030012F075FC0122A1F1F873139276E71F
:100940000123B7E71190B6E7069BDB1B06937B42BA
:10095000099300231093C3E700230D930C9B002BF6
:1009600056DC012399461A4604930C920CE00123AD
:10097000F3E700230D930C9BFB1803F1010904938B
:100980004B46012BB8BF0123DBF81C0000210422D9
:1009900002F114059D423FD94160584614F076F9A2
:1009A000039000283BD1194B024640F2AF11CEE62E
:1009B0000123DFE7012400230D9408934FF0FF3358
:1009C0000022994604931223CFE701230D93F5E704
:1009D00061436F63A787D23FB3C8608B288AC63F45
:1009E000FB799F501344D33FF86D06080F6E06083D
:1009F0000000F07FBF5C0608EF6D0608474F060851
:100A0000464F06080000F83F086F0608686E0608A3
:100A10000C9B99460493B7E701315200B8E7DBF825
:100A20001C30B9F10E0F039A1A606FD8002C6DD0EC
:100A3000002F36DD07F00F02A04BF8054FEA271410
:100A400003EBC20393ED007B8DED0E7B17D59C4B22
:100A500004F00F044FF00308D3E90823DDE90A018D
:100A600012F082FDCDE90001954D5CB9DDE90E2360
:100A7000DDE9000112F078FDCDE900012BE04FF037
:100A80000208F1E7E10709D508F10108DDE90E01E7
:100A9000D5E9002312F03EFCCDE90E0164100835C3
:100AA000E3E700F007817C42844B854D4FF002085C
:100AB00004F00F02241103EBC203DDE90A01D3E9BC
:100AC000002312F027FC0023CDE90001002C40F0A8
:100AD000E580002BD0D1119BDDE90045002B00F013
:100AE0004C810022774B2046294612F085FE0028D3
:100AF00000F04381B9F1000F00F03F81049B002B0F
:100B000000F3E480DDE90A34CDE90034159B002BC5
:100B100002DB0E2F40F342820D9A002A40F06782DA
:100B2000099C0025DDF81880B8F1000F0DD0079B57
:100B3000002B0ADD4345069AA8BF4346D21AA8EB0C
:100B400003080692079AD31A0793099B0BB30D9BD0
:100B5000002B00F0A682002C00F0A182294622463C
:100B6000584614F0FDF9029A01460546584614F01D
:100B70004DF902990646584614F0C8F8099B1B1B0C
:100B8000099300F09182099A3146584614F0E8F929
:100B900002900121584614F023F9109B0446002BC3
:100BA00000F084821A460146584614F0D9F9089B91
:100BB0000446012B03DC009B002B00F07C82002606
:100BC000236904EB8303186918F03BFAC0F1200095
:100BD0001096079B184410F01F0000F09182C0F19E
:100BE0002003042B40F38182C0F11C00069B0344C8
:100BF00080440693079B03440793069B002B05DD67
:100C00001A460299584614F005FA0290079B002BE9
:100C100005DD21461A46584614F0FCF90446119B9E
:100C2000002B00F076822146029818F059FA00282D
:100C300080F26F8200230A220299584614F088F845
:100C40000D9B7E1E0290002B00F05C820023294643
:100C50000A22584614F07CF8049B0546002B03DC5E
:100C6000089B022B00F35E82B8F1000F05DD2946D8
:100C70004246584614F0CEF90546109B002B00F072
:100C8000D0826968584614F001F80746002840F001
:100C90007F820D4B024640F2EF2158E5E20706D570
:100CA00008F10108D5E9002312F034FB0123641098
:100CB00008350BE74FF002080DE700BF086F060884
:100CC000E06E06080000F03F686E0608204600222D
:100CD000AC4B294612F01EFB7E1E08F10108049C55
:100CE000CDE90001404612F0ABFADDE9002312F035
:100CF00011FBA54B002212F057F9A1F15073CDE979
:100D00000E010F93002C3BD10022A04BDDE9000126
:100D100012F048F902460B46CDE90023DDE90E2327
:100D200012F088FD002840F05781DDE90E2101F125
:100D30000043DDE9000112F05FFD00283FF4E2AE60
:100D4000002425460C9BDDF80CA0DE434FF0000884
:100D50002146584613F0DAFF002D00F0A980B8F1C3
:100D6000000F05D0A84503D04146584613F0CEFFEA
:100D70002946584613F0CAFF9AE03E464C46B1E772
:100D8000834B03EBC40353E90201039B1C440D9BFB
:100D9000002B4AD002460B4600207E4912F0E4FBAD
:100DA000DDE90E2312F0FEF8DDF80CA0CDE90E010E
:100DB000DDE9000112F048FD054612F041FA024655
:100DC00030350B46DDE9000112F0ECF80AF8015B62
:100DD00002460B46CDE90001DDE90E0112F02AFDC5
:100DE000002865D100206C49DDE9002312F0DAF813
:100DF00002460B46DDE90E0112F01CFD002840F012
:100E00000D81A24500F0EA8000225E4BDDE90E0173
:100E100012F080FA00225B4BCDE90E01DDE9000102
:100E200012F078FACDE90001C2E7DDE90E2312F0F5
:100E300071FAA046DDF80CA0CDE90E01DDE9000154
:100E400012F002FD054612F0FBF9024630350B4662
:100E5000DDE9000112F0A6F80AF8015B02460B4634
:100E6000A245CDE900234FF0000223D1494BDDE933
:100E70000E0112F099F802460B46DDE9000112F06E
:100E8000D9FC002840F0CA8000204249DDE90E2349
:100E900012F088F802460B46DDE9000112F0ACFCC6
:100EA00070B1C24608F1FF381AF8013C302BF8D077
:100EB000374655E0334B12F02DFACDE90001BDE77E
:100EC000DDE90A34CDE90034159B002BFFF628AE8E
:100ED0000E2F3FF725AE2E4B03EBC70393ED007BA0
:100EE0000C9B002B8DED047B02DAB9F1000F64D06E
:100EF000DDF80CA0DDE90045DDE9042320462946A4
:100F000012F032FB12F0A0FC064612F099F9DDE96E
:100F1000042312F0FFF90246204606F130040B4686
:100F2000294612F03FF80AF8014B039C02460B4693
:100F3000AAEB0404A14540F0828012F035F8044683
:100F40000D46DDE9042312F075FC002865D120462A
:100F50002946DDE9042312F045FC08B1F3075CD40F
:100F60000299584613F0D2FE002301378AF8003068
:100F7000129B1F60219B002B3FF421ACC3F800A003
:100F80001DE400BF0000244000001C40000014408D
:100F9000086F06080000E03F0000F03FA24B03EBA3
:100FA000C70393ED007B0C9B002B8DED047B9FDA38
:100FB000B9F1000F9CDC7FF4C3AE00229B4BDDE94E
:100FC000040112F0A7F9DDE9002312F029FC044620
:100FD00000287FF4B5AE3E462546B4E0DDE90A348C
:100FE000CDE90034159B002B01DB0E2FD6DD089ACE
:100FF000012A36DC139A82B303F23343099CDDF8ED
:101000001880069A012158461A440692079A1A44F3
:10101000079213F0E5FE054686E53E4653469A469E
:1010200013F8012D392A06D1039A9A42F7D13022BA
:10103000039901360A701A7801321A7038E70022D3
:101040007B4B12F067F90022002304460D4612F094
:10105000C9FB00283FF450AF82E7149BC3F136036D
:10106000CCE709F1FF34099BA34208DBB9F1000F7B
:10107000A3EB04040EDBDDF818804B46C1E7099BA7
:10108000109AE31A0994DDF8188000241A444B469C
:101090001092B6E7069BA3EB09080023B1E7029E76
:1010A00071E5099A029970E5029672E5089B012B99
:1010B00017DC009BABB9019BC3F313039BB9019BE6
:1010C00023F00046360D360536B1069B0126013366
:1010D0000693079B01330793109B002B7FF470ADA1
:1010E0001096012075E50026F6E73FF486AD1C3327
:1010F000069A1A4498440692079A1A4407927CE585
:101100000346F4E7049B002B2BDC089B022B09DC35
:1011100027E0B9F1000F1DDC089B022B1ADD3E46CB
:10112000CDF81090049B002B7FF40CAE21460522D5
:10113000584613F00DFE01460446029817F0D0FF02
:1011400000287FF7FFADDDF80CA0312301360AF847
:10115000013BFBE50D9B3E46CDF81090002B7FF444
:1011600083AD039F2146029817F0DEFE039B00F13A
:101170003009049A07F8019BFB1A9A4240F3CB808E
:1011800000230A220299584613F0E2FD0290E9E793
:101190002A6905F10C010C300232920017F0AFFE03
:1011A00001223946584613F035FF039BA8460546F1
:1011B00003F1010ADDE9032313440793009B03F0C5
:1011C000010309930AF1FF3321460298049317F0B3
:1011D000ABFE4146069000F13009029817F080FFFF
:1011E0002A4621460746584613F080FFC26801464A
:1011F00002B3584613F08AFD002F3ADA0122029911
:10120000584613F007FF2146029017F069FF0028A7
:1012100003DC29D119F0010F26D0B9F1390F1DD106
:1012200032E02846C1E700BF086F060800001440FE
:10123000000024400A90029817F052FF0A990C907F
:10124000584613F063FD0C9A5ABB089B53B9099B8F
:1012500043B9B9F1390F17D0002F05DD069B03F113
:10126000310901E0002F2ADADDF810A00AF8019B0D
:101270006EE5089B3B4304D1009B03F00103002B68
:10128000BCD0B9F1390F36D1049F392307F8013B9F
:10129000BA46013F1AF8013C392B5AD001333B7052
:1012A00056E5002F06DB089B3B4306D1009B03F06D
:1012B000010313B9002AA1DCD6E7002AE1DC079B71
:1012C00057460AF8019C53452ED000230A22029962
:1012D000584613F03DFDA84502904FF000034FF033
:1012E0000A02414658460BD113F032FD80460546AE
:1012F0000AF1010A66E7DDF810A009F10109B5E776
:1013000013F026FD2946804600230A22584613F092
:101310001FFD0546ECE7049B4FF00008002BCCBFF7
:101320001F460127039B1F4401220299584613F0D0
:1013300071FE2146029017F0D3FE0028A8DC02D1EE
:1013400019F0010FA4D1BA4617F8013D302BFAD09D
:10135000FEE4039BBB429BD13123039A01361370F9
:10136000F6E4219B002B7FF425AA014BFFF744BA3A
:10137000EF6D06080000000051EC100BC1F30A539A
:101380002DE9F041A3F2FF350C460646132D32DC61
:10139000002D20DB384B0F4643FA05F801EA08031D
:1013A00003432DD032A3D3E9002311F0FDFD002229
:1013B000002312F03FFA40B1002C03DA4FF48013FF
:1013C0002B411F4427EA080400262346324643ECFB
:1013D000102BBDE8F08126A3D3E9002311F0E4FD32
:1013E0000022002312F026FA0028EED0002C2ADB7F
:1013F00000263446E9E7332D06DDB5F5806F1BD0B6
:1014000041EC100BBDE8F081A3F213434FF0FF371E
:10141000DF400742F4D016A3D3E9002311F0C4FD46
:101420000022002312F006FA0028CED0002C33460A
:1014300010DB23EA0706C8E702460B4611F0B4FDAD
:1014400041EC100BDEE724F0004426430DD14FF0B1
:101450000044BAE7142D06D0C5F134050122AA4094
:101460001344B342E5D20134E3E70026034CACE772
:101470009C7500883CE4377EFFFF0F000000F0BF42
:101480000348044B834202D0034B03B11847704713
:10149000B8B50420B8B5042000000000064B074989
:1014A000C91A891048BF0131491003D0044B0BB150
:1014B00001481847704700BFB8B50420B8B50420EC
:1014C0000000000010B5064C237843B9FFF7D8FFA1
:1014D000044B13B10448AFF300800123237010BD07
:1014E000DC8D0220000000000070060808B5054BE6
:1014F0001BB105490548AFF30080BDE80840FFF780
:10150000CDBF00BF0000000000810220007006086F
:10151000A3F5803A704700BF174B002B08BF134B51
:101520009D46FFF7F5FF00218B460F461348144AEE
:10153000121A17F07DFC0E4B002B00D098470D4B74
:10154000002B00D098470020002104000D000D481A
:10155000002802D00C48AFF3008013F0F3FA20000B
:10156000290014F039FD12F061FD00BF00000800F1
:10157000000000000000000000100020001000200B
:1015800060B30420000000000000000008B502481D
:1015900000F08AFBFEE700BF989C01082DE9FF4799
:1015A0001446DDE90E7E1A46DDE90C63D1ED025AE0
:1015B000616892ED025A0C689FED1E7A0021DFED02
:1015C0001E6ADDF840C004340DF10C080DF1040969
:1015D0000DF1080A614506DB0C97317804B0BDE8CF
:1015E000F0470AF01DBBB4EC016A25EE866AC6EE30
:1015F000057A67EE807AF4EEC77AF1EE10FACDED57
:10160000017A4CBF45464D468DED037AD5ED007A03
:10161000F4EE667AF1EE10FACDED026AC8BF5546D7
:10162000D5ED007AF3EE677A17EE905A2EF8115046
:101630000131CFE700E07FC700E07F472DE9F04FA1
:10164000AFB0CC6805460E460CB9FFF79FFFD1F846
:101650001080B8F1000FF8D0C76800223B68384608
:10166000DB6998473B68022231469B6983463846CE
:1016700098473B68002231469B6982463846984726
:101680003B6881460122314638469B6998470C9059
:10169000B9F1000F09D16F4B009376236C6928468E
:1016A0006D4A6E49A0470120BBE0BBF1000F04D199
:1016B0006B4B00936C697723F1E70C9B23B9694B63
:1016C00000936C697823EAE7D9F814305A682261EC
:1016D0001A6962619A68DB680D920E9323620C9B13
:1016E000E2615B695A689E680B92DB686262DBF8B4
:1016F00014200F939168D268A364D9F80C30E1628A
:101700005B42E366DBF80C3022632367D8F80830CD
:10171000666410932365D8F8043011936365D8F894
:10172000143063661293D8F810301393A36698F8B8
:1017300000305A1E14935342534184F85830139B7F
:10174000DDE90E1200931498119B14F095F9129B89
:1017500032460D99159000931498109B14F08CF953
:10176000129B013E5E43109B0138013603FB00666D
:101770000D9B139AF61A0F9B1199013B5343159A2F
:101780000133013A01FB02330E9A99F81C009B1AAF
:1017900026EAE67623EAE37376105B100928E6650D
:1017A000236640F0D68004F11006304614F0EBFEBC
:1017B00004F134030E9304F13803AA6B08F10C080A
:1017C0000D93002854D0002323700B9B284659000A
:1017D0000F9190470F99BAF1000F37D000239FED7A
:1017E000227AE0640B9A9A421EDCAB6B284698473B
:1017F000E0630F90304614F0E5FE0B9B0646049321
:101800000F9B9FED1A0A03930D9B494602930E9B73
:101810002846CDE900830C9A5B46FFF7BFFE0028FF
:1018200078D02FB0BDE8F08FDAF8102002EB8302F9
:10183000D2ED007AF8EEE77A67EE877AF3EE677A10
:1018400017EE902A20F813200133CBE7C4F84CA000
:10185000CBE700BF189D0108A09C0108019D01086D
:10186000299D01083B9D0108000000380000004749
:101870000B9B28469E00314690473146AB6BA067D4
:10188000284698470B9BE067CDE90703A36F4946BD
:1018900006930D9B284605930E9B0C9A049317AB59
:1018A000039316ABCDE90183CDF800B053460AF09F
:1018B0003BFA0028B5D101232370E36E1CAA2493C0
:1018C000236F18A92593236D24A82793636D26936E
:1018D000636E2B93A36E2A93E36D2993236E289353
:1018E000636B2C93A36B2D9323691893E36919936E
:1018F000236A1A9363691B93636C1D93A36C1E93F5
:10190000E36A2193236B2293636A239320AB0CF049
:1019100037FE0646002E2EDD314628462B6C04F19C
:101920000C02984700287FF47CAF3B684946384654
:101930005B6A98473B6838465B6A0C9998473B68F6
:10194000594638465B6A9847BAF1000F29D1002002
:1019500067E701281DD10223237098F80C30012B72
:1019600003D100236360124B04E0032B07D1002353
:101970006360104BA3604FF0FF33E360D5E7022BA9
:1019800004D10D4B63604FF07E53F3E76FF4000317
:10199000E8E76C690AF0D6F8084902462846A047ED
:1019A00081E63B68514638465B6A9847CFE700BFFF
:1019B000FFFF7F7F0000C040000080BF4D9D0108F9
:1019C00030B585B00C46054608990AB9FFF7DEFD2B
:1019D0001268A2610029F9D00A68A262002BF5D032
:1019E000E1681B680029236402DB436C9847606749
:1019F00004F1100014F011FD70B100230293074BA5
:101A000003900193064B284600936C694FF48A7348
:101A1000044A0549A047012005B030BD889D010852
:101A20008F9D0108A09C01086E9D01082DE9F04FD3
:101A30002DED048BB7B016461D46B1F9603091ED1F
:101A4000019A0993B1F95C30D1ED029A0A93B1F988
:101A500054301AA80B93B1F95030459C0C93B1F94E
:101A600068300D93B1F9643011460E9315F054FBB4
:101A70000EB9FFF78BFD3368294621A8109315F0A6
:101A80004BFB002DF5D02B68449928A80F9315F037
:101A900043FB449B0BB11B68449321462FA815F0D0
:101AA0003BFB002CE5D0236819931A9B042BE0D153
:101AB000219B042BDDD12F9B042BDAD100232FAAED
:101AC00019461AA813F0C9FF0323129000212FAA68
:101AD00021A813F0C2FF449B1E9C059043B1002235
:101AE0000123289828A9824229DB059A9A42C0D16D
:101AF0001C9B13931D9B1493239B1593249B16935C
:101B0000259B039394FBF3F3002BB2D0039A02FBC3
:101B10001344002CADD1059A92FBF3F30893002BEC
:101B2000A7D0319B1793329B1893129BA34240F38B
:101B30009F800A9B5B4206930023049314E051F8B4
:101B4000045F01326B43CEE74FF00009099B5B4213
:101B50000793189B4B4500F38980049B0C9A013333
:101B60000493069B13440693179B049A9342EBDC61
:101B70000134DAE7089B4FF0000A95FBF3F3DFED41
:101B80003F8A039A069E53431193159B53452CDCC1
:101B9000449B002B67D003EB850393ED008A38EE5E
:101BA000288AB4EE489AF1EE10FA39FE088AF4EE6B
:101BB000489AF1EE10FA4B4600952146049A2FA858
:101BC00048BFB0EE698A13F016FF199B013503EB8D
:101BD000800080ED008A059BAB42CBDC079B0B9A13
:101BE00009F1010913440793B3E74FF0000B079F76
:101BF000169B5B4504DC0E9B0AF1010A1E44C4E7F8
:101C000056EA07032AD4149BBB4227DD139BB34239
:101C100024DD4FF000081EE0119B3246434421466C
:101C200000931AA83B4613F0E6FE109B524603EBC6
:101C3000800090ED008A5B46CDF80080294621A8FF
:101C400013F0D9FE0F9B08F1010803EB8000D0EDE3
:101C5000007AE8EE278A039B4345DDDC0D9B0BF100
:101C6000010B1F44C4E79FED058A98E70025B2E702
:101C7000002037B0BDEC048BBDE8F08F0000000001
:101C800013B500230446CDE90033044A044B05494B
:101C900015F018FA204602B010BD00BF3D1600082E
:101CA000795B0108E559010838B5094B04461B78F2
:101CB00063B108F0EBFF0546204617F02DF92146E9
:101CC00002462846BDE8384014F042BE38BD00BF89
:101CD000ACB504202DE9F04F2DED068B9DB09B4651
:101CE000B0F90A308A460E93B0F90C30D0ED0C8A68
:101CF0000F93B0F90E3090ED0D9A1093B0F91030AB
:101D00002D9C1193B0F902302F9F1293B0F904303B
:101D10001B921393B0F9123008930B68042B01D077
:101D2000FFF734FCDBF80030042BF9D13B68042BBF
:101D3000F6D100233A461946504613F08EFE03238F
:101D40003A4619461690584613F087FEDAF80830DE
:101D50001493DAF80C301593DAF810300C93DBF8A2
:101D600008300C9A1793DBF80C301893BB68199362
:101D7000FB681A93089B53438342D1D1002201236D
:101D800021688A4206DB9842CAD14FF00009DFED94
:101D90005C9AA7E054F8045F01326B43F1E708EB6B
:101DA00004030D9300239FED568A0B9E0693069B1A
:101DB000179A934237DA00230A9D079329E055EAE0
:101DC000060321D4159BAB421EDD149BB3421BDDE1
:101DD000059B32464946009350462B4613F00BFEB6
:101DE0001B9B002103EB80000D9B90ED00AA00934C
:101DF0005846DDE9062313F0FEFD2C9B03EB800023
:101E0000D0ED007AAAEE278A079B01330793109B37
:101E10001D44079B189A9342D1DB069B013306931E
:101E2000119B1E44C3E72E9B002B37D0099BD3ED9B
:101E3000007A38EE278AB4EE688AF1EE10FA48BFCD
:101E4000B0EE688AB4EE489AF1EE10FA0D9B49465E
:101E500000933846DDE9032348BFB0EE498A13F00A
:101E6000CAFD309B08F1010803EB800080ED008A79
:101E7000099B04330993089B984590DB059B01332C
:101E80000593089B1C44059B0C9A934209DA2E9BF0
:101E90004FF0000803EB84030993ECE7F0EE697A56
:101EA000C7E7049B0E9A013304930A9B13440A93D9
:101EB000049B1A9A934202DA00240594E3E7039BF9
:101EC0000F9A013303930B9B13440B93039B199AB3
:101ED000934205DA129B5B420A9300230493E7E7DF
:101EE00009F10109169B994505DA139B5B420B9397
:101EF00000230393EAE71DB0BDEC068BBDE8F08F2D
:101F0000000000002DE9FF471446DDE90E7E1A4669
:101F1000DDE90C63D1ED025A616892ED025A0C685A
:101F20009FED1E7A0021DFED1E6ADDF840C004340B
:101F30000DF10C080DF104090DF1080A614506DBED
:101F40000C97317804B0BDE8F04709F069BEB4ECF5
:101F5000016A25EE866AC6EE057A67EE807AF4EEAF
:101F6000C77AF1EE10FACDED017A4CBF45464D46E9
:101F70008DED037AD5ED007AF4EE667AF1EE10FA83
:101F8000CDED026AC8BF5546D5ED007AF3EE677A0B
:101F900017EE905A2EF811500131CFE700E07FC7BD
:101FA00000E07F472DE9F04FB1B0CC6805468A4686
:101FB0000CB9FFF7EBFA0F69002FFAD0C6680022C0
:101FC00033683046DB6998473368022251469B6983
:101FD0008146304698473368002251469B698346C4
:101FE00030469847336880460122514630469B6907
:101FF00098470C90B8F1000F09D19E4B00937623BF
:102000006C6928469C4A9D49A0470120AFE0B9F180
:10201000000F04D19A4B00936C697723F1E70C9B76
:1020200023B9984B00936C697823EAE7D8F8143009
:102030005A6822611A6962619A68DB680D920E9390
:1020400023620C9BE2615B691A690B926262D9F8A8
:1020500014209168D268E16222639A68DB680F926B
:102060001093A364D8F80C3062645B42E366D9F83D
:102070000C302367BB68119323657B6897F800A039
:1020800012936365BB690AF1FF32636613937B6940
:102090000E991493A3665342534184F85830149B0D
:1020A000109A00935046129B13F0E6FC139B0F9A74
:1020B0000D99159000935046119B13F0DDFC0F9B7A
:1020C000139A013B5343119A0138013302FB003349
:1020D0000D9A14999A1A109B1298013B4B4315992B
:1020E0000133013900FB01330E9998F81C005B1A8B
:1020F00022EAE27223EAE37352105B100928E265D8
:10210000236640F0A58004F1100014F05DFA04F19C
:102110003803AA6B103704F1340A0D9300283ED01F
:10212000002323700B9B284659000E9190470E996F
:10213000BBF1000F30D000239FED537AE0640B9A7F
:102140009A4217DCAB6B284698470B9BE063CDE9BE
:1021500003030D9B9FED4D0ACDE901A341464B467C
:1021600028460C9A0097FFF7CDFE00286CD031B0BE
:10217000BDE8F08FDBF8102002EB8302D2ED007A8D
:10218000F8EEE77A67EE877AF3EE677A17EE902A31
:1021900020F813200133D2E7C4F84CB0D2E70B9BF0
:1021A000284699000E919047AB6B0E9960672846C0
:1021B00098470B9BA067CDE90703636F41460693E1
:1021C0000D9B2846CDE904A318AB039317ABCDE9CB
:1021D00001730C9A5B46CDF8009009F0A5FD00282C
:1021E000C5D101232370E36E62692593236F25A86F
:1021F0002693236D2993636D2893636E2D93A36EAD
:102200002C93E36D2B93236E2A93636B2E93A36B16
:102210002F93636A93FBF2F1279121691991E16988
:102220001A91216ACDE91B12626C19A91E92A26C47
:102230001F92E26A2292226BCDE9232321AB1DAAD1
:102240000CF060FA011E39DC4FF0FF33E3603DE033
:1022500001282BD1022323703B7C012B03D10023C7
:1022600063600B4B04E0032B16D100236360094B22
:10227000A360E9E7189D01089C9D0108019D0108E4
:10228000299D01083B9D010800000038000000471F
:10229000FFFF7F7F0000C040022B04D1184B63601A
:1022A0004FF07E53E4E76FF40003D9E76C6909F05F
:1022B00049FC144902462846A047A6E628462B6C4E
:1022C00004F10C02984700287FF451AF336841466F
:1022D00030465B6A9847336830465B6A0C9998478A
:1022E0003368494630465B6A9847BBF1000F01D11D
:1022F00000203CE73368594630465B6A9847F7E769
:10230000000080BF4D9D010830B585B00446089897
:102310000AB9FFF73BF912688A610028F9D0026810
:102320008A62002BF5D01B6801F110000B6403F0EA
:10233000BFF970B100230293074B03900193074B41
:1023400020460093656940F20D13054A0549A847E8
:10235000012005B030BD00BF889D01088F9D010898
:102360009C9D01086E9D010813B500230446CDE92C
:102370000033044A044B054914F0A4FE204602B081
:1023800010BD00BFA51F0008BB5D0108135C01085C
:102390002DE9F04F95B0CC6807460E460CB9FFF713
:1023A000F5F80B690393002BF9D0C56800222B6860
:1023B00028469B6998472B68012231469B698146D4
:1023C000284698472B68022231469B698346284657
:1023D00098472B688046002231462846DB6998479B
:1023E0008246B9F1000F0BD16D4B00934D237C69F0
:1023F00038466C4A6C49A047012015B0BDE8F08F03
:1024000020B96A4B00937C694E23F1E799F81C6070
:1024100006F0F706012EEFD1B8F1000F00F09F8013
:1024200041460CA814F02EFD00220C990CAB8A42F8
:10243000C0F2908099F81C30092B72D1039B524650
:1024400019780AAB0093384609AB09F0E9FB00287C
:10245000D3D100220023CDE90C230CABCDE900A39E
:102460005A46434649463846FDF7E2FE0028C4D1A5
:10247000D9F81030D9F81410A36004A813F00AFD9D
:1024800004F10C0C04AB0FCB8CE80F00D9F80C3026
:102490005B42E361BBF1000F63D0DBF81030DBF887
:1024A0001410236204A813F0F5FC04F1240C04AB0F
:1024B0000FCB8CE80F00DBF80C30DAF814105B421D
:1024C00063630023C4E90E36DAF8103004A82364ED
:1024D00013F0E0FC04F1440C04AB0FCB8CE80F00CC
:1024E000DAF80C309DED0C0B6365FDF76DFE10EE18
:1024F000103AA4F85830099B04F1080084F85A30C7
:102500000A9B84F85B3014F084F884F8600050BBB8
:1025100020469DED0C0B0BA909F054FD0B9B5B4273
:1025200063602B68494628465B6A98472B68594682
:1025300028465B6A9847B8F1000F04D02B684146E3
:1025400028465B6A98472B68284651465B6A98473D
:10255000002052E753F8040F0132464367E746462E
:1025600068E75B469BE7B8F1000FDAD0D8F8103087
:10257000384603937100BB6B9847074600283FF429
:102580003BAF01463246039803F0E4FA00287FF49B
:1025900033AF94F86030A763002BC2D1B8E700BF17
:1025A000189D0108079E0108019D0108299D010849
:1025B0002DE9F04F2DED028BA1B0012A1C46DDE97B
:1025C0002C762E9D15D0032A18D0F7EE007ADFED79
:1025D0004C8A022A9FED4B8A47FEA88AFFEE007ABA
:1025E00007FE888A214604A814F096FD4CB9FEF730
:1025F000CDFFDFED438A9FED448AF3E7F1EE088AD1
:10260000F9E7236839460BA8039314F085FD002FE2
:10261000EDD03B68314612A8029314F07DFD002EE8
:10262000E5D0294619A8376814F076FD002DDED0D4
:10263000199C2B68013C214619A8019313F013FC47
:102640000B9D0090A91E0BA813F096F92146814618
:1026500019A813F091F981450446C8D1691E0BA849
:1026600013F08AF9002302469C461846DFED266ADD
:10267000009961453DDD0025019901EB8009039931
:1026800001EB8308294621E0BAEC016ABBEC017A30
:10269000E6EE077A0EF1010E7245F5DC0FB307EB9B
:1026A000810E9EED007A77EE877AF4EE487AF1EEAD
:1026B00010FA48BFF0EE487AF4EE687AF1EE10FABC
:1026C00078FEA77AE9EC017A01311544A1420BDAD0
:1026D000029EC2464FF0000EDFED0B7A06EB850B33
:1026E000DAE7B0EE667ADEE70CF1010C2044134421
:1026F000BEE7002021B0BDEC028BBDE8F08F00BF2B
:10270000FFFF7F7FFFFF7FFF0000000013B5002366
:102710000446CDE90033044A044B054914F0D2FCC9
:10272000204602B010BD00BF91230008D92900083F
:10273000555E01082DE9F04FE1B092F86070144643
:10274000DDE96A981E466C9D08905FB11F7A092FDB
:1027500008D1CDE96B85CDF8A89161B0BDE8F04F07
:1027600013F0B6BBB8F1000F01D1FEF70FFFD8F898
:102770000070002F00F08B8029462FA814F0CCFCAD
:102780002F9B022BF1D1309B494636A8DDF8C4B00F
:10279000099314F0C1FC369936A8013913F0ECF80E
:1027A000314682463DA814F0B7FCE269CDF874A02A
:1027B0002A92626D099B2C92626B30462B9294F99F
:1027C0005A201A932D9294F95B201EAF2E92226804
:1027D000169262680124CDE91EA44FF0000A52420D
:1027E000CDE926341792CDE9204BCDE9244BCDE934
:1027F000284BCDE91B44CDE92244CDE918AA13F0BA
:1028000061FB8346484613F05DFBD8F80030002D8D
:10281000ABD02A682AA9069226AACDE9043222ABB7
:10282000CDE90203CDE900B71AAB16AA18A80BF040
:102830005DFE50B3089B3046D3F814B013F042FB52
:102840000646484613F03EFB2B6816AA069326ABB5
:102850000593D8F800302AA9049322ABCDE90203EE
:10286000CDE900671AAB18A80BF040FE564BCDE936
:10287000020A0193554B08980093554AE4235549A1
:10288000D847204661B0BDE8F08F0020FAE7E36941
:1028900031460B93636B44A80C93636D0D932368CF
:1028A0000E9363685B420F9394F95A30089394F93E
:1028B0005B30099314F030FC304613F003FB4946BB
:1028C00010904BA814F028FC484613F0FBFA414640
:1028D000119052A814F020FC294659A8D8F800B04D
:1028E00014F01AFC002D3FF440AF4B9E2B68012ED4
:1028F00014937FF73AAF599C002C7FF736AFDDE990
:10290000083293423FF731AF013C214659A813F0FA
:10291000AAFA2146129059A813F02EF8B11E0546C6
:102920004BA813F029F885423FF71FAF711E4BA843
:1029300013F022F83C460646B946BA46129B534568
:10294000A3DD4FF00008149B47464B440A932BE04D
:102950001EF9012B0C9913921CF9012B01330A4427
:1029600015920B99139A0A441146159A01FB02001D
:102970009E42EDDCBBF1000F02D05BF8273018441B
:10298000DDE90E1209F0E6FA0D9B01371844089BA9
:10299000B0449842B8BF1846099B9842A8BF184651
:1029A0000A9B03F8010B0A93BD4208DD109B03EB61
:1029B000040E119B03EB080C00231846D8E70AF11C
:1029C000010AA9443444B9E7739E0108889E0108AE
:1029D000079E01086E9D01082DE9F04385B0D1F8EE
:1029E000109004460D46B9F1000F01D1FEF7CEFD5F
:1029F000002214F089FB012229460646204614F0E5
:102A000083FB022229460746204614F07DFB002264
:102A100080462946204614F079FBEA680346002ADE
:102A2000E4D0307A01280BD0092816D0656909F066
:102A300089F8337A02460D492046A847012009E06B
:102A400099F800202946CDE90183204633460097B6
:102A5000FFF7AEFD05B0BDE8F083CDE9018329465F
:102A6000334620460097FFF765FEF3E7AC9F010869
:102A700038B5D0F8E020062A06D8002300F1AC04CF
:102A80009A4205D100200AE00648FFF70DF9FEE75B
:102A900054F8045F8D4203D1323350F8230038BD1F
:102AA0000133EDE7989C01082DE9F0412029054606
:102AB0000F461446984607D11F4814F085FABDE822
:102AC000F0411E4814F080BA03681B68984740B173
:102AD0001B4814F079FA39461A48BDE8F04114F061
:102AE00073BAD5F8ACC0BCF1050F06D93946164803
:102AF00014F06AFA06211548EFE74FF01C0E0FCCD0
:102B00000EFB0C5E0EF104060FC6D5F8E03094E81B
:102B1000070086E807000CF10102CEF81870C5F82E
:102B2000AC2005EB83020133C2F8B070C2F8C88054
:102B3000C5F8E030BDE8F081C89F0108F99F0108A1
:102B40000EA001083DA001085EA001088FA00108A9
:102B500030B589B0284DD5E8AF4F14F0010411D13C
:102B6000284615F028FF68B12448254B254A2649F8
:102B70000360C0F8AC40C0F8E04015F017FF2846ED
:102B800015F025FF01A8FFF77BF801AA03211F4BD1
:102B90001A48FFF789FF01A8FFF7E6FB01AA042105
:102BA0001B4B1648FFF780FF01A80AF05DF801AA49
:102BB0002221184B1148FFF777FF01A80AF006F908
:102BC00001AA2821144B0D48FFF76EFF01A8FFF75B
:102BD0009DFD01AA0921114B0848FFF765FF01A8D7
:102BE00000F01EFA19210E4B044801AAFFF75CFF02
:102BF000024809B030BD00BF188102201C810220AC
:102C000000A1010860B30420FD5E0108B96C010851
:102C1000456D0108336C0108556C01084DBA000878
:102C2000F5BA00082DE9FF412F4CD4E8AF3FDB0790
:102C30000BD4204615F0BFFE38B12C4A2C492D4844
:102C400015F0B4FE204615F0C2FE2A4B2A4E336022
:102C50002A4B1A68D7189B58FB1A1A88042A04D9D9
:102C60009B8813B1FB58032B04D02549214813F04E
:102C7000B5FFFEE7FFF76CFF8046224DD5E8AF4F6A
:102C800014F0010415D1284615F095FE88B11E4BAD
:102C9000424639460093CDE901441C4B1C4814F0D0
:102CA00021F9124A1B491A4815F080FE284615F0F2
:102CB0008EFE1748184D286009F050FB044620B1DD
:102CC0001649306813F08AFFFEE70146286809F0CC
:102CD0001BFA134B21461860286809F02BFA114B98
:102CE000186004B0BDE8F081C082022060B3042007
:102CF000FB5E010864B30420D0820220C4A701084F
:102D0000A2A0010800820220007102000010002031
:102D100004820220896F0108CC820220BFA0010832
:102D2000C8820220C48202202DE9F04792B00B68CD
:102D300004460F46C56813B11B68012B11D0012250
:102D4000CDE902323C4B01933C4B00932F23656944
:102D500020463B4A3B49A8470124204612B0BDE823
:102D6000F0874B6813B11B68012B09D00122CDE914
:102D70000232314B0193344B009365693023E7E70E
:102D80002B68002228469B699847064640B92F4B7E
:102D90000093322365692046294A2D49A847DBE77D
:102DA00043691B68002B04DC2A4B009365693323BD
:102DB000F1E72B68002239462846DB6998478046B0
:102DC00020B9254B009365693523E4E7D7F80C90CB
:102DD000B9F1000F04D1214B009365693723DAE77D
:102DE000CDF800903B69024631462046FDF7B8FA1F
:102DF0003146044604A814F045F841460BA814F0E7
:102E000041F8049F0BAA013F394604A813F0B3F818
:102E10003B46824639460BAA04A812F01EFE2B68D8
:102E20003146C9E90EA05B6A284698472B6841469F
:102E300028465B6A984790E7E5A10108ACA1010824
:102E400014A101086E9D0108BCA10108189D01088C
:102E5000019D0108CDA10108299D0108E7A10108F4
:102E60002DE9F04F2DED048B85B00C460E680090D7
:102E7000013E3146204691461A461D4613F07BF826
:102E800033462A4631460746204612F0E6FD002624
:102E90000446B046DFED299A03AAB84504DB05B025
:102EA000BDEC048BBDE8F08F09EB860B5846B0EE05
:102EB000698A0021B500A1428DED038A0FDB129BC8
:102EC0004FF0000A1D442B46DFED1D8AA24514DB9E
:102ED0000023A3422ADB08F101082644DDE703466C
:102EE000D3ED007AF4EEC87AF1EE10FAD8BF1346AB
:102EF000043093ED008A0131DDE70193009BBBECC8
:102F0000019AD3E9000110F0C7FC39EE489A00EEAF
:102F1000100A20EE090A12F07FFB019B78EE808AEE
:102F2000A3EC010A0AF1010A03AACFE795ED007AA2
:102F3000C7EE287A0133E5EC017ACAE7FFFF7FFF8D
:102F400000000000F0B5A5B000220C46054614F0C4
:102F5000DBF8214607460022284614F0D7F8E4683B
:102F600006460CB9FEF712FB14AD0FCC0FC50FCC03
:102F70000FC50FCC0FC594E80F0085E80F00387A15
:102F800007282DD0092817D001283ED1394606A898
:102F900014F0C2F831460DA83C6814F0BDF8002EBC
:102FA000E0D033682246009306A90DAB14A8FFF7C2
:102FB00057FF002025B0F0BDD6F800C0367A1A9D24
:102FC000179C092E38682299CDE9015C169B239A3B
:102FD000009402D10BF012FCEBE70BF01DFCE8E7CC
:102FE0001E9B386804931F9BDDE922120593DDE9DF
:102FF0001634002EB6D03568029504ADCDE90045F3
:103000000BF018FC0028D4D0ACE708F09BFD3A7A0E
:103010000146024813F0D8FF0120CBE7AC9F01081E
:1030200013B500230446CDE90033044A044B054997
:1030300014F048F8204602B010BD00BF292D00084A
:10304000452F0008655F01082DE9F041202905465C
:103050000F461446984607D11F4813F0B5FFBDE848
:10306000F0411E4813F0B0BF03681B68984740B199
:103070001B4813F0A9FF39461A48BDE8F04113F088
:10308000A3BFD5F8ACC0BCF1050F06D93946164828
:1030900013F09AFF06211548EFE74FF01C0E0FCCF6
:1030A0000EFB0C5E0EF104060FC6D5F8E03094E876
:1030B000070086E807000CF10102CEF81870C5F889
:1030C000AC2005EB83020133C2F8B070C2F8C880AF
:1030D000C5F8E030BDE8F081C89F0108F99F0108FC
:1030E0000EA001083DA001085EA001088FA0010804
:1030F000F0B58DB0744811F099FC00F061FF88B311
:10310000002572482B462A462946009500F072FF9A
:1031100040B36F4B05AC93E8070084E807007022CA
:1031200002201146CDE906228DF8140012F05EFF50
:103130004600304610F08CFF664F0146386020B9DB
:103140003146654811F072FC0CE03246204600F032
:10315000DDFA014660B1614811F068FC386810F092
:103160007FFF3D605E480DB0BDE8F04011F05EBCF1
:1031700000F018FA014608B15A48E3E75A4811F03E
:1031800055FC5A4B5A4E1968CA185B583260D31A0C
:103190001988042904D8574813F016FF5648E2E767
:1031A0009B88002BF7D0D358032BF4D15348D0E899
:1031B000AF3F13F0010F524D11D115F0FCFB70B170
:1031C000504B28462B6000234F4A5049C5F8AC307D
:1031D000C5F8E03015F0EAFB484815F0F8FB20464A
:1031E000FEF74EFD22460321494B4548FFF72CFFD1
:1031F0002046FFF7B9F822460421464B4048FFF726
:1032000023FF204609F030FD22462221424B3C4854
:10321000FFF71AFF204609F0D9FD224628213F4B2F
:103220003748FFF711FF2046FFF770FA22460921C1
:103230003B4B3348FFF708FF2046FFF7F1FE2246DD
:103240001921384B2E48FFF7FFFE374DD5E8AF4F19
:1032500014F0010415D1284615F0ADFB88B1CDE975
:103260000144324B264A00933168314B314813F008
:1032700039FE254A30492F4815F098FB284615F0AD
:10328000A6FB2C482D4D286009F068F8044608B1CB
:103290002B4881E70146286808F036FF294B214674
:1032A0001860286808F046FF274B1860274811F07F
:1032B000BDFB274811F0BAFB03222649264811F02E
:1032C000B5FB26484FE700BF02A201082BA2010868
:1032D0004CA401088C84022031A201085FA20108DD
:1032E000C6A2010884A20108ACA20108C4A7010873
:1032F00088840220FAA20108BDA301089483022059
:103300009883022000A1010860B30420FD5E01083B
:10331000B96C0108456D0108336C0108556C010852
:103320004DBA0008F5BA0008D482022044250200F4
:10333000DD8D0220D8820220896F0108848402205A
:1033400019A30108808402207C84022033A3010891
:1033500055A3010877A3010883A301089BA30108D3
:10336000F0B52DED048B83B00023CDE9003301A926
:10337000684600F03DF90528014602D108F0A8FA98
:10338000F5E730B1444811F051FB03B0BDEC048BBC
:10339000F0BD424B1868C0B1414B1A68AAB1414D0B
:1033A0002B6893B1DDE90074D2ED026A92ED036AF5
:1033B000DFED3D5AB7EE005A8C4209D109F0C4F84E
:1033C0000446E0B1394813F0FFFD00F069F9DCE78D
:1033D0007B5C166907EE903AF8EE677A87EEA57A7D
:1033E00037EE457AC7EE267AB8EEC67A77EE877A58
:1033F000FDEEE77A17EE903A73540131DCE72B6863
:103400001A6993ED020A93ED037A92F90130B8EE4E
:10341000C77A08EE103A92F90030B8EEC88A07EE83
:10342000903AF8EEE77A38EE478A77EEC77A28EED8
:10343000008A27EE800A12F0EFF8DFED1D7AB0EE79
:10344000409A70EE278AB0EE480A12F0E5F878EE5E
:10345000807A89EE277AC0EE276AB4EEE67AF1EE3A
:1034600010FADFED147A48BFB0EE667A67EE277A7D
:1034700017EE900A48BF01240FF0F4FE0B460E49E8
:10348000024651F824100D4811F0D0FA0C4B1B687D
:10349000986811F001FA98E7E3A3010884840220F8
:1034A000808402207C8402200000FF420EA40108D8
:1034B000000000000000C84244A401081DA4010847
:1034C000ECB3042073B5364C94F82C30002B65D047
:1034D00016F007FB94F82E200346BAB194F82F207B
:1034E000012A13D100238DF8073016F0F5FA0DF1FB
:1034F0000701412000F062FA16F0F3FA9DF8072068
:103500000346120744BF022284F82F2094F82E208D
:103510002AB9184616F0E0FA022002B070BD94F8FD
:103520002F20022A30D1A169626A91422CD2032253
:103530001026256984F82F20226A154494F82F203C
:10354000042A0DD12269A16A0A44E1688A4228BF8F
:10355000A2682261A2690132A261002284F82F20B0
:1035600094F82F209AB90122184684F82F2016F0DB
:10357000B3FA2321042000F0EBF91DB12846E169DC
:1035800000F032FB0020C8E700252E46D6E718469B
:1035900016F0A2FA002EF0D01021EBE71120BCE7C4
:1035A0009084022010B5114C94F82C30DBB116F049
:1035B00098FA94F82E2002F0FF031AB116F08CFA54
:1035C000002010BDA268A361C4E90422012284F88E
:1035D0002D3084F82E2084F82F3016F07DFABDE8C7
:1035E0001040FFF76FBF1120EBE700BF908402206F
:1035F0002DE9F84307460E46FFF764FF044610BB6B
:10360000264D95F82D30002B46D116F06AFAAB699D
:10361000E3B1012385F82D306B693B600EB12B6857
:10362000336016F059FA3B686BB12A79022A0AD145
:10363000E86996261D464D274FF01D0C20F001002D
:103640001844834208D12046BDE8F8833B600EB998
:103650000524E6E73360FBE71A4632F8023B4FEAFF
:10366000D32E4FEACE0EC3F3451803F01F09C3F360
:1036700082014EEA533EC3F3412343EA880313FB1E
:1036800006F317FB0E3341EAC9011CFB0131091295
:10369000134605F8011BD4E70224D4E790840220E6
:1036A00010B5134C94F82C30F3B194F82D30EBB1E5
:1036B00016F017FAA3699BB1002384F82D30A36993
:1036C000A16A013BA36163690B44E1688B4228BF97
:1036D000A368636116F000FAFFF7F4FE002010BD46
:1036E00016F0FAF91B20FAE71120F8E70220F6E7B6
:1036F00090840220032888BF002002FB01F19CBFB8
:10370000014B185C4843704758A401082DE9F84361
:103710001A4C064694F82C300F46914653BB90F84D
:10372000008084F80480D0E9015240462946FFF722
:10373000E1FF29462060404612F058FCB9FBF0F347
:103740004845A062636217D85543A76000FB037722
:10375000B8F1010F4FEA450504BF401B2062304617
:10376000E760E56100F060F910B9012384F82C30BE
:10377000BDE8F8831220FBE72120F9E790840220BE
:1037800010B501464FF0B64006F080FC084C012809
:1037900008D1013C01D14B2010BD4FF0B64006F0DE
:1037A00053FBF4E7002814BF4B200020F4E700BFD0
:1037B000E193040010B543F6FF73C340DB070446F2
:1037C00004D440F28541044812F009FD0123034A64
:1037D000A340C2F8A03010BD5CA4010800D0035083
:1037E00070B592B0324D5AB9D5E90F32B3F5006FCA
:1037F00002F5006294BFDB1AA3F500632A64EB6351
:10380000EE6B66B90A20FFF7D5FF042385F82F3049
:1038100085F83060FFF756FE002012B070BD00241E
:103820004FF480232146102206A80293CDE90344D9
:10383000059415F0FDFAB6F5006F28BF4FF4006649
:10384000013EB6B232011B4B42F044721340069364
:10385000194B214607932B6C1022089301238DF8F6
:103860002430164B0EA80A93CDE90B440D9415F0A5
:10387000DFFA4FF0000366F30E13ADF83830104B4B
:1038800000940F930F4B06AA109301238DF8443038
:10389000332302A98DF83B30686B0B4B03F07CFEA1
:1038A00000942346A86B0EAA0AA903F075FEB3E79D
:1038B00090840220F07F100324000A5002000400CC
:1038C00021B304203C000A50E137000810B543F64C
:1038D000FF73C340DB07044604D440F2564104485A
:1038E00012F07DFC0123034AA340C2F8A03010BDB2
:1038F0005CA4010800E003507FB5084B8DF8000080
:103900000193022301A88DF80110CDF808D0ADF87D
:103910000C30FFF735FF07B05DF804FB60000100D5
:1039200000B589B0094B8DF8070003930DF107032B
:103930000493012303A8ADF814300691ADF81C30B0
:10394000FFF71EFF09B05DF804FB00BF6000040034
:103950002DE9F0410125154E154A736B804605FA95
:1039600003F3536596F830200F4602F0FF0422B1AE
:103970000220104A5365BDE8F0810A2086F83050D5
:10398000FFF7A4FF48F080010B4812F0C2FF394650
:10399000094812F0BEFF0A20FFF70CFF736B86F890
:1039A00030409D40034B20465D65E4E79084022053
:1039B000002004500010045000000A502DE9F0418E
:1039C0000125154E154A736B804605FA03F35365BE
:1039D00096F830200F4602F0FF0422B10220104A70
:1039E0005365BDE8F0810A2086F83050FFF76EFF7E
:1039F00041460C4812F08DFFFF210A4812F089FF62
:103A000038700A20FFF7D6FE736B86F830409D4071
:103A1000034B20465D65E4E79084022000200450BB
:103A20000010045000000A5070B58CB00121064609
:103A30003A2004F0F9FB0121292004F0F5FB0023D2
:103A400004220B21022006F0CBF8012304220A21D4
:103A5000022006F0C5F8012304220D21022006F001
:103A6000BFF80123574D1A460C21022005AC06F081
:103A7000B7F80FCD0FC495E80700002584E80700CC
:103A80000124514805A98DF829408DF822408DF870
:103A9000145006F07BFD1C224C4B0521C3F8202856
:103AA0004B4A4948C3F83828A2F58032C3F8302879
:103AB000A2F58032C3F8342806F002FD03F038FD89
:103AC0002946444803F0BCFC014618B11A2420469C
:103AD0000CB070BD404803F0B3FC0028F6D121467D
:103AE0002E2004F0A1FB23460A220421022006F026
:103AF00077F823460A220521022006F071F80925ED
:103B00000420FFF7E3FE642007F034FF0520FFF7F1
:103B100051FE642007F02EFF013DF1D103222B4B13
:103B200001ACC3F828252D4AC3F82C2502F58032B4
:103B3000C3F830252A4B0FCB84E80F0021464FF005
:103B4000B64006F047F9304600F000F90446002878
:103B5000BDD10DF1030140208DF80350FFF72EFF7A
:103B60009DF803300025732B1CBF01221D4B4FF025
:103B7000BA01284618BF83F831208DF80350FFF7AB
:103B8000E7FE28460DF10301FFF718FF9DF803300B
:103B9000BA2B01D04B249AE731210420FFF7D8FE3D
:103BA0001021032012F05FFA01210846FFF7D0FE32
:103BB00001200DF10301FFF701FF9DF80330012BF8
:103BC00085D0E7E7B0A4010800000A5000C0035008
:103BD00002000D00C4840220C884022002000400F8
:103BE000CCA4010890840220F8B50122134C0E46A3
:103BF000636B134902FA03F34B6594F830300546C2
:103C000003F0FF07C3B90A2084F83020FFF75EFEF7
:103C10003C210C4812F07DFE94F831301BB139463E
:103C2000084812F076FE002101220846C4E90F651B
:103C3000FFF7D6FD0020F8BD0220FCE790840220AB
:103C40000020045000000A5010B502280FDD0328A0
:103C50000FD1094C00222046114612F0D8F948B184
:103C600000222046BDE81040114612F0D0B9034CA6
:103C7000F0E7212010BD00BFDEA50108D0A5010896
:103C800070B514460D46002958D0002A56D041EA96
:103C900002039B0752D1092850D8DFE800F0051F26
:103CA0001F1F1F1D1D1B1B1BB2F5907F16D9244E15
:103CB000244BB2F5167F98BF1E46002230461146AF
:103CC00012F0A5F960B100223046BDE870401146FF
:103CD00012F09DB91A4EF0E71A4EEEE71A4EECE7D5
:103CE000C5F3870631465A20FFF706FE28B1314654
:103CF0005A20BDE87040FFF7FFBDC4F38706314688
:103D00005B20FFF7F9FD10B131465B20F1E7240A93
:103D1000C5F3812504F004042C4321465C20FFF701
:103D2000EBFD054610B121465C20E2E70146E020AC
:103D3000FFF7E2FD18B12946E020DAE7212070BD47
:103D4000DCA401082EA5010880A5010837B50121D2
:103D50000446FF20FFF7D0FD30B10121FF20FFF71F
:103D6000CBFDD0B103B030BD01A91C20FFF7D8FDB9
:103D70000DF105011D20FFF7D3FD0DF106010A200D
:103D8000FFF7CEFD0B200DF10701FFF7C9FD9DF8F0
:103D90000630262B01D00F20E4E70121FF20FFF79A
:103DA000ABFD10B10121FF2007E080211220FFF7B9
:103DB000A3FD054630B18021122003B0BDE830409C
:103DC000FFF79ABD642007F083FD2A4629461A486A
:103DD00012F01DF938B12A462946174803B0BDE84C
:103DE000304012F014B92078FFF72EFF28B1207868
:103DF00003B0BDE83040FFF727BF6078D4E9011277
:103E0000FFF73EFF38B1D4E90112607803B0BDE896
:103E10003040FFF735BF0121FF20FFF76DFD04465D
:103E20000028BFD101461520FFF766FD002899D074
:103E300021461520C1E700BFF2A5010808B50448D6
:103E400015F063FEBDE80840024803F0C3B900BFA7
:103E5000544A060868B30420064B1B681A7A022AE3
:103E600004D812B11B68044A13607047032AF9D0C2
:103E7000704700BF7CB30420D484022070B5A2B088
:103E80001E4D0BAC0FCD0FC495E80F0084E80F005A
:103E900000244FF47023CDE902440494019313AD40
:103EA00001AE0FCE0FC5164B06AE2B60154B18ADED
:103EB000CDE90744099406930FCE0FC52022124B7B
:103EC00012482B60124B13A91D93124B2094CDE97D
:103ED0001E23114B0BAA2193104B06F0E3FE044660
:103EE00018B1AE210E4812F07AF900214FF4E130FA
:103EF00012F059F9204622B070BD00BFA4A70108F6
:103F00003C00015B01000F004400015B8C85022036
:103F100022B304200001010090B30420D8840220C1
:103F200070A70108014806F0E3BF00BF8C8502209E
:103F3000024B0349186803F0CFBB00BFC4B3042091
:103F4000A4B30420F8B50F4E0546736A0F4643B17B
:103F50000146586814F0B3FF18B9746A01203C6038
:103F6000F8BD346A0CB92046FAE76168A94201D16C
:103F70007462F3E7284614F0A2FF0028F8D0246802
:103F8000F0E700BF2C86022008B50C4B01469A6969
:103F90008AB19A695F2A0ED800209A6998611A44FA
:103FA00082F8300003F13000FFF7CCFF00280CBF8F
:103FB0000320002008BD0620FCE700BF2C8602205D
:103FC00038B50A4C0A4D2368AB420CD0224604F1A6
:103FD0000C0104F1080000F07FF90023E36204F112
:103FE0003003E3612560012038BD00BF2C8602202C
:103FF000A27BF3F32DE9F74F074688469246994690
:10400000FFF7DEFF384601A9FFF79CFF054618B110
:10401000002003B0BDE8F08F384614F07DFF00F5B6
:104020000050393010F014F804460028F0D0DFF8C2
:1040300074B000F13803DBF82C6000F11C0200F5CD
:10404000005038306362656303F5005316F00105D4
:104050006060A36222D00121202D09D001FA05F36E
:10406000334205F1010C1BD1EDB21E43CBF82C609D
:1040700000210C9BE1616361A176C4E903A9394683
:10408000256284F81980A260257614F022FFDBF8FF
:10409000203001202360CBF82040BAE70123E4E779
:1040A0006546D9E72C860220F0B585B0844D854B56
:1040B0006A689A4203D102236B6005B0F0BD6C6858
:1040C000032CFAD104232F696B607B1E052B00F2B1
:1040D000F280DFE813F0060006004F006C00770066
:1040E000B40001A8FFF750FF00230446AB6100288D
:1040F00039D1019E737E012B03D1012F04D10424F9
:1041000031E00BB9012F31D1B37E002B30D1012723
:10411000B368B7769A6802A91A615A616A4A6B480D
:104120001A60327ECDE90223042214F0E8FE042254
:10413000674803A914F0E3FE0823AB61337EAA6A43
:1041400007FA03F31343AB6233691BB13946726953
:1041500070689847737E33B9F36823B14FF4005108
:1041600072697068984705236C61A5E70524FAE732
:104170000824F8E703A8FFF707FF04460028F2D158
:10418000039EB37E002B00F0948033691BB101467F
:104190007269706898470122317EAB6A8A4023EACF
:1041A0000203AB620023B268B3761360DBE74949D0
:1041B000042201F1080014F0A2FE00240423AB61E4
:1041C000AC62D0E70422414903A814F098FE04220F
:1041D0003F4902A814F093FE9DF80C202B6A002B97
:1041E000C1D0197E914203D15A7E1AB13C46BAE73A
:1041F0001B68F4E79A7E002A5BD09A6802981169DE
:104200009769D4688742A4EB010616D3864297BF0C
:10421000966811698919091894BF091B0918116159
:104220009169DC68091A91612CB191695A69C1F5EB
:1042300000515868A047002495E7062493E700231F
:104240000422224903A8AB6114F059FE042220493C
:1042500002A814F054FE9DF80C202B6A002B82D08B
:10426000197E914223D15A7E012A7FF448AF9A7E6B
:10427000FAB19A68029851699469D6680444B4F511
:10428000005FA6EB010CB1D8844597BF94685169D3
:10429000091909188CBF0918891B51619169DC68DB
:1042A00008449061002CC6D091695A69C1E71B6827
:1042B000D4E7092457E700230224AB6153E700BF8A
:1042C0002C8602205D840C0C327BD3E35C860220BA
:1042D000608602205486022070B506464A200D46AC
:1042E000144606F075FC4A2006F040FC034B336090
:1042F0004A232B60024BC3F8FC4F70BD00EF00E077
:1043000000F0032008B5044815F0FFFB11F0CAFEC9
:10431000BDE8084000F008B8544A0608014815F006
:10432000F4BB00BF544A06082DE9F04796B0544E3E
:1043300009AC35460FCD0FC42B6806F11405236078
:104340000EAC0FCD0FC495E80F00DFF84C8184E868
:104350000F004C4815F0D9FB404615F0D6FB4FF442
:104360008073494FADF83C30484B38460B9309A950
:104370000EAB0D9305F0B6FA04214FF4E065B6F8E4
:1043800034A00DEB01000122ADF804A002F05CFEA8
:10439000B6F836900022012102A8ADF8089002F08C
:1043A00053FE368F0122042103A8ADF80C6002F001
:1043B0004BFE0122042104A8354CADF8105002F048
:1043C00043FE344B4FF44870C4F8C8344FF0021326
:1043D000C4F8C43403F58033C4F8CC341C23C4F8C7
:1043E000B43407F0C7FA08A8ADF8205002F0A0FED8
:1043F000142007F0BFFA08A8ADF8205002F068FEBC
:10440000232007F0B7FA08A8ADF8205002F090FE7C
:10441000B921384612F064FA08A8ADF8205002F02D
:1044200057FE002205A81146ADF814A002F00CFEBC
:10443000002206A81146ADF8189002F005FE0122F0
:10444000002107A8ADF81C6002F0FEFD012200214A
:1044500008A8ADF8205002F0F7FD384604F002FF3E
:1044600000234046C4F8B434C4F8C834C4F8C43493
:10447000C4F8CC3415F04CFB16B0BDE8F08700BF93
:10448000CC410608544A060800C00850E07072008B
:1044900000C0035002000100604A06080348044AB5
:1044A0000449121A921011F08DBE00BFB401000829
:1044B000B401000860B3042008B5154B83F30A88E3
:1044C00000F030F8FFF7EAFF124B13498B4212D38A
:1044D0000020124B12498B4218D3FDF71DF81868C3
:1044E00050F82240586840F82240013298688242D1
:1044F000F5D30C33EAE70022F8E71C6844F8220001
:1045000001325C68A242F8D30833E4E70022F8E7FE
:1045100000000020087006081470060814700608D1
:104520001470060870B54FF48041144B144A154DB1
:104530009A60D3F8882005F5005442F47002C3F85D
:104540008820114A91664FF0FF3222666FF40032E4
:1045500062660D22A2660222C3F8D020BFF34F8FFD
:10456000BFF36F8F4FF44036002006F031FB002080
:10457000E66006F0FBFA2E6170BD00BF00ED00E0C2
:10458000000000080080004400900050014B1860BB
:10459000704700BFCCB30420054B1860054B1B6F60
:1045A00003F00703032B01D114F0D6BE704700BF00
:1045B000D4B304200080005038B504460D4601B144
:1045C00018B94521044811F00AFE236813B92B607D
:1045D000256038BD1C46F8E70642060810B50446BB
:1045E00018B95621044811F0FAFD206818B1036883
:1045F00023600023036010BD064206084FF0BA4254
:104600000123054802F580514B600862034909689F
:10461000D160034A1370704701000C1FD8B3042007
:1046200042B304204FF0BA41074BCA681A60012315
:10463000064A53604B6813F00203FBD14FF0FF3181
:104640001162034A13707047D8B304200020005D44
:1046500042B3042010B54FF0BA42D369126A134036
:1046600013F0F8501EBF0120114A1070DC070ED560
:104670004FF0BA410A695007FCD50E4A4C691068E0
:104680002044106088695168014401205160590339
:1046900041BF08490A6802F180720A601A0341BFEB
:1046A00004494A6802F180724A60034AD36110BD2E
:1046B00043B30420BC8602200020005D0023044A8E
:1046C00004491370044A05481360054A00F096B97E
:1046D00043B3042025460008C8860220FD45000893
:1046E0005546000808B500F0D9F94FF0BA430A4A18
:1046F000D969136841F201500B4313604FF47D32C6
:10470000064BDA61064B1A78002A4FF0000208BF08
:1047100010461A7008BD00BFC88602200020005D48
:1047200043B3042070B509230D4AC0F81031136853
:10473000054601330E461360FFF7D4FF044660B907
:1047400000F0A6F94FF48A722846064900F084F971
:104750001EB1BDE87040FFF7C5BF204670BD00BF69
:10476000C48602206400005DF8B5072905460C46A2
:1047700010EE107A10EE906A04D940F20711044846
:1047800011F02DFD05EB840325F824705E80F8BD43
:10479000594206082DE9F84F042980460D469346F4
:1047A0009946BDF82840BDF82C70BDF83060DDF8A2
:1047B00038A004D94FF49171344811F010FDB4F5CC
:1047C000806F04D940F22311304811F008FDB7F58D
:1047D000806F04D94FF492712C4811F000FDB6F5AA
:1047E000806F04D940F22511284811F0F8FC0D9B88
:1047F00003F50063B3F5805F04D34FF4937123484E
:1048000011F0EDFC0AF50063B3F5805F04D340F2CC
:1048100027111E4811F0E3FC0F9B03F50063B3F56D
:10482000805F04D34FF49471184811F0D8FC184BF2
:104830000F9A013E03EA0242C6F3090616430D9A97
:10484000013C03EA0A4AC4F3090403EA02431C4395
:10485000013F4FEA093303F44053C7F309071C43F0
:1048600047EA0A0708EB051319F0040F05F10205E2
:10487000C3E90A7618BF44F480442B0108EB051500
:104880006C6048F803B0BDE8F88F00BF59420608D5
:104890000000FF0F2DE9F041072905460E4614469A
:1048A0001F469DF8208004D94FF4B5710A4811F0D5
:1048B00096FCDDE9062324051A43B8F1000F01D068
:1048C00044F000440C2303FB0651C1E92C72C1F8EB
:1048D000B840BDE8F08100BF594206082DE9F0411B
:1048E000072906460C46154698469DF8187004D9C7
:1048F00040F27D11214811F072FC013DABB2B3F5DD
:10490000806F04D34FF4BF711C4811F068FCB8F1FC
:10491000070F04D940F27F11184811F060FC072FEF
:1049200004D94FF4C071154811F059FC0C21079BB4
:1049300006EBC40245EA0335089B15671B03536762
:1049400001FB0862B845D2F8B8004FEA440406D12A
:104950000323A3400343C2F8B830BDE8F08101232C
:10496000A3400343C2F8B830022201FB0766D6F821
:10497000B830A2401343C6F8B830EEE759420608F3
:10498000F8B500210C250446D0F8743200F50976FC
:10499000DFF854C0D0F868028B4217DA05FB030336
:1049A00093F8BB20002142F0800283F8BB20FFF780
:1049B000B9FE4FF48A72D4F86C3283F00103C4F864
:1049C0006C3202FB0343C4F86832F8BD05FB0107F3
:1049D000D7F8B82056F804EF02EA0C0242EA0E02B9
:1049E000C7F8B8200131D7E70000FFFF024B03C82A
:1049F00083E8030000207047CC86022038B50F4CB6
:104A00002378C3B90E4B0F4D19600F4B28601A6005
:104A10004FF080420D4B0E489A66FFF7E7FF1C20CF
:104A200006F0A4F82B6803B19847012300202370F7
:104A3000084B187038BD1220FCE700BF45B30420B6
:104A4000D8860220DC860220D48602200090005006
:104A5000CC86022044B3042010B50B4B1B7873B1F5
:104A60000A4B1B786BB1002392089A4201D10020B7
:104A700010BD50F8234041F823400133F5E71120E1
:104A8000F6E70E20F4E700BF45B3042044B304204A
:104A90000122014B1A70704744B30420064B1B7867
:104AA00043B14FF0BA4213695B07FCD5034A137850
:104AB000002BFCD1704700BF45B3042044B3042051
:104AC00008B5044B1B6823B1984710B10022024B74
:104AD0001A7008BDD486022044B3042000487047F1
:104AE000E086022000487047E086022000487047B8
:104AF000E0860220F0B5012504468C4205D88D429F
:104B000003D8002015601C60F0BD0020DFF828C02D
:104B10001CF8017BB4FBF7F607FB164EBEF1000F45
:104B200005D1B44207FB05F504D03446E5E7013072
:104B30000B28EDD10120E5E7B64206082DE9F04F3C
:104B400087B0174604460D469846FFF7C7FF17F192
:104B5000800F064602D1B8F17F0F04D0A02D12D8E5
:104B60002544A54203D1002007B0BDE8F08F94F999
:104B700000309F4202DD27700134F2E79845B8BF4C
:104B800084F80080F8E74FF0000940F20A2A3B461B
:104B90003A460021304611F026FB434642460121A9
:104BA000304611F020FB4B464A4649463046CDE997
:104BB0000199CDF800A0FFF76DFE40F20B232F4ABC
:104BC0000121CDE90032304640F2D5122C4BCDF810
:104BD0000890FFF75FFE01212A4B40F2D512CDE984
:104BE000013130460221284BCDF800A0FFF752FEDC
:104BF000B5F5006F2B4628BF4FF4006323F0030B7D
:104C00004FEA5B0A1FFA8AFA2246002130460593D2
:104C1000CDF800A0052311F00CFB0523224601214D
:104C20003046CDF800A011F004FB0223059A0021C4
:104C300030460093CDE901990123C2F38F02FFF7BB
:104C40004DFE01213046FFF76DFD00288CD1A5EB0C
:104C50000B059F2D5C44CBD8002D84D0254414F93E
:104C6000013B9F4204DD04F8017CA542F7D17AE7BD
:104C70009845B8BF04F8018CF7E700BF0000A021F9
:104C8000000102200000B021000103302DE9F04FA7
:104C900095B00368066D0593436A42680693836A7C
:104CA000856B0793C36AD0F814B00893036ED0F8ED
:104CB0003C900993C36DDFED586A0A9383690BFB3F
:104CC00001FA0B9383680C93036B0D93436C00699B
:104CD0004B43F41A24EAE474F71A9B1B234453430E
:104CE0000744AF42A8BF2F46019302FB05F30025FE
:104CF00002FB00F1119302FB04F30E971391129340
:104D0000059B9D4203DB002015B0BDE8F08F00201D
:104D10000B9B129E53440493584574DB0199139BDB
:104D200001351944DA440191EAE74FF000080C9B81
:104D3000734402930D9B63440393904547DB013713
:104D4000964494440E9B9F42EFDBB9F1000F0BD0C9
:104D500039F81030F2EE677A07EE103AB2EE477A81
:104D600077EE277AF3EE677A089BF2EE677A33F8EC
:104D70001030013007EE103AB2EE477A67EE277A2C
:104D8000F3EE677AF2EE677AFDEEE77A17EE901AA5
:104D9000ADF80830099B1944069B9942B8BF1946E3
:104DA000079B9942A8BF194607EE901AF8EEE77ADA
:104DB000F3EE677AF2EE677AFDEEE77A17EE901A75
:104DC000049B03F8011B0493119B1E44A4E7029B60
:104DD000F2EE677A13F9011B08F101080293039BB5
:104DE0000F9113F9011B109103930F990A9B19441A
:104DF000109B594307EE101AB8EEC77A47EE267A91
:104E0000F3EE677A99E740F20003B446274607EECF
:104E1000903ADDF804E095E7000000382DE9F04F06
:104E20002DED048BD3B0436C82462B93836D90EDB4
:104E3000178A3793436DD0F840903893036D90F8FC
:104E400048601F93C36CC56B149383681C9139939E
:104E5000036B3A93C36A3B9340F20003ADF84231CF
:104E60008369469300235193FFF740FE04462EB911
:104E70001F9B149A13431CBF21235193379B012B73
:104E800002D1389B012B07D0212351931C9B002B6F
:104E900040F099805198F9E31C9B002B40F09380DF
:104EA000519B002BF6D1DAF8043020460F93DAF844
:104EB0001430DAED188A0993DAF80C30BAEEE88A81
:104EC0002C93DAF83430B3EE488A2093DAF81C30A9
:104ED0002D93DAF800303C93DAF810301593DAF8B5
:104EE00038301693DAF82030179311F081FA209AAF
:104EF0002C9B002DA3EB0203149A134493FBF9F3AC
:104F00000D93DDE91532A3EB02031F9A13442B9A8C
:104F100093FBF2F3179A4993099B02FB03F30F9A51
:104F20001393169B02FB03F32493249A209B02FB0A
:104F300003F30F9A3293159B02FB03F323932B9BEE
:104F400002FB03F34A93239B159A03FB09F34B934C
:104F5000BDF824301E9308BF012343930DF5A173C0
:104F600018BF2B4647932C9B53430F9A53434C93A4
:104F7000179A2D9B5343099A5343409300230E9352
:104F800040F2002309EE103A0E9B179A93422EDB53
:104F90001C9B002B3FF47EAFFFF7A4FB5190002831
:104FA00040F074833C9B2D9909985943179B9AF9BB
:104FB000242059439AF928304143DAF81800FFF7C2
:104FC000BDFD519066E7DDE9393213433B9A2B432F
:104FD0001343DA0707D52123519340F20311824886
:104FE00011F0FDF856E7519B002BF6D15BE70E9BC5
:104FF0002B9A1F995A431F9B1698D31A8A1A22EA92
:10500000E2721892159A1899D21A9042D4BFC1EB45
:105010000001C1EB0201002B27DB0E98499D169E73
:105020009642D8BF28462690269A0E98121A013228
:105030000A920F9A4A4318993192379A01FB023328
:105040000A993F93DDE94A320129D8BF1346239AD2
:105050002A931343459300230C930C9B2D9A934260
:1050600006DB269B01330E938EE70E9A2692DBE732
:105070000C9B149A09FB03F3991AD31A2C9A2098C3
:1050800023EAE373521A9042D4BFC3EB0000C3EB90
:105090000200002908907DDB209991427ADCDDE94D
:1050A0000C12521A571C002A79D00A9A012A7CDD68
:1050B000814563D044DD012FA9EB000B65DC01269F
:1050C0000D9A0B92BE423246A8BF3A464892139AB6
:1050D000169972432F92721E22922F9AB2F5006F88
:1050E000229AB8BF00222E9201324E92189A03FBE8
:1050F00001220F994A43249911434D910A9901299C
:10510000D8BF394689B241913A998A1842920C9A8D
:10511000149902FB09F2521A389903FB01232F9AC2
:105120002593139BB2F5006FB8BF1346339300234A
:105130001193119B489A93423ADB0B9B01338BE707
:10514000089A089992FBF9F209FB121B1646BBF16B
:10515000000F0ED0012F06F10106A9EB0B0B0ADDA3
:105160000A465A4406FB09F191421CBF282251927B
:1051700001E0012F0CDC0D9A0B92A3E7012F14DD47
:105180004A4601264FF0000BECE74A460126E9E7C4
:10519000089AE7E701270C9A0B92012602E03E46A7
:1051A0000D9A0B924FF0000B8CE70D9A0B92F4E7DF
:1051B000119BBB42C4BF28235193119BFB1A93FB45
:1051C000F6F206FB1233002B18BF0132012A0A9BAC
:1051D00019920BD1012B47DD00231093109A089BE5
:1051E0001344199A534309E0C1420608012B38DCE5
:1051F000BBF1000F32D1089BCDF840B027934E9AF7
:10520000199B159953433D93199B259A73433093EA
:10521000109B013B002B3E93CCBF4FF487730023C0
:1052200044933F9B01FB02330F9A17995343119A02
:105230001D930C9B13440E9A01FB0323099A5343BD
:105240001B9300232893289B3C9A934211DB119BCC
:1052500001331193259B4B4425936AE728235193EF
:10526000C9E7CDF840B0B9E7089B27930023109316
:10527000C5E72F9BB3F5006F14DB139BB3F5006FED
:1052800010DB1B9B002B4FF02803519303DA099B83
:10529000002BC0F2AD81309BDDF888801A93139B00
:1052A000129314E01B9BDDF8B880002BBCBF2823B1
:1052B0005193099B002B3D9B1A93339B129301DA68
:1052C00028235193129B002B01DA28235193DDE907
:1052D00031321343459A13434D9A13431D9A134396
:1052E000DB0700F18C81319B03EBD3735B102993B7
:1052F0002A9B03EBD3735B103493239B03EBD37292
:10530000329B521003EBD3735B103693249B03EB59
:10531000D3735B1035930123204621934F9210F0F5
:10532000DDFF219B0125002B14BF0523012351AA7A
:10533000D4F8680206924F9ABDF8A4100492349AE9
:1053400002910392BDF89C2034910192419A1D99DB
:105350000092399A05950A4400214F9310F0E6FF18
:1053600051ABCDE90553359BBDF820200493369B06
:1053700001920393349B294602931E9B429A009309
:10538000D4F868024F9B10F0D1FF51AB0193439BBF
:10539000479A00930223D4F86802194610F0FFFFE1
:1053A00051AB01931E9B032100933B9A0223D4F837
:1053B000680210F0F4FF51ABCDE90553099B1B992E
:1053C0000493129B469A03931E9B0A440293BDF8D2
:1053D000283004210193BDF868300093D4F86802A6
:1053E0002B4610F0A3FFB0EE490A0021D4F8680262
:1053F00010F013FF219B002B00F00C81F0EE480A07
:10540000B0EE480A2946D4F86802FFF7ADF9B8EEC5
:10541000E80A0025B3EE400A0221D4F8680210F031
:10542000FCFE2046099951AA10F025FF51AB4121FD
:105430002046994A019300954EF62C4310F05AFFEE
:1054400020460A9951AA10F016FF2046199951AA30
:1054500010F011FF2046089951AA10F00CFF2046C9
:10546000299951AA10F007FF51AB40F2CD11204607
:10547000CDE90053894A8A4B10F03CFF51AB40F212
:10548000D711884A2046CDE900532B4610F032FF51
:10549000204610F096FF02222946204610F0ACFF6D
:1054A00002220121204610F0A7FF204610F089FFBC
:1054B0000A9B012B04DC01222946204610F09CFFA8
:1054C000109B002B04DD02220021204610F094FFE7
:1054D000219B002B00F0A680109B4A21023B1293D7
:1054E00051AB01930023204600936F4A449B10F078
:1054F00001FF129B51AD013B1A93129B40F2CD115B
:10550000002B4FF04F6320460093684ACCBF4FF406
:1055100087730023019510F0EDFEB8F1000F0FDD49
:105520002A464146204610F0A6FE00222046CF2300
:1055300011460195009210F0DDFE204610F041FF6B
:105540004FF0000851AD434641212046524A019593
:10555000CDF8008010F0CEFE1A9B012B65D11946C4
:105560002A46204610F087FE4346424641462046E2
:10557000CDE9008510F0BEFE204610F022FF022289
:105580004146204610F038FF204610F01AFF022254
:105590000421204610F030FF0A9B012B04DD01227C
:1055A0000021204610F028FF204610F00AFF0422B8
:1055B0002046114610F020FF01222046114610F02F
:1055C0001BFF04220221204610F016FF04220321B3
:1055D000204610F011FF204610F0F3FE519B002BE7
:1055E00040D01C9B002B3FF455AC40F26631F6E4F2
:1055F000309BDDF888801A93139B129360E62A9BF8
:10560000239A3493329B3693249B3593319B299371
:10561000002381E6B0EE480A2946D4F8680210F06B
:10562000FCFDF4E63E9B129363E7ADDD129B2A4638
:10563000991E204610F01FFE2A462046012110F038
:105640001AFE4246414643462046CDE9008510F009
:1056500051FE204610F0B5FE02224146204610F0D1
:10566000CBFE89E71C9B5BB9289B4C9A013328939E
:105670001D9B13441D93409A1B9B13441B93E2E50F
:105680002046FFF77DF951900028EDD053B0BDECD6
:10569000048BBDE8F08F00BF0000045006000160DD
:1056A0000E7E080006070550000005500503027035
:1056B00070B5836D0446012B21D1436D012B1ED1A2
:1056C000426843699A421AD1002101F08DF9B0FA7B
:1056D00080F67609D4E903235A43D4E90D134B43EA
:1056E000616920464B43B2EB830F4FF001011DDC93
:1056F000CEB101F079F920B90025284670BD002609
:10570000E8E70121204600F093FB0028F4D00121B6
:10571000204601F069F905460028EDD050210748E0
:1057200010F05DFDE9E700F083FBF4E700F080FB9B
:1057300005460028E0D0002EE9D1EFE72443060813
:105740002DE9F04F2DED048B8DB0044640B1D0F81B
:105750002CB0BBF1000F05D03621CE4810F03FFD34
:1057600021208DE1036ADFEDCC8A13F0010F14BF15
:105770004FF480624FF400629A42C0F2EB80FFF770
:10578000ADF9D4ED057AB8EEE78AE36C276A0793A2
:10579000B4F8503017F0010609EE103AE36B0546F5
:1057A0000593236C28EE288A0693BDF814A0BDF853
:1057B000189040F0B88007EBD7784FEA6807C8F335
:1057C0004F08CDE900A805233146226810F041FDBD
:1057D00005230121CDE90098A269284610F039FD82
:1057E000226B002A00F0AE80A38E0093022319469C
:1057F000284610F01EFDCDE900A90123A26B03216C
:10580000284610F026FDDFEDA40A0021B0EE600A64
:10581000284610F008FDF0EE480AB0EE480A0121D3
:10582000284610F000FDB0EE490A0321284610F08A
:10583000F4FC04212846079A10F0E3FC4FF000081E
:1058400040F22D234246414628460093CDE9018887
:105850004346FFF71FF8914B40F2D712012128462B
:105860000093CDE901888E4BFFF714F840F2D71270
:1058700002212846CDE901888A4BCDF80080FFF748
:1058800009F8002E63D14A2203212846CDE901669A
:10589000854B0096FEF7FEFF4FF0040800264FF000
:1058A000010B824B5FFA88F840F2D7124146284636
:1058B000CDE9013B00967E4BFEF7ECFF33465246A6
:1058C00031462846CDE90166CDF80080FFF706F89D
:1058D00042F202034A4659462846CDE90083029621
:1058E0003346FEF7FBFF022120232846CDE90013B3
:1058F00002965B46BAB2FEF7F1FF59462846FEF71C
:1059000011FF002840F0BC80DDE90510414394F907
:10591000533094F95220A06B0DB0BDEC048BBDE860
:10592000F04FFFF70BB91FFA87F8CDE900A8012364
:105930005946226810F08DFC0123CDE900981946E4
:10594000A2694AE701235B4A009302234FE74FF025
:105950000308A3E7FFF7C2F8D4ED057AB8EEE78AAB
:10596000B4F85030054628EE288A09EE103AE36B69
:10597000F0EE680A0793236CB0EE680A5946059367
:10598000E66C276A10F04FFCF0EE480AB0EE480AC9
:105990000121284610F047FC03212846B0EE490AB1
:1059A00010F03BFC07F0010832460421284610F0B5
:1059B00028FCB8F1000F68D1052307EBD770401021
:1059C00006934FF480610BAB0AAAFFF793F80646E3
:1059D00000287FF4C5AE314B014640F2D712CDE925
:1059E0000100009328462E4BFEF754FF40F2D712D9
:1059F00001212846CDE901662A4B0096FEF74AFFB1
:105A0000B8F1000F44D102214A222846CDE901888D
:105A1000254BCDF80080FEF73DFF032100264FF017
:105A20000108224B40F2D7122846CDE901380096F2
:105A30001F4BFEF72FFF334631462846BDF828207E
:105A4000CDE90166CDF80080FEF748FF22234146EC
:105A5000CDE9008328463346BDF82C200296FEF798
:105A60003DFFB246B346079B5B456EDC0598079940
:105A700094F95330414394F95220A06BFFF75EF83C
:105A80000DB0BDEC048BBDE8F08F3846012397E7DD
:105A90000221C3E791430608000000380E7E08008B
:105AA0000600016006070550000005500000D023E5
:105AB00005030450FE430608A36922684B4408937B
:105AC000236B3244002B3DD033F81830A16B08EE25
:105AD000103A08EB0A03CB180993BDF82C300021CB
