:020000040800F2
:1000000000100020E17E00086757010867570108CB
:1000100067570108675701086757010867570108C4
:1000200067570108675701086757010867570108B4
:1000300067570108675701086757010867570108A4
:100040006757010867570108675701086757010894
:100050006757010867570108675701086757010884
:100060006757010867570108675701086757010874
:100070006757010867570108675701086757010864
:100080006757010867570108675701086757010854
:100090006757010867570108675701086757010844
:1000A0006757010867570108675701086757010834
:1000B000497E00086757010867570108675701081C
:1000C00067570108675701086757010889510008F9
:1000D000675701086757010867570108ED54000882
:1000E000CD54000867570108675701086757010892
:1000F00067570108675701086757010867570108E4
:1001000067570108675701086757010867570108D3
:1001100067570108675701086757010867570108C3
:1001200067570108675701086757010867570108B3
:1001300067570108675701086757010867570108A3
:100140006757010867570108675701086757010893
:100150006757010867570108675701086757010883
:100160006757010867570108875701086757010853
:100170006757010867570108675701086757010863
:10018000675701086757010867570108158E01086E
:100190006757010867570108675701086757010843
:1001A0006757010867570108675701086757010833
:0401B0006757010884
:1001C000013800D0FCE7704738B50022164B51ECDF
:1001D000100B12F0C7FA10A3D3E9002304460D4612
:1001E00012F050FD70B90EA3D3E900232046294632
:1001F00012F02AFD58B92046294613F0FBF800EE0C
:10020000100A38BD47F6FF3300EE103AF9E74FF613
:10021000FF33F9E7AFF300800000000000FCEF407F
:100220000000000000FCEFC00000E0400000000003
:100230002DE9F74F0446DDE90C7B886816469A469F
:100240000D4612F037FA8046B068894612F032FA4D
:1002500002460B464046494612F084FA80468946DB
:10026000BAF1000F1BD0DAF8080012F023FA0246A8
:100270000B464046494612F0BDF88046B86821F06A
:10028000004912F017FA02460B464046494612F062
:1002900093FB12A3D3E9002312F0E0FC50B13B46DC
:1002A000324629462046CDF830B003B0BDE8F04FC5
:1002B0000AF0ACBE064B20460093656940F2451338
:1002C000044A0549A847012003B0BDE8F08F00BFEC
:1002D000BC4106080C410608673806087B14AE4787
:1002E000E17A943F000000002DE9F84F4FF0004301
:1002F0002DED028B23FA00F057EC106B59EC118BAB
:1003000093468A4612F0C4F9424604460D464B46CF
:100310003046394612F026FA02460B462046294658
:1003200012F020FA02460B4643EC182B0AA3D3E93D
:10033000002312F0A7FC08B19FED078B59465046E9
:10034000B0EE480AF0EE680ABDEC028BBDE8F84F4B
:100350000BF0A8B8AFF300800000C0FFFFFFDF4143
:100360002DE9F0432DED028B99460B7F89B0072BC9
:1003700004460F461546129E1AD140F20241836B85
:10038000984740B9AC4B0093272365692046AB4A98
:10039000AB49A84799E0B06240F202412046A36B06
:1003A000984720B9A74B009365692B23EEE7F062CD
:1003B0002A7F3B7F072A08D1092B3DD0072B13D07A
:1003C000A14B009365693123E0E79A4234D0CDE92F
:1003D00002329E4B01939E4B009334236569204665
:1003E000964A9C49A84770E0D5F80C80B8F1000FF8
:1003F00009D00023CDE90283974B0193974B0093DB
:1004000065693923EBE74146DFED950A47F6FF7052
:100410009FED940AB36A944A0CF06CFBF36A414670
:10042000DFED8F0A9FED910A914A92480CF062FB32
:10043000EB68F361AB68336297F81C80B8F1090F81
:1004400045D0B8F1070F40F03781FB684BB100226F
:10045000CDE90232804B0193874B009365695B23A2
:10046000BDE7EA6842B1CDE902237B4B01937B4BA8
:10047000009365695C23B2E7DFED807A95ED027A3F
:10048000B4EEE77AF1EE10FADFED7D6ACCBF77EEDD
:10049000677A77EEC77AF4EEE67AF1EE10FA7EDD4F
:1004A0004FF07C53002217EE100ACDE9042312F01E
:1004B00001F9744BCDE902010193734B00935D2365
:1004C000656920465D4A7149A847012086E0287F7A
:1004D000072832D1EB6813F5004F09D0654ACDE902
:1004E00002326B4B01935D4B00936569622376E7A3
:1004F000DFED687A95ED027AB4EEE77AF1EE10FA64
:10050000DFED656ACCBF77EE677A77EEC77AF4EEF7
:10051000E67AF1EE10FA66DD0022604B17EE100A63
:10052000CDE9042312F0C6F85D4BCDE90201019339
:10053000554B009365696323C3E7092812D06669A8
:100540000AF028FD054640460AF024FD554BCDE94A
:10055000025001933D4B009366232046374A52498F
:10056000B047B2E7EB6813F1800F0AD06FF07F025B
:10057000CDE902324D4B0193384B009365696723F7
:100580002DE795ED027ADFED4A7AB4EE677AF1EE67
:1005900010FA28D0474B009365696823F6E6B868DF
:1005A00012F088F80446D9F800000D4612F082F8DF
:1005B00002460B462046294612F0D4F81CA3D3E984
:1005C000002312F0F9F906F1080841EC100B40463F
:1005D00007A90AF01FFF079BF360002009B0BDECDC
:1005E000028BBDE8F083B86812F064F841EC180B98
:1005F000D9F8000012F05EF806F1080441EC100B87
:10060000B0EE481AF0EE681A2146052007AAFFF757
:100610006BFE07991F22F160052015F091FD12F085
:1006200037F801F1004112F037FBB061D5E700BFA8
:10063000140014001400243FB65506083C55060863
:1006400067380608CD5506086042060810500608AF
:100650001D5006082C380608BA410608B151060894
:1006600080000038A0002039736C010880008037BA
:10067000656C01080080FFFFF05506080000003897
:100680006F12033329560608355606080956060820
:100690004A560608000080376F1283320000F03E91
:1006A000515606085D56060807530608695606089F
:1006B0000000803B6E560608B8F1010F0FD040468F
:1006C00066690AF067FC054601200AF063FC104BDE
:1006D000CDE9025001930F4B009385233DE7287F1E
:1006E00001280ED066690AF055FC054640460AF01E
:1006F00051FC074BCDE902500193074B0093862331
:100700002BE7D9F8000011F0D5FFC6E9000164E736
:10071000905606081D5006081050060800000000FC
:100720002DE9F04FC76997B08346209E08910C923F
:10073000129355EC104B8DED000B7FB9102012F089
:1007400077FF0246CBF81C0020B9A74BEF21A74842
:1007500012F03EFFC0E901770760C760DBF81C308C
:10076000196859B15A680123584693404A608B6012
:1007700013F0BCFDDBF81C3000221A602B1EB7BF43
:1007800023F00043002301220193A8BF3360019F9F
:10079000974BB8BF3260BB4319D142F20F73129A24
:1007A0001360C7F31303234300F0DB85219B53B988
:1007B000904B21E0904B03930833219A13600398E8
:1007C00017B0BDE8F08F8B4B03930333F5E79DED36
:1007D000007B0022002351EC170B8DED0A7B12F0F9
:1007E00029FA804650B10123129A1360219B13B15C
:1007F000824B219A1360824B0393E0E7C7F30A56BA
:1008000014AA15A958469DED0A0B13F0F7FF0290A4
:10081000002E76D00B9BA6F2FF36CDF84C80C3F3AA
:10082000130343F07F53DDE90A0143F440131946F3
:100830000022744B11F0DEFD65A3D3E9002311F013
:1008400091FF65A3D3E9002311F0D6FD04460D46C0
:10085000304611F01DFF62A3D3E9002311F082FF9F
:1008600002460B462046294611F0C6FD04460D46B9
:1008700012F012FA0022074600232046294612F001
:10088000E3F940B1384611F003FF22462B4612F03F
:10089000D1F900B9013F162F52D85B4B03EBC703C8
:1008A000DDE90A01D3E9002312F0CEF9002849D08E
:1008B000013F00231193149B9B1B5A1E4CBFC3F195
:1008C00001030023079245BF069300230693079375
:1008D000002F39DB079B10973B44079300230993B4
:1008E000089B092B66D8052BC5BF043B00240124B7
:1008F0000893089B023B032B67D8DFE803F02D3AEF
:100900003859DDE914631E4406F23243202BC9BF77
:10091000C3F14003C3F120039F4006F21243D8BF46
:1009200004FA03F006F1FF36C4BF24FA03F347EAE2
:10093000030011F09DFE0122A1F1F873139276E7F6
:100940000123B7E71190B6E7069BDB1B06937B42BA
:10095000099300231093C3E700230D930C9B002BF6
:1009600056DC012399461A4604930C920CE00123AD
:10097000F3E700230D930C9BFB1803F1010904938B
:100980004B46012BB8BF0123DBF81C0000210422D9
:1009900002F114059D423FD94160584613F066FCB0
:1009A000039000283BD1194B024640F2AF11CEE62E
:1009B0000123DFE7012400230D9408934FF0FF3358
:1009C0000022994604931223CFE701230D93F5E704
:1009D00061436F63A787D23FB3C8608B288AC63F45
:1009E000FB799F501344D33F826006089960060844
:1009F0000000F07F334F060879600608BB41060807
:100A0000BA4106080000F83F98610608F26006083F
:100A10000C9B99460493B7E701315200B8E7DBF825
:100A20001C30B9F10E0F039A1A606FD8002C6DD0EC
:100A3000002F36DD07F00F02A04BF8054FEA271410
:100A400003EBC20393ED007B8DED0E7B17D59C4B22
:100A500004F00F044FF00308D3E90823DDE90A018D
:100A600011F0AAFFCDE90001954D5CB9DDE90E2337
:100A7000DDE9000111F0A0FFCDE900012BE04FF00E
:100A80000208F1E7E10709D508F10108DDE90E01E7
:100A9000D5E9002311F066FECDE90E01641008359A
:100AA000E3E700F007817C42844B854D4FF002085C
:100AB00004F00F02241103EBC203DDE90A01D3E9BC
:100AC000002311F04FFE0023CDE90001002C40F07F
:100AD000E580002BD0D1119BDDE90045002B00F013
:100AE0004C810022774B2046294612F0ADF80028B1
:100AF00000F04381B9F1000F00F03F81049B002B0F
:100B000000F3E480DDE90A34CDE90034159B002BC5
:100B100002DB0E2F40F342820D9A002A40F06782DA
:100B2000099C0025DDF81880B8F1000F0DD0079B57
:100B3000002B0ADD4345069AA8BF4346D21AA8EB0C
:100B400003080692079AD31A0793099B0BB30D9BD0
:100B5000002B00F0A682002C00F0A182294622463C
:100B6000584613F0EDFC029A01460546584613F02C
:100B70003DFC02990646584613F0B8FB099B1B1B27
:100B8000099300F09182099A3146584613F0D8FC37
:100B900002900121584613F013FC109B0446002BD1
:100BA00000F084821A460146584613F0C9FC089B9F
:100BB0000446012B03DC009B002B00F07C82002606
:100BC000236904EB8303186917F00FFCC0F12000C0
:100BD0001096079B184410F01F0000F09182C0F19E
:100BE0002003042B40F38182C0F11C00069B0344C8
:100BF00080440693079B03440793069B002B05DD67
:100C00001A460299584613F0F5FC0290079B002BF8
:100C100005DD21461A46584613F0ECFC0446119BAC
:100C2000002B00F076822146029817F02DFC002858
:100C300080F26F8200230A220299584613F078FB53
:100C40000D9B7E1E0290002B00F05C820023294643
:100C50000A22584613F06CFB049B0546002B03DC6C
:100C6000089B022B00F35E82B8F1000F05DD2946D8
:100C70004246584613F0BEFC0546109B002B00F080
:100C8000D0826968584613F0F1FA0746002840F010
:100C90007F820D4B024640F2EF2158E5E20706D570
:100CA00008F10108D5E9002311F05CFD012364106F
:100CB00008350BE74FF002080DE700BF9861060802
:100CC000706106080000F03FF2600608204600222E
:100CD000AC4B294611F046FD7E1E08F10108049C2C
:100CE000CDE90001404611F0D3FCDDE9002311F00D
:100CF00039FDA54B002211F07FFBA1F15073CDE926
:100D00000E010F93002C3BD10022A04BDDE9000126
:100D100011F070FB02460B46CDE90023DDE90E23FE
:100D200011F0B0FF002840F05781DDE90E2101F1FC
:100D30000043DDE9000111F087FF00283FF4E2AE37
:100D4000002425460C9BDDF80CA0DE434FF0000884
:100D50002146584613F0CAFA002D00F0A980B8F1D8
:100D6000000F05D0A84503D04146584613F0BEFAFF
:100D70002946584613F0BAFA9AE03E464C46B1E787
:100D8000834B03EBC40353E90201039B1C440D9BFB
:100D9000002B4AD002460B4600207E4911F00CFE83
:100DA000DDE90E2311F026FBDDF80CA0CDE90E01E4
:100DB000DDE9000111F070FF054611F069FC024603
:100DC00030350B46DDE9000111F014FB0AF8015B38
:100DD00002460B46CDE90001DDE90E0111F052FF9C
:100DE000002865D100206C49DDE9002311F002FBE9
:100DF00002460B46DDE90E0111F044FF002840F0E9
:100E00000D81A24500F0EA8000225E4BDDE90E0173
:100E100011F0A8FC00225B4BCDE90E01DDE90001D9
:100E200011F0A0FCCDE90001C2E7DDE90E2311F0CD
:100E300099FCA046DDF80CA0CDE90E01DDE900012A
:100E400011F02AFF054611F023FC024630350B460F
:100E5000DDE9000111F0CEFA0AF8015B02460B460B
:100E6000A245CDE900234FF0000223D1494BDDE933
:100E70000E0111F0C1FA02460B46DDE9000111F046
:100E800001FF002840F0CA8000204249DDE90E231E
:100E900011F0B0FA02460B46DDE9000111F0D4FE74
:100EA00070B1C24608F1FF381AF8013C302BF8D077
:100EB000374655E0334B11F055FCCDE90001BDE755
:100EC000DDE90A34CDE90034159B002BFFF628AE8E
:100ED0000E2F3FF725AE2E4B03EBC70393ED007BA0
:100EE0000C9B002B8DED047B02DAB9F1000F64D06E
:100EF000DDF80CA0DDE90045DDE9042320462946A4
:100F000011F05AFD11F0C8FE064611F0C1FBDDE9F3
:100F1000042311F027FC0246204606F130040B465C
:100F2000294611F067FA0AF8014B039C02460B466A
:100F3000AAEB0404A14540F0828011F05DFA04465A
:100F40000D46DDE9042311F09DFE002865D1204601
:100F50002946DDE9042311F06DFE08B1F3075CD4E6
:100F60000299584613F0C2F9002301378AF800307D
:100F7000129B1F60219B002B3FF421ACC3F800A003
:100F80001DE400BF0000244000001C40000014408D
:100F9000986106080000E03F0000F03FA24B03EB21
:100FA000C70393ED007B0C9B002B8DED047B9FDA38
:100FB000B9F1000F9CDC7FF4C3AE00229B4BDDE94E
:100FC000040111F0CFFBDDE9002311F051FE0446CE
:100FD00000287FF4B5AE3E462546B4E0DDE90A348C
:100FE000CDE90034159B002B01DB0E2FD6DD089ACE
:100FF000012A36DC139A82B303F23343099CDDF8ED
:101000001880069A012158461A440692079A1A44F3
:10101000079213F0D5F9054686E53E4653469A46B3
:1010200013F8012D392A06D1039A9A42F7D13022BA
:10103000039901360A701A7801321A7038E70022D3
:101040007B4B11F08FFB0022002304460D4611F06C
:10105000F1FD00283FF450AF82E7149BC3F1360343
:10106000CCE709F1FF34099BA34208DBB9F1000F7B
:10107000A3EB04040EDBDDF818804B46C1E7099BA7
:10108000109AE31A0994DDF8188000241A444B469C
:101090001092B6E7069BA3EB09080023B1E7029E76
:1010A00071E5099A029970E5029672E5089B012B99
:1010B00017DC009BABB9019BC3F313039BB9019BE6
:1010C00023F00046360D360536B1069B0126013366
:1010D0000693079B01330793109B002B7FF470ADA1
:1010E0001096012075E50026F6E73FF486AD1C3327
:1010F000069A1A4498440692079A1A4407927CE585
:101100000346F4E7049B002B2BDC089B022B09DC35
:1011100027E0B9F1000F1DDC089B022B1ADD3E46CB
:10112000CDF81090049B002B7FF40CAE21460522D5
:10113000584613F0FDF801460446029817F0A4F94A
:1011400000287FF7FFADDDF80CA0312301360AF847
:10115000013BFBE50D9B3E46CDF81090002B7FF444
:1011600083AD039F2146029817F0B2F8039B00F16C
:101170003009049A07F8019BFB1A9A4240F3CB808E
:1011800000230A220299584613F0D2F80290E9E7A8
:101190002A6905F10C010C300232920017F083F835
:1011A00001223946584613F025FA039BA846054606
:1011B00003F1010ADDE9032313440793009B03F0C5
:1011C000010309930AF1FF3321460298049317F0B3
:1011D0007FF84146069000F13009029817F054F963
:1011E0002A4621460746584613F070FAC26801465F
:1011F00002B3584613F07AF8002F3ADA0122029926
:10120000584613F0F7F92146029017F03DF90028EF
:1012100003DC29D119F0010F26D0B9F1390F1DD106
:1012200032E02846C1E700BF98610608000014407C
:10123000000024400A90029817F026F90A990C90B1
:10124000584613F053F80C9A5ABB089B53B9099BA4
:1012500043B9B9F1390F17D0002F05DD069B03F113
:10126000310901E0002F2ADADDF810A00AF8019B0D
:101270006EE5089B3B4304D1009B03F00103002B68
:10128000BCD0B9F1390F36D1049F392307F8013B9F
:10129000BA46013F1AF8013C392B5AD001333B7052
:1012A00056E5002F06DB089B3B4306D1009B03F06D
:1012B000010313B9002AA1DCD6E7002AE1DC079B71
:1012C00057460AF8019C53452ED000230A22029962
:1012D000584613F02DF8A84502904FF000034FF048
:1012E0000A02414658460BD113F022F880460546C3
:1012F0000AF1010A66E7DDF810A009F10109B5E776
:1013000013F016F82946804600230A22584613F0A7
:101310000FF80546ECE7049B4FF00008002BCCBF0C
:101320001F460127039B1F4401220299584613F0D0
:1013300061F92146029017F0A7F80028A8DC02D135
:1013400019F0010FA4D1BA4617F8013D302BFAD09D
:10135000FEE4039BBB429BD13123039A01361370F9
:10136000F6E4219B002B7FF425AA014BFFF744BA3A
:10137000796006080000000051EC100BC1F30A531D
:101380002DE9F041A3F2FF350C460646132D32DC61
:10139000002D20DB384B0F4643FA05F801EA08031D
:1013A00003432DD032A3D3E9002311F025F8002206
:1013B000002311F067FC40B1002C03DA4FF48013D6
:1013C0002B411F4427EA080400262346324643ECFB
:1013D000102BBDE8F08126A3D3E9002311F00CF80F
:1013E0000022002311F04EFC0028EED0002C2ADB56
:1013F00000263446E9E7332D06DDB5F5806F1BD0B6
:1014000041EC100BBDE8F081A3F213434FF0FF371E
:10141000DF400742F4D016A3D3E9002310F0ECFF1D
:101420000022002311F02EFC0028CED0002C3346E1
:1014300010DB23EA0706C8E702460B4610F0DCFF84
:1014400041EC100BDEE724F0004426430DD14FF0B1
:101450000044BAE7142D06D0C5F134050122AA4094
:101460001344B342E5D20134E3E70026034CACE772
:101470009C7500883CE4377EFFFF0F000000F0BF42
:101480000348044B834202D0034B03B11847704713
:10149000146905201469052000000000064B074967
:1014A000C91A891048BF0131491003D0044B0BB150
:1014B00001481847704700BF1469052014690520CA
:1014C0000000000010B5064C237843B9FFF7D8FFA1
:1014D000044B13B10448AFF300800123237010BD07
:1014E00068290320000000009062060808B5054B3B
:1014F0001BB105490548AFF30080BDE80840FFF780
:10150000CDBF00BF00000000401D03209062060810
:10151000A3F5803A704700BF174B002B08BF134B51
:101520009D46FFF7F5FF00218B460F461348144AEE
:10153000121A16F059FE0E4B002B00D098470D4B97
:10154000002B00D098470020002104000D000D481A
:10155000002802D00C48AFF3008012F0E3FD200019
:10156000290014F0D0FC12F051F800BF0000080070
:10157000000000000000000000100020001000200B
:10158000CC660520000000000000000010B50446F5
:1015900017F09AFB4FF47A729042B0FBF2F105D249
:1015A0003621BDE810400C4814F0C9B80B4BB3FB12
:1015B000F1F30B49884201D93C21F2E702FB04F028
:1015C000B0FBF3F0022806D9BDE810400323B0FBBE
:1015D000F3F0FEF7F5BD10BD788F010840420F0013
:1015E000E7CD9A3B70B517F0ADFC144E0546347844
:1015F000FCB9134B1C60134B1C60134B1C6000F0B8
:1016000047F8012017F0FDFB17F0FEF90F4B0246DB
:10161000186020B9284617F090FC232070BD23469F
:1016200040F2E7310A4811F0FFFB0A4B1860012332
:101630003370284617F081FC0020EFE76B29032068
:10164000601D03205C1D0320681D0320641D032012
:1016500018FCFFFF581D032000B58DB001238DF845
:101660000F3017F013F900230146CDE90033074A84
:101670000DF10F0304A817F09CFB18B99DF80F306B
:10168000002BFBD10DB05DF804FB00BFAD8D010850
:1016900010B586B000241422214601A88DF8004020
:1016A00016F0A2FD012313488DF8043017F0D1FB8A
:1016B000BFF34F8F684600F09BFE204601A98DF8CE
:1016C000044000F0A7FE20460F2117F083FA0F21F7
:1016D000204617F08DFA00F071FE17F051FA064B14
:1016E00053209C6100F064F8532000F02FF806B0FE
:1016F00010BD00BF2091010800C00A500346054AF2
:101700000549106803448B428CBF4FF0FF301360D3
:10171000704700BFD06605200000082010B50446C1
:1017200017F007FC024B1C6017F0FEFB002010BDF9
:101730006C1D032010B517F0FCFB034B1C6817F061
:10174000F3FB204610BD00BF6C1D032010B55D28C3
:10175000044608D801236109074A04F01F04A34086
:1017600042F8213010BD4FF49871044813F0E7FFA0
:10177000002CF7DBEEE700BF00E100E03890010845
:1017800010B55C28044604D940F23B11064813F01A
:10179000D6FF064B621153F8220004F01F04E0400C
:1017A000C04300F0010010BD3890010800E100E0E6
:1017B000002808DB01224309034900F01F00824092
:1017C000603341F82320704700E100E038B500F1B4
:1017D00010036D2B04460D4604D94FF4EF710E48EB
:1017E00013F0ADFF0F2D04D940F2DF110A4813F0BA
:1017F000A6FF60B20028ACBF00F16040074B4FEA83
:101800000515EDB2ABBF00F5614000F00F0080F8A8
:1018100000531D5438BD00BF3890010814ED00E09E
:1018200010B517F08FFB0A4B1A786AB901226FF0D6
:1018300004041A7017F081FB204605210134FFF7DC
:10184000C5FF5D2CF8D110BDBDE8104017F075BB89
:101850006C29032007B5094B18689A889B7900907A
:101860006846ADF804208DF8063002F033F90C20FC
:1018700002F068F9002003B05DF804FB489101080C
:1018800013B50024064A6846536F43F001035367BB
:1018900000948DF8044002F051F8204602B010BDCB
:1018A0000040005030B58BB0914817F0D2FA20B10B
:1018B00040F236318F4813F042FF6C468E4D0FCD0B
:1018C0000FC42B688D4A2360FF238DF80130D2F8B6
:1018D0004C3113F4802340F0FE80D2F850218DF873
:1018E00001309DF801306C46FF2B08BF3F2368464E
:1018F000834D8DF8013001F049FD322001F0A8FD43
:101900000FCD0FC40FCD0FC495E8030084E803008A
:101910007A4BD3F84C21120340F1C180A3F5FE436A
:101920001C88B4F5807F28BF8C248DF8194001F005
:1019300027FD044484F3080472488DF8184006F02B
:101940003FFB684601F00AFC322001F087FD6E483B
:1019500001F0AAFE6D4801F035FF6D4817F079FAE5
:1019600020B140F2CB11634813F0E9FE694C00202E
:1019700001F07AFD01F04EFE236F002023F00703F3
:1019800043F00303236701F06FFE236F624923F4E2
:1019900074432367614BD3F8FC2012F0807240F04F
:1019A0008280D4F8803023F0030343F00103C4F8AD
:1019B0008030C1F88020574CD4F8203123F0070341
:1019C00043F00203C4F82031D4F8283123F0070390
:1019D00043F00203C4F82831D4F8803123F0030324
:1019E00043F00103C4F88031D4F8403123F00303FD
:1019F00043F00203C4F84031D4F8603123F003030C
:101A000043F00203C4F86031D4F8403223F00303FA
:101A100043F00203C4F84032D4F8003223F0070345
:101A200043F00203C4F80032D4F8083223F007036D
:101A300043F00203C4F80832D4F8503223F0030311
:101A400043F00203C4F85032D4F8703223F0030399
:101A500043F00103C4F87032D4F8203223F00703B6
:101A600043F00103C4F8203201F060FB4FF0E022A4
:101A70000020136943F004031361D4F8603223F0AB
:101A8000070343F00103C4F86032D4F8943223F022
:101A9000070343F00103C4F894320BB030BDD3F810
:101AA0005041E4B241E7D3F8FC2022F08072C3F841
:101AB000FC20D4F8802022F0030242F00102C4F896
:101AC00080200022C1F88020D3F8FC2042F08072F0
:101AD000C3F8FC206FE74FF07E6393F89C2093F9E6
:101AE0009C30002BFFF6FDAE8DF80120F9E600BF1B
:101AF0002091010810920108889201080080E00FEF
:101B00009C920108C017530200B4C404C0EA21012A
:101B100024910108008000500090005000ED00E08A
:101B200038B50E4B044698420D460FD00C4B9842E8
:101B30000CD003F58043984208D003F580439842C7
:101B400004D040F2D241074813F0F9FD6368DB0787
:101B500002D5636D2B42F9D138BD00BF0000015B97
:101B600000C00850C492010810B50F4B04469842BB
:101B70000FD00E4B98420CD003F58043984208D00A
:101B800003F58043984204D040F2E341084813F043
:101B9000D6FD204640F6FF71FFF7C2FF012304F592
:101BA0008054636010BD00BF0000015B00C008509E
:101BB000C492010810B50D4B044698420FD00C4B4F
:101BC00098420CD003F58043984208D003F5804337
:101BD000984204D040F2F541064813F0B0FD636826
:101BE000012B04BF04F50054636010BD0000015BCD
:101BF00000C00850C492010810B50C4B044698422E
:101C00000FD00B4B98420CD003F58043984208D07C
:101C100003F58043984204D040F21151054813F077
:101C20008EFD63689B07FCD410BD00BF0000015B04
:101C300000C00850C492010810B50F4B04469842EA
:101C40000FD00E4B98420CD003F58043984208D039
:101C500003F58043984204D040F23551084813F010
:101C60006EFD204640F6FF71FFF75AFF022304F590
:101C70008054A36310BD00BF0000015B00C008508A
:101C8000C492010810B50F4B044698420FD00E4B7A
:101C900098420CD003F58043984208D003F5804366
:101CA000984204D040F25751084813F048FD2046AE
:101CB00040F6FF71FFF734FF082304F58054A36357
:101CC00010BD00BF0000015B00C00850C4920108B5
:101CD00010B5114B044698420FD0104B98420CD0CF
:101CE00003F58043984208D003F58043984204D01E
:101CF00040F2AA510A4813F022FDA36CDA0704D57A
:101D000040F2AD51064813F01AFDA36C1B0600D437
:101D100010BDE36BF9E700BF0000015B00C0085095
:101D2000C492010810B5124B044698420FD0114BD3
:101D300098420CD003F58043984208D003F58043C5
:101D4000984204D040F2C6510B4813F0F8FCA36C43
:101D50009A0704D540F2C951074813F0F0FC4FF43C
:101D6000807204F580539A63A36C9B01FCD410BD70
:101D70000000015B00C00850C492010810B5294B57
:101D8000044698420ED0284B98420BD003F580436E
:101D9000984207D003F58043984203D0F4212348AA
:101DA00013F0CDFC2046FFF76DFF2046FFF744FF00
:101DB00050212046FFF7B4FE2046FFF7FBFE2046E9
:101DC000FFF71AFF2046FFF783FF2046FFF7AAFF21
:101DD000042304F5805204F5005113610B61136173
:101DE0000B6113610B6113610B61202341F202024D
:101DF00023610023E360A36062614FF4A02262626A
:101E00000B4AE3612362A361A365A362E362636398
:101E10002365CA642363636DC3F30B03002BFAD0FD
:101E200010BD00BF0000015B00C0085020930108F6
:101E3000FF3F0D032DE9F04104460E461746984634
:101E4000FFF79CFF6369B27923F44C5323F00F032F
:101E500043EA02237279F0681343F27943EA0233CA
:101E60006361A368327923F0804323F0E20343EAFD
:101E70004213727A43EA4203327A43EA8273A360DE
:101E80003268804B03EAC2032363002800F083809A
:101E9000457903796D04A26845EA83557A4B13406E
:101EA0001D43037B45EA4335037845EA830583797F
:101EB00045EAC305C37945EA0315437845EA832516
:101EC000A560C37B827B1B04E16843EAC2636F4A5F
:101ED0000A40134382786E4943EA8223C27843EA78
:101EE0004223E360C37A04F58052012B1CD1042302
:101EF000D3608C4200F09780664B9C4200F0958046
:101F000003F580439C4200F0928003F580439C429D
:101F10000CBF03234FF0FF335B0103F1A04342F2F8
:101F2000944103F570331AE0032B72D10423D3607C
:101F30008C4272D0574B9C4271D003F580439C4237
:101F40006FD003F580439C420CBF03234FF0FF3357
:101F500041F294415B0103F1A04303F57033022584
:101F60005D50837A936213B14FF40063D360037AB8
:101F700053B14FF40043D360454B9C4259D1742276
:101F80000021407A00F0D0F9F368626A5B7B22F0AE
:101F90000302134363622FB17B7804F58051012B58
:101FA0005CD10B62B8F1000F31D0737A04F5805127
:101FB00013B14FF400438B65354B98F801009C42F8
:101FC00098F8023057D0334A944256D002F58042F6
:101FD000944254D002F5804294420CD10322092845
:101FE00034BF012602262C4D082BAE5494BF012687
:101FF00002262A4DAE54A26D1B0222F4F95243EA86
:10200000400322F01E021343A36501238B65BDE844
:10201000F081023B012B8BD96BE7002398E701236A
:1020200096E7022394E7002376E7012374E702236F
:1020300072E7184B9C4201D18022A1E7184B9C42C9
:1020400001D18C229CE7174B9C4201D1982297E743
:1020500040F26B31144813F072FB95E73B78E2696C
:10206000B878DB0043EA400322F00F02134343F049
:102070000103CB6196E70022B1E70122AFE702221C
:10208000ADE700BFF8FF7F00E39BBDFFFFF9F087DE
:102090000000015B00C00850712903206D29032056
:1020A00000000950004009502093010870B5174BFB
:1020B000044698420D460ED0154B98420BD003F5BE
:1020C0008043984207D003F58043984203D06E21A5
:1020D000104813F034FB1DB970210E4813F02FFB8C
:1020E0002B79042B03D174210A4813F028FB6B7958
:1020F000032B03D97721074813F021FB002329463E
:102100002046BDE870401A46FFF794BE0000015B10
:1021100000C008502093010870B5044616460D46CD
:1021200021B94FF424712C4813F009FB042E4BD82D
:10213000DFE806F0031F29353F00B5EB141F04D973
:102140004FF48C61244813F0FAFA10236B436401B6
:10215000B4FBF3F4214B203CB3EBC40F4FEAC405AE
:1021600004D240F299211C4813F0E9FAC5F3D300D8
:1021700070BDB5EBD40F04D940F26541164813F099
:10218000DEFA0823E2E70623B4FBF3F39D4204D909
:1021900040F26A41104813F0D2FA0623D6E7B5EBB5
:1021A000940F04D940F26F410B4813F0C8FA04238E
:1021B000CCE705EB45039C4204D240F2744106484B
:1021C00013F0BDFA0123C1E740F27A41024813F04F
:1021D000B6FA0023BAE700BF20930108F8FF7F009A
:1021E00010B5044620B940F23A21124813F0A7FA7C
:1021F00023782BB1012B17D0022B18D0032B05D13C
:1022000040F2FF736278D340DB0704D440F23D21F3
:10221000084813F094FA0122637821789A40302319
:102220005943054B5A5010BD40F2FF13EAE743F6FD
:10223000FF73E7E77C93010840E00350034BD3F8BA
:102240002424D3F820041040704700BF00C003507E
:102250002DE9F041037804460D4616462BB1012BBB
:1022600021D0022B22D0032B05D140F2FF736278DC
:10227000D340DB0703D45D21284813F060FA284BD4
:10228000D3F810331BB16021244813F058FA0F2DF6
:102290000FD8DFE805F03A35353535353535353584
:1022A00035353535353540F2FF13E0E743F6FF733A
:1022B000DDE7B421194813F042FA4FF00008204638
:1022C00006B316F02FFC0F2167782378072F03EB56
:1022D000430388BF083F4FEA0313124895BFBF006E
:1022E000BF0004330C3308FA07F2B940184412F067
:1022F00088FE85B9204656B1BDE8F04116F012BC03
:10230000A846DCE7FFF76CFFDDE7A846DBE7BDE8A2
:10231000F041FFF765BFBDE8F08100BFD69301082B
:1023200000C0035030C0035070B5B2F5805F054661
:102330000E46144612D394210E4813F000FA24F0EE
:10234000030404F1A04404F5603456B90F2D03D9F9
:102350009C21084813F0F3F9256001E0002AEED132
:1023600070BD032D03D9A021024813F0E8F92D0216
:10237000F2E700BF30940108054B9A689107FCD43E
:102380005A689207F9D4DA69002AF6D1704700BF7B
:1023900000C00A5010B5074C6368DB0704D44FF443
:1023A0009371054813F0CBF916F0EAFB0223236181
:1023B00010BD00BF00C00A508994010808B5FFF79E
:1023C000DBFF0122024B03F580514A601A6108BD10
:1023D00000C00A5010B5044B5C68012C03D1FFF714
:1023E000D9FF024B5C6010BD00C00A5000E00A50EB
:1023F00038B5074DFFF7C0FF6B680446012B03D1CA
:10240000FFF7E8FFFFF7B8FF2378EB6038BD00BFA8
:1024100000C00A5038B505460C4616F0BBFBBDB9E6
:102420006268237812B1127843EAC203627843EA01
:102430004203A26812B1127843EA8213E27843EAB7
:102440008203226912B1127843EA4223014A93645B
:1024500038BD00BF00C00A50044BD3F88420D20618
:10246000FBD4D3F88400C0F38110704700400050C3
:1024700038B5104B0546D3F800310C4603F0030382
:10248000022B0BD0032B0DD0012B0FD116F036FCF5
:10249000032305B1286004B1236038BD16F080FC29
:1024A0000923F6E716F030FC0823F2E701230020A9
:1024B000EFE700BF0080005038B5104B0546D3F859
:1024C00040310C4603F00303022B0BD0032B0DD03D
:1024D000012B0FD116F03CFD0A2305B1286004B191
:1024E000236038BD16F05CFC0923F6E716F033FDD7
:1024F0000C23F2E701230020EFE700BF008000502B
:1025000038B5104B0546D3F860310C4603F0030391
:10251000022B0BD0032B0DD0012B0FD116F018FD81
:102520000A2305B1286004B1236038BD16F038FCD9
:102530000923F6E716F00FFD0C23F2E70123002034
:10254000EFE700BF0080005038B5104B0546D3F8C8
:1025500040320C4603F00303022B0BD0032B0DD0AB
:10256000012B0FD116F0F4FC0A2305B1286004B149
:10257000236038BD16F014FC0923F6E716F0EBFCD7
:102580000C23F2E701230020EFE700BF008000509A
:1025900038B5124B0546D3F880300C4603F00303E0
:1025A000022B0BD0032B0DD0012B0FD116F06CFB9F
:1025B0000E2305B1286004B1236038BD16F0A8FBD6
:1025C0000723F6E716F05AFB0623F2E7044841F228
:1025D000142113F0B4F800231846EAE700800050F5
:1025E0004195010838B51A4B0546D3F820010C4631
:1025F00000F00700062821D8DFE800F028040C14BA
:1026000010181C0016F03AFB052305B1286004B130
:10261000236038BD16F072FB0323F6E716F078FB53
:102620000723F2E716F066FB0223EEE716F026FB1F
:102630000623EAE716F062FB0423E6E7054841F2C9
:10264000912113F07CF800231846DEE70123DCE734
:10265000008000504195010838B5194B0546D3F864
:1026600028310C4603F00703013B052B20D8DFE897
:1026700003F003131B0F0B1716F000FB052305B126
:10268000286004B1236038BD16F0F8FA0623F6E797
:1026900016F03EFB0723F2E716F030FB0323EEE7CC
:1026A00016F02CFB0423EAE716F024FB0223E6E7EE
:1026B000044841F2990113F042F800231846DEE77E
:1026C000008000504195010837B500230193194B54
:1026D0000546D3F820320C4603F00703042B1FD81D
:1026E000DFE803F025030F141900002101A8FFF70C
:1026F000B3FF12230DB1019A2A6004B1236003B025
:1027000030BD16F005FB07230190F3E716F020FC1F
:102710000A230190EEE716F043FB09230190E9E755
:1027200041F25601044813F00AF80023E2E70123BE
:10273000E0E700BF0080005041950108F7B5002791
:10274000144B0197D3F88041064604F00304022C91
:102750000D4614D0032C0DD0012C14D1394601A8FC
:10276000FFF740FF10240EB1019B336005B12C60D0
:1027700003B0F0BD16F0CCFA07240190F3E716F091
:10278000B9FA0190EFE741F2E631034812F0D7FFC2
:102790003C46E8E7008000504195010838B5164BEB
:1027A0000546D3F800020C4600F00700042819D8AB
:1027B000DFE800F020030B0F130016F0C9FB0A231B
:1027C00005B1286004B1236038BD16F0E9FA092389
:1027D000F6E716F0C0FB0C23F2E716F075FA0F23AC
:1027E000800AEDE7054841F2A44112F0A8FF00235A
:1027F0001846E5E70123E3E7008000504195010812
:1028000038B5164B0546D3F808020C4600F0070011
:10281000042819D8DFE800F020030B0F130016F08E
:1028200097FB0A2305B1286004B1236038BD16F078
:10283000B7FA0923F6E716F08EFB0C23F2E716F041
:1028400043FA0F23800AEDE7054841F2DC4112F01C
:1028500076FF00231846E5E70123E3E700800050F8
:102860004195010838B5124B0546D3F850320C4655
:1028700003F00303022B0FD0032B05D0012B0FD144
:1028800016F066FB0A2302E016F065FB0C2305B187
:10289000286004B1236038BD16F082FA0923F6E7F8
:1028A000044841F2C90112F04AFF00231846EEE73E
:1028B000008000504195010837B500230193184B63
:1028C0000546D3F860320C4603F00703013B032BA7
:1028D0001FD8DFE803F0020E1914002101A8FFF74A
:1028E00081FE10230DB1019A2A6004B1236003B068
:1028F00030BD002101A8FFF7DFFD1123F2E716F03C
:1029000007FA07230190EDE716F0F4F9022301908E
:10291000E8E741F2FD01034812F011FF0023E1E76F
:10292000008000504195010837B500230193184BF2
:102930000546D3F894320C4603F00703013B032B02
:102940001FD8DFE803F0020E1914002101A8FFF7D9
:1029500049FE10230DB1019A2A6004B1236003B02F
:1029600030BD002101A8FFF7A7FD1123F2E716F003
:10297000CFF907230190EDE716F0BCF9022301908F
:10298000E8E741F23011034812F0D9FE0023E1E7F5
:10299000008000504195010873B500240F4B01944D
:1029A000D3F87032064603F00303012B0D4607D01F
:1029B000022B11D041F25B11094812F0C0FE04E075
:1029C000214601A8FFF778FD11240EB1019B336069
:1029D00005B12C6002B070BD1524F6E700800050F0
:1029E0004195010808B5334B98424FD027D8324B58
:1029F000984245D017D8314B98423ED00AD838B1CA
:102A00002F4B984239D041F2BB312E4812F097FE3D
:102A1000002034E02C4B98422FD02C4B9842F2D11E
:102A20002B4B586E2BE02B4B98422CD003F53713D1
:102A300003F5D8639842E6D1254B986F1FE0264BEB
:102A400098422FD00CD8254B984223D0244B984243
:102A500024D0244B9842D6D11D4BD3F884000EE0ED
:102A6000214B984222D003F5740303F5105398428A
:102A7000C9D1174BD3F8980001E0154B986D08BDEC
:102A8000134B186FFBE7124B586FF8E7104BD3F856
:102A90008000F4E70E4BD3F88800F0E70C4BD3F836
:102AA0008C00ECE70A4BD3F89000E8E7084BD3F82A
:102AB0009400E4E780BA8C01405DC60080841E006B
:102AC00040420F004195010800093D00C0CF6A0057
:102AD0000080E00F0024F400007E560380D54302FE
:102AE000006CDC020048E8010090D00310B5B0F59E
:102AF000207F2ED009D8B0F5007F24D003D868B14C
:102B0000B0F5C07F0AD000241BE0B0F5607FFAD199
:102B1000124BD3F88040C4F3011412E00F4B1C6F2A
:102B2000230B13F00E0FC4F303340AD0072C08D084
:102B30000F2C06D0032C04D04FF42271084812F059
:102B4000FEFD601C10BD054BD3F89040C4F3046437
:102B5000F7E7024B1C6FC4F38024F2E700800050BB
:102B60004195010838B54FF48032104B04469A66FF
:102B700000200D46FFF7BAFF41F671320C4B60435F
:102B8000DC69DA635A6804F4803422F440125DB9D7
:102B90000849884294BF00200120000502435A6082
:102BA0000CB10022DA6338BD0349F2E7009000500F
:102BB00000000350005A6202002D310138B542096D
:102BC00004460D4606D140F235310D4812F0B7FDEE
:102BD000002305E0531E022B0BD80A4B03EB8203A4
:102BE00004F01F0445B103F580530122A2401A608E
:102BF00038BD40F24331E8E703F50053F5E700BF85
:102C0000419501086080005030B585B00021B0F5D5
:102C1000807F0446CDE9001100F009816BD80028BF
:102C200000F0D980A0F12004602C74D8602C72D8F8
:102C3000DFE814F0D100DE00D100DE00EE00EE008F
:102C4000EE00EE00EE00DE00F8007D000E019D00BB
:102C50007D00DE00DE00DE00710071007100710099
:102C60007100710071007100DE00DE00DE00AF0057
:102C70001801DE00710071007100710071007100B7
:102C80007100710071007100710071001D01EE0092
:102C9000D100D100D10013017D007D00BB002201D5
:102CA0009200F30071007100710071007100C600A4
:102CB000D1007100EE00EE00EE00EE00EE00F30039
:102CC000F300DE007100DE00DE00710071007100B3
:102CD000710071007100710071007100710071006C
:102CE000710071007100710071007100710071005C
:102CF00071007100CB00B0F5E06F00F0B3803BD8FD
:102D0000B0F5607F7FD01DD8B0F5007F66D008D8C1
:102D1000B0F5C07F5FD040F2A4415C4812F00FFDD7
:102D200056E0B0F5207F63D0B0F5407FF3D115F0C9
:102D3000CBFF04464FF42070FFF7D8FEB4FBF0F44D
:102D400064085EE0B0F5B06F6CD00AD8B0F5806F63
:102D50005ED0B0F5A06FDED100216846FFF7B4FC6D
:102D600036E0B0F5C06F73D0B0F5D06FD3D100218D
:102D70006846FFF713FD2BE0B0F5186F77D00DD83C
:102D8000B0F5086F7DD0B0F5106F66D0B0F5F06F7C
:102D9000C1D100216846FFF7B3FB19E0B0F5286FF9
:102DA0006AD007D8B0F5206FB5D100216846FFF78B
:102DB00083FD0DE0B0F5406F2FD0B0F5486FAAD17C
:102DC00000216846FFF7B0FD02E015F05DFF0090BE
:102DD000009805B030BD15F077FFF8E715F054FF07
:102DE00005462046FFF782FEB5FBF0F50095EFE7BC
:102DF00015F06AFF04464FF42070FFF777FEB4FB2E
:102E0000F0F40094E4E701A8FFF7C2FB019DE8E7B6
:102E100000216846FFF7E6FBDAE700216846FFF786
:102E20001BFCD5E700216846FFF788FCD0E74FF090
:102E3000E02302911B695B0705D515F045FF029061
:102E4000029B0093C4E703A902A8FFF735FBF7E74D
:102E500000216846FFF730FBBAE700216846FFF71C
:102E6000CFFCB5E700216846FFF76EFBB0E7002115
:102E70006846FFF7F7FCABE700216846FFF78CFDDB
:102E8000A6E76846FFF7F4FAA2E700BF41950108FC
:102E900008B58020FFF7B8FE034B98429EBF4FF461
:102EA0008032024B1A6708BD005A620200A000502F
:102EB0001FB503460020B3F5807F019000F0FB8032
:102EC00000F28B80662B7BD83C2B05D8243B092B4A
:102ED0005CD940F28951DDE03D3B292BF9D801A2B4
:102EE00052F823F0D930000807310008D32E00082B
:102EF000D32E0008D32E0008D32E0008D32E0008AE
:102F0000D32E0008D32E0008D32E0008D32E00089D
:102F1000D32E0008D32E0008D32E0008D32E00088D
:102F200011310008AD300008D32E0008D32E000860
:102F3000D32E000843300008D32E0008D32E0008FB
:102F40005D3000081B31000805300008FD30000826
:102F5000D32E0008D32E0008D32E0008D32E00084D
:102F6000D32E000875300008D32E0008D32E000899
:102F7000AD300008AD300008AD300008AD300008BD
:102F8000AD300008FD300008FD300008092BA0D846
:102F900001A252F823F000BFAD300008AD300008A8
:102FA000AD300008AD300008AD300008D32E000869
:102FB0009D300008D32E000823300008E3300008BD
:102FC000802B86D1574B1B6F03F00703013B032B6C
:102FD0005ED8DFE803F05B545759B3F5F06F7BD050
:102FE00024D8B3F5B06F59D011D8B3F5607F00F095
:102FF0008180FFF46EAFB3F5806F57D0B3F5A06F4B
:103000007FF467AF002001A9FFF75EFB4AE0B3F54C
:10301000D06F66D0B3F5E06F75D0B3F5C06F7FF4B5
:1030200058AF002001A9FFF747FA3BE0B3F5186F4E
:103030006ED00BD8B3F5086F58D0B3F5106F7FF48E
:1030400048AF002001A9FFF7DBFB2BE0B3F5286FA9
:1030500063D008D8B3F5206F7FF43BAF002001A9FF
:10306000FFF72AFC1EE0B3F5406F47D0B3F5486F79
:103070007FF42FAF002001A9FFF756FC12E00523D3
:1030800001930FE00323FBE70823F9E70223F7E7A7
:1030900040F2D641244812F052FB03E0002001A97F
:1030A000FFF74CFB019805B05DF804FB002001A977
:1030B000FFF798FAF6E74FF0E02302901B695B07F1
:1030C00005D515F001FE0D230393039BD8E703A953
:1030D00002A8FFF7F1F9F8E7002001A9FFF710FABD
:1030E000E0E7002001A9FFF759FBDBE701A9FFF7A3
:1030F000BFF9D7E701A9FFF74BFAD3E7002001A9F1
:10310000FFF7AAFACEE7002001A9FFF71DFAC9E7E9
:10311000002001A9FFF7A6FBC4E7002001A9FFF7E3
:103120003BFCBFE700800050419501084FF480321E
:10313000074B0849586E03F580535A664B6A23F0D3
:1031400001034B62C3035CBF034B5A66704700BF69
:10315000008000500000085000A0005038B50368FF
:1031600004460F2B04D940F68A317C4812F0E7FA66
:1031700063680F2B04D940F68D31784812F0DFFADE
:10318000A3680F2B04D94FF43961744812F0D7FAB1
:10319000237B0F2B04D940F69331704812F0CFFAFD
:1031A000637B0F2B04D940F696316C4812F0C7FAB6
:1031B000A37B3F2B04D940F69931684812F0BFFA3F
:1031C000E37B3F2B04D940F69C31644812F0B7FAF8
:1031D0002369032B04D940F69F31604812F0AFFAFF
:1031E0006369032B04D940F6A2315C4812F0A7FAB8
:1031F000E369032B04D940F6A531584812F09FFA31
:103200008020FFF755FE032800F083804FF48012E2
:10321000534B4FF0A0615A6645F60E02514BC3F86E
:103220008020514A91624FF4803102F580529162C0
:103230009A6DD203FCD4996D11F08041FBD1D4E991
:103240000002120542EA0062E07B0243207B42EA70
:103250000042607B42EA0032A07B42EA80121A619F
:103260009869D4E90452120642EA856200F00040EF
:103270000243A07EE57E0243207E42EA0042607E59
:1032800042EA00229A611A6AE06922F00F0242EAD9
:103290008502364D00283DD11A6294F82420996A9F
:1032A00094F82000D200294042EA40120A4394F8E0
:1032B000211042EA011242F480329A622C49294AD2
:1032C000936D31EA0303FBD14FF080712648816290
:1032D0001369A56823F4700343EA055313614FF0A3
:1032E0000043836194F822300BB9224B996294F821
:1032F00023303BB94FF480321E4B9A62194A936DCA
:103300005B00FCD494F825301BB1164B1A4AC3F865
:10331000802038BD024342F0080202281A6208D118
:1033200019614FF40852996114484FF47F4111F02C
:1033300077FE0C4994F822308A6A94F820001B0624
:103340002A4043EA4013134394F8242043EAC2037B
:1033500094F8232043EA02438B62D3E741950108A6
:10336000009000500040005A0050005AC7FFFEFE77
:10337000030001000060005AF1A7FFFF3440005A2B
:10338000014B93F9000070470769052010B54368A9
:103390000446072B04D940F6E6512A4812F0CFF92B
:1033A000A368032B04D940F6E851264812F0C7F968
:1033B0002378032B04D940F6EA51224812F0BFF9D2
:1033C00094F90130002B04DA40F6EC511D4812F05C
:1033D000B6F94FF400011C4A637851664FF4D1519D
:1033E000022002F5B832516218494F2B48604FF065
:1033F000010028BF4F2301F5805148601169C903BE
:10340000FCD4217843EA01235361D4E901131B0161
:1034100043EA0123617B0B43217B43EA4103936031
:10342000E37BA17B1B0143EA4113617C0B43217CBD
:1034300043EA41035360A37C13B16FF4D153536249
:1034400010BD00BF419501080090005000100250CF
:10345000014B1880704700BF02690520014B18809E
:10346000704700BF0069052008B54FF48002184B73
:103470005A660223174A5360936813F48033FBD1D2
:10348000012822D115F03AFC134B984215D003F5D0
:10349000122303F5F863984213D0104B00EB80021F
:1034A000400AB3FBF0F3520A0A49CA620B630123D4
:1034B0004B620022074B5A6008BD45F67A13084A52
:1034C000F2E745F61A03074AEEE75362F1E700BF59
:1034D000009000500040025000F0490264666666A9
:1034E000D8B80500BBCF050038B5B0F5207F77D040
:1034F0000ED8B0F5007F61D003D890B3B0F5C07F8F
:103500002FD04FF44671BDE838403D4812F017B94E
:10351000B0F5607FF5D13B4A4C1ED2F8FC5015F057
:1035200080751EBFD2F8FC3023F08073C2F8FC30E7
:10353000032C04D940F2F721314812F000F9324A45
:10354000D2F8803023F0300343EA0413C2F880300D
:1035500035B12C4AD2F8FC3043F08073C2F8FC300D
:1035600038BD4C1E012C0AD9102903D8274BCB405B
:10357000DB0704D440F2CB21214812F0E0F811F02F
:103580005EFD11F06AFD4FF48031214B1E4A196730
:10359000136F23F4704343EA0433136715F094FB6D
:1035A0000446FEF759FFC0F10201204611F04FFD1D
:1035B00000F048F8BDE83840FFF76ABC4C1E1F2CED
:1035C00004D94FF443710E4812F0B9F80E4AD2F8FC
:1035D000903023F0F85343EA0463C2F89030BFE719
:1035E0004C1E012C04D940F21231054812F0A7F804
:1035F000054A136F23F4806343EA84231367AFE71C
:103600004195010800ED00E000800050100101002C
:103610000090005008B50121022000F099F94FF404
:103620002070FFF763FA054B187011F008FD11F0D8
:1036300014FD4FF48032024B1A6708BD7529032030
:103640000090005008B54FF4C070FFF7DDFABDE8F8
:1036500008400449884294BF012102214FF42070A0
:10366000FFF742BF80F0FA0238B5044615F02CFB94
:103670000546FEF7F1FEC0F10201284611F0E7FC15
:103680000121002000F0B8F92CB1FFF7DBFFBDE805
:103690003840FFF7FDBB034B4FF420701978FFF75C
:1036A00023FFF4E7752903202DE9F0410546FFF7D4
:1036B00099F9431E0333044604D940F6E2113B480E
:1036C00012F03DF84FF4C022394B5A6603F5983397
:1036D0005A68012A04D137494A605A689207FCD4D3
:1036E0008020FFF7E5FB052807D111F0A8FC11F0B9
:1036F000B4FC4FF480322E4B1A672F4B24F04074E9
:103700009D4239D02D4B9D4239D015F0B7FA8542F4
:10371000064603D90121284600F06EF9284FFB68C0
:1037200013F0060FFBD1D7F80880BC60BB6863407C
:1037300013F4F81F26D1284604F03CFC8020FFF744
:10374000B7FB052814D115F0BFFAA842044604D9E6
:1037500040F63B21154811F0F2FFFEF77DFEC0F167
:103760000201204611F073FCFFF76CFFFFF790FB9E
:10377000AE4213D2BDE8F08144F00074C5E744F0D6
:103780008074C2E740F62A21084811F0D8FF802053
:10379000C7F80880FFF78CFB052805D0BDE8F0418D
:1037A0000121002000F028B93546CCE741950108F9
:1037B0000090005000E0015040420F0080841E0045
:1037C0000000015070B54E4B0546984273D041D869
:1037D000A3F5B703A3F55863984265D033D8494B96
:1037E000494E984251D017D8002877D041F2DE11C7
:1037F000464811F0A4FF40F68671444811F09FFF3F
:103800004FF40022404B5A663E4B9D4276D0002436
:103810003F4A954236D05DE03D4B984227D03D4B24
:103820009842E3D13C4BD3F8A040621E033224F00F
:1038300040744CD940F68671344811F080FF4FF443
:1038400000237366E4E7354B9842CFD1324BD3F86F
:10385000BC402CE0324B984231D0324B984232D0AF
:10386000314B9842C2D12C4BD3F8C8401FE02A4BB1
:10387000D3F8A040621E033224F04074DAD84FF42B
:103880000023736644F0807424E0234BD3F8A040F7
:10389000621E033224F040742AD84FF4002373666A
:1038A000234643F0007415E01B4BD3F8B840621E6A
:1038B000154E0332BBE7184BD3F8C040F7E7164B61
:1038C000D3F8CC40F3E7144BD3F8D040EFE74FF4F4
:1038D000002373664FF0B442946070BD40F6867169
:1038E0000A4811F02CFF4FF400232C467366F1E7D1
:1038F00040F68671054811F022FFCEE70023D0E79D
:10390000C0EA210140420F0000900050419501089B
:1039100080841E0000093D000080E00F0024F400B8
:103920000048E801005A620280BA8C01024A536BD7
:103930000342FCD1704700BF00800950034A01795F
:10394000D36E23F030030B43D36670470040005022
:10395000F8B50446244BD3F88420D006FBD4D3F822
:103960008430C3F381139C423CD015F08DF9012CB7
:1039700005460BD11D4B984204D940F28F711C486B
:1039800011F0DDFE0121284611F061FB15F0D1FA9E
:103990004FF00072174B07465A66204611F062FB43
:1039A0004FF48063104E621E93403367736E9A012A
:1039B00003D4D6F884309B060AD5384615F0B4FAFD
:1039C000022C0FD12846BDE8F840002111F03FBB82
:1039D000D6F884309906E9D540F2A771044811F071
:1039E000AEFEE3E7F8BD00BF00400050005A62029F
:1039F000919501080060005010B50C4608B915F00B
:103A000043F9074B21461B783BB1064B984204D83B
:103A10000120BDE81040FFF79BBF0220F9E700BF7F
:103A200076290320005A620238B54FF00042244B39
:103A3000244C5A664AF6CD33656C014605F0010503
:103A4000236428BB0120FFF771FF6368DB0715D5EE
:103A50001D4B586008461D4B226BD2070CD4984270
:103A600008D1072415B1174B194A1A6411F0FBFA53
:103A7000204638BD0130EFE79842F2D00024F1E74C
:103A80000132236B13F0080305D08A42F8D1E8E72E
:103A900000220E49F5E78A42E3D020210A4A9162CA
:103AA0000121A2F5805251600649084A886A8006C1
:103AB00003D49342D5D00133F8E79342DDE700BF4A
:103AC000009000500080095000A0095040420F00B3
:103AD0003254FFFF38B54FF00042164B01465A668C
:103AE0004AF6CD33144C154A656C236443780B2099
:103AF0005B0043F00103D363FFF718FF63688A7824
:103B000023F4F87343EA02136360CA784B7943EAFB
:103B10000223A3600A798B7943EA022323610878A0
:103B2000FFF782FFEB0744BF054B236411F09BFABC
:103B3000012038BD00900050008009500040005026
:103B40003254FFFF70B50F28044605D940F668616E
:103B5000124811F0F4FD0F244FF00042104B1149B0
:103B60005D6E03F580535A664AF6CD334E6C802065
:103B70000B64FFF7DBFE0B6A23F00F0323430B629A
:103B8000F30744BF084B0B64002DA2BF4FF0004267
:103B9000064B5A6611F067FA70BD00BF9195010897
:103BA00000800050008009503254FFFF00A00050F8
:103BB00008B50E4B984211D00D4B984210D003F52A
:103BC000804398420ED003F5804398420CD00948B8
:103BD00040F2793111F0B3FD002008BD5620FCE71A
:103BE0005720FAE76520F8E76620F6E70000015B5A
:103BF00000C00850E195010810B511F039FA04230E
:103C000000F5805100F500520B6113610B611361E7
:103C10000B6113610B611361202341F20201036107
:103C20000023C360836041614FF4A02183618365F9
:103C300041620549C36103628362C36243630365F2
:103C4000D164036310BD00BFFF3F0D0338B51B4BAC
:103C5000044698420D460FD0194B98420CD003F5FC
:103C60008043984208D003F58043984204D040F244
:103C70006911144811F063FD25B92046BDE83840AC
:103C800011F0F6B9012204F580535A6040F6FF7135
:103C9000204605F00F0211F0E7F9A263782111F038
:103CA000E3F905F001036A0748BF43F00203A26C81
:103CB00002F003029A42FAD138BD00BF0000015B56
:103CC00000C00850E1950108F8B505460C461646B7
:103CD00022B940F227216A4811F031FD694B9D421B
:103CE0000FD0694B9D420CD003F580439D4208D014
:103CF00003F580439D4204D040F22A21604811F030
:103D00001EFD2CB92846FFF753FFFEF77DFF044642
:103D1000AB68D80741D5B44204D24FF40D7158486E
:103D200011F00DFDB4FBF6F46F68013CFF2C07F0B9
:103D3000010704D94FF40F71514811F000FD24061A
:103D40002FB92B6923F07F4323432B61F8BD282132
:103D5000284611F089F9AB6C990718D1AB6CDA07DA
:103D600017D4AE6C16F0020615D140F24921444832
:103D700011F0E5FC284611F07BF92B69314623F060
:103D80007F4323432B61BDE8F840FFF75FBF052663
:103D9000F0E70926EEE70626ECE76B68012B04D076
:103DA0004FF41771364811F0CAFCAB6DDB07AB68F6
:103DB00048BF760003F0E003402B42D009D893B10E
:103DC000202B1AD040F29E21BDE8F8402C4811F07B
:103DD000B6BC602B42D0802BF4D106EB4603A34245
:103DE00047D801230DE0B6EB141F04D94FF421711D
:103DF000234811F0A4FC102303E0B6EBD40F1AD82B
:103E0000082373436401B4FBF3F4204F203CB7EB69
:103E1000C40F4FEAC40604D240F2A921184811F099
:103E20008EFC28463E40012111F01EF92E63BDE8AC
:103E3000F84011F019B940F28921114811F07FFCC6
:103E4000DEE70623B4FBF3F3B34201D30623D8E73E
:103E500040F28E210A4811F072FCF7E7B6EB940F9E
:103E600001D80423CDE740F29321054811F067FC07
:103E7000F7E74FF42671024811F061FCB1E700BF8B
:103E8000E19501080000015B00C00850F8FF7F00C9
:103E9000F8B5974B044698420E460ED0954B984283
:103EA0000BD003F58043984207D003F58043984236
:103EB00003D0E221904811F042FC1EB9E4218E4863
:103EC00011F03DFC727BB3687AB18C4A934203D9FE
:103ED000E621894811F033FC3369D3B1DB7BC3B1F0
:103EE000E921854811F02BFC13E0854A934203D960
:103EF000EC21814811F023FC336953B11A7F42B1A0
:103F0000B168804A5B7F914240F28380042B00F2CB
:103F100083806368356923B140F6FF71204611F054
:103F2000A3F82046FFF768FE2269737BB17B22F07D
:103F300087020B43134343F080032361002D6DD0B0
:103F40002369297F23F0F80343EAC1132978EA7B28
:103F50000B43297943EA4113697A43EA011343EA9F
:103F600082132361E068D5E9053720F0F0403B4338
:103F700020F470200343287B697B43EA802343EAD3
:103F8000C133E360A368F07B23F00303034343F0F2
:103F90000103A3606B88A06803F4C0430343A360DC
:103FA000A368687943EA8023A360AB79EF79606AFC
:103FB0001B013F0203F0700307F4E06720F4772051
:103FC00020F4EE603B430343287A000300F4E04012
:103FD0000343687F000400F4702003436362636955
:103FE000307B23F00F03034363616B89A3610029D6
:103FF00039D10AB33E4B9C423FD03E4B9C424DD000
:1040000003F580439C425AD003F580439C4268D01C
:1040100012E0042B3FF67DAFF32162E7A368F27B49
:1040200023F00303134343F00103A3606369327B6E
:1040300023F00F0313436361D6E901122046FFF713
:1040400043FE05212046FFF701FE2821204611F0FE
:104050000BF83378A36311F007F8A36CDB4313F478
:10406000405FFAD1F8BD224B9C420CD1AB7B264974
:1040700003F00F034B67002ADED02B7C224A03F0AB
:104080000F031367D8E71B4B9C420DD1AB7B1E4936
:1040900003F00F03C1F88030002ACDD02B7C1A4AE0
:1040A00003F00F03D367C7E7184B9C420ED1AB7BDD
:1040B000154903F00F03C1F88C30002ABCD02B7CCB
:1040C000114A03F00F03C2F88830B5E7104B9C4249
:1040D000B2D1AB7B0C4903F00F03C1F89830002A32
:1040E000AAD02B7C084A03F00F03C2F89430A3E750
:1040F0000000015B00C00850E1950108002D31016E
:10410000809698003F4B4C000090035000000950EF
:104110000040095038B5032804460D4605D8094B20
:1041200033F81030CB40DB0704D440F28541064819
:1041300011F005FB302301225C43044BAA401A51C5
:1041400038BD00BFD69601083496010840D0035010
:1041500038B5032804460D4605D8094B33F810300E
:10416000CB40DB0704D440F25641064811F0E7FA91
:10417000302301225C43044BAA401A5138BD00BFD2
:10418000D69601083496010840E003502DE9F0412D
:10419000032804460D461746984605D81D4B33F8AC
:1041A0001030CB40DB0704D44FF4B0711A4811F043
:1041B000C6FA37B129462046B8F1000F20D0FFF7E4
:1041C000A9FF0F21072D04EB440688BFA5F10803C2
:1041D0004FEA0616114895BFAB009B0004360C361B
:1041E00007FA03F29940304410F066FF7FB9294680
:1041F0002046B8F1000F06D0BDE8F041FFF78ABFB6
:10420000FFF7A6FFDDE7BDE8F041FFF7A1BFBDE87E
:10421000F08100BFD69601088596010830C0035092
:10422000F8B506460F461546002A6FD003F0030482
:10423000836823F44073836014F07BFEB26882EAE3
:10424000042303F440735340B36014F06DFE37B998
:10425000B6F1B64F0DD12E20FEF7D6FC0746B36857
:104260009A071CD5012C20D0022C2CD08CB9294BBC
:104270001CE0294B9E4201D12F20EDE7274B9E42A7
:1042800001D16920E8E740F22F11254811F057FAD3
:10429000B3684FF4B271224811F051FA08E0012CD2
:1042A00013D0022CE2D11F4B00E01F4B9F42F0D9EC
:1042B0001E4B1B5D6B430AD140F27511BDE8F840FF
:1042C000174811F03CBA1A4BF0E71A4BEEE7A3EB94
:1042D000C504013C3C44B4FBF3F4013C0CD540F272
:1042E0007B110F4811F02BFA4FF4BE710C4811F0FE
:1042F00026FAB368B461F8BDB4F5007FF4D2B368B0
:104300009B07F7D5002C08BF0124F3E740F21511F5
:10431000D4E700BF80841E0000000B5000400B500B
:10432000DE960108002D3101404B4C002E9701080C
:10433000809FD5004054890038B5B0F1B64F04468F
:104340000D460FD00C4B98420CD003F58043984299
:1043500008D003F58043984204D040F295110748F5
:1043600011F0EDF9043425B104F5805401232360E4
:1043700038BD04F50054F9E700000B50DE96010843
:1043800038B5B0F1B64F04460D460FD0164B9842E3
:104390000CD003F58043984208D003F5804398423F
:1043A00004D04FF4D571114811F0C9F90023104A17
:1043B000236404F50053DA636A7804F108037AB9D8
:1043C00003F5805302221A602046D5E901122B7BA7
:1043D000FFF726FF20462978BDE83840FFF7ACBF3D
:1043E00003F50053EEE700BF00000B50DE96010816
:1043F000FFFF1F0070B5B0F1B64F12D0884B984246
:1044000025D003F58043984223D003F5804398429A
:1044100021D0844840F2012111F091F96FF003009E
:1044200070BD814B9968C26B12F4C06F19D09105B1
:1044300013D5FD225A7009221A700022026493F9E2
:104440000110012900D15A7093F90100E8E7774B78
:10445000E8E7774BE6E7774BE4E75605EBD5FE2236
:10446000E8E71C78082C00F2D680DFE814F0090099
:104470001F004500530070007E009C00A700CB0089
:104480004C880A88E5060AD5120A02F0060242F0B4
:10449000F002012119704263C1600120C0E702F0FF
:1044A000FE02A10748BF42F00102F2E7160608D556
:1044B000802100F50052D1634FF608721A80022362
:1044C00018E05506E9D5402400F50052D4634A8827
:1044D000D40604D502221A700B784363DDE79607F1
:1044E0006AD507221A701B7901EBC3031B89012BC4
:1044F000D3D10823C360D0E71506D9D45406CCD550
:10450000402400F50052D4634A88920754D5032210
:104510001A7088E74C880A88E60643BF120A02F040
:10452000060242F0F00202F0FE02650709D51C798E
:1045300042F0010201EBC4010989012904BF0821ED
:10454000C160042119700123C3604263A5E714060A
:10455000AED45206A1D5402400F50052D4634A8857
:10456000560729D507221A7097E71A795D8801EB5B
:10457000C2042689AE420FD800240132D2B21A7189
:104580005C804C886507C2D4E40702D4012A7FF618
:104590004AAF08221A7092E76268691C5980525D1E
:1045A00042630622DFE7160682D455067FF575AF13
:1045B000402400F50052D4630522A9E794067FF554
:1045C0006CAF20261A7900F5005401EBC2010A896C
:1045D000456AE6635C88A24281BF4968661C5E80CA
:1045E0000D5559888A42D4D90424012AC46004D0C4
:1045F000013A914201D10822C2601A78092A3FF497
:104600001CAF4AE7D2057FF548AF4FF4807100F543
:104610000052D1630FE74FF609321A800DE700BF51
:1046200000000B50DE960108701D03207C1D032046
:10463000881D0320941D032038B5B0F1B64F044601
:104640000D4630D121B940F26A31314811F077F886
:10465000304B2269D00744BF2022E2606A8891076C
:1046600002D52989002934D0520701D52A8A82B37C
:104670004FF480721A6000229D601A71C023E360BB
:104680006369DB0541D4202204F50053DA63224A32
:104690002046DA634FF4FC6204F580531A64BDE8E7
:1046A0003840FFF7A7BE1D4B98421ED003F580434C
:1046B000984211D003F5804398421ED040F26931F0
:1046C000134811F03CF825B940F26A31104811F056
:1046D00036F86FF0030038BD09B1114BB9E740F26D
:1046E0006A310B4811F02BF8F7E721B940F26A3133
:1046F000074811F024F80B4BABE721B940F26A31BF
:10470000034811F01CF8084BA3E7636AB8E700BF41
:10471000DE960108701D0320FFFF1F0000000B50F4
:10472000881D03207C1D0320941D032010B5044622
:1047300018B991211F4811F002F823781B0613F0D5
:10474000604F03D092211B4810F0F9FFE3780F2B44
:1047500003D99521174810F0F2FF01212020FEF720
:104760002DFA01212120FEF729FA0122124B2320E4
:104770005A60227812069A606178A27842EA014271
:104780009A61FF229A6200229A631A644FF00042F3
:104790005A654FF0FF3203F500531A65FDF708F82C
:1047A0002320E178FDF712F8BDE810402320FCF744
:1047B000CDBF00BF3297010800000450F8B50126B4
:1047C000C3B2072805460C46174606FA03F603DD72
:1047D000DE21344810F0B3FF1CB9DF21314810F05E
:1047E000AEFF236823F47C1323F00F031BB1E221F7
:1047F0002C4810F0A4FFA37A1B0413F47C0F03D001
:10480000E721284810F09BFFE37A1B0513F07E6F29
:1048100003D0E921234810F092FF237B5B0513F0BE
:10482000FE5F03D0EB211F4810F089FF1E4B27F0DD
:1048300003071E65AB00226803F1A04303F588233C
:104840005A60302202FB05F0637B00F1A04000F5C6
:1048500080200366E37AA27A1B0543EA0243227BA7
:1048600043EA4253C365076714F06CFB0F4B227A8F
:104870005E6502B11E64627A02B19E632279A379F9
:1048800043EA0243084A93616179E37943EA0143C9
:1048900006498B61064B56639E64BDE8F84014F0F0
:1048A0004CBB00BF32970108002004500010045098
:1048B000000004500D4B984208D1A3F5D023C3F853
:1048C0005812802300F58050C3657047084B98420A
:1048D00004D1A3F5D823C3F87412F2E7054B98422C
:1048E00004BFA3F5E023C3F89012EAE700000A50E2
:1048F00000400A5000800A5070B506460C46154626
:1049000022B940F2A6210C4810F019FF24B94FF447
:104910002070FEF779F904466D00013CB4FBF5F414
:10492000064B250213EA042304D040F2CB210248AF
:1049300010F005FFF56170BD83970108070080FF47
:1049400038B5104B044698420D460CD003F5804311
:10495000984208D003F58043984204D04FF439714F
:10496000094810F0ECFE012204F580535A60EB4335
:10497000934003F00A036361656115B904F50054BF
:10498000626038BD00000A508397010810B51B4BC8
:10499000044698420CD003F58043984208D003F5B2
:1049A0008043984204D040F25E41154810F0C7FEA3
:1049B000012204F580535A6040F6AA6341F20502D1
:1049C000636100230F49A360E365E26004F50052D0
:1049D0002361E361E36491640849A3658C4203D1D8
:1049E00023650023636506E007498C42F8D001F592
:1049F00080418C42F4D00123536010BD00000A5066
:104A000083970108FFFF010000400A5038B5294B89
:104A1000044698420D460CD003F58043984208D0D6
:104A200003F58043984204D040F28131224810F0CF
:104A300086FE2046FFF7AAFF012204F580535A6044
:104A40002B8AA26843F001031343AA7B43EA822323
:104A5000A360A3682A7D43EA4273A360AB7C1BB1C9
:104A60002046E97CFFF726FFD5E901122B7B204683
:104A700043F48053E360FFF73FFF6B7B0BB11023E0
:104A800063616B7D1BB1A36843F48033A360AB7D8E
:104A90001BB1A36843F40043A360EB7D2A7E1B0790
:104AA000120503F0E04302F4E0021343A3652B7800
:104AB000636138BD00000A5083970108F0B58FB0DC
:104AC0008A4A0B68054693420C4606AF0BD0884ACB
:104AD000934208D002F58042934204D002F580420E
:104AE000934240F0DB80BC46824E05970FCEACE887
:104AF0000F0096E80F0010368CE80F000FCE0DF176
:104B0000040CACE80F00002D00F0BD8100268422CB
:104B10000021284613F068FB2368744AAE6593426F
:104B200010D0734A934200F09F8002F58042934276
:104B300000F0A08002F58042934200F0A1806E4810
:104B40000FB0F0BD4FF470226C486D492B6001230B
:104B5000A44685F85C302F1DC5E90B122865BCE81A
:104B60000F000FC79CE80F0087E80F00637E012B42
:104B700008BF8DF81D30A37E3BB1012B00F086806D
:104B8000022B02D0032BDAD10623227E8DF81230BD
:104B9000012AE3687CD15B4A93428CBF042305233E
:104BA000059A537700238DF81130574B57480393DC
:104BB00014F04FF92B6D986814F04BF92369DA1F44
:104BC000092ABCD8063B8DF81030237E2BB9E37E32
:104BD000B3FA83F35B098DF81C300121284610F0ED
:104BE00084FA0028ACD1237A2279760142EA034282
:104BF00006F1A04303F57033C3F8AC24617A6279FF
:104C000042EA0142C3F8A424A17AA27942EA01420D
:104C1000C3F8A824E27E002A3ED1E17AE27942EA92
:104C20000142C3F898241D222068C3F8942401A9E6
:104C3000FFF72EF914F086F9354B1A78002A40F068
:104C4000178101221A7014F078F9FCF7CBFC00F000
:104C500041FA002105F1240000F0E4F901460028A2
:104C600000F009812B486BE74FF4801201262A4897
:104C70002A496BE74FF4981202262948294965E72B
:104C80004FF4A0120326284828495FE704237CE755
:104C900000228DF8342089E71C22C5E73E46DFF864
:104CA0009CC0BCE80F000FC69CE8070086E8070020
:104CB000002D00F0E880002684220021284613F011
:104CC00093FA23681A4AAE65934239D002F58042BE
:104CD000934200F0B58002F5804293427FF42FAFFB
:104CE0004FF4B0120226134813492DE00000015B77
:104CF00000C00850D8970108022000F00891010870
:104D000001000F003F4B4C0040420F00349101085E
:104D100077290320092000F0FC9001080100100011
:104D2000F090010801001300E49001080100140054
:104D300000000A50B4900108040016000C98010805
:104D40004FF48022514852492B600023A64685F833
:104D50005C3005F1040CC5E90B122865BEE80F00B4
:104D6000ACE80F009EE80F008CE80F00637E012B7B
:104D700008BF8DF82630A37E43B1012B66D0022BED
:104D800067D0032B7FF4DBAE4FF44073ADF82830CF
:104D9000237E4048012B03BF00238DF825304FF4BC
:104DA000E133E368089314F054F82B6D986814F01D
:104DB00050F823691A1F0C2A3FF6C1AE033B39464F
:104DC00020688DF82430FFF721FEA36923F47F03C8
:104DD00023F47F432BB94FF480322B6803F58053C3
:104DE0009A60237A2779607947EA0347637AA17941
:104DF00040EA034094F81BC0A37A274A41EA0341E2
:104E00007301BCF1000F27D11A44C2F83878C2F8F8
:104E10003008C2F83418E17AE27903F1A04342EA9B
:104E2000014203F57033C3F824281D22C3F820285B
:104E30000121284610F059F900287FF481AEF9E6E7
:104E40004FF4A8120126154815497DE74FF4007369
:104E50009CE74FF4807399E71344C3F83878C3F89C
:104E60003008C3F834181C23413676019351DFE72C
:104E700014F063F8EBE605F1280000F0D3F8002801
:104E80003FF45EAEEEE607485AE600BFCC9001085C
:104E9000020004003491010800C00350C0900108D2
:104EA00002001500012000F02DE9F04F85B09A4670
:104EB000554B06461B780F461546DDF83C909DF88D
:104EC00044B0DDF85080002B00F09780072A00F2F4
:104ED00096800E9B002B00F09280B9F1000F00F03D
:104EE0008E80129BB3F5006F00F38980012803D1F7
:104EF000109B002B00F08380444B03EB05131B7BBE
:104F0000002B7ED0424C10220021684613F06CF931
:104F100004EB45141022A7BB3946204613F064F970
:104F200043F210036380BBF1000F03D1E37843F039
:104F30000303E370364A0E9B02EB451CCCE9019358
:104F4000129B6901581E9DF84C30C0F30A0003F013
:104F500003039B0643EA001E53582E48012E00EA25
:104F600003004EEA0003CDF800A0535017D0B8F16B
:104F7000000F2ED19CF8023068F304138CF8023035
:104F800027E00021204613F02FF94FF4447363808B
:104F9000BBF1000FCED1E37843F03003C9E7132310
:104FA0000CF1100ECCF80C309CE80F008EE80F00CE
:104FB0006FF00301DCF81C20109B61F39F02012FAE
:104FC000CCF81C20CCF8143003D1CCF81890CCF8D5
:104FD000043000270D4A290102EB051342F8018035
:104FE000159A28465A60694622469F605E73FFF70D
:104FF000E5FB384605B0BDE8F08F0748FAE70748FB
:10500000F8E70748F6E700BF78290320A01E032031
:10501000A01D03200F80FFF3028000F0018000F04C
:10502000078000F038B5124B05461B78DBB1E0B1C4
:1050300013F088FF0F4A00231146147B54B92B60EC
:1050400001251A0101EB03131D738C5013F075FF3A
:10505000204638BD0133082B02F11002EDD113F0C8
:105060006CFF0548F5E70548F3E70548F1E700BFA1
:1050700078290320A01E0320048000F0028000F0A5
:10508000018000F038B50E4B04461B78A3B1072809
:1050900014D813F057FF0B4A210102EB04131C7BB9
:1050A00034B9012554501D7313F047FF204638BD15
:1050B00013F043FF0448FAE70448F8E70448F6E72A
:1050C00078290320A01E0320048000F0028000F055
:1050D000018000F013B5154B1868002301908DF87E
:1050E000043013F02FFF124B1C7824B113F025FF6E
:1050F000104802B010BD01221A7013F01EFF0E4BB3
:1051000001A81C731C7783F82C4083F83C4083F87B
:105110004C4083F85C4083F86C4083F87C40082363
:105120008DF80730FFF702FB2046E2E728980108D8
:1051300078290320038000F0A01E0320F8B50D4D50
:105140002D7885B1072810DC0B4D060105EB001406
:10515000277B67B1AB510025069BA5606360FFF715
:105160002DFB2846F8BD0548FCE70548FAE7054849
:10517000F8E700BF78290320A01E0320028000F07A
:10518000018000F0078000F02DE9F041174B1F6D02
:105190005B6D1F4000D5FEE701260025144CDFF8AB
:1051A0005880374218D02368C8F85060A3B1A1686E
:1051B000284601316268A1609847637B012B0BD1BF
:1051C00050B90C4B03EB45131A7B60F341021A7381
:1051D0001A7F60F341021A770135082D4FEA46061F
:1051E00004F11004DDD1BDE8F08100BF00000450DF
:1051F000A01E0320A01D03200020045070B586B01F
:10520000044618B9AC21334810F099FA2368B3F179
:10521000B64F46D1304813F01CFE0025A38801226A
:10522000ADF80030E3880A216846ADF8043000F09C
:10523000A7F801220A2101A800F0A2F80A26684670
:1052400000F012F96420FCF7A1F9684600F0DCF8E0
:105250006420FCF79BF9013EF1D103231F4A02EBC6
:105260000511C1F8283560792379533543EA0043A5
:10527000C1F82C35E179A3792D0143EA014353515B
:1052800040F20113ADF80830E36820680493A36886
:1052900002A90393237C8DF81430FFF771F806B050
:1052A00070BD0F4A93420FD002F58042934206D060
:1052B000D121084806B0BDE8704010F040BA094856
:1052C00013F0C7FD0225A9E7074813F0C2FD012529
:1052D000A4E700BF2C9801083091010800C00350DA
:1052E00000000B50289101082C9101082DE9F04194
:1052F0000C2504464FF00108124E0CB314F00100C7
:105300000BD0002024F0010405FB00625768002F39
:10531000F3D09168C0B2B847EFE7224601302028A9
:105320004FEA520201D0D307F8D508FA00F20F284D
:1053300024EA0204E8D9103805FB0062B432E5E73C
:10534000BDE8F081201F032008B50C4813F081FD53
:105350002720FCF715FA28B12720FCF729FA272087
:10536000FCF7F4F92820FCF70BFA28B12820FCF709
:105370001FFA2820FCF7EAF9002008BD3491010843
:105380002DE9F0410E469046044638B993211C4859
:1053900010F0D5F922252846BDE8F0810F290DD857
:1053A00003782BB1012B0FD0022B10D0032B05D18A
:1053B00040F2FF736278D340DB070BD4972110488B
:1053C00010F0BDF92125E6E740F2FF13F2E743F6BE
:1053D000FF73EFE70B4BD3F810532DB19B21084817
:1053E00010F0ADF90225D6E713F0ACFD07464246B2
:1053F00020463146FCF72CFF384613F09EFDCAE7E5
:105400008798010800C0035038B5044628B91548EC
:10541000E42110F094F9222038BD03782BB1012B40
:105420000FD0022B10D0032B05D140F2FF7362780E
:10543000D340DB070BD40B48E82110F080F9212082
:10544000EAE740F2FF13F2E743F6FF73EFE713F0EA
:1054500079FD0546204613F065FB284613F06DFDE7
:105460000020D9E78798010838B5044628B91648BE
:10547000FC2110F064F9222038BD03782BB1012BF8
:1054800010D0022B11D0032B05D140F2FF736278AC
:10549000D340DB070CD40C484FF4807110F04FF967
:1054A0002120E9E740F2FF13F1E743F6FF73EEE74F
:1054B00013F048FD05462046FCF792FE284613F0FF
:1054C0003CFD0020D8E700BF8798010808B5FCF72D
:1054D000B5FE054B00F0553020F0A040C3F8200485
:1054E000BDE80840FFF702BF00E0035008B5FCF735
:1054F000A5FE054B00F0AA3020F02040C3F82004A0
:10550000BDE80840FFF7F2BE00E0035007B50023F6
:105510002948019313F09DFC4FF4407301220421AC
:105520006846ADF80030FFF72BFF0122234B052022
:10553000C3F8442401A913F087FC002839D1204B7B
:10554000D3F8F02042F00102C3F8F020D3F8FC2099
:1055500042F08072C3F8FC201A4AA3F55D431A603A
:10556000019B194A03F5D52303F2FC43B3FBF2F385
:10557000164A013B13610223C2F8F0304FF48073E6
:10558000C2F804334FF06043114AC3F8B02F114AF8
:10559000C3F8802ED3F8002E42F48072C3F8002E98
:1055A000FF2283F82020D3F8002E22F48072C3F863
:1055B000002E03B05DF804FB3491010800D00350C5
:1055C00000ED00E0FF030040F8590D00000004E08A
:1055D00055CEACC50900010030B54FF06043D3F89B
:1055E000802ED20715D501240B4D8440D5F8FC2020
:1055F00042F08072C5F8FC20D3F8002E2243C3F895
:10560000002E53F82020002AF0D003F820100020AC
:1056100030BD1120FCE700BF00ED00E02DE9F04FA8
:1056200095B00368066D0593436A42680693836AE2
:10563000856B0793C36AD0F814B00893036ED0F853
:105640003C900993C36DDFED586A0A9383690BFBA5
:1056500001FA0B9383680C93036B0D93436C006901
:105660004B43F41A24EAE474F71A9B1B2344534374
:105670000744AF42A8BF2F46019302FB05F3002564
:1056800002FB00F1119302FB04F30E9713911293A6
:10569000059B9D4203DB002015B0BDE8F08F002084
:1056A0000B9B129E53440493584574DB0199139B42
:1056B00001351944DA440191EAE74FF000080C9BE8
:1056C000734402930D9B63440393904547DB01377A
:1056D000964494440E9B9F42EFDBB9F1000F0BD030
:1056E00039F81030F2EE677A07EE103AB2EE477AE8
:1056F00077EE277AF3EE677A089BF2EE677A33F853
:105700001030013007EE103AB2EE477A67EE277A92
:10571000F3EE677AF2EE677AFDEEE77A17EE901A0B
:10572000ADF80830099B1944069B9942B8BF194649
:10573000079B9942A8BF194607EE901AF8EEE77A40
:10574000F3EE677AF2EE677AFDEEE77A17EE901ADB
:10575000049B03F8011B0493119B1E44A4E7029BC6
:10576000F2EE677A13F9011B08F101080293039B1B
:105770000F9113F9011B109103930F990A9B194480
:10578000109B594307EE101AB8EEC77A47EE267AF7
:10579000F3EE677A99E740F20003B446274607EE36
:1057A000903ADDF804E095E7000000382DE9F04F6D
:1057B0002DED048BD3B0436C82462B93836D90ED1B
:1057C000178A3793436DD0F840903893036D90F863
:1057D00048601F93C36CC56B149383681C91399305
:1057E000036B3A93C36A3B9340F20003ADF8423136
:1057F000836946930023519302F03CFB04462EB983
:105800001F9B149A13431CBF21235193379B012BD9
:1058100002D1389B012B07D0212351931C9B002BD5
:1058200040F099805198F9E31C9B002B40F0938045
:10583000519B002BF6D1DAF8043020460F93DAF8AA
:105840001430DAED188A0993DAF80C30BAEEE88AE7
:105850002C93DAF83430B3EE488A2093DAF81C300F
:105860002D93DAF800303C93DAF810301593DAF81B
:1058700038301693DAF8203017930FF04BFF209A48
:105880002C9B002DA3EB0203149A134493FBF9F312
:105890000D93DDE91532A3EB02031F9A13442B9AF3
:1058A00093FBF2F3179A4993099B02FB03F30F9AB8
:1058B0001393169B02FB03F32493249A209B02FB71
:1058C00003F30F9A3293159B02FB03F323932B9B55
:1058D00002FB03F34A93239B159A03FB09F34B93B3
:1058E000BDF824301E9308BF012343930DF5A17327
:1058F00018BF2B4647932C9B53430F9A53434C930B
:10590000179A2D9B5343099A5343409300230E93B8
:1059100040F2002309EE103A0E9B179A93422EDBB9
:105920001C9B002B3FF47EAF02F0A0F851900028A2
:1059300040F074833C9B2D9909985943179B9AF921
:10594000242059439AF928304143DAF8180001F02D
:1059500071FF519066E7DDE9393213433B9A2B43DF
:105960001343DA0707D52123519340F203118248EC
:105970000FF0E5FE56E7519B002BF6D15BE70E9B3F
:105980002B9A1F995A431F9B1698D31A8A1A22EAF8
:10599000E2721892159A1899D21A9042D4BFC1EBAC
:1059A0000001C1EB0201002B27DB0E98499D169EDA
:1059B0009642D8BF28462690269A0E98121A01328F
:1059C0000A920F9A4A4318993192379A01FB02338F
:1059D0000A993F93DDE94A320129D8BF1346239A39
:1059E0002A931343459300230C930C9B2D9A9342C7
:1059F00006DB269B01330E938EE70E9A2692DBE799
:105A00000C9B149A09FB03F3991AD31A2C9A209829
:105A100023EAE373521A9042D4BFC3EB0000C3EBF6
:105A20000200002908907DDB209991427ADCDDE9B3
:105A30000C12521A571C002A79D00A9A012A7CDDCE
:105A4000814563D044DD012FA9EB000B65DC012605
:105A50000D9A0B92BE423246A8BF3A464892139A1C
:105A6000169972432F92721E22922F9AB2F5006FEE
:105A7000229AB8BF00222E9201324E92189A03FB4E
:105A800001220F994A43249911434D910A99012902
:105A9000D8BF394689B241913A998A1842920C9AF4
:105AA000149902FB09F2521A389903FB01232F9A29
:105AB0002593139BB2F5006FB8BF134633930023B1
:105AC0001193119B489A93423ADB0B9B01338BE76E
:105AD000089A089992FBF9F209FB121B1646BBF1D2
